:1000000000800010D14D0000014E0000034E0000A2
:10001000054E0000074E0000094E000000000000E1
:100020000000000000000000000000000B4E000077
:100030000D4E0000000000000F4E0000114E0000A9
:10004000134E0000134E0000134E0000134E00002C
:10005000134E0000134E0000134E0000134E00001C
:10006000134E0000134E0000134E0000134E00000C
:10007000134E0000134E0000134E0000134E0000FC
:10008000134E0000134E0000134E0000134E0000EC
:10009000134E0000134E0000134E0000134E0000DC
:1000A000134E0000134E0000134E0000134E0000CC
:1000B000134E0000134E0000134E0000134E0000BC
:1000C000134E0000134E0000134E000010B5054CF7
:1000D000237833B9044B13B10448AFF300800123F4
:1000E000237010BD6801001000000000E47D0000D6
:1000F000084B10B51BB108480849AFF30080084809
:10010000036803B910BD074B002BFBD0BDE81040BE
:10011000184700BF00000000E47D00006C010010E3
:1001200068010010000000000346426808200A70C1
:100130005A68C2404A70DA888A70DA79CA709A6856
:100140000A719A68C2404A715A898A71DB7ACB7106
:10015000704700BF024610B40B78082053604C78FB
:1001600043EA042353608C7843EA04435360CC7819
:1001700043EA046353600B7993604C7943EA0423A8
:1001800093608C7943EA04439360C9795DF8044B2A
:1001900043EA016393607047004870476875000048
:1001A0000048704778750000004870479C75000053
:1001B00000487047B875000000487047DC750000C3
:1001C00000487047F075000000487047487700000D
:1001D00000487047147600000048704738760000E9
:1001E0000048704758760000004870477C76000051
:1001F000004870479876000000487047BC760000C1
:1002000000487047D8760000C269C3681168D0F80A
:10021000AC2019420CBF4FF0FF3301231344C0F848
:10022000AC30704770B5D0F8B4500446D0F8AC008C
:1002300004F0B2FE0146284604F002FF29460646B5
:100240004FF07E5004F0F2FDD4F8B01004F0F8FE48
:100250000146304604F0ECFD0023C4F8B000C4F8B9
:10026000AC3070BD4B68DA0705D55B100A68C15821
:1002700018448A5810470A6800EB6300104700BF13
:10028000006C704700487047BC760000004870471B
:10029000D876000090F8FC05704700BF2DE9F041CA
:1002A0008046144C144F0025D8F82C303968585922
:1002B00004F0C6FE94F82030064600218BB105F00C
:1002C0005DF898B9A369E2681A60204626F00041FB
:1002D000043503F0D9FB102D04F1B804E4D1BDE8D6
:1002E000F081002105F04AF80028EBD16369E2684B
:1002F0001A60EAE700080010CC000010F0B40546D0
:10030000086882B001900198CF1C061D042E08D900
:100310003B46C41C0C4413F8012FA34203F8012CE4
:10032000F9D10A180023D3706F608B5D0C30AB607D
:10033000517943EA0123AB60917943EA0143AB6011
:10034000D17943EA0163AB60137AEB60517A43EAF7
:100350000123EB60917A43EA0143EB60D27A43EAEE
:100360000263EB6002B0F0BC704700BF0B46F0B414
:1003700013F8012B06460271186882B00190019DA6
:100380000F1D681D052808D93B462C1D0C4413F889
:10039000012FA34203F8012CF9D10D4400232B7146
:1003A000B76002B0F0BC7047F0B40B7805468380AC
:1003B0004A7884B043EA02238380D1F802004F1DBB
:1003C0000190019A961D062E08D93B46541D0C44F7
:1003D00013F8010FA34203F8010CF9D18B18002088
:1003E0005871AF60885904360290029B33449E4294
:1003F00009D2304609320A4412F8014F01309842BE
:1004000002F8014CF8D3013E0E44CA18002002F84D
:10041000010CEE6010681E1D039003983044864264
:1004200009D2324603330B4413F8014F01328242A2
:1004300003F8014CF8D3013E0C180E44002304F8D5
:10044000013C2E61A37866780A5C1B04E17843EADC
:100450000623134343EA016304306B6104B0F0BC2C
:10046000704700BF2DE9F04103790C7882B0A342B8
:1004700005460E46C0F082802C71002C00F087806B
:10048000334605F10807002004249A7993F805E023
:100490001979120442EA0E2293F807E00A4342EA6D
:1004A0000E62AA60D7F800E0EA68411C42F820E03A
:1004B0002A79C8B2824204F1040403F10403E4D8A7
:1004C000234616F803802B7C271D43453C4666D304
:1004D00085F81080B8F1000F1FD0331905F1140E04
:1004E0000020C6F104079A785C781978120442EA71
:1004F0000422DC780A4342EA04626A61DEF80040C2
:10050000AA69411C42F820402A7CC8B2824207EB0B
:10051000030403F10403E6D82746F75D2B7FBB42B3
:1005200044D3231D2F772FB30027BC4605F1200E9F
:10053000F0581C1D019001982044844209D22246A3
:100540000333334413F8011F0132824203F8011CC4
:10055000F8D3013C3318344403F801CC2C626A6AA6
:10056000DEF800107B1C42F827102A7FDFB2BA4267
:100570000346DDD8184602B0BDE8F081C068A1008E
:1005800002F024FB2C71E860002C7FF479AF042387
:1005900016F803802B7C082743453C4698D2A8696F
:1005A0004FEA880102F012FBA86191E7686AB9007E
:1005B00002F00CFB6862B4E770B5054682B00C46E9
:1005C000406806F078F92346064602AA42F8040D70
:1005D0001068324643F8040B6968184605F0B8FA0B
:1005E000AB68A1190B71AB6806F10C001B0A4B71CB
:1005F0006B898B71EB7ACB71EB680B72EB681B0A22
:100600004B72EB898B72EB7BCB7202B070BD00BF7B
:100610002DE9F043037900240B704C708C70CC7082
:10062000037983B0002B6FD00B460425C268661C8B
:1006300052F82420F4B24FEA122E170C160E1A713B
:1006400083F805E09F71DE7102790435A24203F15F
:100650000403EBD82A1D164605F1010C05F1020E24
:10066000EF1C037C00244B5501F80C4001F80E40B0
:10067000CC55037CEBB101EB060843468269E5B239
:1006800052F82520651C170E4FEA122C4FEA124E25
:1006900008F8242083F801C083F802E0DF70077CAB
:1006A000EAB2974206F1040603F104032C46E5D8AA
:1006B0003246057F8B1900248D545C709C70DC7071
:1006C000037F0436E3B1884607467B6A06F10409D6
:1006D00053F8240006F0EFF80546019001982A46E9
:1006E00048F806007B6A08EB090053F8241005F06F
:1006F0002FFA01343B7FE4B2A34209EB0506E4D8AC
:10070000304603B0BDE8F0830822164607274FF0B5
:10071000060E4FF0050C0425A3E700BF70B5037962
:1007200082B00B70064680680D4606F0C4F8044699
:1007300002AB43F8040D18682246C5F80100B16801
:10074000681D05F005FA601D02B070BD83882DE9B3
:10075000F0410B70838884B01B0A4B70064680689A
:100760000C4606F0A8F8074604AB43F80C0D1868D1
:100770003A46C4F80200B168A01D05F0E9F9F06836
:1007800006F099F8054604AB43F8080D1868BB1D40
:10079000E05007F10A08F1682A4604EB080005F06A
:1007A000D7F9306906F087F8074604AB43F8040D23
:1007B000186845446051043531693A46601905F0BE
:1007C000C7F97369E819221823541F0A1E0C190E61
:1007D000043057709670D17004B0BDE8F08100BF4E
:1007E0002DE9F04F037900260B704E708E70CE709D
:1007F000037983B083468946002B59D0DFF8C0A027
:100800004FF004082AE0606806F055F8074602AB8E
:1008100043F8040D18683A4649F808006168281D35
:1008200005F096F9A368E9190B71A36807F10C00AC
:100830001B0A4B7163898B71E37ACB71E3680B728E
:10084000E3681B0A4B72E3898B72E37BCB72013640
:100850009BF80430F6B2B34280440DD9DBF818405F
:100860003301E2581C44136809EB08055345CAD00C
:10087000204629469847EAE708F1010408F10201F9
:1008800008F1030208F10400DBF81C3009F8083015
:10089000DBF81C301B0A09F80430BBF81E3009F8DD
:1008A00001309BF81F3009F8023003B0BDE8F08F2B
:1008B00008200722062105244FF00408E4E700BFC2
:1008C000B90500002DE9F04703790D7882B0AB42FD
:1008D00004460F4678D32571002D7DD00025AC4607
:1008E00004F108064FF0040E07EB0E08D8F80000DC
:1008F00008F1030A0190019800F10409B9F1040F0D
:1009000008D95346C11C414413F8012F8B4203F808
:10091000012CF9D108EB000282F803C0C4F80CA046
:1009200018F80930D4F81880236192F8059029014D
:1009300043EA0923236192F806900C3043EA094305
:10094000236192F80790864443EA09632361137A8E
:1009500008EB0100636192F80990013543EA09232D
:10096000636192F80A90EDB243EA09436361D27A77
:1009700043EA02636361F368D6F800A0D6F80490F6
:10098000B26848F801A0C0F804908260C36023797F
:10099000AB42A9D80EF101050EF102010EF10302DE
:1009A0000EF1040017F80E30E3617D5D43EA052384
:1009B000E361795C43EA0143E361BA5C43EA0263C1
:1009C000E36102B0BDE8F0878069290102F0FEF81A
:1009D0002571A061002D81D108200722062105255F
:1009E0004FF0040EDEE700BF2DE9F04F037A00263A
:1009F0000B704E708E70CE70037A83B0804689463D
:100A0000002B00F08980DFF82CA14FF0040B2AE0C6
:100A1000606805F050FF074602AB43F8040D186804
:100A20003A4649F80B006168281D05F091F8A36863
:100A3000E9190B71A36807F10C001B0A4B7163895C
:100A40008B71E37ACB71E3680B72E3681B0A4B721C
:100A5000E3898B72E37BCB72013698F80830F6B2EB
:100A6000B34283440DD9D8F81C403301E2581C44EA
:100A7000136809EB0B055345CAD020462946984711
:100A8000EAE70BF10402101D0BF105060BF1060558
:100A90000BF107040BF1010C0BF1020E0BF1030734
:100AA000D8F82030002109F80B30D8F820301B0A84
:100AB00009F80C30B8F8223009F80E3098F82330D5
:100AC00009F8073098F8243009F8023009F80610C0
:100AD00009F8051009F8041098F82430CBB18144C6
:100AE0004B46D8F82C20CCB252F824204C1C150EC2
:100AF000170A160C09F821205F709E70DD7098F8B7
:100B00002450E2B2954200F1040003F104032146AF
:100B1000E7D803B0BDE8F08F082207274FF0060E94
:100B20004FF0050C4FF0040B0B240C200A2509266E
:100B3000B6E700BFB90500002DE9F04F037D0D7841
:100B400083B0AB420446884600F10C09C0F0A58092
:100B50002575002D00F0AA800025AA4604F118078B
:100B60004FF0040E08EB0E06306806F1030B0190FF
:100B7000019800F1040CBCF1040F08D95B46C11CBC
:100B8000314413F8012F8B4203F8012CF9D13218AC
:100B900082F803A0C4F81CB016F80C30A66A2362D1
:100BA00092F805C0290143EA0C23236292F806C09B
:100BB0000C3043EA0C43236292F807C0864443EAB0
:100BC0000C632362137A7018636292F809C00135CE
:100BD00043EA0C23636292F80AC0EDB243EA0C4385
:100BE0006362D27A43EA02636362FB68D7F800B0BB
:100BF000D7F804C0BA6846F801B0C0F804C08260F3
:100C0000C360237DAB42ADD80EF10402161D0EF178
:100C100001050EF102000EF1030118F80E3094F8F0
:100C20003070E36218F8055043EA0523E36218F8D0
:100C3000000043EA0043E36218F8011043EA01634D
:100C4000E36218F80250AF4238D384F83050F5B15F
:100C5000B04404F13400002198F8023098F80150B3
:100C600098F800201B0443EA052398F80350134327
:100C700043EA056363630568A36B4A1C43F821508C
:100C800094F83030D1B28B4208F10408E4D84846D9
:100C9000E36B03B0BDE8F04F1847806A290101F00B
:100CA00095FF2575A062002D7FF456AF082207211D
:100CB000062005254FF0040E0C26AEE7A06BA90018
:100CC00001F084FFA063C0E72DE9F047037A0D78B7
:100CD00082B0AB4204460F46C0F0A3802572002DBF
:100CE00000F0A8800025AC4604F10C064FF0040E7D
:100CF00007EB0E08D8F8000008F1030A01900198EC
:100D000000F10409B9F1040F08D95346C11C41444C
:100D100013F8012F8B4203F8012CF9D108EB0002E4
:100D200082F803C0C4F810A018F80930D4F81C8069
:100D3000636192F80590290143EA0923636192F8FF
:100D400006900C3043EA0943636192F807908644A9
:100D500043EA09636361137A08EB0100A36192F827
:100D60000990013543EA0923A36192F80A90EDB294
:100D700043EA0943A361D27A43EA0263A361F368B9
:100D8000D6F800A0D6F80490B26848F801A0C0F8E0
:100D900004908260C360237AAB42A9D80EF10402AA
:100DA000161D0EF101050EF102000EF1030117F8F8
:100DB0000E3094F824E023627D5D43EA052323622C
:100DC000385C43EA00432362795C43EA01632362AF
:100DD000BD5CAE4536D384F82450F5B1BB1904F19F
:100DE0002805C7F1040700209A785E781978120464
:100DF00042EA0622DE780A4342EA0662A2622E68CE
:100E0000E26A411C42F8206094F82420C8B2824271
:100E100007EB030603F10403E6D8304602B0BDE851
:100E2000F087C069290101F0D1FE2572E061002D33
:100E30007FF458AF08220721062005254FF0040E45
:100E40000C26B4E7E06AA90001F0C0FEE062C2E748
:100E50002DE9F047632984B00F46044603DD90F87E
:100E6000FC55002D4AD0136810461B6804F2273148
:100E7000984785B2C2B24FEA152C0CEB020E6FEA0E
:100E80000E0EF9B204F2253605F226304FF0FF09B6
:100E90004FF0FE0847F3072784F82223334684F8EF
:100EA00024E384F823C3204484F8209384F8218326
:100EB00084F8251384F82673002201E013F8011F3B
:100EC00083420A44FAD1D243EB1D08359BB2ADB23E
:100ED0002344B5F5007F83F8202313D804F5487622
:100EE00065B16B1E04F144071E4404F21F3414F86C
:100EF000011F384603F036FDB442F8D1284604B04D
:100F0000BDE8F0873149324D0322236801910395F2
:100F10008DF808201B682F498B4250D104AB382133
:100F200043F8101D186884F82723C4F8280305F136
:100F3000300C04F54B77AE46BEE80F00E64538604E
:100F40007960BA60FB6005F1100507F11007F2D176
:100F500003CD4FF0000E4FF0070C4FF0FF0A4FF09B
:100F6000FE094FF03D08C22579603860734662463D
:100F700004F2633184F823E384F826E384F825C37C
:100F800084F820A384F8219384F8228384F82453DE
:100F900001E016F8012F8E421344FAD1DB4304F12D
:100FA000440684F8643304F21F3504F5597415F8C7
:100FB000011F304603F0D6FCA542F8D103E02046DD
:100FC000072101AA98474FF0FF3597E7C874000042
:100FD000FC760000510E00002DE9F0410446174652
:100FE0001E4600259DF8188002F09CFD394604F14C
:100FF0000800A560E56025616561A561E56102F015
:10100000D9F904F17C07314684F8208004F12400EA
:1010100003F074FB384603F03FFD1B4B4FF0000814
:10102000E36720464146C4F89450C4F8A85002F043
:101030002BFDA369E26820461A60282102F050FDCA
:10104000124E134B134A0121C4F8B42023650A46FB
:1010500004F14000C4F8B080C4F8AC50E4646565A5
:10106000266602F061FC0C4B3846C4F89440C4F884
:101070009C50C4F8A860C4F89830084903F0C2FC3A
:101080002046BDE8F08100BFA87B0000650200009B
:1010900009020000CDCCCC3D25020000A086010055
:1010A0002DE98048DFF880A389B00AF10400DAF85E
:1010B000001103F0D9FB00221346CAF8E825CAF84C
:1010C000EC25CAF8F425CAF8F0250AF5B06252F802
:1010D000041F19B10133192BF9D106E0CF4A0AEBED
:1010E00083016433C1F884255360CD4B0193A3F58C
:1010F000487B0EE09AF8FC3543B140F6C412DBF8A9
:101100000036C3EB0903934200F2F381012002F0A1
:1011100085FAC44803F0AAFC42F6F822DAF804364D
:101120008146C31A934284BF00238BF8FC35DAF85A
:10113000E83533B1DBF80836984284BF0023CBF89A
:10114000E835DFF8F082B84C201D01F0E9FE0646D4
:101150000028CFD1201D012101F062FD0028C9DB4C
:10116000DBF8F835DBF8E8550344072DCBF8F83504
:1011700000F0038155B9FF2840F01381012209F1E5
:101180001403CBF8E825CBF80836DCE7012D00F096
:101190001481022D00F06E81032D00F07581042D65
:1011A00000F07C81052D00F08881062D00F08D81F6
:1011B000082DC8D19D4A00211A408A42CAF8E81574
:1011C000C0F2E181FF2ABED1DAF8F035964D002B4E
:1011D00000F0FA820A2B00F09482062B00F0DC81EA
:1011E0000B2B00F0D5810BEB8303D3F8F443002CD9
:1011F000A9D023688E4A1B68934240F096849BF8DE
:101200002051237D04F10C02AB42029204D2A06A69
:10121000290101F0DBFCA0622575002D00F0EE84B1
:1012200004239E46002604F11805CDF80C900EF517
:1012300090775744386807F1030C0790079800F13E
:101240000409B9F1040F08D96346C11C394413F8E5
:10125000012F8B4203F8012CF9D14FF000033A180B
:10126000D370C4F81CC017F809300C30236292F810
:1012700005C0864443EA0C23236292F806C0A76A9D
:1012800043EA0C43236292F807C0310143EA0C633E
:101290002362137A0136636292F809C0F6B243EA18
:1012A0000C20606292F80AC07B1840EA0C40606231
:1012B000D27A40EA02606062D5F80090D5F804C0A6
:1012C000A868EA6847F80190C3F804C09860DA603B
:1012D000237DB342ABD87346DDF80C901A1D151D63
:1012E0005E1C981CD91C534493F820315644E36289
:1012F00096F82061504443EA0623E36290F8200107
:10130000514443EA0043E36291F82011524443EA16
:101310000163E36292F8206194F83030B34204D262
:10132000A06BB10001F052FCA06384F8306006B3FA
:101330000AEB05010E4604F13405002091F8223134
:1013400091F8217191F820211B0443EA072391F8B9
:101350002371134343EA076363632F68A36B8A1BFC
:101360009F50013094F83030C0B2834201F1040143
:10137000E4D8E36B02989847E5E6DBF8F425DBF860
:10138000EC35511C013B5A44CBF8F41582F820018E
:10139000CBF8EC35002B7FF4D6AE0823CAF8E8353D
:1013A000D1E604F5827003F061FBC9EB000005286B
:1013B0007FF6C9AE84F8FC55A8E6FE2879D09BF8E4
:1013C000FC15CBF8E86500297FF4BDAE0A200B467A
:1013D0008BF827138BF828138BF829138BF82A1313
:1013E0008BF82B138BF82C138BF82D138BF82E13F3
:1013F0008BF823138BF82613FE210246FF258BF86A
:1014000025038BF821130820F72104F225348BF8EB
:1014100020538BF822038BF824130FE0BC07001035
:10142000A40400108802001084010010FF00008056
:10143000390B0000B204001014F8012F4445134486
:10144000FAD1DB43019A8AF82F33144602F10F06D2
:10145000FF2101E014F8011FD24D05F1440003F013
:1014600081FAB442F6D105F5827003F0FFFAC5F8AF
:10147000140168E60323CBF8EC05CBF8F465CBF850
:10148000F805CBF8E8355EE6DBF8EC35042203EB33
:101490000020CBF8EC05CBF8E82554E6C24A1A4008
:1014A000002A21DBFF2A0CBF05230023CAF8E835F8
:1014B00049E60223CBF8E83545E60623CBF8F005EC
:1014C000CBF8F805CBF8E8353DE6DAF8F035DAF890
:1014D000EC2503EB00230721CAF8F035CAF8E8151C
:1014E000002A3FF45AAF2EE6013A62F0FF020132C1
:1014F000D8E70A24FF25AD4B00202146FE268BF8B5
:1015000025438BF82053F724082502468BF8270340
:101510008BF828038BF829038BF82A038BF82B030D
:101520008BF82C038BF82D038BF82E038BF82303F9
:101530008BF826038BF8216303F109008BF8225303
:101540008BF8244301E013F8011F83420A44FAD1C7
:10155000D243019B8AF82F231C4603F10F06FF217B
:1015600001E014F8011F8F4D05F1440003F0FAF972
:10157000B442F6D105F5827003F078FAC5F800960A
:10158000C5F81401C2E5013A62F0FF02013219E622
:1015900000238BF8FC35D6E59BF820419BF81436E8
:1015A000A34206D2DBF81C06A10001F00FFBCBF82A
:1015B0001C068AF81446002C00F02883DFF8E4A10A
:1015C00000265446042594F8263194F8251194F801
:1015D00024211B0443EA012394F82711134343EA0F
:1015E0000163CAF81836724BDAF81C261868CBEB80
:1015F0000403D05001369AF81436F6B2B34205F11E
:10160000040504F10404DED82E1D3446554495F833
:1016100020519AF82036AB4206D2DBF82806A90002
:1016200001F0D4FACBF828068AF8205625B30BEB44
:1016300004052F46002695F8223195F8211195F8DA
:1016400020211B0443EA012395F82311134343EAA5
:101650000163CAF82436574BEA1B1868DAF82836B3
:10166000013698509AF82036F6B2B34204F10404D9
:1016700005F10405DFD82646564496F820519AF81D
:101680002C36AB4206D2DBF83406A90001F09EFAF4
:10169000CBF8340604348AF82C5675B30027BE46BE
:1016A00004F590735AF80300261D0790079D3544F2
:1016B000B5420CD9334604F591725A440AEB030142
:1016C00091F8201101339D4202F8011FF6D806F26D
:1016D0001F135344CAF83036374B0AEB050218681B
:1016E000DAF8343682F81FE143F827009AF82C36EE
:1016F0000137FFB2BB422C46D2D801238AF80C3600
:1017000021E505F5827003F0B1F99BF822119BF8F1
:1017100026319BF821E19BF8256109049BF8207193
:101720001A0441EA0E239BF824119BF827E1DBF809
:10173000144142EA06229BF823610A433B431F4FB0
:1017400042EA0E62041B43EA066305F58270174401
:101750005E1E03F08BF91A4B1949A3FB0423A1FB6E
:1017600000E14FF47A729B0902FB1344890902FBE2
:1017700011021448334400FB047700FB12725B1A19
:1017800005F58C7005F58E71CBF81C21CBF818315E
:1017900001F030FA05F5827003F068F9CBF8040621
:1017A000D1E400BF84010010FF000080A9040010F4
:1017B0009C070010A8070010B407001000CA9A3B4D
:1017C000D34D621040420F0085F8273385F8283347
:1017D00085F8293385F82A3385F82B3385F82C339F
:1017E00085F82D3385F82E3385F8233385F8263395
:1017F0001946FE230A2485F8202385F82133082280
:10180000F72385F8243385F8254385F8222305F24C
:101810002E33204605F2253501E015F8010F9D42D3
:101820000144FAD1C943C44B8AF82F1301931D46D2
:10183000FF2101E015F8011FC04C04F1440003F042
:1018400091F804F22F339D42F4D104F5827003F035
:101850000DF904F5B063C4F8140104F21C580293A6
:1018600058F8043F002B00F09F8058689A68016880
:10187000039289681F688847D8F800300446586882
:101880000368DB689847D8F8003006461D69039A5C
:10189000632D04DD9AF8FC35002B00F08580C2F33F
:1018A000072338468AF827238AF8283305F003F8F7
:1018B000034605900598A24A394610601A46A14889
:1018C000039304F045F9204604F0F5FF039B0690CE
:1018D000214607469C4C06989A1DA05020460A3384
:1018E0003A461844039304F033F9304604F0E3FF1A
:1018F0000446039B07900798934A1F44D05192488F
:101900003B1D314622461844039304F021F9039B02
:10191000002023441E1DB4B2210AF6B28F19FF43E2
:1019200053444FF0020E83F828E383F8270383F82B
:10193000290383F82A0302464FF0FF0E04F22630F3
:101940008AF824738AF82313FE27E9B245F30725A2
:101950008AF822637D4B50448AF820E38AF8217389
:101960008AF825138AF8265301E013F8011F8342F1
:101970000A44FAD1D243E11D04F1080389B29BB2B3
:101980005144B3F5007F81F8202300F243815BB11D
:1019900003F21F336E4C0BEB030514F8011F6D4867
:1019A00002F0E0FFAC42F8D1029B98457FF458AFBB
:1019B000694BA3F1640858F8040F002800F09980DF
:1019C00090E8880065499A6886688A4240F0A78056
:1019D000634DDA6863498A4240F09B80624C5B68E1
:1019E000624A934240F09280036C632B03DD9AF8C5
:1019F000FC25002A7DD0C7F30722304602938AF8DF
:101A000027738AF8282304F056FF074605904C4BAD
:101A10000598314618603A46181D04F099F8284692
:101A200004F049FF06460690474B0698BA1D0A3750
:101A3000985029463246D81904F08AF8204604F016
:101A40003AFF05460790404B3E440798371D985192
:101A500021462A46D81904F07BF879190D1DACB23D
:101A60004FEA142EEDB20EEB0506F643029B002062
:101A70005144022781F8287381F8270381F829034C
:101A800081F82A030246D9B204F22630FF278AF8E9
:101A900024638AF823E3FE2643F3072E8AF82253B1
:101AA0002A4B50448AF820738AF821638AF8251358
:101AB0008AF826E301E013F8011F83420A44FAD1B1
:101AC000D243E11D04F1080389B29BB25144B3F53E
:101AD000007F81F820234BD85BB103F21F331C4CED
:101AE0000BEB030514F8011F1A4802F03BFFAC4250
:101AF000F8D1194B98457FF45EAF0123CAF80096E0
:101B0000CAF804968AF8FC35FFF700BB98470346ED
:101B10006BE790470446D8F8000003685FE79047FA
:101B20000546D8F80000036853E7204605F5907194
:101B30009847FFF708BB00BFA40400108401001001
:101B4000AD040010B1040010AB040010A904001093
:101B5000A3040010C80100106807001085020000EF
:101B6000BC7600008D020000D876000081020000E3
:101B70004B4D4C4C0FCD0FC40FCD0FC40FCD0FC428
:101B800095E8030003238BF827333823CBF8283359
:101B9000FF2384E803008BF82033FE238BF82133E6
:101BA0003D2300274FF0070E8BF82233C2238BF81A
:101BB000237304EB0E023E46F446373C8BF8267343
:101BC0008BF825E38BF8243301E014F801CF94421D
:101BD0006644FAD1F343344D8AF86433A5F14404E2
:101BE000FF2101E014F8011F304802F0BBFEAC42B7
:101BF000F8D12F4B98457FF4DEAE7EE7082207210F
:101C00000620052604230C25FFF76DBB0826344665
:101C10000425FBE4224D234C0FCD0FC40FCD0FC480
:101C20000FCD0FC495E8030003238BF82733382327
:101C3000CBF82833FF2384E803008BF82033FE23FE
:101C40008BF821333D2300274FF0070E8BF822330A
:101C5000C2238BF8237304EB0E023E46F446373C56
:101C60008BF826738BF825E38BF8243301E014F806
:101C700001CF94426644FAD1F3430B4D8AF86433A2
:101C8000A5F14404FF2101E014F8011F074802F008
:101C900069FEAC42F8D1029B98457FF4E1AD87E63E
:101CA000FC760000B0040010E8040010C801001029
:101CB000680700102DE9F04F8046C54BC54991B02B
:101CC000002200F5B06700F21C5B0A910C930D93A3
:101CD0000E93ADF82C200F9201975BF8043F002B78
:101CE00000F0BF8058681C6801689A680C948B6883
:101CF000ADF82C209847DBF800300D905868036849
:101D0000DB689847D8F80030DBF800104FF4007219
:101D10000E901B680D690F92AF4A8246934240F0C5
:101D20009481632D04DD98F8FC35002B00F0998038
:101D3000BDF82C300C9C1A0A88F8273388F8282321
:101D4000204604F0B8FD064610AB43F82C0D186889
:101D500021463246C8F8290308F22D3003F0F8FE78
:101D600010AB0D9F1C46384604F0A5FD2346814666
:101D7000069053F8280D08F227340393B31D0A3652
:101D8000E05039464A46A01903F0E2FE504604F0FE
:101D900092FD0346079010AFB14457F8240D09F1A6
:101DA000040644F8090051461A46A019029303F0AC
:101DB000CFFE029B4FF0000EF018061DB1B24FEAA5
:101DC000112AF6B20AEB060C6FEA0C0C04F800E0DC
:101DD00004EB0009022089F802E089F803E089F8A1
:101DE000010008F22533724601F22630FF2488F8FC
:101DF00024C34FF0FE0E5FFA85FC45F307250293DE
:101E000088F823A388F82263404488F8204388F8A0
:101E100021E388F825C388F8265301E013F801CFA1
:101E200083426244FAD1D243C81D01F1080380B253
:101E30009BB208EB0001B3F5007F81F8202300F28C
:101E4000238108F5487563B1013B1D4408F1440640
:101E500008F21F3414F8011F304602F083FDAC4233
:101E6000F8D1019B9B457FF438AF1F4608F2E4533D
:101E7000029357F8040F002800F0DD8082680368A1
:101E800041680C929A68ADF82C1054498A4240F08F
:101E9000F680534A0D92DA6852498A4240F0EA804D
:101EA000514A0E925B68514AD8F800404FF40071D5
:101EB000934224680F9140F0DA80056CDFF81891A6
:101EC0004C4540F0CB80632D04DD98F8FC35002BA9
:101ED00000F0B180BDF82C300C9E1A0A88F8273328
:101EE00088F82823304604F0E6FC044610AB43F89B
:101EF0002C0D186831462246C8F8290308F22D3007
:101F000003F026FE0D9E10AB3046019304F0D3FC87
:101F10008346019B069053F8280D04F10A0A0193A9
:101F2000A31D08F22734E0505A46314604EB0A005C
:101F300003F00EFE0E9910AE0846039104F0BBFCB0
:101F400003460790D34456F8240D0BF1040A44F8D5
:101F50000B0003991A4604EB0A00039303F0F8FD03
:101F6000039B0F980AEB030101F1040E1FFA8EF296
:101F70004FEA122B5FFA8EFE0BEB0E0C6FEA0C0C85
:101F8000605404EB010A010A8AF80110010C000EEA
:101F90008AF802108AF8030008F22533FE2002F2C4
:101FA0002631FF2488F824C35FFA85FC45F3072512
:101FB00088F82103039388F823B388F822E3414487
:101FC00088F8204388F825C388F82653002011E0BC
:101FD00034770000B0740000510E0000850200004C
:101FE000BC7600008D020000D8760000810200005F
:101FF00013F801CF8B426044FAD1C043D11D02F1E6
:10200000080389B29BB208EB0102B3F5007F82F8A6
:10201000200300F2978008F5487563B1013B1D4429
:1020200008F1440608F21F3414F8011F304602F08C
:1020300099FCAC42F8D1029B9F427FF41AAF012376
:1020400088F8FC3511B0BDE8F08F294640460AAA51
:102050009847019B9B457FF440AE06E729464046E2
:102060000AAAA047029B9F427FF403AFE7E7984785
:10207000054623E7904702463868036811E7904712
:1020800002463868036805E7624963480322D8F8C6
:102090000030079109908DF820201B685F498B4222
:1020A00040F0AD8038230693039B5B4C186888F89A
:1020B0002723C8F8280308F54B7526460FCEEB609A
:1020C000574B28609E426960AA6004F1100405F134
:1020D0001005F2D103CC00260727029B4FF0FF0E1C
:1020E000286069603D20C221FE2588F8241332460D
:1020F0003C4688F8236388F8266388F8257388F8B7
:1021000020E388F8215388F8220308F2633101E0C4
:1021100013F8014F8B422244FAD1D24308F144060E
:1021200088F8642308F21F3408F5597514F8011F64
:10213000304602F017FCAC42F8D1019B9B457FF47E
:10214000CCAD92E6334934480322D8F800300990E8
:1021500007918DF820201B684B4555D138230693F5
:10216000019B2D4C186888F82723C8F8280308F528
:102170004B7526460FCEEB60294B28609E42696066
:10218000AA6004F1100405F11005F2D103CC002679
:102190004FF0070E039B4FF0FF0C286069603D2055
:1021A000C221FE2588F824133246744688F823633A
:1021B00088F8266388F825E388F820C388F8215337
:1021C00088F8220308F2633101E013F8014F8B42D3
:1021D0002244FAD1D24308F1440688F8642308F275
:1021E0001F3408F5597514F8011F304602F0BAFB88
:1021F000AC42F8D1029B9F427FF43BAE1FE73A46C8
:102200004046072198472CE632464046072198472A
:1022100011E700BFC8740000FC760000510E0000FA
:102220002C7700002DE9F04F044600F5827A8BB040
:10223000504602F01BFC42F6F822D4F804368346DE
:10224000C31A934284BF002384F8FC35D4F8E835E0
:1022500033B1D4F8083683423CBF0023C4F8E835D4
:1022600004F10409484600F05BFE064678B194F894
:10227000FC0548B140F6C412D4F80036C3EB0B039A
:10228000934200F2D58100200BB0BDE8F08F4846A4
:10229000012100F0C5FC0028E9DBD4F8F835D4F8BA
:1022A000E8550344072DC4F8F83500F0048155B90A
:1022B000FF2840F0148101220BF11403C4F8E82533
:1022C000C4F80836CEE7012D00F01881022D00F089
:1022D0006D81032D00F07481042D00F07B81052DAC
:1022E00000F08781062D00F08C81082DBAD1CC4AF0
:1022F00000211A408A42C4F8E815C0F2FD81FF2A85
:10230000B0D1D4F8F035002B00F019830A2B00F07F
:10231000AD82062B00F0FE810B2B00F0F78104EB61
:102320008303D3F8F453002D9CD02B6804F59072EE
:1023300001921B68BB4A934240F0F48294F82061FA
:102340002B7D05F10C02B3420292C0F0E5822E759E
:10235000002E00F0EB82042307AACDF810909C46D3
:1023600091460594019C002705F11806CDF80CA0B4
:1023700004EB0C0EDEF800000EF10308C9F80000B3
:10238000079800F1040ABAF1040F08D94346C11CAA
:10239000714413F8012F8B4203F8012CF9D14FF04F
:1023A00000030EEB0002D370C5F81C801EF80A3043
:1023B0000C302B6292F80580844443EA08232B6298
:1023C00092F80680D5F828E043EA08432B6292F899
:1023D0000780390143EA08632B62137A01376B6285
:1023E00092F80980FFB243EA0820686292F80A80F6
:1023F0000EEB010340EA08406862D27A40EA0260CC
:102400006862D6F800A0D6F80480B068F2684EF88A
:1024100001A0C3F804809860DA602B7DBB42A7D886
:102420006346DDF80CA01A1DDDF81090059C0CF138
:10243000010E161D981C0CF1030C019995F83070D3
:10244000CB5CEB6211F80EE043EA0E23EB62085C12
:1024500043EA00430846EB6211F80C1043EA0163BB
:10246000EB6210F802804745C0F04F8285F830805B
:10247000B8F1000F1BD0019B00203344194605F131
:1024800034068B784F780A781B0443EA0723CF7809
:10249000134343EA07636B633268AB6B043143F861
:1024A000202095F830300130C0B28342E9D8EB6B80
:1024B00002989847D6E6D4F8F425D4F8EC35511CA8
:1024C000013B2244C4F8F41582F82001C4F8EC352D
:1024D000002B7FF4C7AE0823C4F8E835C2E65046A7
:1024E00002F0C4FACBEB000005287FF6BBAE6FF01C
:1024F000010084F8FC550BB0BDE8F08FFE2874D0C5
:1025000094F8FC35C4F8E865002B7FF4ABAE46497F
:10251000226807911568454A08939542099340F04F
:10252000E1800A201A46FF27FE26082584F8273373
:1025300084F8283384F8293384F82A3384F82B3339
:1025400084F82C3384F82D3384F82E3384F8233325
:1025500084F82633F723014684F8250384F82433CE
:1025600084F8207384F8216384F8225304F225331D
:1025700004F22E3001E013F8011F83420A44FAD11D
:10258000D24304F1440784F82F2304F21F3504F2E8
:102590002F3615F8011F384602F0E4F9B542F8D19C
:1025A000504602F063FAC4F814015BE60323C4F852
:1025B000EC05C4F8F465C4F8F805C4F8E83551E64C
:1025C000D4F8EC35042203EB0020C4F8EC05C4F881
:1025D000E82547E6124A1A40002A7EDBFF2A0CBF94
:1025E00005230023C4F8E8353CE60223C4F8E835A7
:1025F00038E60623C4F8F005C4F8F805C4F8E83551
:1026000030E6D4F8F035D4F8EC2503EB00230721AD
:10261000C4F8F035C4F8E815002A3FF45CAF21E6B1
:10262000FF000080390B000098740000510E00007C
:10263000D14A236807921D68D04A00239542089327
:1026400009935ED10A204FF0FF0EFE270826F725DA
:102650001A46014684F8273384F8283384F829334E
:1026600084F82A3384F82B3384F82C3384F82D3300
:1026700084F82E3384F8233384F8263384F8250332
:1026800084F820E384F8217384F8226384F82453C7
:1026900004F2253304F22E3001E013F8011F8342C7
:1026A0000A44FAD1D24304F1440784F82F2304F2F8
:1026B0001F3504F22F3615F8011F384602F052F983
:1026C000B542F8D1504602F0D1F9C4F81401002007
:1026D000C4F800B60BB0BDE8F08F013A62F0FF021B
:1026E00001327BE70A2107AA2046A847504602F09C
:1026F000BDF9C4F81401B5E5013A62F0FF020132F8
:10270000FDE520460A2107AAA847DBE7002384F855
:10271000FC35A7E594F8205194F8143604F590762A
:10272000AB4206D2D4F81C06A90000F04FFAC4F858
:102730001C0684F81456002D00F01A81304604F56A
:10274000C36700210425837990F805E002791B0412
:1027500043EA0E2390F807E0134343EA0E63C4F8FC
:1027600018363A68D4F81C36043543F8212094F81A
:1027700014360131C9B28B4200F10400E3D82F1D99
:10278000B846755D94F82036AB4206D2D4F82806D8
:10279000A90000F01BFAC4F8280684F820562DB3CF
:1027A00006EB080104F224670020C6F104058B78CB
:1027B00091F801E00A781B0443EA0E2391F803E044
:1027C000134343EA0E63C4F82436D7F800E0D4F884
:1027D0002836421C43F820E094F82036D0B28342D9
:1027E00005EB010801F10401E1D84746F55D94F8D5
:1027F0002C36AB4206D2D4F83406A90000F0E6F934
:10280000C4F8340608F1040384F82C5655B30025A7
:1028100007AAAE46944604F5C667F058191DCCF8D1
:102820000000079A0A448A4209D908460333334410
:1028300013F8018F0130824203F8018CF8D84B1E47
:102840003344B11801F801ECC4F830363868D4F8D4
:102850003416134641F8250094F82C260135EDB2C4
:10286000AA42DAD8012384F80C36FBE4504602F081
:10287000FDF894F8226194F8263194F8217194F8C7
:1028800025E1360494F8201146EA07271A0494F843
:10289000236194F82431D4F8145142EA0E223943CA
:1028A00094F827711A43451B41EA0663504642EAF1
:1028B00007675E1E02F0DAF8314B3149A3FB0523AE
:1028C000DFF8C4804FF47A72B8449B09A1FB00176B
:1028D00002FB13552B49BF0901FB058102FB1702BF
:1028E0002848334400FB1212DB1BC4F81C21C4F837
:1028F000183104F58C7004F58E7100F07BF95046A8
:1029000002F0B4F8C4F80406ACE4A86B4FEA8801FE
:1029100000F05CF9A863A9E5A86A310100F056F956
:10292000A86214E52846019998479BE408224FF0D5
:10293000070C06204FF0050E04230C267DE50E49FA
:102940002268079108930A2109932046136807AA71
:102950009847504602F08AF8C4F814012046FFF761
:10296000A9F9C4F800B6C4F804B64FF0FF308BE400
:102970000827B846042504E798740000510E0000AB
:10298000D34D621040420F0000CA9A3BF0B50124BB
:1029900083B0002500944749474A484B4848FEF712
:1029A0001BFB4849484A494B00954948FEF714FB30
:1029B00000944849484A494B49484A4CFEF70CFBA9
:1029C000494B4A494A4A00954A48FEF705FB4A499D
:1029D0004A4A284602F01EFA2046494A49492B46EF
:1029E00040F8042B484A00F071FA04F5827002F0B6
:1029F00021F84FF46143C4F8003104F5827002F00D
:102A000029F82946414B84F8FC55C4F8103684F85F
:102A10001456C4F81C5684F82056C4F8285684F876
:102A20002C56C4F8345604F21C5304F5B06243F833
:102A3000041F9342FBD1364B002103F1640243F89B
:102A4000041F9342FBD1334B002103F5007203F8BE
:102A5000011F9342FBD1304B002103F5007203F8B4
:102A6000011F93424FF00004F9D12C49234A1D481D
:102A700002F0D0F92A4F2B4BDFF8BCC0DFF8BCE0E6
:102A8000294E2A4D2A482B4A01211C751C625C6282
:102A90009C62DC6283F830409C63C3F800C0C3F8DA
:102AA0000CE01F619E61DD61D86319649A6003B018
:102AB000F0BD00BF40C009200BC0092006C009209E
:102AC0000008001041C009200AC0092007C00920E1
:102AD000B808001042C0092005C0092008C009201C
:102AE000700900108401001009C0092043C00920AA
:102AF00004C00920280A0010592B0000C80000104B
:102B00004075000002C0092003C00920E0740000E5
:102B100004070010A3020010A3040010412B0000C2
:102B200010750000BC070010F87400003477000036
:102B30009D020000387700005875000028750000DD
:102B400010B50446034B40F8043B00F061F9204601
:102B500010BD00BF40750000F8B50A4C0A4FA4F53F
:102B60003876B83C04F17C052846E76701F042FF5F
:102B7000284601F0A5FF04F1240001F089FDB442CC
:102B8000EFD1F8BDE00A0010A87B0000074A084812
:102B900008B50021121A03F001F8AFF3008002F02B
:102BA00047FF02F0DBF802F045FC00BFB40D001057
:102BB00068010010022801DC0120704702F096B87D
:102BC000EFF3058303B100BE02F0A4BFEFF305836A
:102BD00003B100BE03F0F6BCEFF3058303B100BE02
:102BE00002F0A0BF08B5012002F024FC08B5FFF7F1
:102BF000F9FF00BF10B40C68074A630AA2FB032365
:102C0000064ADB0902FB13420468234403605DF8B3
:102C1000044B0A60704700BF834B040000CA9A3B14
:102C2000C36F70B5002B2DD0426E002A2AD0002928
:102C30002FD0D0F88430002BFBD0436F0446D55CF6
:102C4000436FEDB201334367426FC36F9A42A4BF33
:102C500000234367D0F88420C36F9A4209D0C36D24
:102C60005E685A6822F001025A6000F019F8E36DBC
:102C70005E6072B6D4F88430013BC4F8843062B62A
:102C8000284670BDC26D137DDB07FCD51078C0B23D
:102C900070BDD0F88430002BCFD14FF0FF3070BD25
:102CA000C36D70B5002B52D0C26F002A4FD0426E58
:102CB000002A4CD0044600F15805002608E02846BA
:102CC000984794F8942094F861309A4239D0E36D93
:102CD0001A7DD20762D51B78DBB284F86130D4F854
:102CE0008420E36F9A424DD0626E8AB1E16E94F80F
:102CF0006130DBB25354D4F884300133C4F88430EB
:102D0000E36E0133E366E26EE36F9A42A8BFE666C4
:102D1000D4F89830002BD2D1D4F89C30002BD0D0EE
:102D2000D4F8A020D4F8A4002AB3C10725D403EB1B
:102D300060002946904794F8942094F861309A42B4
:102D4000C5D1D4F8E83053B328469847BFE7D0F848
:102D5000983000F15801002B31D0BDE87040084692
:102D60001847D4F8BC30002BABD0D4F8C020D4F82E
:102D7000C400002AD9D1C107A3D54010195818445E
:102D80008A58D6E794F86130D4F8B820DBB2C4F89A
:102D90008C30002AE5D02846904792E770BDD4F8E1
:102DA000EC00002893D0D4F8F020D4F8F430AAB185
:102DB000D90716D400EB63002946904787E7D0F87F
:102DC0009C309BB1D0F8A020D0F8A400A2B1C407D9
:102DD0000DD403EB6000BDE870401047D9077FF5C4
:102DE00076AF5B10C15818448A58E5E770BD4010B3
:102DF0001C581844A258EEE7C507F8D470BD00BFB0
:102E0000704700BF10B5044602F009F8204610BD17
:102E1000F8B5044690F8F820144D53B2406E5B09A3
:102E200002F01F020121124E05F1180E05F14C07A8
:102E3000203301FA02F22560C4F840E0676446F8E6
:102E4000232008B1FFF7C8FEA06E08B1FFF7C4FE4B
:102E5000084B04F1400003F1180103F14C02236018
:102E60002164626401F06CFD2046F8BD70770000BB
:102E700000E100E0E87A0000A0F14400FFF7C8BFDD
:102E8000A0F14000FFF7C4BF10B50446FFF7C0FF34
:102E9000204601F0C4FF204610BD00BFA0F1440051
:102EA000FFF7F2BFA0F14000FFF7EEBF012200F0F4
:102EB0005DB800BFA0F14000F8E700BF0121FFF7B7
:102EC000AFBE00BFA0F14000F8E700BF38B5044630
:102ED000154601F079FC114B002103F118000A4658
:102EE000A16503F14C0123606164206404F1A8032F
:102EF00004F5847143F8102C43F80C2C43F8082C8B
:102F000043F8042C10338B42F4D14FF480712046E7
:102F10002B460A4600F0A2F8204638BD7077000024
:102F2000D0F88400B0FA80F040097047036810B40C
:102F30001BB108465DF8044B1847436893B182689B
:102F4000C06832B1C40706D403EB60005DF8044BDF
:102F50001047C40706D540101C581844A2585DF805
:102F6000044B10475DF8044B704700BF836E70B58B
:102F700004460D4613B1D0F880303BB9E26D137DA5
:102F80009806FCD5EDB21570002070BDC36D197D9B
:102F9000890605D5D0F8880010B9EDB21D7070BD56
:102FA000C2B15E685A6822F002025A60D4F88820E2
:102FB000D4F880309A4209D12046002100F0D2F89E
:102FC000D4F88820D4F880309A42F5D0E36D5E6062
:102FD000E36D05E0D4F88810D4F88020914220D029
:102FE0005A68EDB222F002025A60236FA26ED554E5
:102FF00072B6D4F888300133C4F8883062B6236FD3
:10300000002001332367226FD4F880309A42A8BF92
:103010000023E26DA8BF2367536843F002035360A7
:1030200070BD04F1C800C4F8905004F15801FFF7D6
:103030007DFF4FF0FF3070BD4B68DA0705D55B10A0
:103040000A68C15818448A5810470A6800EB6300A0
:10305000104700BF012100F085B800BFF8B5044655
:1030600090F8F85001266BB25B0905F01F05384F48
:10307000203306FA05F547F8235016460D4600F0B2
:103080000BF9E36DA465002B5ED0002EE66747DDEB
:10309000E06FFFF795FD0021E16660666167C4F8A7
:1030A0008410C4F88C10002C42D02A4A2A4B261DCA
:1030B0002261E460616123623046012200F0ACFFCE
:1030C000002DC4F880503DDDD4F88000FFF778FD76
:1030D000224A00232367A066A367C4F88830C4F897
:1030E0009030FAB1F4B11C4D0121A2626462E36236
:1030F0003046A5630A4600F08FFF204600F0F8F83E
:1031000094F8F83001215AB203F01F0301FA03F3D7
:103110000F480021520984F8941040F82230F8BD7D
:103120000020B8E730460121002200F075FFE4E7F7
:10313000042630462146224600F06EFF002DC4F8DA
:103140008050C1DC0020C3E7054800F00FF9D4E748
:1031500000E100E0A12C00003930000055300000F3
:10316000C4770000C36D2DE9F041002B37D0D0F8B3
:103170008030002B33D0836E002B30D00D460446B8
:10318000002700F15806D4F888301BB3E36D1A7D90
:1031900092061FD5A26FA16E8A5CD2B284F860201D
:1031A0001A70D4F88830013BC4F88830A36F01331B
:1031B000A367A26FD4F880309A4200DBA767002D86
:1031C000E1D0D4F8A8307BB330469847D4F88830A3
:1031D000002BDBD1D4F8883053B1BDE8F081D0F8B2
:1031E000A83000F158017BB3BDE8F041084618470C
:1031F000E26D04F15801536823F002035360D4F8E0
:10320000D830002BF0D1D4F8DC000028E5D0D4F879
:10321000E020D4F8E430002A35D0DC0729D400EBD4
:103220006300BDE8F0411047D4F8AC000028AAD0F4
:10323000D4F8B020D4F8B430A2B1D90714D400EB3C
:103240006300314690479EE7D0F8AC30002BC4D0E5
:10325000D0F8B020D0F8B400CAB1C4070ED403EB44
:103260006000DEE7D9078ED55B10C15818448A5834
:10327000E7E75B10C4581844A258D2E740101C5826
:103280001844A258CDE7DD07F3D4BDE8F081C507A7
:10329000F4D4BDE8F08100BF8368032B1BD8DFE8BE
:1032A00003F0140E08020E4A0823C26580F8F830B5
:1032B00070470C4A0723C26580F8F83070470A4A05
:1032C0000623C26580F8F8307047084A0523C265B6
:1032D00080F8F83070470023C36580F8F8307047F5
:1032E00000C00940008009400000014000C00040CB
:1032F000C36D07221A72704700B599B072B61749AC
:10330000684600F057F806A8154900F053F80CA8D5
:10331000144900F04FF812A8134900F04BF8039A33
:1033200001990A9B11600799109A19600D99159BD4
:103330001160139A96201A6000F070F9049A0199AE
:10334000099B116007990F9A19600D99169B1160DE
:10335000139A96201A6000F061F9E0E732C0092064
:1033600034C0092035C0092037C009200FB400B58A
:10337000064A83B004AB53F8041B10681A46C068B1
:10338000019302F0DDFD012002F054F85401001019
:1033900038B50D46044600F0C1F9013509D0204684
:1033A000002100F0DDF92046BDE83840032100F09F
:1033B000D3B938BD38B50D46044600F0AFF9013534
:1033C0000CD02369626820461A60012100F0C8F918
:1033D0002046BDE83840022100F0BEB938BD00BF2C
:1033E00070B50D461646044600F098F9013511D027
:1033F00066B9236962681A602046012100F0B0F9BD
:103400002046BDE87040022100F0A6B9E36862687A
:103410001A60F1E770BD00BF00F066B8431C10B53C
:10342000044618D00B68581C04D10FE051F80C3F2B
:103430005A1C0BD09C42F9D12046896800F0DAFA78
:103440002046BDE81040022100F0F0BA0248BDE875
:103450001040FFF78BBF10BDF477000088420AD000
:10346000421C09D0013106D008B50448FFF77EFFA1
:103470004FF0FF3008BD70470846704708780000DD
:103480000B685A1C04D107E051F80C3F5A1C03D0BA
:103490008342F9D14868704718467047421C0ED0E5
:1034A00008B50B685A1C04D10AE051F80C3F5A1CAD
:1034B00006D09842F9D14868411C01D008BD704738
:1034C0000248FFF753FF4FF0FF30F7E71C7800008A
:1034D00030B585B018246D4620462946ABBE04465B
:1034E000204605B030BD00BF024B186800F0010057
:1034F000704700BFF0ED00E038B504460D460368A4
:103500001B68984763681D6038BD00BF036870B5CD
:10351000DB68054698476B685B6883B12A681C685E
:1035200053689847201A00286A680DDC50681168B3
:10353000836853600029F0D040688847EBE72B6828
:10354000BDE870409B6818472B6852681B6910687B
:10355000BDE87040184700BF30B583B072B644680C
:103560000A6065684B608DB12B68D31A002B05DAB1
:103570000CE01C68141B002C03DB1D46AB68002B01
:10358000F7D1A9608B6062B603B030BD036861609B
:103590001B691046019198472B460199F2E700BF3D
:1035A00008B572B643685A688A4211D04AB1936826
:1035B0008B4208D02BB19A688A4205D01346002B63
:1035C000F9D162B608BD13468A689A6062B608BD32
:1035D00092685A60036822B110681B69984762B606
:1035E00008BD9B689847ECE703685B68184700BF15
:1035F00000487047707800000148FFF787BF00BFA0
:103600007078000038B5054600F01AFF044600F057
:1036100017FF001BA842FAD338BD00BF4FF47A73DE
:1036200003FB00F0FFF7EEBF0C4B30B49D689A68C7
:103630002B46B2F1805F0CD2094AC43553F8044BD3
:10364000AB4242F8044FF9D14FF080521346034C7D
:10365000A260103043F8201030BC704700ED00E04D
:10366000FCFFFF0F2B4A2023F0B4C2F8A031D2F8A0
:10367000A031980645D4274B002519460124AA20DD
:10368000552202270B26C3F80471C3F8A851C3F8CA
:10369000AC51C3F80C41C3F88460C3F88C00C3F884
:1036A0008C20C3F88040C3F88C00C3F88C20D1F87C
:1036B0008830184A5B01FAD511460324AA20552305
:1036C000C2F88040C2F88C00C2F88C30D1F8883043
:1036D000104A13F0407FF9D00F4900230520C2F8AB
:1036E0000801C2F8C410C2F8C8311368F0BC23F452
:1036F000704323F03A0343F4405343F03A0313601A
:103700007047D2F8A0315906B5D4D2F8A031590685
:10371000F7D5B0E700C00F40DE8728044A1C0160DF
:1037200018D038B50C4605460846002100F062F96D
:1037300024F01F0104F01F020123934001F118043B
:1037400001F11C0001F11402A9606B60EC602861BA
:103750006A6138BD704700BF006800F067B900BFFC
:1037600041B1012905D18268436811680B43136098
:103770007047704782684168136823EA0103136049
:10378000704700BF2DE9F04F434B83B0D3F804805E
:103790009F685E6A9D6AB8F1000F22D09A46DFF8F2
:1037A00000913E4A4FF0010B06E00BFA04F3B8EB30
:1037B0000308CAF80C3014D0B8FA88F4C4F11F0416
:1037C000E4B259F824000028EFD0136801210192D7
:1037D00098470BFA04F3B8EB0308019ACAF80C30C7
:1037E000EAD1D7B1DFF8B890DFF8B0A0DFF8A88051
:1037F00005E00123A340FF1AC8F80C300DD0B7FA3A
:1038000087F4C4F11F04E4B259F824000028F0D072
:10381000DAF8003002219847EBE7E6B1DFF8808064
:10382000DFF878901C4F04E00123A340F61AFB62F6
:1038300011D0B6FA86F4C4F11F04E4B20F2C04F1DF
:103840002003F1D858F823000028EDD0D9F8003033
:1038500001219847E8E7DDB1114FDFF840800E4EB7
:1038600004E00123A340ED1AF36211D0B5FA85F408
:10387000C4F11F04E4B20F2C04F12003F1D857F86F
:1038800023000028EDD0D8F8003002219847E8E75F
:1038900003B0BDE8F08F00BF80800240E80A00104E
:1038A000EC0A0010B1F1FF3F28D0F8B504461E46DF
:1038B000134B21F01F0501F01F00124F21F05F0193
:1038C00099423A602560606004D00F48FFF74EFDD2
:1038D000256860680A4B0D499D420CBF024600F105
:1038E00020020B4BA260152043F82260FFF79CFEDC
:1038F000084B4FF400121A600020F8BD08467047CC
:1039000000C00920E80A0010787800008537000020
:10391000EC0A001000E100E08268024B002143F84D
:1039200022107047EC0A001030B403682E4CA342FA
:103930001DD02E4DAB4212D1456801232C4CAB401B
:103940000129E3622BD02A4940680123002A33D1A0
:1039500030BC4A6B834022EA03034B637047012962
:1039600016D0A3420AD0AB42EDD030BC70474568B8
:1039700001231F4CAB400129E36025D01C4940685E
:10398000012392B130BC4A69834013434B617047B5
:10399000A34216D0AB42E8D1436801FA03F31449BD
:1039A000EAB10A6B13430B63DFE74A69834022EAFB
:1039B00003034B6130BC70474A6B834013434B6336
:1039C000D3E7436801FA03F309491AB10A691343BB
:1039D0000B61CAE70A6922EA03030B61C5E70A6BB8
:1039E00022EA03030B63C0E700C0092040C009209E
:1039F0008080024000F16040A0F51C2003099B007C
:103A000003F1804303F5303300F00F0010B44000A1
:103A10001C680322824024EA02021A601A6881406C
:103A20000A431A605DF8044B704700BF00F1604024
:103A3000A0F51C2043099B0003F1804303F53033BC
:103A400030B400F01F029C6EC1F3800505FA02F24B
:103A500024EA02049C669C6E22439A6695B9030987
:103A60009B0003F1804303F5303300F00F001C6C22
:103A700040000322824024EA02021A641A6C814048
:103A80001143196430BC704770B50C4605460021DF
:103A9000204601F073FCF0B920464FF07E5101F052
:103AA0008BFC08B14FF07E540C4EB06901F070FAF7
:103AB000214601F0C5FA01F089FCB3690749834248
:103AC0002B6808BF0130186028790A6D01238340F4
:103AD00013430B6570BD0024E6E700BF0080014082
:103AE0000E4B0F4A1B6810B403FB01F10224546013
:103AF000916193693BB100680368926903FB01F12E
:103B0000B1FBF2F10160064B09211A6D5DF8044B1F
:103B100042F001021A655960704700BFAC0B0010FB
:103B200000800140F8B50E461E4D04462946304639
:103B3000FFF7B4FC1C491D4FD1F8C430C2B257F88E
:103B4000227043F0400320712760C1F8C430D1F8DF
:103B5000A801174B4FF0000E20F440500227C1F887
:103B6000A801C3F80CE05F61D96C0120083200FAAB
:103B700002F20A430F49DA640B680F490F4AA1FBAE
:103B8000031320461B0D44F620611360FFF7A8FFC6
:103B900020460021FFF778FF30462946BDE8F8406F
:103BA000FFF73CBCA878000000C00F40D400001014
:103BB00000800140D000001083DE1B43AC0B0010DE
:103BC000174B9968C1F34201012918D0022914D179
:103BD000144A516F013106D0D2F88010906F0860FE
:103BE00092F8A61091B1106F0E4BB8B193F8A630B1
:103BF00023B10D4B00211B68184770477047094BD4
:103C0000186F0028FAD0084B1B681847596821F034
:103C100001015960106F034B0028E7D1704700BFC6
:103C200000800940B80B0010B40B001070B5036899
:103C3000284CA34247D03FDD274CA34229D004F5AE
:103C40008044A34242D1254C082632BB01290BD027
:103C50004268234CC2EBC20204EBC20292F8364027
:103C600030325279D44213D1B1FA81F45D68012225
:103C700002FA01F125EA01015960036864095B68F1
:103C800002FA04F1194203D1164BB240C3F8802066
:103C900070BD154C0726002AD8D05A68012505FAB0
:103CA00001F10A4376B25A6021463046FFF7BCFC68
:103CB0000C4BB5401D6070BDA4F58044A34205D1F6
:103CC0000A4C0526C1E70A4C0626BEE70024264614
:103CD000BBE700BF0000014000800940F53C000048
:103CE000B80B001000E100E0C13B0000693D00009E
:103CF000D13D0000194B9968C1F3420101291BD045
:103D0000022917D1164AD2F8AC10013107D0D2F8E7
:103D1000B810D2F8B000086092F8DE10A1B1D2F865
:103D2000A8000F4BC8B193F8DE3023B10D4B002132
:103D30001B68184770477047094BD3F8A800002844
:103D4000F9D0084B1B681847596821F001015960E8
:103D5000D2F8A800024B0028E5D1704700C0094006
:103D6000B80B0010B40B0010164B9968C1F3420158
:103D7000012917D0022913D1134A5168013105D006
:103D800011699068086092F8361091B110680E4B76
:103D9000B8B193F8363023B10C4B00211B6818479B
:103DA00070477047084B18680028FAD0074B1B680B
:103DB0001847596821F0010159601068024B00282A
:103DC000E7D1704700C00040B80B0010B40B0010E2
:103DD000164B9968C1F34201012917D0022913D16A
:103DE000134AD16B013105D0916C106C086092F8C8
:103DF0006E1091B1906B0E4BB8B193F86E3023B149
:103E00000C4B00211B68184770477047084B986B94
:103E10000028FAD0074B1B681847596821F00101A8
:103E20005960906B024B0028E7D1704700000140B9
:103E3000B80B0010B40B00102DE9F04F02686A4B6C
:103E400089B09A420790069200F0BC8040F3A780A8
:103E5000664B0698984200F0898003F580439842AB
:103E60000CD1634BD3F8AC2122F44022C3F8AC212F
:103E7000D3F8AC2142F48022C3F8AC215D4A0B0197
:103E80001268B2FBF3F003FB1023039280B2002B05
:103E900000F08380039B4FF001085A009C00944679
:103EA000A246C3468E46994600230492059400908C
:103EB0000291019300242546029E5FFA88F7BCF127
:103EC000000FB5BFBCFBF6F0BAFBF6F000094009E5
:103ED0000130C0F34F0008EB0402002854D1002C3D
:103EE0007ED00220034603FB02F3DB00B9FBF3F3B1
:103EF0000133C1EB5303002BB8BF5B42734505DAB6
:103F00008B4246D09E46BB468DE821000134E5B287
:103F1000BD420E44D3D3039B08F101089944049B8E
:103F2000B8F1100F9C44059B9A44029B0B440293EA
:103F3000C0D1019B009843EA0B15EDB20699C0F37E
:103F400007220B7BC0B243F080030B7307990B6809
:103F50001A710B6818700B6883F828500A68137B75
:103F600003F07F03137309B0BDE8F08F204BD3F843
:103F7000AC2122F44032C3F8AC21D3F8AC2142F496
:103F80008032C3F8AC2179E7002CABD00128A9D846
:103F9000A7E745EA0715EDB2D0E71025CEE7A3F570
:103FA00080439A427FF46AAF114BD3F8A82122F0E4
:103FB000C002C3F8A821D3F8A82142F04002C3F8F8
:103FC000A8215BE70A4BD3F8A82122F44072C3F87A
:103FD000A821D3F8A82142F48072C3F8A8214DE7A4
:103FE000012003467FE700BF000001400080094038
:103FF00000C00F40D0000010436810B40448054CC6
:10400000C3EBC30344F8332001605DF8044B7047F1
:10401000B40B0010B80B001061B9436810B4064C23
:10402000C3EBC30304EBC30383F836205DF8044BF2
:10403000FFF7FCBDFFF7FABDB80B00100268137D57
:10404000DB07FCD543680949C3EBC30301EBC3039A
:10405000596810780131C0B206D059699B680B606D
:10406000536843F001035360704700BFB80B001062
:104070004368174AC3EBC303DB00D11810B4CC6903
:10408000013411D00B460A6B1C335B6812681A426C
:1040900003D000205DF8044B704703685DF8044BC3
:1040A000187DC0F38010704703681B7D9B0608D401
:1040B00091F834005DF8044B0F288CBF00200120DC
:1040C0007047002381F8343001205DF8044B7047BD
:1040D000B80B001038B504460D462046FFF7C8FF60
:1040E0000028FAD02368EDB21D706368054AC3EB5F
:1040F000C30302EBC30393F83420013283F8342066
:1041000038BD00BFB80B00102DE9F04F04464648FB
:10411000256883B085420F469146019343D0D4F879
:1041200004A000255346414E4FEACA08C3EBC3031F
:10413000CAEB080E002006EBCE0E4FF0FF3B06EB5D
:10414000C3030146024683F83500CEF81CB0204672
:10415000CEF804B0FFF76AFD17B903B0BDE8F08FE1
:1041600033494846FFF78CF9324983460198FFF7F7
:1041700087F9BB1E012B37D9012FEED1B9F1FF3FD3
:10418000EBD0294B226807219B45117213D195B1C1
:1041900048462B7C264943F040032B7403B0BDE80E
:1041A000F04FFFF73BB92B7CD4F804A003F03F039A
:1041B0002B746368B7E7CAEB080806EBC8004946EA
:1041C000012504300022FFF70BF920462A466368D8
:1041D0000021C3EBC30306EBC30686F8355003B0DA
:1041E000BDE8F04FFFF722BD019B01330AD00E4B13
:1041F00098420DD0CAEB080006EBC00001991C30B4
:10420000FFF7C6F8032FA8D1B9F1FF3FB9D1A4E752
:10421000002DEFD02B7C019843F080032B740549CF
:10422000FFF7FCF8EEE700BF00000140B80B0010FC
:104230005C790000587A00002DE9F04105460F46F0
:10424000084659491646FFF729F9584904463046A9
:10425000FFF724F901462046FFF700F9544B0446C6
:10426000984228607FD06FD9524B98424BD003F5CB
:104270008043984206D1504AD2F8C43043F00073CC
:10428000C2F8C430012323722B684FF00008C3F832
:10429000048028464FF41651FFF7CEFD2B68032209
:1042A0001A7338464049FFF7B9F830463F49FFF7DF
:1042B000B5F87A1C03D038464146FFF7B7FB731CAC
:1042C00003D030460021FFF7B1FB394B9C4247D069
:1042D00021D9384B9C4263D003F580439C424AD19C
:1042E00003236B60354CC3EBC3034FF0FF3604EB85
:1042F000C3042846324633466660E6610021BDE8C5
:10430000F041FFF701BF2C4AD2F8C43043F080736C
:10431000C2F8C430B6E7A3F580439C422BD1274EA8
:104320004FF0FF340021696022462346284674601E
:10433000F461FFF7E9FE224B01221A6028686968E0
:10434000204B03C3BDE8F081A3F58043984299D187
:10435000194AD2F8C43043F00803C2F8C43091E7D8
:1043600001236B60BEE7144AD2F8C43043F0100357
:10437000C2F8C43086E76E68104BC6EBC6064FF035
:10438000FF3703EBC6063A463B46284600217760D6
:10439000F761FFF7B9FE0C4B9C42CCD0BDE8F08131
:1043A00002236B609EE700BFEC790000807900007B
:1043B000000001400080094000C00F40B80B001011
:1043C000B00B0010A80D001000C0004038B5124915
:1043D000124B01241C60D1F8C430114A43F400038D
:1043E00010480025C1F8C4301567036801F1437116
:1043F00001F5F45103319B08A1FB03139B0C013B16
:10440000022151600420D36007495460FFF70CF982
:10441000064B10221A6038BD00C00F40980C0010E7
:1044200000400940D0000010F935000000E100E034
:10443000024B1B6803B17047FFF7C8BF980C001010
:1044400008B5044B1B680BB9FFF7C0FF024B986817
:1044500008BD00BF980C001000400940034B986154
:104460005A6942F001025A61704700BF004009409A
:10447000024A536923F00103536170470040094029
:10448000014B01221A60704700400940094A8368C5
:10449000026053B1084B1A68824201D106E01A4605
:1044A00053688342FBD143685360704742681A6087
:1044B000704700BF887A00009C0C00100C4A83688B
:1044C00010B50446026053B10A4B1A68904201D1FC
:1044D0000AE01A4653689C42FBD163685360204649
:1044E00000F09DFC204610BD42681A60F7E700BF4F
:1044F000887A00009C0C001010B4074C0023027353
:1045000081600460436019B1044B1A68186042600E
:104510005DF8044B704700BF887A00009C0C0010C7
:10452000F8B50B4B07461C680E467CB1A56855B123
:1045300028463946324602F0C6F920B9284602F02C
:10454000BAF9B04202D06468002CEFD12046F8BD21
:104550009C0C0010007B7047036870B51B6900213C
:10456000012204469847431C06460ED02368204685
:104570001B690021022298470546236831461B69C2
:10458000204600229847284670BD70BD10B50446ED
:10459000064B002240F8043BFFF7AEFF044B2046D9
:1045A00003F10802343384E80C0010BDF07B0000F6
:1045B000907A000010B50446064B03F1080234332C
:1045C000226040F8043FFFF761FF204600F09CFAAC
:1045D000204610BD907A000038B500230360436088
:1045E0000A7804462F2A01D0204638BD4A78002A8E
:1045F000FAD0481C20604D782F2D13D085B103468A
:1046000000E06AB15D1A013323601A782F2AF8D1CD
:10461000294601332360FFF783FF6060204638BDE1
:104620002946F8E719460346F3E700BF00687047DC
:10463000436843B110B504461846FFF78BFF0128C5
:1046400003D1606810BD00207047002010BD00BF7E
:10465000406830B108B5FFF77DFFB0FA80F040093F
:1046600008BD704743684BB110B504461846FFF7C4
:1046700071FF28B9606818B1043810BD0020704778
:10468000002010BD4068003018BF0120704700BFF7
:1046900010B50446034B40F81C3BFFF73DF920469C
:1046A00010BD00BFD87A000010B50446044B40F896
:1046B0001C3BFFF731F9204600F0B1FB204610BD4E
:1046C000D87A0000012903460CD0022906D1426D98
:1046D0002AB1006C28B103F1440110477047036C04
:1046E0005BB97047C26B2AB1806A0028F9D003F128
:1046F0002C011047836A002BF3D0184738B50446C5
:104700000D460D4A002380E80C008360C3600361FE
:1047100043618361C361036243628362C363036471
:104720004365064A23461C30FFF7BCF8201D294686
:10473000FEF72EFE204638BDD87A0000C5460000A0
:1047400000F09AB8A0F14000FFF7FABF00F098B867
:10475000A0F14000FFF7FABF10B50446064B403009
:1047600003F1080103F120025433216022646364E1
:1047700000F0E6F8204610BDE07A0000A0F140000D
:10478000FFF7EABFA0F14400FFF7E6BF10B504460B
:10479000084B403003F1080103F12002543321603B
:1047A0002264636400F0CCF8204600F038FB204619
:1047B00010BD00BFE07A0000A0F14000E6E700BFB6
:1047C000A0F14400E2E700BF38B504461D4600F002
:1047D0002DF8294604F1400000F090F8054B2046E2
:1047E00003F1080103F12002543321602264636461
:1047F00038BD00BFE07A00004A1C02EB420200EB29
:10480000C202936853B101EB4101C9004218D2685A
:104810001AB10144103110461847704701EB4103AB
:1048200000EBC301CB68002BF7D0184770B50446E6
:104830000B4E0023251D4FF41650E063636028469D
:10484000A360E36023626362A3632660FFF7F4FC66
:10485000284622460349FFF7CFFB204670BD00BF24
:10486000487B0000F947000038B504460D46043087
:10487000FFF7E2FAE56338BD0430FFF7DFBB00BFA6
:1048800010B50C460430FFF725FC204610BD00BFD4
:1048900000207047F8B58E18B1420F460ED005467D
:1048A0000C4601E0A64207D02B6828465B6A14F844
:1048B000011B98470130F5D1E01BF8BD0C46FBE722
:1048C000F8B58E18B1420F460ED005460C4603E0EF
:1048D00004F8010BA64205D02B6828469B6A98472E
:1048E000431CF5D1E01BF8BD0C46FBE700207047E8
:1048F00000207047002070470020704710B5044624
:1049000084B0FFF743FE0B4B002203F108013C3358
:1049100084E80A00626101A82246074901F02EFFDF
:10492000064901A800F0A0FF606100F04DFA2046A2
:1049300004B010BD507B0000947B0000987B000009
:1049400010B50446064B406903F108023C3384E885
:104950000C0000F0D5FD2046FFF72CFE204610BDD0
:10496000507B000038B50D460446406900F07EFEDD
:1049700028466169BDE8384000F0A4BF10B5044680
:1049800043684169194400F0A7F8E36A3BB1A069A4
:1049900020B104F11C01BDE81040184710BDA36907
:1049A000002BFBD0BDE81040184700BF10B50446EF
:1049B000054B036000F096F80023A361E3622046F4
:1049C00000F07EF8204610BDA87B000010B504461C
:1049D000074B036000F086F80023A361E3622046E2
:1049E00000F06EF8204600F01AFA204610BD00BF15
:1049F000A87B000010B5044600F074F80023A36102
:104A0000E36210BD38B50C46054600F06BF86C61EA
:104A10002869FEF7E9FD01192846BDE8384000F095
:104A20005BB800BF10B50446C068FEF7DDFD6368E3
:104A3000C01A10BD38B50025056045608560044684
:104A4000FEF7D6FDE060FEF7CFFDA5606060204672
:104A500038BD00BF036803B1704710B50446C06895
:104A6000FEF7C2FD01236060236010BD036810B52E
:104A7000846813B1FFF7D6FF03460448234480FB44
:104A80000320DB17C3EBA01010BD00BFD34D621095
:104A900003689B68184700BF074A002310B580E8E9
:104AA0000C008360C3600446FEF7A2FD0349206149
:104AB000FEF722FD204610BDC07B0000914A000099
:104AC00010B50446034B0069211D2360FEF768FD05
:104AD000204610BDC07B000003460A460069191D30
:104AE000FEF73ABD014600690431FEF759BD00BF2B
:104AF00002480349034AFFF79FBB00BFA80D0010FF
:104B000002C0092003C00920084A094B10B4026002
:104B100003F58071002453F8042F824208BF1C6003
:104B20008B42F8D15DF8044B704700BFF07B00006A
:104B30009C0C0010F0B50E4685B03749054601F0D3
:104B4000B0FE28B9354B1B68002B42D005B0F0BD34
:104B50002846334901F0A5FE30B9304B1B68002BC5
:104B600042D0012005B0F0BD28462E4901F099FE43
:104B7000002834D02C4B002402E00134402C3CD0DF
:104B800053F8042F002AF8D12B783A2B3CD0294631
:104B900002A8FFF721FD02A8FFF774FD68B302A881
:104BA000FFF756FD20BB02A8FFF742FD054620B3E4
:104BB000036802A89F68FFF739FD32460146284680
:104BC000B8470346CBB1194AE01C42F8243005B07F
:104BD000F0BD0190FFF78CFF019805B0F0BD0F4BC1
:104BE0001B686BB10220B1E7FFF782FF0120ADE740
:104BF00002A8FFF737FD0346E4E74FF0FF30A5E7D3
:104C0000FFF776FF0220A1E72846094902AA01F032
:104C1000D9FD029BD6E700BFCC7B0000B00B001093
:104C2000DC7B0000D47B00009C0C0010A00C00106A
:104C3000947B000002280ADD074AC31E52F82300B5
:104C4000002142F8231020B103685B681847002058
:104C500070474FF0FF307047A00C0010022812DCA4
:104C60000E4B70B51B680C4616460BB9FFF740FF9C
:104C7000A51936B114F8011B0948FFF72BFAAC420D
:104C8000F8D1304670BD074B033853F8200010B1FF
:104C900003681B6818474FF0FF307047B00B0010D7
:104CA000A80D0010A00C001002280DDC0C4B10B554
:104CB0001B680C460BB9FFF71BFF0A48FFF7BEF94C
:104CC00001232070184610BD074B033853F820000D
:104CD00010B103689B6818474FF0FF3318467047C0
:104CE000B00B0010A80D0010A00C0010022807DD6A
:104CF000064B033853F8200020B10368DB681847DF
:104D0000012070474FF0FF30704700BFA00C00102B
:104D1000022807DD064B033853F8200020B1036852
:104D20001B691847002070474FF0FF30704700BFE5
:104D3000A00C0010022808B504D84FF400534B60B3
:104D4000002008BD00F070FB092303604FF0FF3026
:104D500008BD00BF704700BF704700BF08B5FFF730
:104D6000FBFFFFF7F7FFBDE80840FCF799B900BF6C
:104D7000074A13681918EFF30880814202D21846D7
:104D800011607047034B0C221A604FF0FF307047E0
:104D9000F0000010B00D00100A4C08B5236805465D
:104DA000986800F063FC2368D86800F05FFCFEF7A9
:104DB00033FB20B905B9FEE7FEF79EFAFBE7FEF7E5
:104DC00087FBF7E754010010002101F046BC00BF4B
:104DD0000649074A074B9A42BEBF51F8040B42F8F6
:104DE000040BF8E70448804704480047107E0000A1
:104DF000C800001068010010653600008D2B00000F
:104E0000FEE7FEE7FEE7FEE7FEE7FEE7FEE7FEE77A
:104E1000FEE7FEE703460846194600F0F7BAFDF73D
:104E2000DBBE000080F0004002E000BF81F00041E6
:104E300042001FBF5FEA410392EA030F7FEA226C40
:104E40007FEA236C6AD04FEA1262D2EB1363C1BFD0
:104E5000D218414048404140B8BF5B42192B88BF3F
:104E6000704710F0004F40F4000020F07F4018BF62
:104E7000404211F0004F41F4000121F07F4118BF82
:104E8000494292EA030F3FD0A2F1010241FA03FC2A
:104E900010EB0C00C3F1200301FA03F100F0004312
:104EA00002D5494260EB4000B0F5000F13D3B0F1DA
:104EB000807F06D340084FEA310102F10102FE2A49
:104EC00051D2B1F1004F40EBC25008BF20F00100B9
:104ED00040EA03007047490040EB000010F4000F67
:104EE000A2F10102EDD1B0FA80FCACF1080CB2EBFA
:104EF0000C0200FA0CF0AABF00EBC2505242184359
:104F0000BCBFD0401843704792F0000F81F40001FD
:104F100006BF80F400000132013BB5E74FEA4103D0
:104F20007FEA226C18BF7FEA236C21D092EA030F3C
:104F300004D092F0000F08BF0846704790EA010FB6
:104F40001CBF0020704712F07F4F04D1400028BFE3
:104F500040F00040704712F100723CBF00F50000C5
:104F6000704700F0004343F0FE4040F400007047FB
:104F70007FEA226216BF08467FEA236301464202A7
:104F800006BF5FEA412390EA010F40F480007047BA
:104F90004FF0000304E000BF10F0004348BF404260
:104FA0005FEA000C08BF704743F0964301464FF09C
:104FB00000001CE050EA010208BF70474FF00003F8
:104FC0000AE000BF50EA010208BF704711F0004339
:104FD00002D5404261EB41015FEA010C02BF844609
:104FE0000146002043F0B64308BFA3F18053A3F568
:104FF0000003BCFA8CF2083AA3EBC25310DB01FAAF
:1050000002FC634400FA02FCC2F12002BCF1004F32
:1050100020FA02F243EB020008BF20F001007047C3
:1050200002F1200201FA02FCC2F1200250EA4C0017
:1050300021FA02F243EB020008BF20EADC7070475D
:105040004FF0FF0C1CEAD0521EBF1CEAD15392EA6B
:105050000C0F93EA0C0F6FD01A4480EA010C400247
:1050600018BF5FEA41211ED04FF0006343EA5010A1
:1050700043EA5111A0FB01310CF00040B1F5000FE3
:105080003EBF490041EAD3715B0040EA010062F192
:105090007F02FD2A1DD8B3F1004F40EBC25008BF7C
:1050A00020F00100704790F0000F0CF0004C08BF9A
:1050B00049024CEA502040EA51207F3AC2BFD2F167
:1050C000FF0340EAC250704740F400004FF0000375
:1050D000013A5DDC12F1190FDCBF00F000407047AF
:1050E000C2F10002410021FA02F1C2F1200200FAED
:1050F00002FC5FEA310040F1000053EA4C0308BFB4
:1051000020EADC70704792F0000F00F0004C02BF04
:10511000400010F4000F013AF9D040EA0C0093F07F
:10512000000F01F0004C02BF490011F4000F013BD9
:10513000F9D041EA0C018FE70CEAD15392EA0C0F47
:1051400018BF93EA0C0F0AD030F0004C18BF31F0B2
:10515000004CD8D180EA010000F00040704790F088
:10516000000F17BF90F0004F084691F0000F91F02C
:10517000004F14D092EA0C0F01D142020FD193EAF2
:105180000C0F03D14B0218BF084608D180EA01007A
:1051900000F0004040F0FE4040F40000704740F056
:1051A000FE4040F4400070474FF0FF0C1CEAD05224
:1051B0001EBF1CEAD15392EA0C0F93EA0C0F69D080
:1051C000A2EB030280EA010C49024FEA402037D0EB
:1051D0004FF0805343EA111143EA10130CF00040E2
:1051E0008B4238BF5B0042F17D024FF4000C8B42D2
:1051F00024BF5B1A40EA0C00B3EB510F24BFA3EBB2
:10520000510340EA5C00B3EB910F24BFA3EB910381
:1052100040EA9C00B3EBD10F24BFA3EBD10340EADB
:10522000DC001B0118BF5FEA1C1CE0D1FD2A3FF621
:1052300050AF8B4240EBC25008BF20F001007047D6
:105240000CF0004C4CEA50207F32C2BFD2F1FF0379
:1052500040EAC250704740F400004FF00003013AAA
:1052600037E792F0000F00F0004C02BF400010F44E
:10527000000F013AF9D040EA0C0093F0000F01F062
:10528000004C02BF490011F4000F013BF9D041EA84
:105290000C0195E70CEAD15392EA0C0F08D14202B7
:1052A0007FF47DAF93EA0C0F7FF470AF084676E78A
:1052B00093EA0C0F04D14B023FF44CAF08466EE763
:1052C00030F0004C18BF31F0004CCAD130F0004231
:1052D0007FF45CAF31F000437FF43CAF5FE700BF89
:1052E0004FF0FF3C06E000BF4FF0010C02E000BFB2
:1052F0004FF0010C4DF804CD4FEA40024FEA410354
:105300007FEA226C18BF7FEA236C11D001B052EA09
:10531000530C18BF90EA010F58BFB2EB030088BFCF
:10532000C81738BF6FEAE17018BF40F0010070473E
:105330007FEA226C02D15FEA402C05D17FEA236C20
:10534000E4D15FEA412CE1D05DF8040B704700BF67
:10535000844608466146FFE70FB5FFF7C9FF0028FE
:1053600048BF10F1000F0FBD4DF808EDFFF7F4FF37
:105370000CBF012000205DF808FB00BF4DF808EDD0
:10538000FFF7EAFF34BF012000205DF808FB00BFF3
:105390004DF808EDFFF7E0FF94BF012000205DF815
:1053A00008FB00BF4DF808EDFFF7D2FF94BF0120C6
:1053B00000205DF808FB00BF4DF808EDFFF7C8FFBF
:1053C00034BF012000205DF808FB00BF42000ED270
:1053D000B2F1FE4F0BD34FF09E03B3EB126209D430
:1053E0004FEA002343F0004323FA02F070474FF0E6
:1053F0000000704712F1610F01D1420202D14FF05B
:10540000FF3070474FF00000704700BF38B50546C9
:1054100004480C46134620B1022029462246AFF329
:10542000008038BD00000000014B1868704700BFC5
:105430005401001008B5074B044613B10021AFF327
:105440000080054B1868836A03B198472046FFF730
:10545000A3FC00BF00000000847C000070B505467E
:105460000C4609B9002070BD18B183690BB900F072
:105470004FF9204B9C4201D16C6808E01E4B9C42C6
:1054800001D1AC6803E01D4B9C4208BFEC68B4F945
:105490000C30002BE6D02846214600F039F8236B6B
:1054A000064633B12846216A98470028B8BF4FF016
:1054B000FF36A3891B0603D52846216900F076FB39
:1054C000616B41B104F14403994202D0284600F0D7
:1054D0006DFB00236363A16C21B1284600F066FBDD
:1054E0000023A36400F07EF90023A38100F07BF980
:1054F000304670BD207C0000407C0000607C0000D5
:10550000024B01461868FFF7A9BF00BF5401001005
:105510008A892DE9F041054610070C4657D44B689F
:10552000002B02DC0B6C002B18DDE66AB6B102F42E
:105530008052002392B22F682B600AB1626D10E096
:10554000216A28460123B047411C024609D12B6835
:105550003BB11D2B01D0162B46D12F600020BDE89A
:10556000F081A3895B0705D56368D21A636B0BB121
:10557000236CD21AE66A00232846216AB047461CEB
:10558000A38905D12A681AB11D2A01D0162A19D17A
:10559000002262602269D904226004D5421C01D134
:1055A0002B6803B96065616B2F600029D6D004F1C8
:1055B0004403994202D0284600F0F8FA00206063C4
:1055C000BDE8F08143F04003A381BDE8F0810F699D
:1055D000002FC3D093070E680CBF4B690023C7EBA5
:1055E00006080F608B6012E0A3894FF0FF3043F094
:1055F0004003A381BDE8F0812846216A3A4643462C
:10560000A66AB0470028EFDD0744C0EB0808B8F1F0
:10561000000FF1DCA2E7000038B50B6905460C4627
:10562000DBB118B183690BB900F072F80C4B9C42E6
:1056300001D16C6808E00B4B9C4201D1AC6803E0DF
:10564000094B9C4208BFEC68B4F90C302BB12846DA
:105650002146BDE83840FFF75BBF002038BD00BFE2
:10566000207C0000407C0000607C0000014620B9E6
:10567000044B0549186800F0BDB9044B1868FFF7E2
:10568000CBBF00BF847C00001956000054010010FD
:10569000014900F0AFB900BF1956000010B504462B
:1056A000002303604360836081814366C28103619C
:1056B0004361836119465C30082200F06FFA054BA4
:1056C00024626362044BA362044BE362044B2363D2
:1056D00010BD00BF196800003F6800007768000037
:1056E0009B68000070B568234D1E5D430E4605F1B2
:1056F000740100F09FFA044640B1002180E84200A6
:105700000C30A06005F1680200F048FA204670BD38
:10571000836910B5044633BB8364C3640365124BCD
:10572000124A1B688262984204BF0123836100F021
:105730001FF86060204600F01BF8A060204600F0D3
:1057400017F80421E06000226068FFF7A7FFA06857
:1057500009210122FFF7A2FFE06812210222FFF7D0
:105760009DFF0123A36110BD847C000091560000C1
:10577000F8B51B4B07461E68B36913B93046FFF7EF
:10578000C7FF4836B4687368013B04D4B4F90C50C1
:1057900075B16834F8E733682BB938460421FFF750
:1057A000A1FF306008B13668ECE70C233B60F8BD20
:1057B0004FF6FF73E3810123A38165662560A56031
:1057C000656025616561A56104F15C0029460822D8
:1057D00000F0E4F96563A563A564E5642046F8BDBF
:1057E000847C000070477047F7B50F46114601AA48
:1057F000054601F09FFA064608B9002029E0284630
:10580000FFF7B6FF04460028F7D028463946019A2C
:105810004FF4DB7300F088FE002806DA0025FFF75E
:10582000E1FFA581FFF7DFFFE7E70B4BE081636254
:105830000A4BA681A3620A4B2462E362094B2363ED
:10584000F30505D5284621460022022300F044F83E
:10585000204603B0F0BD00BF196800003F6800009B
:10586000776800009B68000003460A460249086802
:105870001946FFF7B9BF00BF5401001070B50E46BE
:105880001446054618B183690BB9FFF741FF0A4B6F
:105890009C4201D16C6808E0084B9C4201D1AC6885
:1058A00003E0074B9C4208BFEC682846314622467D
:1058B000BDE8704000F04ABE207C0000407C000043
:1058C000607C000003460A46024908681946FFF753
:1058D000D5BF00BF5401001000F000B82DE9F84317
:1058E0000C4690461E46054618B183690BB9FFF772
:1058F0000FFF3D4B9C4201D16C6808E03B4B9C4242
:1059000001D1AC6803E03A4B9C4208BFEC68A38924
:1059100003F48473B3F5847F03D128462146FFF74F
:105920007BFEE76A0FB91D232BE0012E04D0022E67
:105930002BD056B3162324E028462146FFF76CFEF1
:10594000A28902F4805292B20AB1606D05E0216A28
:1059500028463346B847411C14D0A3895A0706D5B8
:105960006368C01A636B4BB1236CC01A06E01B0757
:1059700004D5236813B122699B1A18448044002679
:1059800003E02B604FF0FF392BE023691BB9284659
:10599000214600F073F828462146FFF73DFE814678
:1059A0000028EFD12846216A42463346B8470130E5
:1059B000E8D0616B41B104F14403994202D028461A
:1059C00000F0F4F800236363236900212360A389B6
:1059D000616023F40263A38104F15C00082200F0FB
:1059E000DDF84846BDE8F883207C0000407C0000DC
:1059F000607C00002DE9F8438046894600F14804A8
:105A0000002694B1A5686768013F0CD4AB89012BCF
:105A100007D9B5F90E30013303D040462946C847AF
:105A200006436835F0E72468EBE73046BDE8F883C5
:105A30000E4B70B51E460E4C0025E41AA410A5426C
:105A400004D056F8253098470135F8E701F014FDE9
:105A5000084B094C1E46E41AA4100025A54204D0A8
:105A600056F8253098470135F8E770BD5C01001005
:105A70005C0100105C01001064010010F0B58B891E
:105A800091B09D0706460C4625D4B1F90E100029A9
:105A900008DAA389002513F0800F14BF40274FF4C4
:105AA00080670DE001AA01F07DF90028F1DB029D7D
:105AB0004FF4806705F47045A5F500514D424D4106
:105AC0003046394600F0B6F860B9A3899A051DD46E
:105AD00043F00203A38104F1470323602361012300
