:1000000000800010954D0000C54D0000C74D000058
:10001000C94D0000CB4D0000CD4D00000000000098
:10002000000000000000000000000000CF4D0000B4
:10003000D14D000000000000D34D0000D54D000060
:10004000D74D0000D74D0000D74D0000D74D000020
:10005000D74D0000D74D0000D74D0000D74D000010
:10006000D74D0000D74D0000D74D0000D74D000000
:10007000D74D0000D74D0000D74D0000D74D0000F0
:10008000D74D0000D74D0000D74D0000D74D0000E0
:10009000D74D0000D74D0000D74D0000D74D0000D0
:1000A000D74D0000D74D0000D74D0000D74D0000C0
:1000B000D74D0000D74D0000D74D0000D74D0000B0
:1000C000D74D0000D74D0000D74D0000044B054828
:1000D0001B1A062B02D9044B03B11847704700BF07
:1000E0006B0100106801001000000000054906487F
:1000F000091A891001EBD171491002D0034B03B1E9
:1001000018477047680100106801001000000000E7
:1001100010B5064C237843B9FFF7D8FF044B13B151
:100120000448AFF300800123237010BD6801001064
:1001300000000000BC7D000008B5084B1BB1084959
:100140000848AFF300800848036813B9BDE80840C9
:10015000CCE7064B002BF9D09847F7E700000000EA
:100160006C010010BC7D0000680100100000000060
:100170000346426808200A705A68C2404A70DA880A
:100180008A70DA79CA709A680A719A68C2404A71AC
:100190005A898A71DB7ACB71704700BF024610B46E
:1001A0000B78082053604C7843EA042353608C7822
:1001B00043EA04435360CC7843EA046353600B7909
:1001C00093604C7943EA042393608C7943EA0443B7
:1001D0009360C97910BC43EA01639360704700BF24
:1001E000004870475C750000004870476C7500005F
:1001F000004870479075000000487047AC750000DB
:1002000000487047D075000000487047E475000052
:10021000004870473C7700000048704708760000AF
:10022000004870472C760000004870474C7600006C
:100230000048704770760000004870478C760000D8
:1002400000487047B076000000487047CC76000048
:10025000C269C3681168D0F8AC2019420CBF4FF0D6
:10026000FF3301231344C0F8AC30704770B5D0F8A9
:10027000B4500446D0F8AC0004F070FE294604F0F7
:10028000C1FE294606464FF07E5004F0B1FDD4F879
:10029000B01004F0B7FE0146304604F0ABFD002379
:1002A000C4F8B000C4F8AC3070BD00BF4B68DA07CA
:1002B00005D55B100A68C15818448A5810470A6867
:1002C00000EB6300104700BF006C704700487047A8
:1002D000B076000000487047CC76000090F8FC052E
:1002E000704700BF2DE9F0418046144C144F0025A3
:1002F000D8F82C303968585904F084FE94F820302E
:10030000064600218BB105F01BF898B9A369E26895
:100310001A60204626F00041043503F0F9FB102D49
:1003200004F1B804E4D1BDE8F081002105F008F83B
:100330000028EBD16369E2681A60EAE70008001060
:10034000CC000010F0B40546086882B00190019816
:10035000CF1C061D042E08D93B46C41C0C4413F8C0
:10036000012FA34203F8012CF9D10A180023D370FE
:100370006F608B5D0C30AB60517943EA0123AB6059
:10038000917943EA0143AB60D17943EA0163AB6001
:10039000137AEB60517A43EA0123EB60917A43EAE6
:1003A0000143EB60D27A43EA0263EB6002B0F0BC37
:1003B000704700BF0B46F0B413F8012B06460271DC
:1003C000186882B00190019D0F1D681D052808D98D
:1003D0003B462C1D0C4413F8012FA34203F8012CBB
:1003E000F9D10D4400232B71B76002B0F0BC704707
:1003F000F0B40B78054683804A7884B043EA022340
:100400008380D1F802004F1D0190019A961D062E9F
:1004100008D93B46541D0C4413F8010F9C4203F8C5
:10042000010CF9D18B1800205871AF60885904363F
:100430000290029B33449E4209D2304609320A445C
:1004400012F8014F0130984202F8014CF8D3013EF6
:100450000E44CA18002002F8010CEE6010681E1D40
:10046000039003983044864209D2324603330B444A
:1004700013F8014F0132824203F8014CF8D3013ED8
:100480000C180E44002304F8013C2E61A378667812
:100490000A5C1B04E17843EA0623134343EA016341
:1004A00004306B6104B0F0BC704700BF2DE9F0412F
:1004B00003790C7882B0A34205460E46C0F08280D4
:1004C0002C71002C00F08780334605F108070020CE
:1004D00004249A7993F805E01979120442EA0E226D
:1004E00093F807E00A4342EA0E62AA60D7F800E0F8
:1004F000EA68411C42F820E02A79C8B2824204F13D
:10050000040403F10403E4D8234616F803802B7C8B
:10051000271D43453C4666D385F81080B8F1000F8F
:100520001FD005F11407331900209A7893F801E0E1
:100530001978120442EA0E2293F803E00A4342EAD1
:100540000E626A61D7F800E0AA69411C42F820E017
:100550002A7CC8B2824204F1040403F10403E4D803
:100560002746F75D2B7FBB4244D3231D2F772FB344
:100570000027BC4605F1200EF0581C1D0190019883
:100580002044844209D222460333334413F8011F26
:100590000132824203F8011CF8D3013C3318344481
:1005A00003F801CC2C626A6ADEF800107B1C42F86A
:1005B00027102A7FDFB2BA420346DDD8184602B0C0
:1005C000BDE8F081A100C06802F0C0FA2C71E860BB
:1005D000002C7FF479AF042316F803802B7C0827C6
:1005E00043453C4698D24FEA8801A86902F0AEFA2A
:1005F000A86191E7B900686A02F0A8FA6862B4E7F6
:1006000070B5054682B00C46406806F04EF92346A8
:10061000064602AA42F8040D1068324643F8040B5D
:100620006968184605F076FAAB68A1190B71AB68DA
:1006300006F10C001B0A4B716B898B71EB7ACB7145
:10064000EB680B72EB681B0A4B72EB898B72EB7BCE
:10065000CB7202B070BD00BF2DE9F04303790024D6
:100660000B704C708C70CC70037983B0002B68D009
:100670000B460425C268661C52F82420F4B24FEAE7
:10068000122E170C160E1A7183F805E09F71DE7199
:1006900002790435A24203F10403EBD82B462A1D4C
:1006A000154603F1010C03F1020EDF1C067C002449
:1006B000CE5401F80C4001F80E40CC55037CABB190
:1006C0004B198269661C52F82420F4B24FEA122EAC
:1006D000170C160E4A5583F801E09F70DE70027CFD
:1006E0000435A24203F10403EBD82A46067F4B19D6
:1006F00000248E545C709C70DC70037F2E1DE3B16F
:10070000884607467B6A06F1040953F8240006F080
:10071000CCF80546019001982A4648F806007B6A05
:1007200008EB090053F8241005F0F4F901343B7F7D
:10073000E4B2A34205EB0906E4D8304603B0BDE8B5
:10074000F0830822154607274FF0060E4FF0050CE0
:100750000423ABE770B5037982B00B70064680685E
:100760000D4606F0A2F8044602AB43F8040D1868E3
:100770002246C5F80100B168681D05F0CBF9601D7F
:1007800002B070BD83882DE9F0410B70838884B07E
:100790001B0A4B70064680680D4606F086F8044634
:1007A00004AB43F80C0D18682246C5F80200B16886
:1007B000A81D05F0AFF9F06806F077F8804604ABA5
:1007C00043F8080D1868A31DE8500A34F168424642
:1007D000281905F09FF9306906F067F8074604AB61
:1007E00043F8040D18684444285104343169281929
:1007F0003A4605F08FF9736938192A182B541E0AE6
:100800001C0C190E043056709470D17004B0BDE801
:10081000F08100BF2DE9F04F037900260B704E7078
:100820008E70CE70037983B083468946002B59D0F1
:10083000DFF8C0A04FF004082AE0606806F035F841
:10084000074602AB43F8040D18683A4649F8080019
:100850006168281D05F05EF9A368E9190B71A368AA
:1008600007F10C001B0A4B7163898B71E37ACB7122
:10087000E3680B72E3681B0A4B72E3898B72E37BBC
:10088000CB7201369BF80430F6B2B34280440DD9E6
:10089000DBF818403301E2581C44136809EB0805E3
:1008A0005345CAD0294620469847EAE708F1010493
:1008B00008F1020108F1030208F10400DBF81C3022
:1008C00009F80830DBF81C301B0A09F80430BBF8C3
:1008D0001E3009F801309BF81F3009F8023003B0D0
:1008E000BDE8F08F08200722062105244FF00408F8
:1008F000E4E700BF010600002DE9F04703790D7819
:1009000082B0AB4204460E4678D32571002D7DD0CF
:100910000025AC4604F108074FF0040E06EB0E0864
:10092000D8F8000008F1030A0190019800F10409C9
:10093000B9F1040F08D95346C11C414413F8012FE3
:10094000994203F8012CF9D108EB000282F803C0A8
:10095000C4F80CA018F80930D4F81880236192F874
:100960000590290143EA0923236192F806900C308F
:1009700043EA0943236192F80790864443EA0963F6
:100980002361137A08EB0100636192F80990013545
:1009900043EA0923636192F80A90EDB243EA0943FE
:1009A0006361D27A43EA02636361FB68D7F800A00F
:1009B000D7F80490BA6848F801A0C0F804908260A3
:1009C000C3602379AB42A9D80EF101050EF10201F3
:1009D0000EF103020EF1040016F80E30E361755DAE
:1009E00043EA0523E361715C43EA0143E361B25CDE
:1009F00043EA0263E36102B0BDE8F0872901806940
:100A000002F0A4F82571A061002D81D108200722F1
:100A1000062105254FF0040EDEE700BF2DE9F04F5B
:100A2000037A00260B704E708E70CE70037A83B0FE
:100A300080468946002B00F08680DFF824A14FF025
:100A4000040B2AE0606805F030FF074602AB43F86C
:100A5000040D18683A4649F80B006168281D05F036
:100A600059F8A368E9190B71A36807F10C001B0A78
:100A70004B7163898B71E37ACB71E3680B72E36826
:100A80001B0A4B72E3898B72E37BCB72013698F8B9
:100A90000830F6B2B34283440DD9D8F81C40330174
:100AA000E2581C44136809EB0B055345CAD029468C
:100AB00020469847EAE70BF10402101D0BF10506EA
:100AC0000BF106050BF107040BF1010C0BF1020E03
:100AD0000BF10307D8F82030002109F80B30D8F8C3
:100AE00020301B0A09F80C30B8F8223009F80E3013
:100AF00098F8233009F8073098F8243009F80230C4
:100B000009F8061009F8051009F8041098F82430BF
:100B1000B3B109EB0003D8F82C204C1C52F821206B
:100B2000E1B2160A150C140E09F800205E709D70D3
:100B3000DC7098F8242004308A4203F10403EAD8D8
:100B400003B0BDE8F08F082207274FF0060E4FF0E4
:100B5000050C4FF0040B0B240C200A250926B9E7DD
:100B6000010600002DE9F04F037D0D7883B0AB4204
:100B70000446884600F10C09C0F0A5802575002DBB
:100B800000F0AA800025AA4604F118074FF0040ED1
:100B900008EB0E06306806F1030B0190019800F196
:100BA000040CBCF1040F08D95B46C11C314413F896
:100BB000012F8B4203F8012CF9D1321882F803A0DF
:100BC000C4F81CB016F80C30A66A236292F805C06F
:100BD000290143EA0C23236292F806C00C3043EA51
:100BE0000C43236292F807C0864443EA0C632362F5
:100BF000137A7018636292F809C0013543EA0C2336
:100C0000636292F80AC0EDB243EA0C436362D27A9F
:100C100043EA02636362FB68D7F800B0D7F804C008
:100C2000BA6846F801B0C0F804C08260C360237D92
:100C3000AB42ADD80EF10402161D0EF101050EF106
:100C400002000EF1030118F80E3094F83070E362E0
:100C500018F8055043EA0523E36218F8000043EA58
:100C60000043E36218F8011043EA0163E36218F8F5
:100C70000250AF4238D384F83050F5B1B04404F19B
:100C80003400002198F8023098F8015098F80020BC
:100C90001B0443EA052398F80350134343EA056312
:100CA00063630568A36B4A1C43F8215094F8303005
:100CB000D1B28B4208F10408E4D84846E36B03B094
:100CC000BDE8F04F18472901806A01F03FFF257504
:100CD000A062002D7FF456AF0822072106200525CB
:100CE0004FF0040E0C26AEE7A900A06B01F02EFF1A
:100CF000A063C0E72DE9F047037A0E7882B0B342D3
:100D000004460D46C0F0A1802672002E00F0A68099
:100D10000026B44604F10C074FF0040E05EB0E0854
:100D2000D8F8000008F1030A0190019800F10409C5
:100D3000B9F1040F08D95346C11C414413F8012FDF
:100D4000994203F8012CF9D108EB000282F803C0A4
:100D5000C4F810A018F80930D4F81C80636192F828
:100D60000590310143EA0923636192F806900C3043
:100D700043EA0943636192F80790864443EA0963B2
:100D80006361137A08EB0100A36192F809900136C0
:100D900043EA0923A36192F80A90F6B243EA0943B1
:100DA000A361D27A43EA0263A361FB68D7F800A08B
:100DB000D7F80490BA6848F801A0C0F8049082609F
:100DC000C360237AB342A9D80EF10402161D0EF1B6
:100DD00001070EF102000EF1030115F80E3094F830
:100DE00024E02362EF5D43EA07232362285C43EAA1
:100DF00000432362695C43EA01632362AF5CBE4542
:100E000034D384F82470E7B1354404F1280000217C
:100E1000AB786F782A781B0443EA0723EF781343F3
:100E200043EA0763A3620768E36A4A1C43F8217038
:100E300094F82430D1B28B4206F1040605F1040582
:100E4000E6D8304602B0BDE8F0873101C06901F054
:100E50007DFE2672E061002E7FF45AAF0822072142
:100E6000062005274FF0040E0C26B6E7B900E06A0D
:100E700001F06CFEE062C4E72DE9F041632984B023
:100E800003DD90F8FC55002D4AD0064613688846CD
:100E900010461B6806F227319847C4B2C0F30721F9
:100EA0006218D24380B286F82243FF2406F2253727
:100EB00000F2263586F8242386F82043FE225FFAC6
:100EC00088F448F3072886F821233B4686F8231345
:100ED000354486F8254386F82683002201E013F87E
:100EE000014FAB422244FAD1D243C31D00F10805A1
:100EF0009BB2ADB23344B5F5007F83F8202313D8FD
:100F000006F5487765B16B1E1F4406F1440806F2EA
:100F10001F3414F8011F404603F006FDA742F8D124
:100F2000284604B0BDE8F0813049314C03223368D3
:100F3000019103948DF808201B682E498B424DD1F6
:100F400004AB382143F8101D186886F82723C6F82B
:100F5000280304F1300C06F54B75A646BEE80F00D9
:100F6000E64528606960AA60EB6004F1100405F1B1
:100F70001005F2D103CC4FF0000E286069604FF0ED
:100F8000070CC221FF25FE243D2086F8241373465A
:100F9000624686F823E386F826E386F825C386F8BA
:100FA000205386F8214386F8220306F2633101E0DC
:100FB00017F8012F8F421344FAD1DB4306F144079F
:100FC00086F8643306F21F3506F5597415F8011FCB
:100FD000384603F0A9FCAC42F8D103E0304601AA40
:100FE000072198474FF0FF359AE700BFC074000013
:100FF000F0760000790E00002DE9F843044617460C
:10100000984600259DF8209004F1080602F010FD96
:1010100039463046A560E56025616561A561E561F9
:1010200002F08EF904F17C07414684F8209004F127
:10103000240003F047FB384603F010FD1A4B4FF035
:101040000008E36720464146C4F89450C4F8A8500D
:1010500002F05EFDA369E26820461A60282102F0D2
:1010600083FD124E124B13490122C4F8B4102365BC
:10107000114604F14000C4F8B080C4F8AC50E464F8
:101080006565266602F022FC0B4B3846C4F8944096
:10109000C4F89C50C4F8A860C4F89830074903F01D
:1010A00093FC2046BDE8F883887B0000AD02000079
:1010B00051020000CDCCCC3D6D020000A0860100A5
:1010C0002DE98048DFF878A389B0DAF800110AF139
:1010D000040003F0AFFB002213460AF5B061CAF822
:1010E000E825CAF8EC25CAF8F425CAF8F02551F825
:1010F000042F1AB10133192BF9D106E0CD4A0AEBBE
:1011000083016433C1F884255360CB4B0193A3F56D
:1011100048780EE09AF8FC3543B140F6C412D8F88E
:101120000036C3EB0903934200F2EF81012002F085
:1011300043FAC24803F07CFC42F6F822DAF804369F
:101140008146C31A934284BF002388F8FC35DAF83D
:10115000E83533B1D8F80836984284BF0023C8F880
:10116000E835B74C201D01F08FFE06460028D1D18E
:101170000121201D01F0FEFC0028CBDBD8F8F8355A
:10118000D8F8E8550344072DC8F8F83500F0FE807C
:1011900055B9FF2840F00E81012209F11403C8F867
:1011A000E825C8F80836DCE7012D00F00F81022D94
:1011B00000F06C81032D00F07381042D00F07A8122
:1011C000052D00F08681062D00F08B81082DC8D1F9
:1011D0009C4A00211A408A42CAF8E815C0F2DF8111
:1011E000FF2ABED1DAF8F035954D002B00F0C2820F
:1011F0000A2B00F08582062B00F0DA810B2B00F021
:10120000D38108EB8303D3F8F443002CA9D02368DF
:101210008D4A1B68934240F0728498F82051237DD8
:1012200004F10C02AB42029204D22901A06A01F03F
:101230008DFCA0622575002D00F0C9840425AC4604
:10124000002704F11806814B03EB0C0EDEF80000BA
:101250000EF103050790079800F1040BBBF1040F92
:1012600008D92B46C11C714413F8012F8B4203F897
:10127000012CF9D14FF000030EEB0002D370E561B1
:101280001EF80B30A56A236292F805E0390143EAA3
:101290000E23236292F806E00C3043EA0E432362E9
:1012A00092F807E0844443EA0E632362137A6818D5
:1012B000636292F809E0013743EA0E23636292F811
:1012C0000AE0FFB243EA0E436362D27A43EA026362
:1012D0006362F368D6F800B0D6F804E0B26845F867
:1012E00001B0C0F804E08260C360237DBB42AAD88D
:1012F00065462A1D161D6F1CA81CE91C554495F84F
:1013000020315744E36297F82051504443EA0523C3
:10131000E36290F82001514443EA0043E36291F80C
:101320002011524443EA0163E36292F8205194F899
:101330003030AB4204D2A900A06B01F007FCA063DF
:1013400084F83050F5B10AEB0600002504F13406AC
:1013500090F8223190F8211190F820211B0443EAE3
:10136000012390F82311134343EA01636363326856
:10137000A36B043043F8252094F830300135EDB2EA
:10138000AB42E5D8E36B02989847EAE6D8F8F42533
:10139000D8F8EC35511C013B4244C8F8F41582F8EA
:1013A0002001C8F8EC35002B7FF4DBAE0823CAF827
:1013B000E835D6E604F5827003F03AFBC9EB00008D
:1013C00005287FF6CEAE84F8FC55AFE6FE287CD02B
:1013D00098F8FC35C8F8E865002B7FF4C2AE0A2007
:1013E0001A4688F8273388F8283388F8293388F88C
:1013F0002A3388F82B3388F82C3388F82D3388F873
:101400002E3388F8233388F82633FE230146FF2540
:1014100088F8250388F821330820F72388F8243337
:1014200088F8205304F2253388F8220304F22E347E
:1014300010E000BFBC070010A404001088020010D8
:1014400084010010FF000080650B0000A402001062
:1014500013F8011FA3420A44FAD1D243019B8AF830
:101460002F231C4603F10F06FF2101E014F8011F92
:10147000DB4D05F1440003F057FAB442F6D105F50F
:10148000827003F0D5FAC5F814016AE60323C8F8A0
:10149000EC05C8F8F465C8F8F805C8F8E83560E662
:1014A000D8F8EC35042203EB0020C8F8EC05C8F8A6
:1014B000E82556E6CB4A1A40002A21DBFF2A0CBF5A
:1014C00005230023CAF8E8354BE60223C8F8E835BF
:1014D00047E60623C8F8F005C8F8F805C8F8E83567
:1014E0003FE6DAF8F035DAF8EC2503EB00230721C4
:1014F000CAF8F035CAF8E815002A3FF457AF30E6CD
:10150000013A62F0FF020132D8E70A24FF25B64B08
:1015100000202146FE2688F8254388F82053F7242A
:101520000825024688F8270388F8280388F8290345
:1015300088F82A0388F82B0388F82C0388F82D03F1
:1015400088F82E0388F8230388F8260388F8216397
:1015500003F1090088F8225388F8244301E013F8C6
:10156000011F83420A44FAD1D243019B8AF82F23F8
:101570001C4603F10F06FF2101E014F8011F984DEE
:1015800005F1440003F0D0F9B442F6D105F58270BC
:1015900003F04EFAC5F80096C5F81401C6E5013A05
:1015A00062F0FF0201321BE6002388F8FC35D8E523
:1015B00098F8204198F81436A34206D2A100D8F832
:1015C0001C0601F0C3FAC8F81C068AF81446002C61
:1015D00000F00583824D0426002495F8263195F805
:1015E000251195F824211B0443EA012395F82711BE
:1015F000134343EA0163CAF818367C4B0436186873
:10160000DAF81C36043543F824009AF8143601340D
:10161000E4B2A342E1D8351D2C46564496F8206129
:101620009AF82036B34206D2B100D8F8280601F065
:101630008DFAC8F828068AF820660EB308EB04066F
:10164000002596F8223196F8211196F820211B04E6
:1016500043EA012396F82311134343EA0163CAF8CE
:101660002436634B04341868DAF82836043643F815
:1016700025009AF820360135EDB2AB42E1D8254677
:10168000554495F820519AF82C36AB4206D2A90061
:10169000D8F8340601F05AFAC8F8340604348AF847
:1016A0002C564DB30027BE46524B261D18590790A5
:1016B000079D3544B54209D9324604F22313434409
:1016C00059780132954203F8011BF9D8494A731E33
:1016D00013440AEB050282F81FE1CAF83036464B84
:1016E0002C461868DAF8343643F827009AF82C3676
:1016F0000137FFB2BB42D7D801238AF80C3630E558
:1017000005F5827003F094F9D8F81441D8F8202137
:10171000D8F82431394F041B05F58270561E1F443A
:1017200003F086F9364B3649A3FB0432A1FB001EB9
:101730004FF47A73920903FB12444FEA9E1E03FB97
:101740001E033048324400FB047100FB1313CEEB40
:10175000020205F58E7105F58C70C8F81C31C8F8C9
:10176000182101F019FC05F5827003F061F9C8F841
:101770000406F6E485F8273385F8283385F82933FD
:1017800085F82A3385F82B3385F82C3385F82D33EB
:1017900085F82E3385F8233385F826331946FE2342
:1017A0000A2485F8202385F821330822F72385F8B9
:1017B000243385F8254385F8222305F22E3320466D
:1017C00005F2253501E015F8010F9D420144FAD1DB
:1017D000C9430D4B8AF82F1301931D46FF2117E0D3
:1017E00084010010FF000080A90400109C07001075
:1017F000A8070010A4020010B407001000CA9A3B0A
:10180000D34D621040420F00A404001015F8011FD0
:10181000BE4C04F1440003F087F804F22F339D42DC
:10182000F4D104F5827003F003F904F55973C4F898
:10183000140104F21C5B02935BF8043F002B00F0E0
:101840009E8058689A680168039289681F68884773
:10185000DBF80030064658680368DB689847DBF819
:10186000003004461D69039A632D04DD9AF8FC35A7
:10187000002B00F08480C2F3072338468AF8272320
:101880008AF8283305F011F8034605900598A04A18
:10189000394610601A469F48039304F03BF93046DE
:1018A00005F003F8039B06900746314606989A4ECA
:1018B0009A1DB05030460A333A461844039304F058
:1018C00029F9204604F0F1FF06460790039B07988C
:1018D000914A3B441F1DD0508F4B21463246D819A8
:1018E00004F018F9F3191C1DE1B2C4F307268F198F
:1018F000FF43002053444FF0020EA4B283F828E3C4
:1019000083F8270383F8290383F82A0302464FF05C
:10191000FF0E04F226308AF824738AF82213FE2779
:10192000E9B245F307258AF823637C4B50448AF8D3
:1019300020E38AF821738AF825138AF8265301E0F8
:1019400013F8011F83420A44FAD1D243E11D04F186
:10195000080389B29BB25144B3F5007F81F820237C
:1019600000F241815BB103F21F336D4C08EB0305BC
:1019700014F8011F6B4802F0D7FFAC42F8D16A4B54
:101980009B457FF459AF9B465BF8040F002800F09D
:101990009A8090E8880065499A6886688A4240F093
:1019A000A880634DDA6863498A4240F09C80624CAB
:1019B0005B68624A934240F09380036C632B03DDC3
:1019C0009AF8FC25002A7ED0C7F3072230460293FE
:1019D0008AF827738AF8282304F067FF07460590E2
:1019E0004B4B0598314618603A46181D04F092F8A2
:1019F000284604F05AFF06460690474B0698BA1D43
:101A00000A37985029463246D81904F083F8204600
:101A100004F04BFF054607903F4B374407983E1DA7
:101A2000D85121462A46981904F074F8A9190C1DBA
:101A30005FFA84FEC4F307250EEB0506F643029B0E
:101A4000002051440227A4B281F8287381F82703AB
:101A500081F8290381F82A030246D9B204F226301C
:101A6000FF278AF824638AF822E3FE2643F3072E31
:101A70008AF82353294B50448AF820738AF821634B
:101A80008AF825138AF826E301E013F8011F98422B
:101A90000A44FAD1D243E11D04F1080389B29BB292
:101AA0005144B3F5007F81F820234BD85BB103F29A
:101AB0001F331B4C08EB030514F8011F194802F0F3
:101AC00033FFA542F8D11E4B9B457FF45DAF012348
:101AD000CAF80096CAF804968AF8FC35FFF726BBC8
:101AE000984703466AE790470446DBF8000003681E
:101AF0005EE790470546DBF80000036852E705F50E
:101B0000907120469847FFF72CBB00BF840100105E
:101B1000AD040010B1040010AB040010A9040010C3
:101B2000A3040010C801001004070010CD0200003B
:101B3000B0760000D5020000CC760000C90200009B
:101B4000680700104A4D4B4C0FCD0FC40FCD0FC48A
:101B50000FCD0FC495E80300032388F827333823FB
:101B6000C8F82833FF2384E8030088F82033FE23D5
:101B700088F821333D2388F8223300274FF0070EE1
:101B8000C22304EB0E023E46F446373C88F823732A
:101B900088F8267388F825E388F8243301E014F8E0
:101BA00001CF94426644FAD1F643334C8AF8646319
:101BB000FF2101E014F8011F304802F0B5FE304B60
:101BC0009C42F7D12F4B9B457FF4DEAE7FE7082286
:101BD00007210620052704250C26FFF78FBB0825C3
:101BE0002C46042619E5224D224C0FCD0FC40FCDF3
:101BF0000FC40FCD0FC495E80300032388F82733E3
:101C00003823C8F82833FF2384E8030088F82033FA
:101C1000FE2388F821333D2388F8223300274FF034
:101C2000070EC22304EB0E023E46F446373C88F80A
:101C3000237388F8267388F825E388F8243301E0B5
:101C400014F801CFA2426644FAD1F6430A4C8AF84E
:101C50006463FF2101E014F8011F084802F064FEEC
:101C6000029B9C42F7D1084B9B457FF4E5AD8AE689
:101C7000F0760000B0040010A4040010C8010010A9
:101C8000E804001068070010040700102DE9F04F69
:101C90000746C14BC14991B0002200F5B06800F27F
:101CA0001C5B0A910C930D930E93ADF82C200F92B0
:101CB000CDF804805BF8043F002B00F0BD8058682D
:101CC0001C6801689A680C948B68ADF82C209847C2
:101CD000DBF800300D9058680368DB6898473B6874
:101CE000DBF800104FF400720E901B680E690F9223
:101CF000AB4A8146934240F08B81632E04DD97F816
:101D0000FC35002B00F09880BDF82C300C9D1A0A91
:101D100087F8273387F82823284604F0C6FD0446B1
:101D200010AB43F82C0D186829462246C7F8290342
:101D300007F22D3003F0EEFE0D9D10AB2846009308
:101D400004F0B3FD07F2273E034629467546009A84
:101D5000069052F8280D02930092A21D0A344EF804
:101D600002001A46281903F0D5FE484604F09DFDEE
:101D70008246029B07900DF14008234458F8240D39
:101D80001C1DE85049465246281903F0C3FE0AEBD1
:101D90000400011D5FFA81FAC1F307290AEB090E5D
:101DA0006FEA0E0E00242C5405EB000C89B20220C1
:101DB0008CF802408CF803408CF8010007F22533C0
:101DC000224601F22630FF2487F824E3FE255FFA3D
:101DD00086FE46F30726029387F822A387F823930B
:101DE000384487F8204387F8215387F825E387F89C
:101DF000266301E013F801EF98427244FAD1D2430E
:101E0000C81D01F1080380B29BB23918B3F5007FF9
:101E100081F8202300F21D8107F5487563B1013B6D
:101E20001D4407F1440607F21F3414F8011F304621
:101E300002F07AFDA542F8D1019B9B457FF43AAFB1
:101E4000984607F2E453019358F8040F002800F075
:101E5000D5808268036841680C929A68ADF82C10AE
:101E600050498A4240F0EF804F4A0D92DA684F495C
:101E70008A4240F0E2804E4A39680E924FF4007276
:101E80005B680C680F924B4A934240F0D380066C1B
:101E9000DFF80CA1544540F0C480632E04DD97F8B0
:101EA000FC35002B00F0AA80BDF82C300C9D1A0ADE
:101EB00087F8273387F82823284604F0F6FC0446E1
:101EC00010AB43F82C0D186829462246C7F82903A1
:101ED00007F22D3003F01EFE0D9D10AB2846009337
:101EE00004F0E3FC07F2273E034629467546009AB4
:101EF000069052F8280D03930092A21D0A344EF862
:101F000002001A46281903F005FE0E990DF140094A
:101F10000846029104F0C9FC8346039B07902344C2
:101F200059F8240D1C1DE8505A462819029903F04F
:101F3000F1FD0BEB0400021D5FFA82FBC2F3072CDC
:101F40000BEB0C04E4430F9905EB000E2954080A2F
:101F50008EF8010092B2080C090E8EF802008EF87D
:101F6000031007F22533FE2102F22630FF2587F801
:101F70002443F4B246F3072687F82113029387F827
:101F800022B387F823C3384487F8205387F82543C2
:101F900087F82663002111E028770000A87400006C
:101FA000790E0000CD020000B0760000D5020000DE
:101FB000CC760000C902000013F8014F984221447A
:101FC000FAD1C943D01D02F1080380B29BB23A187E
:101FD000B3F5007F82F8201300F2998007F5487569
:101FE00063B1013B1D4407F1440607F21F3414F8A6
:101FF000011F304602F098FCA542F8D1019B4345F1
:102000007FF422AF012387F8FC3511B0BDE8F08FD3
:1020100031460AAA38469847019B9B457FF44AAE51
:102020000EE731460AAA3846A047019B43457FF494
:102030000BAFE7E7984706462AE790470246D8F8ED
:102040000000036818E790470246D8F800000368CC
:102050000BE761490322079160493B6809918DF8BC
:1020600020201B685E498B4240F0AC8038230693E9
:10207000009B5A4C186887F82723C7F8280304F1F7
:10208000300E07F54B7526460FCE76452860696001
:10209000AA60EB6004F1100405F11005F3D103CC44
:1020A000029B28606960FF20FE2100264FF0070E8A
:1020B00087F8200387F821133D20C22187F82413D5
:1020C0003246744687F8236387F8266387F825E34A
:1020D00087F8220307F2633101E013F8014F9942B8
:1020E0002244FAD1D24307F1440687F8642307F269
:1020F0001F3407F5597514F8011F304602F014FC1F
:10210000AC42F8D1019B9B457FF4D4AD98E63249AF
:10211000324C03223B68079109948DF820201B68FC
:10212000534554D138230693009B87F8272318681A
:1021300004F1300EC7F8280307F54B7526460FCE7D
:10214000764528606960AA60EB6004F1100405F12F
:102150001005F3D103CC029B28606960FF20FE21AB
:1021600000264FF0070E87F8200387F821133D2043
:10217000C22187F824133246744687F8236387F810
:10218000266387F825E387F8220307F2633101E02D
:1021900013F8014F8B422244FAD1D24307F144068F
:1021A00087F8642307F21F3407F5597514F8011FE7
:1021B000304602F0B9FBA542F8D1019B43457FF4BC
:1021C00043AE1FE7424607213846984734E64A4661
:1021D00007213846984711E7C0740000F0760000E8
:1021E000790E00002DE9F04F044600F5827A8BB09D
:1021F000504602F01DFC42F6F822D4F8043683461D
:10220000C31A934284BF002384F8FC35D4F8E83520
:1022100033B1D4F8083683423CBF0023C4F8E83514
:1022200004F10409484600F02FFE054678B194F801
:10223000FC0548B140F6C412D4F80036C3EB0B03DA
:10224000934200F2D58100200BB0BDE8F08F012150
:10225000484600F08FFC0028E9DBD4F8F835D4F8C4
:10226000E8650344072EC4F8F83500F0048156B938
:10227000FF2840F0148101220BF11403C4F8E82573
:10228000C4F80836CEE7012E00F01881022E00F0C7
:102290006D81032E00F07481042E00F07B81052EE9
:1022A00000F08781062E00F08C81082EBAD1CC4A2E
:1022B00000211A408A42C4F8E815C0F2FC81FF2AC6
:1022C000B0D1D4F8F035002B00F0FF820A2B00F0DB
:1022D000AB82062B00F0FD810B2B00F0F68104EBA6
:1022E0008303D3F8F453002D9CD02B6804F590722F
:1022F00001921B68BB4A934240F0DA8294F8206155
:102300002B7D05F10C02B3420292C0F0CB822E75F8
:10231000002E00F0D182042307AACDF810909C462D
:1023200091460594019C002705F11806CDF80CA0F4
:1023300004EB0C0EDEF800000EF10308C9F80000F3
:10234000079800F1040ABAF1040F08D94346C11CEA
:10235000714413F8012F8B4203F8012CF9D14FF08F
:1023600000030EEB0002D370C5F81C801EF80A3083
:102370000C302B6292F80580844443EA08232B62D8
:1023800092F80680D5F828E043EA08432B6292F8D9
:102390000780390143EA08632B62137A01376B62C5
:1023A00092F80980FFB243EA0820686292F80A8036
:1023B0000EEB010340EA08406862D27A40EA02600C
:1023C0006862D6F800A0D6F80480B068F2684EF8CB
:1023D00001A0C3F804809860DA602B7DBB42A7D8C7
:1023E0006346DDF80CA01A1DDDF81090059C0CF179
:1023F000010E161D981C0CF1030C019995F8307014
:10240000CB5CEB6211F80EE043EA0E23EB62085C52
:1024100043EA00430846EB6211F80C1043EA0163FB
:10242000EB6210F802804745C0F0358285F83080B5
:10243000B8F1000F1BD0019B00203344194605F171
:1024400034068B784F780A781B0443EA0723CF7849
:10245000134343EA07636B633268AB6B043143F8A1
:10246000202095F830300130C0B28342E9D8EB6BC0
:1024700002989847D6E6D4F8F4355A1C2344C4F899
:10248000F42583F82001D4F8EC35013BC4F8EC3591
:10249000002B7FF4C7AE0823C4F8E835C2E65046E7
:1024A00002F0C6FACBEB000005287FF6BBAE6FF05A
:1024B000010084F8FC650BB0BDE8F08FFE2874D0F5
:1024C00094F8FC35C4F8E855002B7FF4ABAE4649D0
:1024D000226807911568454A08939542099340F090
:1024E000E0800A201A460146FF2684F8273384F844
:1024F000283384F8293384F82A3384F82B3384F87A
:102500002C3384F82D3384F82E3384F8233384F865
:102510002633FE25F72384F82503082084F82203B8
:1025200084F8243384F8206384F8215304F225339B
:1025300004F22E3001E013F8011F98420A44FAD148
:10254000D24304F1440784F82F2304F21F3504F228
:102550002F3615F8011F384602F0E6F9AE42F8D1E1
:10256000504602F065FAC4F814015BE60323C4F890
:10257000EC05C4F8F455C4F8F805C4F8E83551E69C
:10258000D4F8EC35042203EB0020C4F8EC05C4F8C1
:10259000E82547E6124A1A40002A7DDBFF2A0CBFD5
:1025A00005230023C4F8E8353CE60223C4F8E835E7
:1025B00038E60623C4F8F005C4F8F805C4F8E83591
:1025C00030E6D4F8F035D4F8EC2503EB00230721EE
:1025D000C4F8F035C4F8E815002A3FF45CAF21E6F2
:1025E000FF000080650B000090740000790E000071
:1025F000C44A236807921D68C34A00239542089382
:1026000009935DD10A201A460146FF2684F8273334
:1026100084F8283384F8293384F82A3384F82B3358
:1026200084F82C3384F82D3384F82E3384F8233344
:1026300084F82633FE25F72384F82503082084F840
:10264000220384F8243384F8206384F8215304F2AD
:10265000253304F22E3001E013F8011F98420A449A
:10266000FAD1D24304F1440784F82F2304F21F3532
:1026700004F22F3615F8011F384602F055F9B5421D
:10268000F8D1504602F0D4F9C4F814010020C4F87F
:1026900000B60BB0BDE8F08F013A62F0FF020132E4
:1026A0007CE707AA0A212046A847504602F0C0F955
:1026B000C4F81401B6E5013A62F0FF020132FEE50A
:1026C00007AA0A212046A847DBE7002384F8FC3547
:1026D000A8E594F8206194F8143604F59075B34297
:1026E00006D2B100D4F81C0600F030FAC4F81C067B
:1026F00084F81466002E00F00181284604F5C367B3
:1027000004260021837990F805E002791B0443EA4E
:102710000E2390F807E0134343EA0E63C4F818361B
:102720003A68D4F81C36043643F8212094F814365D
:102730000131C9B28B4200F10400E3D8371D3346A2
:102740003E4615F8038094F82036434507D24FEAF9
:102750008801D4F8280600F0F9F9C4F8280684F8AE
:102760002086B8F1000F20D004F22467A8190023B6
:10277000827890F801E00178120442EA0E2290F883
:1027800003E00A4342EA0E62C4F824263968D4F80A
:102790002826043642F8231094F820260133DBB2B1
:1027A0009A4200F10400E3D83746EF5D94F82C36E6
:1027B000BB4206D2B900D4F8340600F0C7F9C4F819
:1027C0003406331D84F82C7657B3002607AAB64684
:1027D000944604F5C667E858191DCCF80000079A1E
:1027E0000A448A4209D9084603332B4413F8018F5F
:1027F0000130824203F8018CF8D84B1E2B44A918F3
:1028000001F801ECC4F830363868D4F834161346B1
:1028100041F8260094F82C260136F6B2B242DAD8F6
:10282000012384F80C36FDE4504602F001F9D4F897
:102830001451D4F82431DFF8DC80451B504698440D
:10284000D4F8206102F0F4F8304B304AA3FB05378E
:10285000A2FB00124FF47A73BF0903FB17559109CD
:102860002B4A03FB110302FB05822948013E00FBB2
:1028700013233E44721AC4F81C31C4F8182104F51D
:102880008E7104F58C7000F087FB504602F0D0F892
:10289000C4F80406C6E44FEA8801A86B00F056F9B4
:1028A000A863C3E53101A86A00F050F9A8622EE5DB
:1028B000019928469847B5E408224FF0070C0620F6
:1028C0004FF0050E04230C2697E50E492268079168
:1028D00008930A2109932046136807AA984750468F
:1028E00002F0A6F8C4F814012046FFF7CFF9C4F8A7
:1028F00000B6C4F804B64FF0FF30A5E408273E4602
:1029000004231EE790740000790E0000D34D62107E
:1029100040420F0000CA9A3BF0B5012483B0002565
:102920000094444B444A45494548FEF765FB454BF6
:10293000454A464900954648FEF75EFB0094454BE4
:10294000454A46494648474CFEF756FB464B474AE0
:10295000474900954748FEF74FFB474A47492846F5
:1029600002F03AFA2046464A46492B4640F8042BE4
:10297000454A00F05FFA04F5827002F03DF84FF42A
:102980006143C4F8003104F5827002F045F829462D
:102990003E4B84F8FC55C4F8103684F81456C4F83D
:1029A0001C5684F82056C4F8285684F82C56C4F8CF
:1029B000345604F21C5204F5B06342F8041F9342EB
:1029C000FBD13349002243F8042F9942FBD1314A0D
:1029D000002102F5007302F8011F9A42FBD12E4933
:1029E000002203F8012F8B424FF00004F9D1224A54
:1029F0002A491C4802F0F0F9294B2A49DFF8BCE0CB
:102A0000294F2A4E2A4D2B482B4A196001211C754B
:102A10001C625C629C62DC6283F830409C63C3F899
:102A20000CE01F619E61DD61D86319649A6003B098
:102A3000F0BD00BF06C009200BC0092040C009201E
:102A40000008001007C009200AC0092041C0092061
:102A5000B808001008C0092005C0092042C009209C
:102A6000700900108401001009C0092004C0092069
:102A700043C00920280A0010C8000010D92A00000D
:102A80003875000002C0092003C00920D874000076
:102A900068070010A3020010A3060010C12A00005E
:102AA000BC0700104C75000008750000F0740000B1
:102AB00028770000E50200002C7700002075000058
:102AC00010B50446034B40F8043B00F055F920468E
:102AD00010BD00BF38750000F8B50A4C0A4FA4F5C8
:102AE0003876B83C04F17C052846E76701F064FFBE
:102AF000284601F0C7FF04F1240001F0ABFDB44209
:102B0000EFD1F8BDE00A0010887B0000074A0848B2
:102B100008B50021121A03F023F8AFF3008002F089
:102B200069FF02F0FBF802F067FC00BFB40D001073
:102B300068010010022801DC0120704702F0B6B8DD
:102B4000EFF3058303B100BE02F0C6BFEFF30583C8
:102B500003B100BE03F034BDEFF3058303B100BE43
:102B600002F0C2BF08B5012002F046FC08B5FFF72D
:102B7000F9FF00BFC36F70B5002B2DD0426E002A45
:102B80002AD000292FD0D0F88430002BFBD0436FFF
:102B90000446D55C436FEDB201334367426FC36FA8
:102BA0009A42A4BF00234367D0F88420C36F9A429F
:102BB00009D0C36D5E685A6822F001025A6000F0C5
:102BC00019F8E36D5E6072B6D4F88430013BC4F846
:102BD000843062B6284670BDC26D137DDB07FCD51C
:102BE0001078C0B270BDD0F88430002BCFD14FF038
:102BF000FF3070BDC36D70B5002B4ED0C26F002A80
:102C00004BD0426E002A48D0044600F158050026F9
:102C100020E0626E8AB1E16E94F86130DBB2535409
:102C2000D4F884300133C4F88430E36E0133E366B2
:102C3000E26EE36F9A42A8BFE666D4F89830002BA4
:102C400034D02846984794F8942094F861309A42FA
:102C50001CD0E36D1A7DD00738D51B78DBB284F821
:102C60006130D4F88420E36F9A42D2D194F8613075
:102C7000D4F8B820DBB2C4F88C307AB32846904739
:102C800094F8942094F861309A42E2D1D4F8E83074
:102C9000002B48D028469847DBE7D0F8983000F161
:102CA000580183B3BDE8704008461847D4F89C002B
:102CB0000028C8D0D4F8A020D4F8A4303AB1D9075D
:102CC00007D400EB630029469047BCE770BDD907E5
:102CD000B9D55B10C15818448A58F4E7D4F8BC3011
:102CE000002BB0D0D4F8C020D4F8C40022B1C10762
:102CF00004D403EB6000E6E7C107A4D540101958DF
:102D000018448A58DFE7D0F89C30002BDED0D0F88A
:102D1000A020D0F8A4001AB3C40714D403EB6000B9
:102D2000BDE870401047D4F8EC00002891D0D4F8EA
:102D3000F020D4F8F4305AB1D9070CD400EB63007A
:102D40002946904785E740101C581844A258E7E7E9
:102D5000D9077FF57EAF5B10C15818448A58EFE75A
:102D6000C507F0D470BD00BF704700BF10B5044662
:102D700002F037F8204610BDF8B5044690F8F82068
:102D8000144D53B2406E01215B0902F01F02124E36
:102D900001FA02F205F11807203305F14C01256014
:102DA0002764616446F8232008B1FFF7D5FEA06EC2
:102DB00008B1FFF7D1FE094B04F1400003F11801FF
:102DC00003F14C0223602164626401F09BFD204604
:102DD000F8BD00BF6077000000E100E0D07A00009D
:102DE000A0F14000FFF7C8BFA0F14400FFF7C4BF47
:102DF00010B50446FFF7C0FF204601F0F2FF204661
:102E000010BD00BFA0F14400FFF7F2BFA0F14000E9
:102E1000FFF7EEBF0121FFF7ADBE00BFA0F14000FC
:102E2000F8E700BF012200F035B800BFA0F1400074
:102E3000F8E700BF38B50446154601F0ABFC114B6E
:102E4000002103F118000A46A16503F14C0123603B
:102E50006164206404F1A80304F5847143F8102C24
:102E600043F80C2C43F8082C43F8042C10338B4205
:102E7000F4D14FF4807220462B46114600F0B2F890
:102E8000204638BD60770000D0F88400B0FA80F0AA
:102E900040097047836E70B5044613B1D0F8803096
:102EA0003BB9E26D137D9E06FCD5C9B211700020BE
:102EB00070BDC36D187D850605D5D4F8880010B99E
:102EC000C9B2197070BD0D46C2B15E685A6822F071
:102ED00002025A60D4F88820D4F880309A4209D18E
:102EE0000021204600F002F9D4F88820D4F8803080
:102EF0009A42F5D0E36D5E60E36D05E0D4F888108A
:102F0000D4F88020914220D05A68E9B222F002021F
:102F10005A60236FA26ED15472B6D4F88830013350
:102F2000C4F8883062B6236F002001332367226F14
:102F3000D4F880309A42A8BF0023E26DA8BF23676F
:102F4000536843F00203536070BDD4F8C830C4F82E
:102F5000905004F158001BB198474FF0FF3070BDFE
:102F6000D4F8CC20AAB1D4F8D050D4F8D43075B16C
:102F7000D90707D402EB630301461846A8474FF070
:102F8000FF3070BD5B10D15813444D59F4E7DC0796
:102F9000F8D44FF0FF3070BD10B40C68064A630AD5
:102FA000A2FB0323054ADB0902FB13420468234406
:102FB000036010BC0A607047834B040000CA9A3B50
:102FC0004B68DA0705D55B100A68C15818448A585F
:102FD00010470A6800EB6300104700BF012100F0B2
:102FE00085B800BFF8B5044690F8F85001266BB2DA
:102FF0005B0905F01F05384F203306FA05F547F841
:10300000235016460D4600F00DF9E36DA465002B24
:103010005ED0002EE66747DDE06FFFF791FD0021EF
:10302000E16660666167C4F88410C4F88C10002CF7
:1030300042D02A4A2A4B261D2261E4606161236244
:103040003046012200F0D4FF002DC4F880503DDD51
:10305000D4F88000FFF774FD224900232367A0669F
:10306000A367C4F88830C4F89030F9B1F4B11C4DAE
:103070000122A1626462E3623046A563114600F05A
:10308000B7FF204600F0FAF894F8F83001215AB260
:1030900003F01F0301FA03F30F480021520984F8DB
:1030A000941040F82230F8BD0020B8E730460022E6
:1030B000012100F09DFFE4E7042630462246214628
:1030C00000F096FF002DC4F88050C1DC0020C3E75B
:1030D000054800F011F9D4E700E100E0F52B00000D
:1030E000C12F0000DD2F0000B4770000C36D2DE973
:1030F000F04113B3D0F88030FBB1836EEBB10E46D4
:103100000446002700F15805D4F888301BB1E26D61
:10311000137D98061AD4D4F88830002B33D1E26D91
:1031200004F15800536823F002035360D4F8D830F8
:10313000002B4BD0BDE8F0411847D0F8A83000F183
:10314000580113B3BDE8F04108461847A36FA16EBC
:10315000CB5CDBB284F860301370D4F88830013B6C
:10316000C4F88830A36F0133A367A26FD4F880300E
:103170009A4200DBA767002EC6D0D4F8A830ABB1C6
:1031800028469847C0E7BDE8F081D0F8AC30002B66
:10319000F9D0D0F8B020D0F8B400002A3AD0C40753
:1031A00027D403EB6000BDE8F0411047D4F8AC0031
:1031B0000028A9D0D4F8B020D4F8B430F2B1D9079F
:1031C0001ED400EB6300294690479DE7D4F8DC301D
:1031D000002BD8D0D4F8E050D4F8E420F5B1D107D2
:1031E00013D403EB6203014618462B46BDE8F041B9
:1031F000184740101C581844A258D4E7D90783D563
:103200005B10C15818448A58DDE75210995813448E
:103210004D59E8E7C507ECD4BDE8F081D407F4D4F4
:10322000BDE8F0818368032B1BD8DFE803F0140EA0
:1032300008020E4A0823C26580F8F83070470C4A2D
:103240000723C26580F8F83070470A4A0623C26532
:1032500080F8F8307047084A0523C26580F8F830D6
:1032600070470023C36580F8F830704700C00940FC
:10327000008009400000014000C00040C36D0722EB
:103280001A72704700B599B072B61749684600F0D7
:1032900057F806A8154900F053F80CA8144900F097
:1032A0004FF812A8134900F04BF8039A01990A9BB2
:1032B00011600799109A19600D99159B1160139A66
:1032C00096201A6000F078F9049A0199099B116020
:1032D00007990F9A19600D99169B1160139A962001
:1032E0001A6000F069F9E0E732C0092034C0092013
:1032F00035C0092037C009200FB400B5064A83B095
:1033000004AB53F8041B10681A46C068019302F01E
:103310000BFE012002F070F85401001038B50D4684
:10332000044600F0C9F9013509D02046002100F01B
:10333000E5F92046BDE83840032100F0DBB938BD8F
:1033400038B50D46044600F0B7F901350CD02369B5
:103350006268204601211A6000F0D0F92046BDE8DD
:103360003840022100F0C6B938BD00BF70B50D4627
:103370001646044600F0A0F9013511D066B923695C
:1033800062681A602046012100F0B8F92046BDE8C5
:103390007040022100F0AEB9E36862681A60F1E79C
:1033A00070BD00BF00F06EB8431C1CD00B685A1CE7
:1033B0001AD0984210B5044602D10AE09C4208D0C7
:1033C00051F80C3F5A1CF9D10948BDE81040FFF7ED
:1033D00093BF2046896800F0DFFA2046BDE8104020
:1033E000022100F0F5BA70470148FFF785BF00BF22
:1033F000E477000088420AD0421C09D0013106D08F
:1034000008B50448FFF778FF4FF0FF3008BD70475C
:1034100008467047F87700000B685A1C08D098429D
:1034200002D107E0834205D051F80C3F5A1CF9D174
:103430001846704748687047421C0ED008B50B68A4
:103440005A1C04D10AE051F80C3F5A1C06D098428D
:10345000F9D14868411C01D008BD70470248FFF708
:103460004BFF4FF0FF3008BD0C78000030B585B041
:1034700018246D4620462946ABBE0446204605B0BA
:1034800030BD00BF024B186800F00100704700BF5C
:10349000F0ED00E038B504460D4603681B68984718
:1034A00063681D6038BD00BF036870B5DB68054602
:1034B00098476B685B6883B12A681C6853689847B3
:1034C000201A00286A680DDC506811688368536010
:1034D0000029F0D040688847EBE72B68BDE87040D2
:1034E0009B6818472B6852681B691068BDE87040DC
:1034F000184700BF30B583B072B644680A6065688B
:103500004B608DB12B68D31A002B05DA0CE01C68D8
:10351000141B002C03DB1D46AB68002BF7D1A96000
:103520008B6062B603B030BD036861601B691046F2
:10353000019198472B460199F2E700BF08B572B692
:1035400043685A688A4211D04AB19368994208D0B8
:103550002BB19A68914205D01346002BF9D162B67F
:1035600008BD13468A689A6062B608BD92685A60C0
:10357000036822B110681B69984762B608BD9B6852
:103580009847ECE703685B68184700BF004870473E
:10359000607800000148FFF787BF00BF6078000037
:1035A00038B5054600F02EFF044600F02BFF001B47
:1035B000A842FAD338BD00BF4FF47A7303FB00F082
:1035C000FFF7EEBF0C4B30B49D689A682B46B2F102
:1035D000805F0CD2094AC43553F8044BAB4242F821
:1035E000044FF9D14FF080521346034CA2601030C3
:1035F00043F8201030BC704700ED00E0FCFFFF0FE7
:103600002B4A2023F0B4C2F8A031D2F8A03198069A
:1036100045D4274B002519460124AA20552202270C
:103620000B26C3F80471C3F8A851C3F8AC51C3F812
:103630000C41C3F88460C3F88C00C3F88C20C3F835
:103640008040C3F88C00C3F88C20D1F88830184A29
:103650005B01FAD511460324AA205523C2F8804005
:10366000C2F88C00C2F88C30D1F88830104A13F0C0
:10367000407FF9D00F4900230520C2F80801C2F8A5
:10368000C410C2F8C8311368F0BC23F4704323F0AF
:103690003A0343F4405343F03A0313607047D2F8BF
:1036A000A0315906B5D4D2F8A0315906F7D5B0E704
:1036B00000C00F40DE8728044A1C016018D038B5CE
:1036C0000C4605460021204600F066F924F01F0153
:1036D00004F01F020123934001F1180401F11C00C2
:1036E00001F11402A9606B60EC6028616A6138BD69
:1036F000704700BF006800F06BB900BF41B10129FD
:1037000005D18268436811680B43136070477047A6
:1037100082684168136823EA01031360704700BFA1
:103720002DE9F04F434B83B05C689F685E6A9D6AE9
:1037300014B39946DFF80081DFF800B14FF0010AB9
:1037400005E00AFA03F3E41AC9F80C3014D0B4FA0D
:1037500084F3C3F11F03DBB258F823000028F0D034
:10376000DBF80020012101939047019B0AFA03F343
:10377000E41AC9F80C30EAD1DFB1DFF8BC80DFF819
:10378000BCA0DFF8B09006E0012303FA04F43F1B6D
:10379000C9F80C400DD0B7FA87F4C4F11F04E4B2A5
:1037A00058F824000028EFD0DAF8003002219847BA
:1037B000EAE7EEB1DFF88080DFF880901D4F05E08A
:1037C000012303FA04F4361BFC6211D0B6FA86F426
:1037D000C4F11F04E4B20F2C04F12003F0D858F810
:1037E00023000028ECD0D9F8003001219847E7E702
:1037F000E5B1114FDFF844800E4E05E0012303FAD6
:1038000004F42D1BF46211D0B5FA85F4C4F11F0441
:10381000E4B20F2C04F12003F0D857F8230000285D
:10382000ECD0D8F8003002219847E7E703B0BDE8B4
:10383000F08F00BF80800240EC0A0010E80A001000
:10384000B1F1FF3F29D070B50446154E1D4615480D
:1038500021F01F03B34201F01F0102602360616089
:1038600019D0114A934206D01048FFF745FD23684E
:103870006168B3420FD001F120020D4BA2600D49E7
:10388000152043F82250FFF79DFE0B4B4FF400121A
:103890001A60002070BD0A46EFE70846704700BF77
:1038A00000C00920E80A001040C009206878000024
:1038B000EC0A00102137000000E100E08268024BB2
:1038C000002143F822107047EC0A001030B403685E
:1038D0002E4CA3421CD02E4DAB4207D0012934D030
:1038E000A3421CD0AB4208D030BC704745680123CE
:1038F000284CAB400129E3622ED0264940680123C1
:10390000F2B930BC4A6B834022EA03034B63704731
:10391000456801231F4CAB400129E36025D01D49B8
:10392000406801232AB130BC4A69834013434B618C
:1039300070474A69834022EA03034B6130BC7047F9
:103940004A6B834013434B63CEE7A3420AD0AB429A
:10395000CAD1436801FA03F30E498AB10A6B1343D3
:103960000B63C1E7436801FA03F30A491AB10A6914
:1039700013430B61B8E70A6922EA03030B61B3E75B
:103980000A6B22EA03030B63AEE700BF00C0092005
:1039900040C009208080024000F16040A0F51C205A
:1039A00003099B0003F1804303F53033400010B45A
:1039B00000F01E001C680322824024EA02021A6002
:1039C0001A68814041EA0200186010BC704700BFCD
:1039D00000F16040A0F51C2043099B0003F18043E7
:1039E00003F5303330B400F01F029C6EC1F3800544
:1039F00005FA02F224EA02049C669C6E22439A664F
:103A00009DB903099B0003F1804303F53033400067
:103A10001C6C00F01E000322824024EA02021A6499
:103A20001A6C01FA00F01043186430BC704700BFF4
:103A3000F8B50D4604462F492846FFF7FDFC44F62D
:103A400020612D4A2D4FD2F8C430C6B257F82670E7
:103A500043F0400320712760C2F8C430D2F8A801B7
:103A6000274B20F440504FF0000E0224C2F8A8016A
:103A7000C3F80CE05C61D86C06F1080E012202FA72
:103A80000EF202431F48DA640268DFF880E01E4845
:103A9000AEFB02E2120D01FB02F102605C60996173
:103AA0009A6932B13A689B6902FB01F1B1FBF3F10B
:103AB0003960134C0922236D43F0010323656260D2
:103AC000A06901F047FA002101F09CFA01F060FCC6
:103AD000A3690B49984208BF013038600B6D012281
:103AE00002FA06F61E430E652846BDE8F840014975
:103AF000FFF75ABC9878000000C00F40D4000010B7
:103B000000800140D0000010AC0B001083DE1B438E
:103B100070B50C4605460021204601F011FCF0B9B5
:103B20004FF07E51204601F029FC08B14FF07E5441
:103B30000C4EB06901F00EFA214601F063FA01F073
:103B400027FCB369074998422B6808BF0130186009
:103B500028790A6D0123834013430B6570BD00244F
:103B6000E6E700BF008001400D4B0E4A1B6810B411
:103B700003FB01F102245460916193693BB1006839
:103B80000368926903FB01F1B1FBF2F10160054B9F
:103B900009211A6D10BC42F001021A655960704784
:103BA000AC0B001000800140154B9968C1F3420135
:103BB000012918D0022914D1124A516F013106D0BF
:103BC000D2F88010906F086092F8A61089B1106F3B
:103BD0000C4B38B193F8A63023B10B4B00211B6876
:103BE000184770477047074B186F38B1064B1B6872
:103BF0001847596821F001015960E8E7704700BF94
:103C000000800940B80B0010B40B0010F8B5294C27
:103C10000368A34247D03FDD274CA34229D004F5D7
:103C20008044A34242D1254D082632BB01290BD046
:103C30004268234CC2EBC20204EBC20292F8364047
:103C400092F83520D44213D1B1FA81F25D68012493
:103C500004FA01F125EA01015960036852095B6821
:103C600004FA02F21A4203D1164BB440C3F8804062
:103C7000F8BD154D0726002AD8D05868012707FA45
:103C800001F2024374B25A6029462046FFF79AFCBB
:103C90000C4BA7401F60F8BDA4F58044A34205D19A
:103CA0000A4D0526C1E70A4D0626BEE700252E4629
:103CB000BBE700BF0000014000800940D53C000088
:103CC000B80B001000E100E0A93B0000413D0000FE
:103CD000A13D0000174B9968C1F3420101291BD097
:103CE000022917D1144AD2F8AC10013107D0D2F80A
:103CF000B810D2F8B000086092F8DE1099B1D2F88E
:103D0000A8000D4B38B193F8DE3023B10B4B0021E6
:103D10001B68184770477047074BD3F8A80038B1A5
:103D2000064B1B681847596821F001015960E6E706
:103D3000704700BF00C00940B80B0010B40B001062
:103D4000144B9968C1F34201012917D0022913D1FC
:103D5000114A5168013105D011699068086092F8E4
:103D6000361089B110680C4B38B193F8363023B156
:103D70000A4B00211B68184770477047064B1868AC
:103D800038B1064B1B681847596821F0010159608A
:103D9000E8E7704700C00040B80B0010B40B0010FB
:103DA000144B9968C1F34201012917D0022913D19C
:103DB000114AD16B013105D0916C106C086092F8FA
:103DC0006E1089B1906B0C4B38B193F86E3023B103
:103DD0000A4B00211B68184770477047064B986BC9
:103DE00038B1064B1B681847596821F0010159602A
:103DF000E8E7704700000140B80B0010B40B00105A
:103E00002DE9F04F02686E4B89B09A4207900692F6
:103E100000F0C88040F3B4806A4B0698984272D094
:103E200003F58043984240F09D80674BD3F8AC2166
:103E300022F44022C3F8AC21D3F8AC2142F4802212
:103E4000C3F8AC21614A0B011268B2FBF3F003FB2B
:103E50001023039280B2002B00F09080039B4FF060
:103E600001085A009C009446A246C3468E469946D5
:103E700000230592049400900291019300242546AA
:103E8000029E5FFA88F7BCF1000FB5BFBCFBF6F0ED
:103E9000BAFBF6F0000940090130C0F34F0008EB0F
:103EA000040200283DD00CB101283BD0034603FB9F
:103EB00002F3DB00B9FBF3F30133C1EB5303002B37
:103EC000B8BF5B42734505DA994230D09E46BB4687
:103ED0008DE821000134E5B2AF420E44D3D8039BF4
:103EE00008F101089944059BB8F1100F9C44049B0C
:103EF0009A44029B0B440293C0D1019B009843EA71
:103F00000B15EDB216E0304BD3F8AC2122F4403261
:103F1000C3F8AC21D3F8AC2142F48032C3F8AC2111
:103F200090E714B102200346C1E70120BEE745EA4D
:103F30000715EDB20699C0F307220B7BC0B243F020
:103F400080030B7307990B681A710B6818700B6864
:103F500083F828500A68137B03F07F03137309B0BA
:103F6000BDE8F08F194A0B011268B2FBF3F003FBB6
:103F70001023039280B2002B7FF470AF1025D9E795
:103F8000A3F580439A42EDD10F4BD3F8A82122F03C
:103F9000C002C3F8A821D3F8A82142F04002C3F818
:103FA000A8214FE7084BD3F8A82122F44072C3F8A8
:103FB000A821D3F8A82142F48072C3F8A82141E7D0
:103FC000000001400080094000C00F40D0000010F8
:103FD000436810B40448054CC3EBC30344F83320D2
:103FE000016010BC704700BFB40B0010B80B00108C
:103FF00059B9436810B4064CC3EBC30304EBC303C5
:1040000083F8362010BCFFF701BEFFF7FFBD00BFED
:10401000B80B00100268137DDB07FCD54368094923
:10402000C3EBC30301EBC303596810780131C0B27D
:1040300006D059699B680B60536843F001035360D5
:10404000704700BFB80B00104368154AC3EBC303A9
:10405000DB00D11810B4CC6901340FD00B460A6BC9
:104060001C335B6812681A4205D1036810BC187DC6
:10407000C0F380107047002010BC704703681B7DA0
:104080009B0607D491F8340010BC0F288CBF002089
:1040900001207047002381F83430012010BC7047A4
:1040A000B80B001038B504460D462046FFF7CCFF8C
:1040B0000028FAD02368EDB21D706368054AC3EB8F
:1040C000C30302EBC30393F83420013283F8342096
:1040D00038BD00BFB80B00102DE9F04F054644482D
:1040E0002C6883B084420F4691469A461DD06E6874
:1040F00000243246DFF804B14FEAC608C2EBC20121
:10410000C6EB08000BEBC00000220BEBC1014FF027
:10411000FF3381F83520C361436011462846FFF71D
:1041200075FD4FB903B0BDE8F08F237C6E6803F0D6
:104130003F0323746A68DDE72E494846FFF76CF9B0
:104140002D4901905046FFF767F9BA1E012A30D970
:10415000012FE7D1B9F1FF3FE4D0254A019B29683F
:104160000720934208720BD154B14846237C214961
:1041700043F04003237403B0BDE8F04FFFF714B9D8
:10418000C6EB08060BEBC600494604300022FFF7D9
:10419000EDF86A680124C2EBC2020BEBC2032846A9
:1041A0002246002183F8354003B0BDE8F04FFFF709
:1041B0002DBDBAF1FF3F0AD00D4A90420DD0C6EB9B
:1041C00008000BEBC00051461C30FFF7A7F8032F87
:1041D000A8D1B9F1FF3FC0D1A4E7002CEFD0227CD9
:1041E000504642F0800222740349FFF7DDF8EEE703
:1041F000000001404C790000487A0000B80B001024
:104200002DE9F0410F460546594938461646FFF755
:1042100013F9584904463046FFF70EF90146204687
:10422000FFF7E8F8544B0446984228607FD06FD9D6
:10423000524B98424BD003F58043984206D1504AE6
:10424000D2F8C43043F00073C2F8C43001232372A3
:104250002B684FF00008C3F804804FF4165128462D
:10426000FFF7CEFD2B6803221A7341493846FFF74A
:104270009BF840493046FFF797F87A1C03D0414637
:104280003846FFF7A5FB731C03D030460021FFF72B
:104290009FFB394B9C4247D021D9384B9C4263D07D
:1042A00003F580439C424AD103236B60354CC3EB3A
:1042B000C3034FF0FF3604EBC304284633463246AF
:1042C0006660E6610021BDE8F041FFF705BF2C4ABA
:1042D000D2F8C43043F08073C2F8C430B6E7A3F517
:1042E00080439C422BD1274E4FF0FF340021696060
:1042F0002346224628467460F461FFF7EDFE224B08
:1043000001221A6028686968204B03C3BDE8F08168
:10431000A3F58043984299D1194AD2F8C43043F0AA
:104320000803C2F8C43091E701236B60BEE7144A6A
:10433000D2F8C43043F01003C2F8C43086E76E6888
:10434000104BC6EBC6064FF0FF3703EBC6063A46E6
:104350003B46002128467760F761FFF7BDFE0C4B16
:104360009C42CCD0BDE8F08102236B609EE700BF89
:10437000DC790000707900000000014000800940F5
:1043800000C00F40B80B0010B00B0010A80D0010BB
:1043900000C0004038B51049104B01241C60D1F812
:1043A000C4300F4A43F400030E480025C1F8C4305E
:1043B000156703680C480221A0FB03031B0D013B9A
:1043C00051600420D36009495460FFF7FBF8084BA3
:1043D00010221A6038BD00BF00C00F40980C0010BA
:1043E00000400940D000001083DE1B4395350000DB
:1043F00000E100E0024B1B6803B17047FFF7CABF42
:10440000980C001008B5044B1B680BB9FFF7C2FFEE
:10441000024B986808BD00BF980C0010004009408E
:10442000034B98615A6942F001025A61704700BF1C
:1044300000400940024A536923F001035361704769
:1044400000400940014B01221A60704700400940BA
:10445000094A8368026053B1084B1A68904201D13F
:1044600006E01A4653689842FBD143685360704790
:1044700042681A60704700BF747A00009C0C0010FC
:104480000C4A836810B50446026053B10A4B1A689F
:10449000904201D10AE01A4653689C42FBD16368FE
:1044A0005360204600F09DFC204610BD42681A6013
:1044B000F7E700BF747A00009C0C001010B4064CA3
:1044C0000023027381600460436019B1034B1A68D2
:1044D0001860426010BC7047747A00009C0C001099
:1044E000F8B50B4B1C688CB107460E46A56855B154
:1044F00032463946284602F0E0F920B9284602F053
:10450000D4F9864202D06468002CEFD12046F8BD71
:104510009C0C0010007B7047036870B501221B697A
:10452000002104469847064601300ED02368022237
:104530001B690021204698470546236831461B69C0
:10454000204600229847284670BD304670BD00BF07
:1045500010B50446064B002240F8043BFFF7AEFFBF
:10456000044B204603F10802343384E80C0010BDEC
:10457000C87B00007C7A000010B50446064B03F1AE
:1045800008023433026040F8043FFFF761FF204621
:1045900000F09CFA204610BD7C7A000038B500235C
:1045A000036043600A7804462F2A01D0204638BDB4
:1045B0004A78002AFAD0481C20604D782F2D13D05D
:1045C00085B1034600E06AB15D1A013323601A78B1
:1045D0002F2AF8D1294601332360FFF781FF60605D
:1045E000204638BD2946F8E719460346F3E700BFE1
:1045F00000687047436843B110B504461846FFF79A
:1046000089FF012803D1606810BD00207047002099
:1046100010BD00BF406830B108B5FFF77BFFB0FAAE
:1046200080F0400908BD704743684BB110B504469F
:104630001846FFF76FFF28B9606818B1043810BD3D
:1046400000207047002010BD4068003018BF0120D6
:10465000704700BF10B50446034B40F81C3BFFF702
:104660002DF9204610BD00BFC07A000010B50446E9
:10467000044B40F81C3BFFF721F9204600F0B1FB4A
:10468000204610BDC07A000001290DD0022907D1B3
:10469000436D33B1026C32B100F14401104618474A
:1046A0007047036C63B97047C36B33B1826A002AE9
:1046B000F9D000F12C0110461847836A002BF2D084
:1046C000184700BF70B5054604460E460D4B002244
:1046D00045F8043B426003466A60AA60EA602A61CA
:1046E0006A611C30E26122626262A262E263226459
:1046F0006265054AFFF7A4F828463146FEF70EFE2C
:10470000204670BDC07A00008946000000F09AB8CB
:10471000A0F14000FFF7FABF00F098B8A0F1400008
:10472000FFF7FABF10B50446064B403003F108010D
:1047300003F12002543321602264636400F0E2F844
:10474000204610BDC87A0000A0F14000EAE700BF93
:10475000A0F14400E6E700BF10B50446084B403026
:1047600003F1080103F120025433216022646364E1
:1047700000F0C8F8204600F034FB204610BD00BF12
:10478000C87A0000A0F14000E6E700BFA0F14400B5
:10479000E2E700BF38B504461D4600F02DF8294673
:1047A00004F1400000F08CF8054B204603F10801AD
:1047B00003F12002543321602264636438BD00BFDA
:1047C000C87A00004A1C02EB420200EBC202936866
:1047D00053B101EB4101C9004218D2681AB101443A
:1047E000103110461847704701EB410300EBC3013D
:1047F000CB68002BF7D0184770B504460B4E00234A
:10480000251D4FF41650E06363602846A360E36003
:1048100023626362A3632660FFF7F2FC2846224608
:104820000349FFF7D5FB204670BD00BF2C7B00007D
:10483000C547000038B504460D460430FFF7E0FADE
:10484000E56338BD0430FFF7E5BB00BF10B50C468B
:104850000430FFF727FC204610BD00BFF8B58E18C6
:10486000B1420F460ED005460C4601E0A64207D0E5
:104870002B6814F8011B5B6A284698470130F5D174
:10488000E01BF8BD0C46FBE7F8B58E18B1420F46A9
:104890000ED005460C4603E004F8010BA64205D0F5
:1048A0002B6828469B6A9847431CF5D1E01BF8BD4E
:1048B0000C46FBE70020704700207047002070473F
:1048C00010B5044684B0FFF743FE0B4B002203F102
:1048D00008013C3384E80A00626101A822460749C6
:1048E00001F046FF064901A800F0A4FF606100F056
:1048F0004DFA204604B010BD347B0000787B0000E8
:104900007C7B000010B50446064B406903F10802A9
:104910003C3384E80C0000F0D5FD2046FFF72CFE68
:10492000204610BD347B000038B50D460446406972
:1049300000F080FE61692846BDE8384000F0A6BF5F
:1049400010B5044643694168194400F0A9F8E36AC8
:104950003BB1A06920B104F11C01BDE8104018472B
:1049600010BDA369002BFBD0BDE81040184700BF65
:1049700010B50446054B036000F098F80023A361CE
:10498000E362204600F07EF8204610BD887B0000E0
:1049900010B50446074B036000F088F80023A361BC
:1049A000E362204600F06EF8204600F01AFA204636
:1049B00010BD00BF887B000010B5044600F076F8FB
:1049C0000023A361E36210BD38B50D46044600F034
:1049D0006DF865612069FEF7D5FD29182046BDE810
:1049E000384000F05DB800BF10B50446C068FEF75F
:1049F000C9FD6368C01A10BD38B500250560456063
:104A000085600446FEF7C2FDE060FEF7BBFDA560D1
:104A10006060204638BD00BF036803B1704710B521
:104A20000446C068FEF7AEFD01236060236010BD40
:104A3000036810B5846813B1FFF7D6FF0346044836
:104A4000234480FB0320DB17C3EBA01010BD00BF85
:104A5000D34D621003689B68184700BF074A0023C4
:104A600010B580E80C008360C3600446FEF78EFD3D
:104A700003492061FEF70EFD204610BD9C7B00001F
:104A8000554A0000014610B50446044B006941F840
:104A9000043BFEF753FD204610BD00BF9C7B000089
:104AA00003460A46011D0069FEF724BD011D006989
:104AB000FEF744BD024A03490348FFF7A1BB00BF0C
:104AC00003C0092002C00920A80D0010074A084BA6
:104AD00010B4026003F58071002453F8042F904253
:104AE00008BF1C608B42F8D110BC7047C87B000027
:104AF0009C0C0010F0B50E4685B03749054601F014
:104B0000CAFE28B9354B1B68002B42D005B0F0BD5A
:104B10003349284601F0BFFE30B9304B1B68002BEB
:104B200042D0012005B0F0BD2E49284601F0B3FE69
:104B3000002834D02C4B002402E00134402C3CD01F
:104B400053F8042F002AF8D12B783A2B3CD0294671
:104B500002A8FFF723FD02A8FFF776FD68B302A8BD
:104B6000FFF758FD20BB02A8FFF744FD054620B320
:104B7000036802A89F68FFF73BFD324601462846BE
:104B8000B8470346CBB1194AE01C42F8243005B0BF
:104B9000F0BD0190FFF78EFF019805B0F0BD0F4BFF
:104BA0001B686BB10220B1E7FFF784FF0120ADE77E
:104BB00002A8FFF739FD0346E4E74FF0FF30A5E711
:104BC000FFF778FF0220A1E7284602AA084901F072
:104BD000F3FD029BD6E700BFA87B0000B00B0010DE
:104BE000B87B0000B07B00009C0C0010A00C0010F3
:104BF000787B000002280ADD074AC31E52F8230012
:104C0000002142F8231020B103685B681847002098
:104C100070474FF0FF307047A00C0010022812DCE4
:104C20000E4B70B51B680C4616460BB9FFF742FFDA
:104C3000A51936B114F8011B0948FFF733FAAC4245
:104C4000F8D1304670BD074B033853F8200010B13F
:104C500003681B6818474FF0FF307047B00B001017
:104C6000A80D0010A00C001002280DDC0C4B10B594
:104C70001B680C460BB9FFF71DFF0A48FFF7CAF97E
:104C800001232070184610BD074B033853F820004D
:104C900010B103689B6818474FF0FF331846704700
:104CA000B00B0010A80D0010A00C0010022807DDAA
:104CB000064B033853F8200020B10368DB6818471F
:104CC000012070474FF0FF30704700BFA00C00106C
:104CD000022807DD064B033853F8200020B1036893
:104CE0001B691847002070474FF0FF30704700BF26
:104CF000A00C0010022808B504D84FF400534B60F4
:104D0000002008BD00F072FB092303604FF0FF3064
:104D100008BD00BF704700BF704700BF08B5FFF770
:104D2000FBFFFFF7F7FFBDE80840FCF7C9B900BF7C
:104D3000074A13681918EFF30880814202D2184617
:104D400011607047034B0C221A604FF0FF30704720
:104D5000F0000010B00D00100B4C08B5236805469C
:104D6000986800F067FC2368D86800F063FCFEF7E1
:104D700019FB20B905B9FEE7FEF784FAFBE7FEF759
:104D800075FB002DF7D0F7E754010010002101F06A
:104D90005FBC00BF0649074A074B9A42BEBF51F8A5
:104DA000040B42F8040BF8E7044880470448004726
:104DB000C07D0000C800001068010010013600002E
:104DC0000D2B0000FEE7FEE7FEE7FEE7FEE7FEE74D
:104DD000FEE7FEE7FEE7FEE70B460146184600F059
:104DE000F7BAFDF7B9BE000080F0004002E000BF56
:104DF00081F0004142001FBF5FEA410392EA030FC6
:104E00007FEA226C7FEA236C6AD04FEA1262D2EB0F
:104E10001363C1BFD218414048404140B8BF5B4214
:104E2000192B88BF704710F0004F40F4000020F0AD
:104E30007F4018BF404211F0004F41F4000121F0C3
:104E40007F4118BF494292EA030F3FD0A2F101020D
:104E500041FA03FC10EB0C00C3F1200301FA03F14B
:104E600000F0004302D5494260EB4000B0F5000F6E
:104E700013D3B0F1807F06D340084FEA310102F12D
:104E80000102FE2A51D2B1F1004F40EBC25008BFDF
:104E900020F0010040EA03007047490040EB0000A9
:104EA00010F4000FA2F10102EDD1B0FA80FCACF1D8
:104EB000080CB2EB0C0200FA0CF0AABF00EBC250D7
:104EC00052421843BCBFD0401843704792F0000FC5
:104ED00081F4000106BF80F400000132013BB5E718
:104EE0004FEA41037FEA226C18BF7FEA236C21D08E
:104EF00092EA030F04D092F0000F08BF08467047F3
:104F000090EA010F1CBF0020704712F07F4F04D1C0
:104F1000400028BF40F00040704712F100723CBFD3
:104F200000F50000704700F0004343F0FE4040F4FD
:104F3000000070477FEA226216BF08467FEA2363BB
:104F40000146420206BF5FEA412390EA010F40F4A6
:104F5000800070474FF0000304E000BF10F00043F2
:104F600048BF40425FEA000C08BF704743F09643D9
:104F700001464FF000001CE050EA010208BF7047F4
:104F80004FF000030AE000BF50EA010208BF70477B
:104F900011F0004302D5404261EB41015FEA010C90
:104FA00002BF84460146002043F0B64308BFA3F188
:104FB0008053A3F50003BCFA8CF2083AA3EBC2536A
:104FC00010DB01FA02FC634400FA02FCC2F1200289
:104FD000BCF1004F20FA02F243EB020008BF20F0C0
:104FE0000100704702F1200201FA02FCC2F1200226
:104FF00050EA4C0021FA02F243EB020008BF20EA1B
:10500000DC7070474FF0FF0C1CEAD0521EBF1CEA48
:10501000D15392EA0C0F93EA0C0F6FD01A4480EA36
:10502000010C400218BF5FEA41211ED04FF000631F
:1050300043EA501043EA5111A0FB01310CF000404B
:10504000B1F5000F3EBF490041EAD3715B0040EA71
:10505000010062F17F02FD2A1DD8B3F1004F40EB41
:10506000C25008BF20F00100704790F0000F0CF014
:10507000004C08BF49024CEA502040EA51207F3AD8
:10508000C2BFD2F1FF0340EAC250704740F40000B3
:105090004FF00003013A5DDC12F1190FDCBF00F0A4
:1050A00000407047C2F10002410021FA02F1C2F152
:1050B000200200FA02FC5FEA310040F1000053EAEE
:1050C0004C0308BF20EADC70704792F0000F00F03C
:1050D000004C02BF400010F4000F013AF9D040EA42
:1050E0000C0093F0000F01F0004C02BF490011F4D6
:1050F000000F013BF9D041EA0C018FE70CEAD153D4
:1051000092EA0C0F18BF93EA0C0F0AD030F0004C53
:1051100018BF31F0004CD8D180EA010000F0004007
:10512000704790F0000F17BF90F0004F084691F0C5
:10513000000F91F0004F14D092EA0C0F01D14202FF
:105140000FD193EA0C0F03D14B0218BF084608D1C8
:1051500080EA010000F0004040F0FE4040F4000012
:10516000704740F0FE4040F4400070474FF0FF0CA5
:105170001CEAD0521EBF1CEAD15392EA0C0F93EAEC
:105180000C0F69D0A2EB030280EA010C49024FEA3E
:10519000402037D04FF0805343EA111143EA1013F7
:1051A0000CF000408B4238BF5B0042F17D024FF4AF
:1051B000000C8B4224BF5B1A40EA0C00B3EB510F8A
:1051C00024BFA3EB510340EA5C00B3EB910F24BF73
:1051D000A3EB910340EA9C00B3EBD10F24BFA3EBF8
:1051E000D10340EADC001B0118BF5FEA1C1CE0D1C0
:1051F000FD2A3FF650AF8B4240EBC25008BF20F073
:10520000010070470CF0004C4CEA50207F32C2BFC6
:10521000D2F1FF0340EAC250704740F400004FF063
:105220000003013A37E792F0000F00F0004C02BF94
:10523000400010F4000F013AF9D040EA0C0093F05E
:10524000000F01F0004C02BF490011F4000F013BB8
:10525000F9D041EA0C0195E70CEAD15392EA0C0F20
:1052600008D142027FF47DAF93EA0C0F7FF470AF58
:10527000084676E793EA0C0F04D14B023FF44CAF9B
:1052800008466EE730F0004C18BF31F0004CCAD130
:1052900030F000427FF45CAF31F000437FF43CAF6C
:1052A0005FE700BF4FF0FF3C06E000BF4FF0010C8E
:1052B00002E000BF4FF0010C4DF804CD4FEA400270
:1052C0004FEA41037FEA226C18BF7FEA236C11D0BA
:1052D00001B052EA530C18BF90EA010F58BFB2EB6D
:1052E000030088BFC81738BF6FEAE17018BF40F0ED
:1052F000010070477FEA226C02D15FEA402C05D1A1
:105300007FEA236CE4D15FEA412CE1D05DF8040B25
:10531000704700BF844608466146FFE70FB5FFF7B8
:10532000C9FF002848BF10F1000F0FBD4DF808ED70
:10533000FFF7F4FF0CBF012000205DF808FB00BF61
:105340004DF808EDFFF7EAFF34BF012000205DF8BB
:1053500008FB00BF4DF808EDFFF7E0FF94BF012008
:1053600000205DF808FB00BF4DF808EDFFF7D2FF05
:1053700094BF012000205DF808FB00BF4DF808ED48
:10538000FFF7C8FF34BF012000205DF808FB00BF15
:1053900042000ED2B2F1FE4F0BD34FF09E03B3EB9F
:1053A000126209D44FEA002343F0004323FA02F0CB
:1053B00070474FF00000704712F1610F01D14202B7
:1053C00002D14FF0FF3070474FF00000704700BF30
:1053D00010B5054C13462CB10A4601460220AFF326
:1053E000008010BD204610BD00000000014B186871
:1053F000704700BF5401001008B5074B044613B1B5
:105400000021AFF30080054B1868836A03B1984709
:105410002046FFF7A1FC00BF000000005C7C0000FC
:1054200070B505460C4609B9002070BD18B18369F6
:105430000BB900F051F9204B9C4201D16C6808E097
:105440001E4B9C4201D1AC6803E01D4B9C4208BF3F
:10545000EC68B4F90C30002BE6D02146284600F069
:1054600039F8236B064633B1216A2846984700284D
:10547000B8BF4FF0FF36A3891B0603D52169284624
:1054800000F076FB616B41B104F14403994202D014
:10549000284600F06DFB00236363A16C21B1284610
:1054A00000F066FB0023A36400F082F90023A381CF
:1054B00000F07FF9304670BDF87B0000187C0000DA
:1054C000387C0000024B01461868FFF7A9BF00BFF7
:1054D000540100108A892DE9F041054610070C4659
:1054E00059D44B68002B02DC0B6C002B17DDE66AED
:1054F000AEB102F48052002392B22F682B600AB141
:10550000606D15E0216A01232846B047411C0FD188
:105510002B686BB11D2B01D0162B03D12F600020FF
:10552000BDE8F081A38943F04003A381BDE8F08189
:10553000A3895A0705D56368C01A636B0BB1236C46
:10554000C01A00230246E66A216A2846B047431C77
:10555000A38906D129681D2939D8204ACA40D6070F
:1055600035D5002262602269D904226004D5421C2C
:1055700001D12B6803B96065616B2F600029CED023
:1055800004F14403994202D0284600F0F1FA0020C9
:105590006063BDE8F0810F69002FC0D093070E68EB
:1055A0000CBF4B690023C7EB06080F608B6002E05D
:1055B0000744C0EB0808B8F1000FB0DD43463A4697
:1055C000216A2846A66AB0470028F1DCA38943F087
:1055D0004003A3814FF0FF30BDE8F081010040207F
:1055E00038B50B6905460C46DBB118B183690BB9B8
:1055F00000F072F80C4B9C4201D16C6808E00B4B38
:105600009C4201D1AC6803E0094B9C4208BFEC68A6
:10561000B4F90C302BB121462846BDE83840FFF7DD
:1056200059BF002038BD00BFF87B0000187C000087
:10563000387C0000014620B9044B0549186800F089
:10564000BBB9044B1868FFF7CBBF00BF5C7C000000
:10565000E155000054010010014900F0ADB900BF50
:10566000E155000010B504460023036043608360E9
:1056700081814366C28103614361836119460822C7
:105680005C3000F06DFA054B24626362044BA36248
:10569000044BE362044B236310BD00BF0D680000A0
:1056A000336800006B6800008F68000070B56823E5
:1056B0004D1E5D430E4605F1740100F09DFA04464F
:1056C00040B1002180E842000C30A06005F1680282
:1056D00000F046FA204670BD836910B5044633BB1E
:1056E0008364C3640365124B124A1B68826298424A
:1056F00004BF0123836100F01FF86060204600F0C2
:105700001BF8A060204600F017F80022E06004219A
:105710006068FFF7A7FF01220921A068FFF7A2FF39
:1057200002221221E068FFF79DFF0123A36110BD53
:105730005C7C000059560000F8B51C4B07461E68FB
:10574000B36913B93046FFF7C7FF4836B4687368CA
:10575000013B04D4B4F90C507DB16834F8E73368E8
:105760000BB13668F2E704213846FFF79FFF30603F
:105770000028F6D10C233B60F8BD4FF6FF73E381A0
:105780000123A38165662560A5606560256165616B
:10579000A5610822294604F15C0000F0E1F9656387
:1057A000A563A564E5642046F8BD00BF5C7C0000ED
:1057B00070477047F7B50F46114601AA054601F03C
:1057C000B1FA064608B9002029E02846FFF7B4FFE1
:1057D00004460028F7D04FF4DB73019A3946284677
:1057E00000F0A0FE002806DA0025FFF7E1FFA58102
:1057F000FFF7DFFFE7E70B4BE08163620A4BA6810F
:10580000A3620A4B2462E362094B2363F30505D5C7
:10581000022300222146284600F040F8204603B02B
:10582000F0BD00BF0D680000336800006B68000029
:105830008F680000024B0A4601461868FFF7BABF9E
:105840005401001070B50E461446054618B1836920
:105850000BB9FFF741FF0A4B9C4201D16C6808E08D
:10586000084B9C4201D1AC6803E0074B9C4208BF47
:10587000EC68224631462846BDE8704000F064BE20
:10588000F87B0000187C0000387C0000024B0A46C0
:1058900001461868FFF7D6BF5401001000F000B8A9
:1058A0002DE9F8430C4690461E46054618B183691B
:1058B0000BB9FFF711FF3D4B9C4201D16C6808E02A
:1058C0003B4B9C4201D1AC6803E03A4B9C4208BF81
:1058D000EC68A38903F48473B3F5847F03D1214674
:1058E0002846FFF77DFEE76A0FB91D232BE0012E46
:1058F00004D0022E2BD056B3162324E0214628468E
:10590000FFF76EFEA28902F4805292B20AB1606D76
:1059100005E0216A33462846B847411C14D0A389C4
:105920005A0706D56368C01A636B4BB1236CC01A63
:1059300006E01B0704D5236813B122699B1A18449B
:105940008044002603E02B604FF0FF392BE02369F1
:105950001BB92146284600F073F821462846FFF778
:105960003FFE81460028EFD133464246216A284651
:10597000B8470130E8D0616B41B104F1440399426A
:1059800002D0284600F0F4F8002363632369002165
:105990002360A389616023F40263A381082204F1D8
:1059A0005C0000F0DDF84846BDE8F883F87B0000B5
:1059B000187C0000387C00002DE9F84380468946B9
:1059C00000F14804002694B1A5686768013F0CD433
:1059D000AB89012B07D9B5F90E30013303D0294625
:1059E0004046C84706436835F0E72468EBE7304691
:1059F000BDE8F8830E4B70B51E460E4C0025E41A28
:105A0000A410A54204D056F8253098470135F8E790
:105A100001F02EFD084B094C1E46E41AA410002587
:105A2000A54204D056F8253098470135F8E770BDF7
:105A30005C0100105C0100105C01001064010010AA
:105A4000F0B58B8991B09D0706460C4625D4B1F977
:105A50000E10002908DAA389002513F0800F14BF67
:105A600040274FF480670DE001AA01F093F9002868
:105A7000F1DB029D4FF4806705F47045A5F50051F8
:105A80004D424D413946304600F0B6F860B9A38921
:105A90009A051DD443F00203A38104F14703236058
:105AA00023610123636113E00A4BB362A389206081
:105AB00043F08003A381206167614DB1B4F90E10FA
:105AC000304601F079F918B1A38943F00103A381AD
:105AD00011B0F0BD59560000024B0146186800F0A5
