:1000000000800010058D0000358D0000378D000048
:10001000398D00003B8D00003D8D00000000000088
:100020000000000000000000000000003F8D000004
:10003000418D000000000000438D0000458D000050
:10004000478D0000478D0000478D0000478D000060
:10005000478D0000478D0000478D0000478D000050
:10006000478D0000478D0000478D0000478D000040
:10007000478D0000478D0000478D0000478D000030
:10008000478D0000478D0000478D0000478D000020
:10009000478D0000478D0000478D0000478D000010
:1000A000478D0000478D0000478D0000478D000000
:1000B000478D0000478D0000478D0000478D0000F0
:1000C000478D0000478D0000478D0000044B054818
:1000D0001B1A062B02D9044B03B11847704700BF07
:1000E000AF010010AC0100100000000005490648F7
:1000F000091A891001EBD171491002D0034B03B1E9
:1001000018477047AC010010AC010010000000005F
:1001100010B5064C237843B9FFF7D8FF044B13B151
:100120000448AFF300800123237010BDAC01001020
:1001300000000000D0C8000008B5084B1BB10849FA
:100140000848AFF300800848036813B9BDE80840C9
:10015000CCE7064B002BF9D09847F7E700000000EA
:10016000B0010010D0C80000AC0100100000000079
:10017000704700BF0346426808200A705A68C240B0
:100180004A70DA888A70DA79CA709A680A719A684D
:10019000C2404A715A898A71DB7ACB71704700BFBD
:1001A000024610B40B78082053604C7843EA0423CD
:1001B00053608C7843EA04435360CC7843EA046389
:1001C00053600B7993604C7943EA042393608C79F4
:1001D00043EA04439360C97910BC43EA0163936026
:1001E000704700BF00487047BCBF00000048704720
:1001F000CCBF000000487047F0BF000000487047C7
:100200000CC000000048704730C000000048704734
:1002100044C000000048704700C20000004870471A
:1002200068C00000004870478CC00000004870475C
:10023000ACC0000000487047D0C0000000487047C4
:10024000ECC000000048704710C100000048704733
:100250002CC100000048704750C1000000487047A2
:100260006CC1000010B4846A094AA31E04F108009E
:1002700033F9021F834242F8041BF9D1B4F90A0092
:10028000B4F90C200349044B08601A6010BC704795
:1002900098080010640900105C020010C06B7047E1
:1002A0000048704710C10000004870472CC1000092
:1002B00090F8FC05704700BF70B5054682B00C464B
:1002C00040680BF016F82346064602AA42F8040DD1
:1002D0001068324643F8040B696818460AF082F841
:1002E000AB68A1190B71AB6806F10C001B0A4B71CE
:1002F0006B898B71EB7ACB71EB680B72EB681B0A25
:100300004B72EB898B72EB7BCB7202B070BD00BF7E
:100310002DE9F043037900240B704C708C70CC7085
:10032000037983B0002B68D00B460425C268661C95
:1003300052F82420F4B24FEA122E170C160E1A713E
:1003400083F805E09F71DE7102790435A24203F162
:100350000403EBD82B462A1D154603F1010C03F1CB
:10036000020EDF1C067C0024CE5401F80C4001F87C
:100370000E40CC55037CABB14B198269661C52F818
:100380002420F4B24FEA122E170C160E4A5583F8A9
:1003900001E09F70DE70027C0435A24203F1040389
:1003A000EBD82A46067F4B1900248E545C709C7053
:1003B000DC70037F2E1DE3B1884607467B6A06F199
:1003C000040953F824000AF094FF054601900198AF
:1003D0002A4648F806007B6A08EB090053F8241007
:1003E0000AF000F801343B7FE4B2A34205EB0906B2
:1003F000E4D8304603B0BDE8F0830822154607274D
:100400004FF0060E4FF0050C0423ABE770B50379EF
:1004100082B00B70064680680D460AF06AFF0446FB
:1004200002AB43F8040D18682246C5F80100B16814
:10043000681D09F0D7FF601D02B070BD83882DE9EB
:10044000F0410B70838884B01B0A4B7006468068AD
:100450000D460AF04EFF044604AB43F80C0D186835
:100460002246C5F80200B168A81D09F0BBFFF0687C
:100470000AF03FFF804604AB43F8080D1868A31D3F
:10048000E8500A34F1684246281909F0ABFF306998
:100490000AF02FFF074604AB43F8040D18684444E4
:1004A00028510434316928193A4609F09BFF7369D1
:1004B00038192A182B541E0A1C0C190E04305670B9
:1004C0009470D17004B0BDE8F08100BF0B46F0B469
:1004D00013F8012B06460271186882B00190019D45
:1004E0000F1D681D052808D93B462C1D0C4413F828
:1004F000012FA34203F8012CF9D10D4400232B71E5
:10050000B76002B0F0BC7047F0B40546086882B02E
:1005100001900198CF1C061D042E08D93B46C41C2F
:100520000C4413F8012FA34203F8012CF9D10A1847
:100530000023D3706F608B5D0C30AB60517943EA60
:100540000123AB60917943EA0143AB60D17943EA7F
:100550000163AB60137AEB60517A43EA0123EB60ED
:10056000917A43EA0143EB60D27A43EA0263EB609B
:1005700002B0F0BC704700BFF0B40B780546838032
:100580004A7884B043EA02238380D1F802004F1DE9
:100590000190019A961D062E08D93B46541D0C4425
:1005A00013F8010F9C4203F8010CF9D18B180020BD
:1005B0005871AF60885904360290029B33449E42C2
:1005C00009D2304609320A4412F8014F01309842EC
:1005D00002F8014CF8D3013E0E44CA18002002F87C
:1005E000010CEE6010681E1D039003983044864293
:1005F00009D2324603330B4413F8014F01328242D1
:1006000003F8014CF8D3013E0C180E44002304F803
:10061000013C2E61A37866780A5C1B04E17843EA0A
:100620000623134343EA016304306B6104B0F0BC5A
:10063000704700BF2DE9F04103790C7882B0A342E6
:1006400005460E46C0F082802C71002C00F0878099
:10065000334605F10807002004249A7993F805E051
:100660001979120442EA0E2293F807E00A4342EA9B
:100670000E62AA60D7F800E0EA68411C42F820E068
:100680002A79C8B2824204F1040403F10403E4D8D5
:10069000234616F803802B7C271D43453C4666D332
:1006A00085F81080B8F1000F1FD005F11407331939
:1006B00000209A7893F801E01978120442EA0E2299
:1006C00093F803E00A4342EA0E626A61D7F800E059
:1006D000AA69411C42F820E02A7CC8B2824204F197
:1006E000040403F10403E4D82746F75D2B7FBB42E3
:1006F00044D3231D2F772FB30027BC4605F1200ECE
:10070000F0581C1D019001982044844209D22246D1
:100710000333334413F8011F0132824203F8011CF2
:10072000F8D3013C3318344403F801CC2C626A6AD4
:10073000DEF800107B1C42F827102A7FDFB2BA4295
:100740000346DDD8184602B0BDE8F081A100C068BC
:1007500006F086FB2C71E860002C7FF479AF04234F
:1007600016F803802B7C082743453C4698D24FEA75
:100770008801A86906F074FBA86191E7B900686A6E
:1007800006F06EFB6862B4E710B5044608F0E1FAC3
:10079000204610BD10B50446006808B108F0D9FA2B
:1007A000204610BD10B50446064B403003F1180139
:1007B00003F14C0223602164626408F0D3F8204600
:1007C00010BD00BF0CC60000A0F14000EAE700BF6A
:1007D000A0F14400E6E700BF2DE9F04F03790026C1
:1007E0000B704E708E70CE70037983B0834689464D
:1007F000002B59D0DFF8C0A04FF004082AE0606851
:100800000AF077FD074602AB43F8040D18683A4634
:1008100049F808006168281D09F0E4FDA368E9199A
:100820000B71A36807F10C001B0A4B7163898B7174
:10083000E37ACB71E3680B72E3681B0A4B72E389BE
:100840008B72E37BCB7201369BF80430F6B2B34275
:1008500080440DD9DBF818403301E2581C4413687A
:1008600009EB08055345CAD0294620469847EAE7D0
:1008700008F1010408F1020108F1030208F1040083
:10088000DBF81C3009F80830DBF81C301B0A09F8CB
:100890000430BBF81E3009F801309BF81F3009F80E
:1008A000023003B0BDE8F08F08200722062105249E
:1008B0004FF00408E4E700BFB90200002DE9F0475B
:1008C00003790D7882B0AB4204460E4678D3257189
:1008D000002D7DD00025AC4604F108074FF0040E32
:1008E00006EB0E08D8F8000008F1030A0190019801
:1008F00000F10409B9F1040F08D95346C11C414461
:1009000013F8012F994203F8012CF9D108EB0002EA
:1009100082F803C0C4F80CA018F80930D4F8188085
:10092000236192F80590290143EA0923236192F893
:1009300006900C3043EA0943236192F807908644FD
:1009400043EA09632361137A08EB0100636192F8BB
:100950000990013543EA0923636192F80A90EDB2E8
:1009600043EA09436361D27A43EA02636361FB6845
:10097000D7F800A0D7F80490BA6848F801A0C0F8EA
:1009800004908260C3602379AB42A9D80EF10105BF
:100990000EF102010EF103020EF1040016F80E3002
:1009A000E361755D43EA0523E361715C43EA01435A
:1009B000E361B25C43EA0263E36102B0BDE8F08741
:1009C0002901806906F04CFA2571A061002D81D1C2
:1009D00008200722062105254FF0040EDEE700BFA0
:1009E0002DE9F04F037A00260B704E708E70CE709A
:1009F000037A83B080460F46002B7BD0DFF810A12E
:100A00004FF0040B2BE060680AF073FC814602ABE8
:100A100043F8040D18684A4647F80B006168281D22
:100A200009F0E0FCA36805EB09010B71A36809F16B
:100A30000C001B0A4B7163898B71E37ACB71E368FD
:100A40000B72E3681B0A4B72E3898B72E37BCB72F8
:100A5000013698F80830F6B2B34283440DD9D8F87D
:100A60001C403301E2581C44136807EB0B05534547
:100A7000C9D0294620469847EAE70BF10401081D32
:100A80000BF105060BF106050BF107040BF101094B
:100A90000BF1020C0BF1030ED8F82020002307F80D
:100AA0000B20D8F82020120A07F80920B8F82220D5
:100AB00007F80C2098F8232007F80E2098F8242037
:100AC0007A54BB557B553B5598F824207AB1D8F819
:100AD0002820391832F813200133140A3A544C7084
:100AE00098F82420DBB29A4200F10200EFD803B05C
:100AF000BDE8F08F08214FF0070E4FF0060C4FF0C5
:100B000005094FF0040B0B240C200A250926C3E726
:100B1000B90200002DE9F04F037A00260B704E70E9
:100B20008E70CE70037A83B080468946002B00F029
:100B30008680DFF824A14FF0040B2AE060680AF0F9
:100B4000D8FB074602AB43F8040D18683A4649F84B
:100B50000B006168281D09F045FCA368E9190B71B9
:100B6000A36807F10C001B0A4B7163898B71E37A50
:100B7000CB71E3680B72E3681B0A4B72E3898B72DB
:100B8000E37BCB72013698F80830F6B2B342834467
:100B90000DD9D8F81C403301E2581C44136809EB06
:100BA0000B055345CAD0294620469847EAE70BF182
:100BB0000402101D0BF105060BF106050BF10704ED
:100BC0000BF1010C0BF1020E0BF10307D8F82030EA
:100BD000002109F80B30D8F820301B0A09F80C3036
:100BE000B8F8223009F80E3098F8233009F80730A9
:100BF00098F8243009F8023009F8061009F80510B1
:100C000009F8041098F82430B3B109EB0003D8F8C0
:100C10002C204C1C52F82120E1B2160A150C140E9F
:100C200009F800205E709D70DC7098F82420043074
:100C30008A4203F10403EAD803B0BDE8F08F08222A
:100C400007274FF0060E4FF0050C4FF0040B0B2456
:100C50000C200A250926B9E7B90200002DE9F04F5A
:100C6000037D0D7883B0AB420446884600F10C0941
:100C7000C0F09B802575002D00F0A0800025AA46BD
:100C800004F118074FF0040E08EB0E06306806F169
:100C9000030B0190019800F1040CBCF1040F08D97A
:100CA0005B46C11C314413F8012F8B4203F8012C21
:100CB000F9D1321882F803A0C4F81CB016F80C3031
:100CC000A66A236292F805C0290143EA0C23236235
:100CD00092F806C00C3043EA0C43236292F807C036
:100CE000864443EA0C632362137A7018636292F8B5
:100CF00009C0013543EA0C23636292F80AC0EDB2E1
:100D000043EA0C436362D27A43EA02636362FB689C
:100D1000D7F800B0D7F804C0BA6846F801B0C0F8F8
:100D200004C08260C360237DAB42ADD80EF10402E3
:100D3000151D0EF101060EF102000EF1030118F867
:100D40000E3094F83070E36218F8066043EA062328
:100D5000E36218F8000043EA0043E36218F8011068
:100D600043EA0163E36218F80260B7422ED384F8C5
:100D70003060A6B1A844002304F1320598F80110B0
:100D800018F8022B606B42EA012262862A88591CFD
:100D900020F8132094F83020CBB29A42EED848467F
:100DA000A36B03B0BDE8F04F18472901806A06F035
:100DB00057F82575A062002D7FF460AF0822072147
:100DC000062005264FF0040E0C25B8E77100606B75
:100DD00006F046F86063CAE72DE9F047037A0D781C
:100DE00082B0AB4204460E46C0F09A802572002DB8
:100DF00000F09F800025AC4604F10C074FF0040E74
:100E000006EB0E08D8F8000008F1030A01900198DB
:100E100000F10409B9F1040F08D95346C11C41443B
:100E200013F8012F8B4203F8012CF9D108EB0002D3
:100E300082F803C0C4F810A018F80930D4F81C8058
:100E4000636192F80590290143EA0923636192F8EE
:100E500006900C3043EA0943636192F80790864498
:100E600043EA09636361137A08EB0100A36192F816
:100E70000990013543EA0923A36192F80A90EDB283
:100E800043EA0943A361D27A43EA0263A361FB68A0
:100E9000D7F800A0D7F80490BA6848F801A0C0F8C5
:100EA00004908260C360237AAB42A9D80EF1040299
:100EB000151D0EF101070EF102000EF1030116F8E7
:100EC0000E3094F824E02362F75D43EA072323629F
:100ED000305C43EA00432362715C43EA01632362AE
:100EE000B75CBE452DD384F82470AFB12E4404F115
:100EF00026070023717816F8022BA06A42EA012225
:100F0000E2843A88591C20F8132094F82420CBB2AC
:100F10009A4205F10205EDD8284602B0BDE8F087F7
:100F20002901C06905F09CFF2572E061002D7FF466
:100F300061AF08220721062005274FF0040E0C257B
:100F4000BDE77900A06A05F08BFFA062CBE700BF88
:100F50002DE9F047037A0E7882B0B34204460D467D
:100F6000C0F0A1802672002E00F0A6800026B446B4
:100F700004F10C074FF0040E05EB0E08D8F8000042
:100F800008F1030A0190019800F10409B9F1040F76
:100F900008D95346C11C414413F8012F994203F864
:100FA000012CF9D108EB000282F803C0C4F810A0AC
:100FB00018F80930D4F81C80636192F8059031016B
:100FC00043EA0923636192F806900C3043EA09432F
:100FD000636192F80790864443EA09636361137A78
:100FE00008EB0100A36192F80990013643EA092356
:100FF000A36192F80A90F6B243EA0943A361D27A58
:1010000043EA0263A361FB68D7F800A0D7F8049015
:10101000BA6848F801A0C0F804908260C360237ADF
:10102000B342A9D80EF10402161D0EF101070EF10C
:1010300002000EF1030115F80E3094F824E023624B
:10104000EF5D43EA07232362285C43EA00432362FF
:10105000695C43EA01632362AF5CBE4534D384F824
:101060002470E7B1354404F128000021AB786F7893
:101070002A781B0443EA0723EF78134343EA076304
:10108000A3620768E36A4A1C43F8217094F824308D
:10109000D1B28B4206F1040605F10405E6D83046CC
:1010A00002B0BDE8F0873101C06905F0D9FE2672B3
:1010B000E061002E7FF45AAF0822072106200527A1
:1010C0004FF0040E0C26B6E7B900E06A05F0C8FE42
:1010D000E062C4E72DE9F041632984B003DD90F8B4
:1010E000FC55002D4AD006461368884610461B68FA
:1010F00006F227319847C4B2C0F307216218D243E1
:1011000080B286F82243FF2406F2253700F2263506
:1011100086F8242386F82043FE225FFA88F448F3F9
:10112000072886F821233B4686F82313354486F8A2
:10113000254386F82683002201E013F8014FAB42D5
:101140002244FAD1D243C31D00F108059BB2ADB2CF
:101150003344B5F5007F83F8202313D806F548778C
:1011600065B16B1E1F4406F1440806F21F3414F8E3
:10117000011F404607F008FCA742F8D1284604B0FA
:10118000BDE8F0813049314C03223368019103946A
:101190008DF808201B682E498B424DD104AB3821B5
:1011A00043F8101D186886F82723C6F8280304F1B1
:1011B000300C06F54B75A646BEE80F00E6452860E4
:1011C0006960AA60EB6004F1100405F11005F2D12A
:1011D00003CC4FF0000E286069604FF0070CC2216D
:1011E000FF25FE243D2086F824137346624686F8C8
:1011F00023E386F826E386F825C386F8205386F88D
:10120000214386F8220306F2633101E017F8012F2B
:101210008F421344FAD1DB4306F1440786F8643366
:1012200006F21F3506F5597415F8011F384607F008
:10123000ABFBAC42F8D103E0304601AA0721984746
:101240004FF0FF359AE700BF08BF000090C10000D3
:10125000D51000002DE9F04FDFF8E482B44E87B0DE
:1012600000243368D8F82C50185903681B6A984733
:1012700028510434142CF4D1AE4BAF49D3F80C9060
:101280009B681A460193D9F800301B688B4252D1F3
:10129000632A03DD99F8FC35002B50D098F808201C
:1012A000002689F8272389F8286389F8296389F8B3
:1012B0002A6309F2273B002A00F0CF804FF0040A8E
:1012C0002AE060680AF015F8074606AB43F80C0DF3
:1012D00018683A464BF80A006168281D09F082F840
:1012E000A268EB191A71A26807F10C00120A5A7170
:1012F00062899A71E27ADA71E2681A72E268120A15
:101300005A72E2899A72E27BDA72013698F80830F2
:10131000F6B2B342824415D9D8F81C403301E258E2
:101320001C441368854A0BEB0A059342C9D0294631
:1013300020469847E9E701994846814A984707B00F
:10134000BDE8F08F0AF10404221D0AF105060AF136
:1013500006050AF107030AF1010C0AF1020E0AF16F
:101360000307D8F8200000210BF80A00D8F8200065
:10137000000A0BF80C00B8F822000BF80E0098F8E1
:1013800023000BF8070098F824000BF804000BF872
:1013900006100BF805100BF8031098F82400B0B1F4
:1013A0000BEB0200D8F82C304C1C53F82130E1B282
:1013B0001E0A1D0C1C0E0BF8023046708570C4709E
:1013C00098F8243004328B4200F10400EAD8D4B2F9
:1013D000C2F307202118C94389F82413FF2189F893
:1013E0002013019992B209F2253589F8224389F830
:1013F000230302F22634C8B2FE2641F3072189F8FE
:1014000026132B464C4489F8216389F825030021D3
:1014100001E013F8010FA3420144FAD1C943D01DE2
:10142000083280B293B24844B3F5007F80F82013AD
:1014300020D809F54874002B81D0013B09F14405FF
:101440001C4409F21F3919F8011F284607F09CFABD
:101450004C45F8D107B0BDE8F08F082407274FF0BE
:10146000060E4FF0050C4FF0040A0B230C220A2540
:10147000092676E7334B344C0322039305948DF809
:101480001020D9F800302C491B688B424BD106AB99
:10149000382143F8101D186889F82723C9F8280354
:1014A00004F1300E09F54B7627460FCF77453060B3
:1014B0007160B260F36004F1100406F11006F3D11C
:1014C00003CC0027306071604FF0070EC221FF2669
:1014D000FE243D2089F824133B46724689F8237385
:1014E00089F8267389F825E389F8206389F8214370
:1014F00089F8220309F2633101E015F8012F8D42CA
:101500001344FAD1DB4309F1440589F8643309F245
:101510001F3409F5597914F8011F284607F034FAE9
:101520004C45F8D10BE7484603AA0721984706E740
:10153000F801001098090010D5100000B902000051
:101540002C02001008BF000090C100002DE9F04FF0
:101550008BB0FFF77FFEC34FDFF82083C24E00241D
:10156000D8F82C3032681B591559184647F8043BF7
:1015700008F020FB2B6801465B680022284698474C
:1015800033684FF07E511859043403685B6B9847F9
:10159000142CE5D1DFF8D49209F5827007F02EFA09
:1015A00042F6F822D9F804368246C31A934284BF21
:1015B000002389F8FC35D9F8E835AC4A33B1D2F8C4
:1015C0000836984284BF0023C2F8E835A74CA74DDF
:1015D000281D05F0DBFD074690B199F8FC35A348BE
:1015E00043B140F6C412D0F80036C3EB0A0393426D
:1015F00000F2D0811E2006F01BF90BB0BDE8F08F81
:101600000121281D05F040FC0028E6DBD4F8F83560
:10161000D4F8E8650344072EC4F8F83500F0FD80DF
:1016200056B9FF2840F00D8101220AF11403C4F8D5
:10163000E825C4F80836CAE7012E00F02181022E01
:1016400000F06E81032E00F07581042E00F07C8185
:10165000052E00F08881062E00F08D81082EB6D16F
:10166000834A00211A408A42C9F8E815C0F2E6818F
:10167000FF2AACD1D9F8F0357C4E002B00F0F08277
:101680000A2B00F09682062B00F0E1810B2B00F074
:10169000DA8104EB8303D3F8F453002D97D02B6841
:1016A000744A1B68934240F0BF8294F820612B7DFE
:1016B00005F10C02B3420192C0F0BB822E75002EE0
:1016C00000F0C0846C4BCDF808A0009307AB9A469D
:1016D0004FF0000E05F118070426009B03EB060CE3
:1016E000DCF800000CF1030BCAF80000079800F1C9
:1016F0000408B8F1040F08D95B46C11C614413F813
:10170000012F994203F8012CF9D14FF000030CEBA3
:101710000002D370C5F81CB01CF808300C302B62E6
:1017200092F80580064443EA08232B6292F806806B
:10173000D5F828C043EA08432B6292F807804FEAA5
:101740000E1143EA08632B62137A0EF1010E6B62ED
:1017500092F809805FFA8EFE43EA0820686292F8E8
:101760000A800CEB010340EA08406862D27A40EA42
:1017700002606862D7F800B0D7F80480B868FA68E9
:101780004CF801B0C3F804809860DA602B7D734593
:10179000A3D8321DDDF808A0171D06F1010EB01CFC
:1017A000F11C4E4496F82031CE44EB629EF8206145
:1017B000484443EA0623EB6290F82001494443EA97
:1017C0000043EB6291F820114A4443EA0163EB6263
:1017D00092F8206195F83030B342C0F0058485F866
:1017E0003060B6B109EB070005F13206002190F830
:1017F000212190F82031023043EA02236B8637889A
:101800006B6B4A1C23F8117095F83030D1B28B42C3
:10181000EDD8AB6B01989847D9E6D4F8F425D4F805
:10182000EC35511C013B2244C4F8F41582F8200128
:10183000C4F8EC35002B7FF4CAAE0823C9F8E835AC
:10184000C5E605F5827007F0D9F8CAEB0000052857
:101850007FF6BDAE1E2085F8FC6505F0E9FF0BB0F4
:10186000BDE8F08F08010010F801001060020010C0
:10187000FF0000805D0C0000800300102C020010AF
:10188000FE286CD094F8FC35C4F8E875002B7FF482
:101890009EAE0A201A4684F8273384F8283384F849
:1018A000293384F82A3384F82B3384F82C3384F8D2
:1018B0002D3384F82E3384F8233384F82633FE2323
:1018C0000146FF2684F8250384F821330820F723F6
:1018D00084F8243384F8206305F2253384F8220346
:1018E00005F22E3501E013F8011F9D420A44FAD19A
:1018F000D243D34D89F82F2305F10F07FF2101E0D3
:1019000015F8011FCF4E06F1440007F03DF8BD4227
:10191000F6D106F5827007F071F8C6F8140156E6A4
:101920000323C4F8EC05C4F8F475C4F8F805C4F84A
:10193000E8354CE6D4F8EC35042203EB0020C4F87B
:10194000EC05C4F8E82542E6BF4A1A40002A70DBDD
:10195000FF2A0CBF05230023C9F8E83537E6022328
:10196000C4F8E83533E60623C4F8F005C4F8F805F2
:10197000C4F8E8352BE6D9F8F035D9F8EC2503EBB7
:1019800000230721C9F8F035C9F8E815002A3FF40B
:1019900054AF1CE600230A2480F8273380F828334C
:1019A00080F8293380F82A3380F82B3380F82C33E1
:1019B00080F82D3380F82E3380F8233380F82633D7
:1019C00080F825431A462146F723FF26FE250824E2
:1019D00080F8243380F8206380F8215380F8224374
:1019E00000F2253300F22E3001E013F8011F984277
:1019F0000A44FAD1D243924C89F82F2304F10F06FE
:101A0000FF2101E014F8011F8E4D05F1440006F09E
:101A1000BBFFB442F6D105F5827006F0EFFFC5F8C2
:101A200014011E20C5F800A605F002FF0BB0BDE8AA
:101A3000F08F013A62F0FF02013289E7013A62F069
:101A4000FF02013214E6002384F8FC35BFE594F868
:101A5000205194F81436AB4206D2A900D4F81C06E3
:101A600005F0FEF9C4F81C0689F81456002D00F0A4
:101A7000F282744D042705F5C36E002695F82631D1
:101A800095F8251195F824211B0443EA012395F8C4
:101A90002711134343EA0163C9F81836DEF8000042
:101AA000D9F81C36043743F8260099F81436013665
:101AB000F6B2B34205F10405E0D83E1D35464F4469
:101AC00097F8207199F82036BB4206D2B900D4F8B5
:101AD000280605F0C5F9C4F8280689F820760FB362
:101AE0005A4F6619002396F8222196F8210196F89C
:101AF0002011120442EA002296F823010A4342EA26
:101B00000062C9F824263868D9F82826043542F836
:101B1000230099F820260133DBB29A4206F104062D
:101B2000E1D82E464E4496F8206199F82C36B342FF
:101B300006D2B100D4F8340605F092F9C4F83406A0
:101B40002B1D89F82C6686B307A90846404A002554
:101B50002F468446964602F5A2665EF80300191DDC
:101B6000CCF80000079A0A448A420AD9084603F2D0
:101B70002313234493F801800130824203F8018B40
:101B8000F8D84B1E734409EB020181F81F71C9F8A4
:101B900030363068D9F83416134641F8250099F8E4
:101BA0002C260135EDB2AA42D7D8012389F80C368C
:101BB0000DE506F5827006F021FFD4F81451D4F833
:101BC0002021D4F82431DFF89480451B06F582707B
:101BD000571E984406F012FF1E4B1E49A3FB053208
:101BE000A1FB001E4FF47A73920903FB12554FEAD2
:101BF0009E1E03FB1E0318483A4400FB058100FBB0
:101C00001313CEEB020206F58E7106F58C70C4F844
:101C10001C31C4F8182105F041FB06F5827006F06E
:101C2000EDFEC4F80406D2E406F590712846984704
:101C3000CDE43101A86A05F013F9A8623EE500BFC2
:101C40008005001060020010FF0000808408001072
:101C500080030010D34D621040420F0000CA9A3B2F
:101C60000A2486F8273386F8283386F8293386F83D
:101C70002A3386F82B3386F82C3386F82D3386F8F2
:101C80002E3386F8202386F8233386F82633194628
:101C9000FE25F723082286F8243386F8254386F8A4
:101CA000215386F8222306F22E33204606F22536EB
:101CB00001E016F8010F9E420144FAD1C943CE4D0E
:101CC00089F82F1305F10F06FF2101E015F8011F18
:101CD000CA4C04F1440006F057FEAE42F6D104F5BA
:101CE000827006F08BFE04F5B063009304F2293392
:101CF000C4F8140104F21C5B0193CDF808A05BF852
:101D0000043F002B00F0A08058689D6802681C68A2
:101D100092689047DBF80030074658680368DB6834
:101D20009847DBF8003082461E69632E04DD99F87F
:101D3000FC35002B00F08880C5F30723204689F886
:101D4000283389F8275309F0D4FA05460AAB43F83B
:101D5000140D1868019B2A4621461860A84808F00F
:101D600041FB384609F0C5FA03460AAA42F8100DAD
:101D7000A44C1068AA1D0A353946A0501A466019AD
:101D8000039308F02FFB504609F0B3FA8046039BFB
:101D900007900AAF2B4457F80C0D1D1DE05042462A
:101DA0006019514608F01EFB08EB05010A1D5FFA99
:101DB00082FCC2F3072E0CEB0E05ED4300204944D4
:101DC0004FF0020892B281F8288381F8270381F846
:101DD000290381F82A030346F1B202F226304FF0BC
:101DE000FF0889F8245346F30726FE25023C89F8AC
:101DF00022C389F823E3484489F8208389F82153D2
:101E000089F8251389F8266301E014F8011F84423C
:101E10000B44FAD1DB43D11D083289B292B2494456
:101E2000B2F5007F81F8203300F2198162B1764C5F
:101E300002F21F32A4F21F339D1814F8011F7348D9
:101E400006F0A2FDAC42F8D1009B9B457FF457AF52
:101E5000DDF808A0CDF804A09A465AF8040F00282F
:101E600000F0AB8090E8280069499A6884688A424B
:101E700000F0B88090470746DAF800000368DA6897
:101E800064498A4200F0AB8090478346DAF800004C
:101E900003685B68604A934240F09E80C66B632E85
:101EA00004DD99F8FC35002B00F08780C5F307238B
:101EB000204689F8283389F8275309F01AFA05468D
:101EC0000AAB43F8140D1868544B2A462146186093
:101ED000181D08F087FA384609F00BFA03460AAADB
:101EE00042F8100D474C1068AA1D0A353946A0501B
:101EF0001A466019009308F075FA584609F0F9F986
:101F00008046009B07900AAF2B4457F80C0D1D1D0F
:101F1000E05042466019594608F064FA08EB0501A2
:101F20000A1D5FFA82FCC2F3072E0CEB0E05ED438F
:101F3000002049444FF0020892B281F8288381F8CA
:101F4000270381F8290381F82A030346F1B202F23C
:101F500026304FF0FF0889F8245346F30726FE2564
:101F6000023C89F822C389F823E3484489F8208396
:101F700089F8215389F8251389F8266301E014F8BC
:101F8000011FA0420B44FAD1DB43D11D083289B2B4
:101F900092B24944B2F5007F81F82033174845D802
:101FA0005AB102F21F32851800F21F3414F8011FD3
:101FB000164806F0E9FCAC42F8D1194B53457FF4C2
:101FC0004CAFDDF804A00123C9F800A6C9F804A6A7
:101FD00089F8FC35FFF70EBB984706465FE7DFF848
:101FE00048B056E70F4F4AE77100686B04F038FFBE
:101FF0006863FFF7F4BB00BF8005001060020010AB
:102000008D050010870500107F050010A402001048
:10201000A1020000A90200009D0200008905001035
:102020004408001010C100002CC10000124B1349DD
:102030000793099103233A4607218DF82030FFF7D3
:1020400049F8BAE70822072106204FF0050E0426BA
:102050000C27FFF7A6BB0826354604272FE50649BF
:1020600006480323079109903A46072104488DF852
:102070002030FFF72FF8E7E608BF000090C100000E
:10208000600200102DE9F041DFF848800E4F0F4E3E
:102090000F4D00242B6858F8041B18590368DB689F
:1020A00098472B6857F8041B185903681B69984711
:1020B0002B6856F8041B1859043403689B6898472A
:1020C000142CE7D1BDE8F081F4000010E00000100E
:1020D000F8010010CC000010F0B52B4A85B0036861
:1020E00001921C68294A00239442054602930393F7
:1020F00046D10A201A46FF27FE26082485F82733F2
:1021000085F8283385F8293385F82A3385F82B3369
:1021100085F82C3385F82D3385F82E3385F8233355
:1021200085F82633F723014685F8250385F82433FF
:1021300085F8207385F8216385F8224305F225335D
:1021400005F22E3001E013F8011F98420A44FAD13B
:10215000D24305F1440785F82F2305F21F3405F219
:102160002F3614F8011F384606F00EFCB442F8D1A1
:1021700005F5827006F042FCC5F8140105B0F0BD0B
:1021800001AA0A21A047F3E7D8BE0000D51000003D
:10219000594B2DE9F04F1868DFF888A10368DFF884
:1021A00088918FB0DAF810105B6800229847FFF72B
:1021B00051F8D9F82C20DAF80430DAF80C405068DD
:1021C0001C4407F0F7FC4D4B211A186800220368E5
:1021D0005B689847D9F82C3049491C68204607F0BD
:1021E000DFFC30B12046474907F0BCFC002840F036
:1021F0003887454B00221868DC210368434C5B6834
:102200009847434B00221868DC21036801945B68FF
:1022100098472368002B40F079823E4CA34613E098
:1022200094F8FC3543B140F6C412D4F80036C3EB41
:102230000803934200F224820A2005F0F9FA019B78
:102240001B68002B40F06282FFF704F8D9F82C20BD
:10225000DAF80430DAF80C5050681D4407F0AAFC94
:10226000264B291A1B681A6818465368002298479B
:10227000D9F82C302849586807F074FC0546002826
:1022800040F05282254806F0B9FB42F6F822D4F815
:1022900004368046C31A9342D4F8E83588BF8BF8D9
:1022A000FC5533B1D4F80836984202D90023C4F85B
:1022B000E8351B4804F06AFF06460028B0D101212A
:1022C000174804F0E1FD0028AADBD4F8F835D4F86B
:1022D000E8550344072DC4F8F83500F018812DBBEC
:1022E000FF2840F02881012208F11403C4F8E825F2
:1022F000C4F80836DDE700BFAC0800106009001024
:10230000000088C200008842AC0900105C02001086
:10231000140200106002001000006143640300100A
:10232000640200101C0100102C020010012D00F0AE
:102330000D81022D00F05681032D00F05D81042DEA
:1023400000F06481052D00F07081062D00F075818C
:10235000082DAED1C34A00211A408A42C4F8E815BC
:10236000C0F2D981FF2AA4D1D4F8F035002B00F0B7
:102370000D870A2B00F0CA86062B00F0FD860B2B7A
:1023800000F0CE8104EB8303D3F8F453002D90D0FA
:102390002B68B54A1B68934241F0F68094F820619F
:1023A0002B7D05F10C02B342059204D23101A86ADB
:1023B00004F056FDA8622E75002E01F04281AB4B51
:1023C00000260493042302930BAB05F1180E03932C
:1023D000CDF81880049B029A9F183868039B07F178
:1023E000030C18600B9800F10408B8F1040F08D929
:1023F0006346C11C394413F8012F8B4203F8012CAA
:10240000F9D14FF000033A18D370C5F81CC017F883
:10241000083000F10C0C2B625779029843EA07232D
:102420002B629779604443EA07432B62D779029085
:1024300043EA07632B62137AD5F828806B62577AD8
:10244000310143EA07206862977A08EB010340EA0A
:1024500007406862D27A013640EA02606862DEF8BC
:1024600000C0DEF80470DEF80800DEF80C2048F842
:1024700001C05F609860DA602B7DF6B2B342A9D8E4
:10248000029BDDF818801A1D161D5F1C981CD91CB4
:10249000234493F820312744EB6297F820712044BD
:1024A00043EA0723EB6290F82001214443EA00430A
:1024B000EB6291F82011224443EA0163EB6292F847
:1024C000207195F83030BB4204D27900686B04F07B
:1024D000C7FC686385F83070AFB1A019002105F121
:1024E000320690F8212190F82031023043EA02238D
:1024F0006B8637886B6B4A1C23F8117095F8303067
:10250000D1B28B42EDD8AB6B05989847D1E6D4F8A1
:10251000F425D4F8EC35511C013B2244C4F8F415E1
:1025200082F82001C4F8EC35002B7FF4C2AE0823FA
:10253000C4F8E835BDE64E4806F060FAC8EB000086
:1025400005287FF6B6AE8BF8FC5575E6FE2868D0F8
:1025500094F8FC05C4F8E86500287FF4AAAE0A25C3
:10256000FF26444B2946FE2784F8255384F8206330
:10257000F7250826024684F8270384F8280384F800
:10258000290384F82A0384F82B0384F82C0384F8A5
:102590002D0384F82E0384F8230384F8260384F89B
:1025A000217303F1090084F8226384F8245301E0C5
:1025B00013F8011F98420A44FAD1D2432E4D84F8F1
:1025C0002F2305F10F06FF2101E015F8011F2B480D
:1025D00006F0DAF9B542F8D1254806F00FFACBF843
:1025E000140166E60323C4F8EC05C4F8F465C4F8E6
:1025F000F805C4F8E8355CE6D4F8EC35042203EBC2
:102600000020C4F8EC05C4F8E82552E6154A1A4043
:10261000002A21DBFF2A7FF449AE0523C4F8E83500
:1026200047E60223C4F8E83543E60623C4F8F0057C
:10263000C4F8F805C4F8E8353BE6D4F8F035D4F82A
:10264000EC2503EB00230721C4F8F035C4F8E815A6
:10265000002A3FF46CAF2CE6013A62F0FF0201322F
:10266000D8E700BFFF0000805D0C00008003001071
:10267000640300108505001080050010A4020010FE
:102680000A25FF26684B00202946FE2784F825539B
:1026900084F82063F7250826024684F8270384F887
:1026A000280384F8290384F82A0384F82B0384F888
:1026B0002C0384F82D0384F82E0384F8230384F874
:1026C000260384F8217303F1090084F8226384F857
:1026D000245301E013F8011F83420A44FAD1D24384
:1026E000524D84F82F2305F10F06FF2101E015F864
:1026F000011F4F4806F048F9B542F8D14D4806F0A1
:102700007DF9CBF80086CBF8140195E5FEF71EFFA6
:102710000FB0BDE8F08F013A62F0FF02013221E60E
:10272000002384F8FC35C4E5434C2068002203688C
:10273000DAF800105B689847019B1B68002BE5D115
:102740003E4CA34612E094F8FC3543B140F6C41267
:10275000D4F80036C3EB0803934200F21D820A202E
:1027600005F066F8019B1B68002BCFD1FEF772FDC8
:10277000D9F82C20DAF80430DAF80C5050681D44EF
:1027800007F018FA2E4B291A1B682E4D1A681846A6
:10279000536800229847D9F82C302B491E683046E0
:1027A00007F0FEF930B13046284907F0DBF9002880
:1027B00040F03D821F4806F021F942F6F822D4F895
:1027C00004368046C31A934284BF00238BF8FC353D
:1027D000D4F8E83533B1D4F80836984202D900234A
:1027E000C4F8E8351A4804F0D1FC06460028AAD1FE
:1027F0000121174804F048FB0028A4DBD4F8F83581
:10280000D4F8E8550344072DC4F8F83500F00B81DF
:1028100005BBFF2840F01B81012208F11403C4F816
:10282000E825C4F80836DDE78505001080050010AE
:10283000A4020010640300105C0900106002001084
:10284000600900101C010010000088C200008842CE
:1028500064020010012D00F00581022D00F04E8170
:10286000032D00F05581042D00F05C81052D00F052
:102870006881062D00F06D81082DB3D1BF4A00217B
:102880001A408A42C4F8E815C0F2CC81FF2AA9D1C7
:10289000D4F8F035002B00F0DC860A2B00F0008421
:1028A000062B00F0F3830B2B00F0EB8304EB830388
:1028B000D3F8F453002D95D02B68B14A1B6893428E
:1028C00040F0678694F820612B7D05F10C02B3423D
:1028D0000592C0F063862E75002E01F08A80A94B08
:1028E00000260393042302930BAB05F1180E049307
:1028F000CDF81880039B029A9F183868049B07F153
:10290000030C18600B9800F10408B8F1040F08D903
:102910006346C11C394413F8012F8B4203F8012C84
:10292000F9D14FF000033A18D370C5F81CC017F85E
:10293000083000F10C0C2B625779029843EA072308
:102940002B629779604443EA07432B62D779029060
:1029500043EA07632B62137AD5F828806B62577AB3
:10296000310143EA07206862977A08EB010340EAE5
:1029700007406862D27A013640EA02606862DEF897
:1029800000C0DEF80470DEF80800DEF80C2048F81D
:1029900001C05F609860DA602B7DF6B2B342A9D8BF
:1029A000029BDDF818801A1D161D5F1C981CD91C8F
:1029B000234493F820312744EB6297F82071204498
:1029C00043EA0723EB6290F82001214443EA0043E5
:1029D000EB6291F82011224443EA0163EB6292F822
:1029E000207195F83030BB42C0F01F8685F83070FA
:1029F000AFB1A019002105F1320690F8212190F81D
:102A00002031023043EA02236B8637886B6B4A1C05
:102A100023F8117095F83030D1B28B42EDD8AB6B02
:102A200005989847DEE6D4F8F425D4F8EC35511C27
:102A3000013B2244C4F8F41582F82001C4F8EC35B7
:102A4000002B7FF4CFAE0823C4F8E835CAE64E4821
:102A500005F0D4FFC8EB000005287FF6C3AE8BF865
:102A6000FC557CE6FE2868D094F8FC05C4F8E865BF
:102A700000287FF4B7AE0A25FF26444B2946FE27DF
:102A800084F8255384F82063F7250826024684F845
:102A9000270384F8280384F8290384F82A0384F898
:102AA0002B0384F82C0384F82D0384F82E0384F878
:102AB000230384F8260384F8217303F1090084F8C2
:102AC000226384F8245301E013F8011F83420A446F
:102AD000FAD1D2432E4D84F82F2305F10F06FF21A2
:102AE00001E015F8011F2B4805F04EFFB542F8D163
:102AF000254805F083FFCBF8140173E60323C4F8DF
:102B0000EC05C4F8F465C4F8F805C4F8E83569E6DE
:102B1000D4F8EC35042203EB0020C4F8EC05C4F82B
:102B2000E8255FE6154A1A40002A21DBFF2A7FF4D8
:102B300056AE0523C4F8E83554E60223C4F8E83558
:102B400050E60623C4F8F005C4F8F805C4F8E835E3
:102B500048E6D4F8F035D4F8EC2503EB0023072140
:102B6000C4F8F035C4F8E815002A3FF46CAF39E634
:102B7000013A62F0FF020132D8E700BFFF00008097
:102B80005D0C000080030010640300108505001038
:102B900080050010A40200100A25FF26B44B002077
:102BA0002946FE2784F8255384F82063F725082654
:102BB000024684F8270384F8280384F8290384F85C
:102BC0002A0384F82B0384F82C0384F82D0384F85B
:102BD0002E0384F8230384F8260384F8217303F179
:102BE000090084F8226384F8245301E013F8011FDC
:102BF00098420A44FAD1D2439E4D84F82F2305F11E
:102C00000F06FF2101E015F8011F9B4805F0BCFEEF
:102C1000B542F8D1994805F0F1FECBF80086CBF823
:102C200014019CE5013A62F0FF0201322EE6944E57
:102C3000944C30680022036869685B689847206894
:102C400000220368A9685B6898473068002203681F
:102C500069685B6898472068A968036800225B6818
:102C60009847DFF83082DFF83CB20024DBF8003010
:102C70001859043403689B69984780B9142CF5D11E
:102C8000814C824D04F1140654F8040B06F078FDD3
:102C9000B44245F8040BF7D10FB0BDE8F08F019BAB
:102CA0001C68002C7FF432ADFEF7D4FAD9F82C2042
:102CB000DAF80430DAF80C5050681D4406F07AFF58
:102CC000734B291A1B68734D1A68184656682246BA
:102CD000B04705F5827005F091FE42F6F822D8F86B
:102CE00004360746C31A9342D8F8E83588BF85F8FA
:102CF000FC4533B1D8F80836984202D90023C8F809
:102D0000E835644C201D04F041FA054670B198F88E
:102D1000FC353BB140F6C412D8F80036FB1A93429A
:102D200000F251810A2004F083FD9EE70121201D5D
:102D300004F0AAF80028EADBD8F8F835D8F8E865F6
:102D40000344072EC8F8F83573D056B9FF2840F071
:102D50008480012207F11403C8F8E825C8F8083672
:102D6000CFE7012E00F0A080022E00F0ED80032EB0
:102D700000F0F480042E00F0FB80052E00F00781A7
:102D8000062E00F00C81082EBBD1434A00211A40C8
:102D90008A42C8F8E815C0F25F81FF2AB1D1D8F89D
:102DA000F035002B00F050860A2B00F00884062B2B
:102DB00000F0FB830B2B00F0608108EB8303D3F85A
:102DC000F443002C9DD02368344A1B68934240F0A2
:102DD0003384334904F11000FDF770FD08EB000364
:102DE00093F8203194F8302006469A4204F10C05FD
:102DF000C0F0078684F83030BBB108EB0600002134
:102E000004F1320690F8252190F82431023043EA8B
:102E100002236386B6F800E0636B4A1C23F811E0D6
:102E200094F83030D1B28B42ECD8A36B2846984747
:102E300067E7D8F8F425D8F8EC35511C013B42443B
:102E4000C8F8F41582F82001C8F8EC35002B7FF49F
:102E500058AF0823C8F8E83553E704F5827005F049
:102E6000CDFDC01B05287FF64CAF84F8FC6559E703
:102E70008505001080050010A402001064030010F6
:102E8000AC090010140200101C0100100801001011
:102E90006009001060020010FF0000805D0C00005F
:102EA00080030010F8010010FE286CD098F8FC3563
:102EB000C8F8E855002B7FF424AF0A201A4688F89A
:102EC000273388F8283388F8293388F82A3388F894
:102ED0002B3388F82C3388F82D3388F82E3388F874
:102EE000233388F82633FE230146FF2588F825037F
:102EF00088F821330820F72388F8243388F82053F2
:102F000004F2253388F8220304F22E3401E013F88A
:102F1000011F9C420A44FAD1D243B74C88F82F23B0
:102F200004F10F06FF2101E014F8011FB34D05F174
:102F3000440005F029FDB442F6D105F5827005F094
:102F40005DFDC5F81401DCE60323C8F8EC05C8F8FC
:102F5000F455C8F8F805C8F8E835D2E6D8F8EC35E5
:102F6000042203EB0023C8F8EC35C8F8E825C8E6CE
:102F7000A34A1A40002A21DBFF2A7FF4BFAE0523B3
:102F8000C8F8E835BDE60223C8F8E835B9E60623F7
:102F9000C8F8F005C8F8F805C8F8E835B1E6D8F87B
:102FA000F035D8F8EC2503EB00230721C8F8F035FD
:102FB000C8F8E815002A3FF44CAFA2E6013A62F0E7
:102FC000FF020132D8E70A24FF258E4B002021465C
:102FD000FE2688F8254388F82053F7240825024662
:102FE00088F8270388F8280388F8290388F82A0333
:102FF00088F82B0388F82C0388F82D0388F82E0313
:1030000088F8230388F8260388F8216303F1090070
:1030100088F8225388F8244301E013F8011F834203
:103020000A44FAD1D243744C88F82F2304F10F05D7
:10303000FF2101E014F8011F704E06F1440005F075
:10304000A3FCAC42F6D106F5827005F0D7FCC6F8B9
:103050000076C6F8140165E6013A62F0FF0201321B
:103060009BE6694C00222068DAF8001003685B6870
:103070009847664B0193FFF758BB002388F8FC354F
:103080003FE6002384F8FC35FFF7ACBB604901F54F
:103090009E60FDF7CFFA012384F80C36FFF7A2BB40
:1030A0005C4805F0ABFCD4F81451D4F82021D4F8D6
:1030B0002431594F451B5748561E1F4405F09EFCAE
:1030C000564B5649A3FB0532A1FB001E4FF47A7301
:1030D000920903FB12514FEA9E1E03FB1E03504848
:1030E000324400FB017100FB13134E49CEEB020288
:1030F000081FC4F81C31C4F8182104F0CFF8454863
:1031000005F07CFCC4F80406FFF76CBB414805F0F1
:1031100075FCD4F81451D4F82021D4F824313E4F52
:10312000451B3C48561E1F4405F068FC3B4B3B4981
:10313000A3FB0532A1FB001E4FF47A73920903FB37
:1031400012514FEA9E1E03FB1E033548324400FB1A
:10315000017100FB13133349CEEB0202081FC4F8C0
:103160001C31C4F8182104F099F82A4805F046FCEF
:10317000C4F80406FFF79DB8254901F59E60FDF7E8
:1031800059FA012384F80C36FFF793B8264D8BF8D3
:103190002023FE220A2608278BF82123F72219462E
:1031A0008BF827338BF828338BF829338BF82A33A5
:1031B0008BF82B338BF82C338BF82D338BF82E3385
:1031C0008BF823338BF8263330468BF82563A5F133
:1031D00009038BF822738BF8242301E013F8010F05
:1031E0009D420144FAD1C943034D84F82F1305F1E0
:1031F0000F06FF211CE000BF8005001060020010D8
:10320000FF000080850500105C0900105C020010C2
:10321000800300106403001000CA9A3BD34D621073
:1032200040420F007C0300108E05001015F8011FAE
:10323000C64805F0A9FBB542F8D1C54805F0DEFB4C
:10324000C44BCBF81401039364330293CDF8188078
:10325000039A52F8043F0392002B00F0A1805868B3
:103260009E6802681D6892689047039B07461B682A
:1032700058680368DB689847039B04901B681B69C8
:10328000632B059304DD94F8FC35002B00F0888057
:10329000C6F3072384F82833284684F8276308F008
:1032A00028F806460EAB43F8140D1868AA4B3246B0
:1032B00029461860181D07F095F8384608F019F8E7
:1032C00003460EAA42F8100DA44D1068B21D0A362E
:1032D0003946A8501A46A819079307F083F80498AE
:1032E00008F007F88046079B0B900EAF334457F861
:1032F0000C0D1E1DE8504246A819049907F072F8FB
:1033000008EB06010A1D5FFA82FEC2F307280EEBE6
:10331000080C6FEA0C0C0020214481F8270381F887
:10332000290381F82A0303460598022681F82863B9
:1033300084F824C384F822E340F3072C5FFA80FE6C
:103340006FF0010092B202F22631FF26023D84F8AE
:103350002383214484F8206384F8210384F825E33F
:1033600084F826C301E015F801EF8D427344FAD1C9
:10337000DB43D11D083289B292B22144B2F5007FFD
:1033800081F8203300F2538352B102F21F32744DA0
:10339000A61815F8011F6D4805F0F6FAB542F8D1E8
:1033A000039B029A93427FF453AFDDF81880CDF867
:1033B0001480029B53F8040F0293002800F0A780AA
:1033C00090E8280081689A68049166498A4240F032
:1033D000D580DFF8A481DA6863498A4240F0A8808A
:1033E000624A5B680392624A934240F0AB80C76BCB
:1033F000632F04DD94F8FC35002B00F08880C5F3C2
:10340000072384F82833049884F8275307F071FFC2
:1034100006460EAB43F8140D18684F4B3246186041
:103420000499181D06F0DEFF404607F062FF0346D0
:103430000EAA42F8100D494D1068B21D0A364146D9
:10344000A8501A46A819049306F0CCFF039807F079
:1034500050FF0EAB1A468046049B0B9052F80C0DA1
:1034600033441E1DE8500492A8194246039906F001
:10347000B9FF08EB06010A1D5FFA82FEC2F3072CB2
:103480000EEB0C086FEA080800202144022692B2D5
:1034900081F8286381F8270381F8290381F82A033A
:1034A000034602F22631FF26FE2084F822E35FFA6B
:1034B00087FE47F30727023D84F8248384F823C35B
:1034C000214484F8206384F8210384F825E384F8F8
:1034D000267301E015F801EF8D427344FAD1DB4306
:1034E000D11D083289B292B22144B2F5007F81F831
:1034F000203300F28F8252B102F21F32184DA6180B
:1035000015F8011F114805F03FFAB542F8D1029BAA
:103510001A46184B9A427FF44CAFDDF81480012311
:10352000C4F80086C4F8048684F8FC35FEF784BE2F
:103530009047029B039018680D4A03685B689342AA
:103540003FF455AF9847074652E700BFA40200106A
:10355000640300107C070010890500108705001027
:103560007F050010A1020000A90200002CC100008C
:103570009D0200004408001010C100009047029B0B
:1035800080461868036826E728469B499847FEF757
:1035900090BE284698499847FFF724B93101A86A98
:1035A00003F05EFCA862FFF796B9934901F59E60AF
:1035B000FDF740F8012388F80C36FFF7A2BB8F48CF
:1035C00005F01CFAD8F81441D8F82021D8F8243195
:1035D0008B4E041B8948551E1E4405F00FFA894B7B
:1035E0008849A3FB0432A1FB001E4FF47A739209B1
:1035F00003FB12414FEA9E1E03FB1E0382482A442E
:1036000000FB016100FB13138049CEEB0202081F8F
:10361000C8F81C31C8F8182103F040FE774805F0BF
:10362000EDF9C8F80406FFF76CBB7900686B03F08E
:1036300017FC6863FFF7DAB920466F499847FFF730
:1036400060BB082207210620052704230C26FEF76D
:103650001FBF6F4D8BF82023FE220A2608278BF808
:103660002123F72219468BF827338BF828338BF860
:1036700029338BF82A338BF82B338BF82C338BF8C8
:103680002D338BF82E338BF823338BF826333046CB
:103690008BF82563A5F109038BF822738BF824239B
:1036A00001E013F8010FAB420144FAD1C943594D6F
:1036B00084F82F1305F10F06FF2101E015F8011F13
:1036C000554805F061F9B542F8D14C4805F096F936
:1036D000524BCBF81401039364330293CDF8188056
:1036E000039A52F8043F0392002B00F0BA80586806
:1036F0009E6802681D6892689047039B07461B6896
:1037000058680368DB689847039B04901B681B6933
:10371000632B059304DD94F8FC35002B00F0A180A9
:10372000C6F3072384F82833284684F8276307F074
:10373000E0FD06460EAB43F8140D1868384B3246D0
:1037400029461860181D06F04DFE384607F0D1FDD9
:1037500003460EAA42F8100D324D1068B21D0A360B
:103760003946A8501A46A819079306F03BFE04985C
:1037700007F0BFFD8046079B0B900EAF334457F810
:103780000C0D1E1DE8504246A819049906F02AFEA9
:1037900008EB06010A1D5FFA82FEC2F307280EEB52
:1037A000080C6FEA0C0C0020214481F8270381F8F3
:1037B000290381F82A0303460598022681F8286325
:1037C00084F824C384F822E340F3072C5FFA80FED8
:1037D0006FF0010092B202F22631FF26023D84F81A
:1037E0002383214484F8206384F8210384F825E3AB
:1037F00084F826C31AE000BF8003001064030010A1
:1038000000CA9A3BD34D621040420F007C03001067
:103810008E05001080050010A40200107C07001027
:10382000890500108705001015F801EF8D427344DB
:10383000FAD1DB43D11D083289B292B22144B2F5EC
:10384000007F81F8203300F2CE8252B102F21F32A3
:10385000C54EA51816F8011FC44805F095F8AE42EC
:10386000F8D1039B029A93427FF43AAFDDF81880B7
:10387000CDF81480029B53F8040F0293002800F047
:10388000A78090E8280081689A680491B8498A4224
:1038900040F08982DFF80483DA68B6498A4240F052
:1038A0007C82B54A03925B68B44A934240F07282CC
:1038B000C76B632F04DD94F8FC35002B00F0888083
:1038C000C5F3072384F82833049884F8275307F0B6
:1038D00010FD06460EAB43F8140D1868A84B32468F
:1038E00018600499181D06F07DFD404607F001FDA3
:1038F00003460EAA42F8100DA24D1068B21D0A36FA
:103900004146A8501A46A819049306F06BFD039887
:1039100007F0EFFC0EAB1A468046049B0B9052F862
:103920000C0D33441E1DE8500492A8194246039919
:1039300006F058FD08EB06010A1D5FFA82FEC2F38D
:10394000072C0EEB0C086FEA080800202144022621
:1039500092B281F8286381F8270381F8290381F85E
:103960002A03034602F22631FF26FE2084F822E3D2
:103970005FFA87FE47F30727023D84F8248384F823
:1039800023C3214484F8206384F8210384F825E3C9
:1039900084F8267301E015F801EFA9427344FAD1C7
:1039A000DB43D11D083289B292B22144B2F5007FC7
:1039B00081F8203300F2FD8152B102F21F326A4ECB
:1039C000A51816F8011F694804F0DEFFAE42F8D1D1
:1039D000029B1A466C4B9A427FF44CAFDDF8148080
:1039E0000123C4F80086C4F8048684F8FC35FEF789
:1039F000B6BE082207210620052704230C26FEF761
:103A0000D7BF5900606B029303F02AFA029B6063F0
:103A1000FFF7F0B95D495E4803230B910D90049ABE
:103A200007215C488DF83030FDF754FB6FE55749AE
:103A3000574803230B910D903A46072155488DF8BE
:103A40003030FDF747FBABE45248FEF745FB524BE5
:103A50000697039364330293039A52F8043F174680
:103A60000392002B00F0BA8058689D6802681C68B9
:103A7000926890473B68064658680368DB68984739
:103A80003B6804901B69632B059304DD98F8FC35B3
:103A9000002B00F0A380C5F3072388F828332046C5
:103AA00088F8275307F025FC05460EAB43F8140DA4
:103AB0001868334B2A4621461860181D06F092FC00
:103AC000304607F016FC03460EAA42F8100D2D4CA6
:103AD0001068AA1D0A353146A0501A46601907938E
:103AE00006F080FC049807F004FC0746079B0B9047
:103AF0000EAE2B4456F80C0D1D1DE0503A466019D1
:103B0000049906F06FFC79190A1D5FFA82FEC2F370
:103B1000072C0EEB0C07FF430020414481F82703DC
:103B200081F8290381F82A0303460598022581F8C4
:103B3000285388F8247388F822E3C7B240F3072E8D
:103B40006FF0010092B202F22631FF25023C88F8A4
:103B500023C3414488F8205388F8210388F825734B
:103B600088F826E31EE000BF7F050010A4020010C5
:103B7000A1020000A90200002CC100009D0200006B
:103B800089050010870500104408001008BF0000D8
:103B900090C10000600200107C07001010C10000FE
:103BA00014F8017FA1423B44FAD1DB43D11D083216
:103BB00089B292B24144B2F5007F81F8203300F21D
:103BC00005815AB102F21F328D4D08EB020415F83F
:103BD000011F8C4804F0D8FEAC42F8D1039B029A36
:103BE00093427FF439AF069F0597029B53F8040F69
:103BF0000293002800F0A38090E8180081689A687A
:103C0000049181498A4240F0B280804FDA6880494D
:103C10008A4240F0A6807F4A03925B687E4A9342C4
:103C200040F09C80C66B632E04DD98F8FC35002BB9
:103C300000F08580C4F3072388F82833049888F8B7
:103C4000274307F056FB05460EAB43F8140D1868E2
:103C5000724B2A4618600499181D06F0C3FB3846BB
:103C600007F047FB03460EAA42F8100D6C4C106893
:103C7000AA1D0A353946A0501A466019049306F069
:103C8000B1FB039807F035FB0EAB1A460746049BC1
:103C90000B9052F80C0D2B441D1DE050049260193E
:103CA0003A46039906F09EFB79190A1D5FFA82FED7
:103CB000C2F3072C0EEB0C07FF4300204144022502
:103CC00092B281F8285381F8270381F8290381F8FB
:103CD0002A03034602F22631FF2588F82473FE20CA
:103CE000F7B246F30726023C88F822E388F823C39C
:103CF000414488F8205388F8210388F8257388F810
:103D0000266301E014F8017F8C423B44FAD1DB4387
:103D1000D11D083289B292B24144B2F5007F81F8D8
:103D200020332AD85AB102F21F32354D08EB020473
:103D300015F8011F334804F027FEA542F8D1394B8E
:103D4000029A93427FF451AF059F0123C8F8007691
:103D5000C8F8047688F8FC35FEF7E4BF98470646B5
:103D600061E79047029B03901868036855E7904706
:103D7000029B07461868036848E72B492B48032332
:103D80000B910D90049A072129488DF83030FDF7EA
:103D9000A1F9D4E7984707468BE59047029B03902B
:103DA000186803687FE59047029B8046186803689F
:103DB00072E51D491D4803230B910D90049A0721BC
:103DC0001B488DF83030FDF785F901E61649174894
:103DD00003230B910D903246072115488DF83030A2
:103DE000FDF778F9FAE61049104803230B910D907E
:103DF0003A4607210E488DF83030FDF76BF930E573
:103E00007F050010A4020010A102000010C10000F4
:103E1000A90200002CC100009D02000089050010CD
:103E2000870500104408001008BF000090C1000082
:103E3000600200102DE9F04F0746C14BC14991B017
:103E4000002200F5B06800F21C5B0A910C930D9300
:103E50000E93ADF82C200F92CDF804805BF8043F50
:103E6000002B00F0BD8058681C6801689A680C94AB
:103E70008B68ADF82C209847DBF800300D9058681F
:103E80000368DB6898473B68DBF800104FF400726A
:103E90000E901B680E690F92AB4A8146934240F028
:103EA0008B81632E04DD97F8FC35002B00F09880A1
:103EB000BDF82C300C9D1A0A87F8273387F8282381
:103EC000284607F016FA044610AB43F82C0D186884
:103ED00029462246C7F8290307F22D3006F082FA58
:103EE0000D9D10AB2846009307F003FA07F2273E1A
:103EF000034629467546009A069052F8280D02930B
:103F00000092A21D0A344EF802001A46281906F043
:103F100069FA484607F0EDF98246029B07900DF1D9
:103F20004008234458F8240D1C1DE85049465246C9
:103F3000281906F057FA0AEB0400011D5FFA81FA0E
:103F4000C1F307290AEB090E6FEA0E0E00242C5468
:103F500005EB000C89B202208CF802408CF803407B
:103F60008CF8010007F22533224601F22630FF24A7
:103F700087F824E3FE255FFA86FE46F307260293C0
:103F800087F822A387F82393384487F8204387F8DB
:103F9000215387F825E387F8266301E013F801EF42
:103FA00098427244FAD1D243C81D01F1080380B28D
:103FB0009BB23918B3F5007F81F8202300F21D81F0
:103FC00007F5487563B1013B1D4407F1440607F24C
:103FD0001F3414F8011F304604F0D6FCA542F8D176
:103FE000019B9B457FF43AAF984607F2E453019357
:103FF00058F8040F002800F0D580826803684168F3
:104000000C929A68ADF82C1050498A4240F0EF802B
:104010004F4A0D92DA684F498A4240F0E2804E4A98
:1040200039680E924FF400725B680C680F924B4A2D
:10403000934240F0D380C66BDFF80CA1544540F0AA
:10404000C480632E04DD97F8FC35002B00F0AA80B5
:10405000BDF82C300C9D1A0A87F8273387F82823DF
:10406000284607F046F9044610AB43F82C0D1868B3
:1040700029462246C7F8290307F22D3006F0B2F987
:104080000D9D10AB2846009307F033F907F2273E49
:10409000034629467546009A069052F8280D039368
:1040A0000092A21D0A344EF802001A46281906F0A2
:1040B00099F90E990DF140090846029107F019F996
:1040C0008346039B0790234459F8240D1C1DE85098
:1040D0005A462819029906F085F90BEB0400021DD7
:1040E0005FFA82FBC2F3072C0BEB0C04E4430F993D
:1040F00005EB000E2954080A8EF8010092B2080C54
:10410000090E8EF802008EF8031007F22533FE2107
:1041100002F22630FF2587F82443F4B246F307263F
:1041200087F82113029387F822B387F823C3384412
:1041300087F8205387F8254387F82663002111E08C
:10414000C8C10000F0BE0000D5100000A1020000B0
:1041500010C10000A90200002CC100009D02000057
:1041600013F8014F98422144FAD1C943D01D02F1FE
:10417000080380B29BB23A18B3F5007F82F820138F
:1041800000F2998007F5487563B1013B1D4407F1C2
:10419000440607F21F3414F8011F304604F0F4FB04
:1041A000A542F8D1019B43457FF422AF012387F854
:1041B000FC3511B0BDE8F08F31460AAA3846984761
:1041C000019B9B457FF44AAE0EE731460AAA38466A
:1041D000A047019B43457FF40BAFE7E798470646AE
:1041E0002AE790470246D8F80000036818E790478E
:1041F0000246D8F8000003680BE7614903220791E3
:1042000060493B6809918DF820201B685E498B420C
:1042100040F0AC8038230693009B5A4C186887F80E
:104220002723C7F8280304F1300E07F54B752646FF
:104230000FCE764528606960AA60EB6004F1100437
:1042400005F11005F3D103CC029B28606960FF20C3
:10425000FE2100264FF0070E87F8200387F8211370
:104260003D20C22187F824133246744687F8236321
:1042700087F8266387F825E387F8220307F263317E
:1042800001E013F8014F99422244FAD1D24307F1D9
:10429000440687F8642307F21F3407F5597514F8AC
:1042A000011F304604F070FBAC42F8D1019B9B45E6
:1042B0007FF4D4AD98E63249324C03223B68079133
:1042C00009948DF820201B68534554D13823069358
:1042D000009B87F82723186804F1300EC7F82803DD
:1042E00007F54B7526460FCE764528606960AA60B3
:1042F000EB6004F1100405F11005F3D103CC029B2F
:1043000028606960FF20FE2100264FF0070E87F825
:10431000200387F821133D20C22187F82413324659
:10432000744687F8236387F8266387F825E387F8C0
:10433000220307F2633101E013F8014F8B4222445C
:10434000FAD1D24307F1440687F8642307F21F34F9
:1043500007F5597514F8011F304604F015FBA54206
:10436000F8D1019B43457FF443AE1FE74246072146
:104370003846984734E64A4607213846984711E7B9
:1043800008BF000090C10000D51000002DE9F04FDB
:10439000044600F5827A8BB0504604F02FFB42F6BB
:1043A000F822D4F804368046C31A934284BF00230F
:1043B00084F8FC35D4F8E83533B1D4F808368342B4
:1043C0003CBF0023C4F8E83504F1040B584602F062
:1043D000DDFE054678B194F8FC0548B140F6C412FC
:1043E000D4F80036C3EB0803934200F2CF810020DB
:1043F0000BB0BDE8F08F0121584602F045FD0028C2
:10440000E9DBD4F8F835D4F8E8650344072EC4F89E
:10441000F83500F0FE8056B9FF2840F00E810122E9
:1044200008F11403C4F8E825C4F80836CEE7012ED5
:1044300000F01281022E00F06781032E00F06E81E1
:10444000042E00F07581052E00F08181062E00F00B
:104450008681082EBAD1C94A00211A408A42C4F87E
:10446000E815C0F2F681FF2AB0D1D4F8F035002B60
:1044700000F0F9820A2B00F0A582062B00F0F781EC
:104480000B2B00F0F08104EB8303D3F8F453002DE1
:104490009CD02B6804F5907201921B68B84A934235
:1044A00040F0D48294F820612B7D05F10C02B342D8
:1044B0000292C0F0C5822E75002E00F0CB8204233C
:1044C00007AACDF810809C4690460594019C0027D1
:1044D00005F11806CDF80CA004EB0C0EDEF8000078
:1044E0000EF10309C8F80000079800F1040ABAF1B8
:1044F000040F08D94B46C11C714413F8012F99428F
:1045000003F8012CF9D14FF000030EEB0002D37039
:10451000C5F81C901EF80A300C302B6292F80590FA
:10452000844443EA09232B6292F80690D5F828E0E8
:1045300043EA09432B6292F80790390143EA096381
:104540002B62137A01376B6292F80990FFB243EA4B
:104550000920686292F80A900EEB010340EA0940D4
:104560006862D27A40EA02606862D6F800A0D6F8A3
:104570000490B068F2684EF801A0C3F80490986007
:10458000DA602B7DBB42A7D86346DDF80CA01A1D6C
:10459000DDF81080059C0CF1010E161D981C0CF125
:1045A000030C019995F83070CB5CEB6211F80EE0CA
:1045B00043EA0E23EB62085C43EA00430846EB62E1
:1045C00011F80C1043EA0163EB6210F802904F45BA
:1045D000C0F02F8285F83090B9F1000F15D0019B03
:1045E00005F1320733441E460020727816F8023B6C
:1045F000696B43EA02236B863B88421C21F810302A
:1046000095F83030D0B28342EFD8AB6B0298984720
:10461000DCE6D4F8F4355A1C2344C4F8F42583F8B6
:104620002001D4F8EC35013BC4F8EC35002B7FF4C5
:10463000CDAE0823C4F8E835C8E6504604F0DEF9EC
:10464000C8EB000005287FF6C1AE6FF0010084F8CA
:10465000FC650BB0BDE8F08FFE2874D094F8FC35F3
:10466000C4F8E855002B7FF4B1AE464922680791A3
:104670001568454A08939542099340F0E0800A2066
:104680001A460146FF2684F8273384F8283384F835
:10469000293384F82A3384F82B3384F82C3384F8B4
:1046A0002D3384F82E3384F8233384F82633FE2503
:1046B000F72384F82503082084F8220384F82433A0
:1046C00084F8206384F8215304F2253304F22E3059
:1046D00001E013F8011F98420A44FAD1D24304F1D1
:1046E000440784F82F2304F21F3504F22F3615F8FF
:1046F000011F384604F048F9AE42F8D1504604F0A4
:104700007DF9C4F8140161E60323C4F8EC05C4F88C
:10471000F455C4F8F805C4F8E83557E6D4F8EC3594
:10472000042203EB0020C4F8EC05C4F8E8254DE6AC
:10473000124A1A40002A7DDBFF2A0CBF0523002302
:10474000C4F8E83542E60223C4F8E8353EE606231D
:10475000C4F8F005C4F8F805C4F8E83536E6D4F82E
:10476000F035D4F8EC2503EB00230721C4F8F0352D
:10477000C4F8E815002A3FF45CAF27E6FF0000808C
:104780005D0C0000D8BE0000D5100000C44A2368AC
:1047900007921D68C34A00239542089309935DD18F
:1047A0000A201A460146FF2684F8273384F8283366
:1047B00084F8293384F82A3384F82B3384F82C3393
:1047C00084F82D3384F82E3384F8233384F8263389
:1047D000FE25F72384F82503082084F8220384F8B3
:1047E000243384F8206384F8215304F2253304F23F
:1047F0002E3001E013F8011F98420A44FAD1D24347
:1048000004F1440784F82F2304F21F3504F22F36F5
:1048100015F8011F384604F0B7F8B542F8D15046F4
:1048200004F0ECF8C4F814010020C4F800860BB0C2
:10483000BDE8F08F013A62F0FF0201327CE707AA7F
:104840000A212046A847504604F0D8F8C4F81401BD
:10485000BCE5013A62F0FF02013204E607AA0A2130
:104860002046A847DBE7002384F8FC35AEE594F842
:10487000206194F8143604F59075B34206D2B10065
:10488000D4F81C0602F0ECFAC4F81C0684F814668E
:10489000002E00F00181284604F5C367042600219C
:1048A000837990F805E002791B0443EA0E2390F81F
:1048B00007E0134343EA0E63C4F818363A68D4F8A5
:1048C0001C36043643F8212094F814360131C9B25D
:1048D0008B4200F10400E3D8371D33463E4615F8FD
:1048E000039094F820364B4507D24FEA8901D4F85B
:1048F000280602F0B5FAC4F8280684F82096B9F123
:10490000000F20D004F22467A8190023827890F8C1
:1049100001E00178120442EA0E2290F803E00A4313
:1049200042EA0E62C4F824263968D4F828260436F0
:1049300042F8231094F820260133DBB29A4200F1AA
:104940000400E3D83746EF5D94F82C36BB4206D21C
:10495000B900D4F8340602F083FAC4F83406331DE3
:1049600084F82C7657B3002607AAB646944604F579
:10497000C667E858191DCCF80000079A0A448A4215
:1049800009D9084603332B4413F8019F01308242B2
:1049900003F8019CF8D84B1E2B44A91801F801EC30
:1049A000C4F830363868D4F83416134641F8260077
:1049B00094F82C260136F6B2B242DAD8012384F8F4
:1049C0000C3603E5504604F019F8D4F81451D4F825
:1049D0002431DFF8DC90451B50469944D4F820611F
:1049E00004F00CF8304B304AA3FB0537A2FB001251
:1049F0004FF47A73BF0903FB175591092B4A03FB48
:104A0000110302FB05922948013E00FB13233E449B
:104A1000721AC4F81C31C4F8182104F58E7104F51B
:104A20008C7002F03BFC504603F0E8FFC4F804062B
:104A3000CCE44FEA4901686B02F012FA6863C9E5F9
:104A40003101A86A02F00CFAA86234E501992846FF
:104A50009847BBE408224FF0070C06204FF0050EE4
:104A600004230C269DE50E492268079108930A212C
:104A700009932046136807AA9847504603F0BEFFE3
:104A8000C4F814012046FFF7D5F9C4F80086C4F82D
:104A900004864FF0FF30ABE408273E4604231EE7B0
:104AA000D8BE0000D5100000D34D621040420F0068
:104AB00000CA9A3B2DE9F041064611C8251AAD10EF
:104AC000884605D06B009D4226D96FF0030500E0B3
:104AD0000425284604F03FF9074696E81100241AF9
:104AE000E742D8F8003003D03B5196E81100241A71
:104AF000A3080AD104343C4408B104F02AF93D4427
:104B0000B56037607460BDE8F081014622463846E2
:104B100005F073FC3068EDE7B3F1804FD5D213B9DF
:104B20001D461F46DBE7ED00D3E700BF38B54368FD
:104B30008468A34207D0024609680BB11960436834
:104B40000433536038BDFFF7B5FF38BD2DE9F04F92
:104B5000AFB02EAB1A46A94BA9481B6842F8403D9E
:104B6000144611460392FFF7E1FFA64B21461B684E
:104B7000A3481E93FFF7DAFFA34B21461B68A0480A
:104B80001E93FFF7D3FFA14B21461B689C481E9341
:104B9000FFF7CCFF9E4B21461B6899481E93FFF7F9
:104BA000C5FF9C4B181DD3F8001103F073FE0022C3
:104BB00013469949A1F5B0608A66C0F8EC25C0F8A3
:104BC000F425C0F8F02551F8042F1AB10133192B40
:104BD000F9D107E08F49914A01EB83016433C1F8B1
:104BE00084255360DFF868B2202380208BF82430BE
:104BF00002F030F904468A4ACBF82C00002352F820
:104C0000041F29B10133192BF9D1864B02930AE015
:104C1000844A804D1046029203F5A4727D33C5602C
:104C200045F8220083607E4A002352F8041F0029C1
:104C300000F0A1800133192BF7D17B4A0523142002
:104C400082F8243002F006F9774B754AD8620023C7
:104C500052F8041F002900F098800133192BF7D176
:104C6000724B0693231F00227C3443F8042FA34287
:104C7000FBD1FDF707FAFDF78BFA6D4A6D4B0492F5
:104C80006D4A07930592A3F548780EA96B4802F088
:104C900093F803996A4802F08FF8DBF82C200DABEB
:104CA000111F1DA83C3253F8044F41F8044F50F82F
:104CB000044F42F8044F1DACA342F4D1029A61495B
:104CC0009368D76800931A463B681B688B4268D18B
:104CD000632A03DD97F8FC35002B66D09BF808307B
:104CE000002687F8273387F8286387F8296387F831
:104CF0002A6307F22739002B00F0DE844FF0040A04
:104D0000019729E0606806F0F4FA05460B900B98CD
:104D10002A4649F80A006168381D05F063FBA2685D
:104D200079190A71A36805F10C001B0A4B7163899C
:104D30008B71E37ACB71E3680B72E3681B0A4B72E9
:104D4000E3898B72E37BCB7201369BF80830F6B2B5
:104D5000B342824440F22E81DBF81C403301E2581A
:104D60001C441268384B09EB0A079A42CAD03946EC
:104D700020469047E8E7354A264803F5A4717D337D
:104D8000D06040F82120936057E7284A214D104613
:104D9000069203F5A4727D33C56045F82200836056
:104DA00060E7009938462A4A98472A4B1B68002B2F
:104DB00040F08F81284B1C68002C40F02B84049B12
:104DC000186804F033F9059D064628680F4604F07C
:104DD0003FF902460B463046394603F0DBFF04F04C
:104DE000C5FB134B81461A4604932B461860124BA1
:104DF000164605931D46CDF800B05CE05C09001036
:104E0000F8010010AC090010140200106009001035
:104E1000AC08001060020010E00700100809001044
:104E20007C070010180200102C02001098090010D6
:104E300098080010800500100801001004020010FE
:104E40000C020010D5100000B90200004809001043
:104E5000C8010010640900105C02001056F8040F2D
:104E600004F0E4F8824668688B4604F0F1F80246E4
:104E70000B465046594603F08DFF04F077FB814600
:104E8000BE4BC5F80490D85904F07AFC824601461E
:104E9000484604F085FE10B1D146C5F804A0B84BD1
:104EA000D85904F06DFC4946074604F079FE08B174
:104EB000B9466F600435B34B48461B6853F82470FD
:104EC00004F078FE3B6801465B683846002298474C
:104ED000AC4BAD4A1B68D2F82C9053F82400A700C5
:104EE000036804371B6A984749F824000134052CED
:104EF000B4D1069ADDF800B09368D76800931A46DB
:104F00003B68A2491B688B4240F0E680632A04DDBF
:104F100097F8FC35002B00F0E3809B4B00261B7AB2
:104F200087F8286387F8273387F8296387F82A6387
:104F300007F22739002B00F0D2834FF0040A0197C3
:104F400029E0606806F0D5F905460B900B982A46D3
:104F500049F80A006168381D05F044FAA2687B1917
:104F60001A71A26805F10C00120A5A7162899A71CD
:104F7000E27ADA71E2681A72E268120A5A72E28917
:104F80009A72E27BDA72804B01361B7AF6B2B34238
:104F9000824440F29B827C4B09EB0A07DC693301B7
:104FA000E2581C4412687A4B9A42CAD039462046CD
:104FB0009047E8E75146081DCA1D019F031D4E1D7D
:104FC0008D1D01920AF1010A01F1020C01F1030E9B
:104FD0009BF82040002209F80140DBF82010090A64
:104FE00009F80A10BBF8221009F80C109BF82310DE
:104FF00009F80E109BF8241009F80010019909F81F
:10500000062009F8052009F801209BF82410B1B109
:1050100009EB0300DBF82C10541C51F82210E2B20B
:1050200009F803100D0A0C0C090E45708470C1704C
:105030009BF824100433914200F10400EAD8DDB259
:10504000C3F307216818C043009E9BB287F824036E
:10505000FF2007F2253487F8225387F8231303F241
:105060002635FE2187F82003F0B246F3072687F89D
:10507000211322463D4487F8250387F82663002143
:1050800001E012F8010FAA420144FAD1C943DA1D26
:10509000083392B29BB23A44B3F5007F82F82013F2
:1050A00000F22B8307F54874002B3FF47EAE013BE2
:1050B00007F144051C4407F21F3717F8011F284663
:1050C00003F062FCA742F8D1324B1B68002B3FF47F
:1050D00071AEFDF75DF8D8E5009938462A4A984741
:1050E0002D4803F08BFC42F6F8222C4B8246D3F875
:1050F0000436C31A934284BF002388F8FC35274B3B
:10510000D3F8E83533B1D8F80836984284BF002385
:10511000C8F8E835214C201D02F038F8054680B16A
:105120001E4B93F8FC3543B140F6C412D8F8003654
:10513000C3EB0A03934200F276821E2002F078FB52
:10514000A3E50121201D01F09FFE0028E8DBD8F82F
:10515000F835D8F8E8650344072EC8F8F83500F0AC
:105160000E81EEB9FF2840F01F8101220AF11403DD
:10517000C8F8E825C8F80836CCE700BFF4000010EE
:10518000CC000010F80100102C020010D510000017
:10519000B9020000640900106403001060020010EE
:1051A000012E00F00D81022E00F05A81032E00F036
:1051B0006181042E00F06881052E00F07681062EB4
:1051C00000F01682082EA5D1BC4A00211A40BC4B23
:1051D0008A42C3F8E815C0F27D82FF2A9AD1B84B03
:1051E000B74DD3F8F035002B00F05D840A2B00F0AA
:1051F000E282062B00F086830B2B00F0D88208EBAE
:105200008303D3F8F443002C84D02368AD4A1B6891
:10521000934240F0198498F82051237D04F10C0248
:10522000AB42009204D22901A06A01F019FEA062EB
:105230002575002D00F022840425AC46002604F1DB
:105240001807A14B03EB0C0EDEF800000EF103056E
:105250000B900B9800F10409B9F1040F08D92B4603
:10526000C11C714413F8012F994203F8012CF9D1A4
:105270004FF000030EEB0002D370E5611EF8093019
:10528000A56A236292F805E0310143EA0E23236206
:1052900092F806E00C3043EA0E43236292F807E0EE
:1052A000844443EA0E632362137A6818636292F8B7
:1052B00009E0013643EA0E23636292F80AE0F6B28F
:1052C00043EA0E436362D27A43EA02636362FB6895
:1052D000D7F80090D7F804E0BA6845F80190C0F814
:1052E00004E08260C360237DB342AAD865462A1DCC
:1052F000161D6F1CA81CE91C714B1D4495F820312C
:105300006F4DE3622F4497F820516D4F43EA052318
:10531000E362384490F82001394443EA0043E362F1
:1053200091F820113A4443EA0163E36292F8205174
:1053300094F83030AB4204D26900606B01F090FD0C
:10534000606384F83050B5B15D4B04F132001E4407
:10535000002196F8212196F82031023643EA0223F3
:1053600063860588636B4A1C23F8115094F830302B
:10537000D1B28B42EDD8A36B00989847CAE6D8F813
:10538000F425D8F8EC35511C013B4244C8F8F4151B
:1053900082F82001C8F8EC35002B7FF4BBAE484AF8
:1053A0000823C2F8E835B5E604F5827003F026FB61
:1053B000CAEB000005287FF6ADAE84F8FC65BCE6BC
:1053C000FE286ED098F8FC35C8F8E855002B7FF41D
:1053D000A1AE0A201A4688F8273388F8283388F8BF
:1053E000293388F82A3388F82B3388F82C3388F847
:1053F0002D3388F82E3388F8233388F82633FE239C
:105400000146FF2588F8250388F821330820F72373
:1054100088F8243388F8205304F2253388F82203CF
:1054200004F22E3401E013F8011FA3420A44FAD11A
:10543000D24307990C46CA7301F10F06FF2101E020
:1054400014F8011F1E4D05F1440003F09DFAB4420B
:10545000F6D105F5827003F0D1FAC5F8140159E6CA
:105460000323C8F8EC05C8F8F455C8F8F805C8F8DF
:10547000E8354FE6D8F8EC35042203EB0023C8F8F2
:10548000EC35C8F8E82545E60C4A1A40002AC0F277
:10549000C580FF2A0A4A0CBF05230023C2F8E8355D
:1054A00038E60223C8F8E83534E60623C8F8F005E4
:1054B000C8F8F805C8F8E8352CE600BFFF00008002
:1054C000600200105D0C0000800300105146081DB2
:1054D000CA1D019F031D4E1D8D1D01920AF1010A77
:1054E00001F1020C01F1030ED04A126A144609F8C8
:1054F0000140CE490022096A090A09F80A10CB497D
:10550000498C09F80C10C94991F8231009F80E10BC
:10551000C64991F8241009F80010019909F80620ED
:1055200009F8052009F80120C04991F82410C9B1F3
:1055300009EB0300BD49541CC96A043051F822101C
:10554000E2B209F803100D0A0C0C090E00F8011C58
:10555000B64900F8035C00F8024C91F824100433BB
:105560009142E7D8DDB2C3F307216818C043009E1B
:105570009BB287F82403FF2007F2253487F82253D3
:1055800087F8231303F22635FE2187F82003F0B2B3
:1055900046F3072687F8211322463D4487F8250362
:1055A00087F82663002101E012F8010FAA420144A6
:1055B000FAD1C943DA1D083392B29BB23A44B3F52B
:1055C000007F82F8201300F2438107F54874002B16
:1055D0003FF486AD013B07F144051C4407F21F3739
:1055E00017F8011F284603F0CFF9A742F8D177E555
:1055F0008F4B8F4AD3F8F035D2F8EC2503EB00231C
:105600008B480721C0F8F035C0F8E815002A3FF4B0
:10561000C6AE7FE5FBF79AFFFFF737BB013A62F0B2
:10562000FF02013235E70A24FF25824B0020214684
:10563000FE2688F8254388F82053F72408250246DB
:1056400088F8270388F8280388F8290388F82A03AC
:1056500088F82B0388F82C0388F82D0388F82E038C
:1056600088F8230388F8260388F8216303F10900EA
:1056700088F8225388F8244301E013F8011F83427D
:105680000A44FAD1D24307990C46CA7301F10F05B7
:10569000FF2101E014F8011F654E06F1440003F0FC
:1056A00073F9A542F6D106F5827003F0A7F9C6F8A2
:1056B00000A6C6F8140140E50B23019308204FF023
:1056C000070E4FF0060C4FF0050A04210C230A25A3
:1056D00009267DE4013A62F0FF0201327DE50B23E9
:1056E000019308204FF0070E4FF0060C4FF0050A0B
:1056F00004210C230A250926F6E64F4B03220B93BF
:105700004E4B8DF830200D933B684D491B688B4202
:1057100040F0BB8138230A930A98484D87F8272325
:10572000C7F8280305F1300C07F54B76AE46BEE806
:105730000F00E64530607160B260F36005F110055E
:1057400006F11006F2D103CD30607160FF20FE211A
:105750004FF0000E072587F8200387F821133D201E
:10576000C22187F8241373462A4687F823E387F873
:1057700026E387F8255387F8220307F2633101E017
:1057800014F8012FA1421344FAD1DB4307F1440579
:1057900087F8643307F21F3407F5597714F8011FAF
:1057A000284603F0F1F8BC42F8D1FFF7FEBA002317
:1057B00088F8FC35AEE405F5827003F01FF9D8F8DF
:1057C0001441D8F82021D8F824311E4F041B05F5C8
:1057D0008270561E1F4403F011F91B4B1A49A3FB9C
:1057E0000432A1FB001E4FF47A73920903FB1244AA
:1057F0004FEA9E1E03FB1E031448324400FB047153
:1058000000FB1313CEEB020205F58E7105F58C70CB
:10581000C8F81C31C8F8182101F040FD05F5827068
:1058200003F0ECF8C8F8040674E400BF2C02001082
:10583000600200108505001008BF000090C1000044
:10584000D510000000CA9A3BD34D621040420F00B1
:10585000B04B03220B93B04B8DF830200D933B6877
:10586000AE491B688B4240F0E68238230A930A98BF
:10587000A94D87F82723C7F8280305F1300C07F551
:105880004B76AE46BEE80F00E64530607160B26010
:10589000F36005F1100506F11006F2D103CD30607A
:1058A0007160FF20FE214FF0000E072587F82003CE
:1058B00087F821133D20C22187F8241373462A4616
:1058C00087F823E387F826E387F8255387F8220330
:1058D00007F2633101E014F8012FA1421344FAD119
:1058E000DB4307F1440587F8643307F21F3407F5FB
:1058F000597714F8011F284603F046F8BC42F8D146
:10590000FFF7EEBB98F8204198F81436A342C0F098
:10591000C280834B83F81446002C00F0A3801E46FF
:105920000424002596F8263196F8251196F82421AE
:105930001B0443EA012396F827111343784A43EAEC
:105940000163C2F81836D2F81806D2F81C360434AF
:1059500043F8250092F814360135EDB2AB4206F15A
:105960000406DFD8251D23462C466D4A134493F8C0
:10597000206192F82036B3426CD3694B83F82066DD
:105980001EB308EB0406002596F8223196F8211183
:1059900096F820211B0443EA012396F823111343B0
:1059A0005F4A43EA0163C2F82436D2F82406D2F8EB
:1059B0002836043443F8250092F820360135EDB23C
:1059C000AB4206F10406DFD82546554B1D4495F839
:1059D000205193F82C36AB4248D3514B043483F812
:1059E0002C565DB30027BE464E4B261D18590B9012
:1059F0000B9D3544AE4209D2324604F22313434490
:105A000059780132AA4203F8011BF9D3454A731EA3
:105A10001344A2F590722A4482F81FE1404A2C46B2
:105A2000C2F83036D2F83006D2F8343643F82700C0
:105A300092F82C360137FFB2BB42D5D8384A012341
:105A400082F80C36FFF766BB05F590712046984743
:105A5000FFF760BBB100D8F8280601F001FAC8F8DA
:105A600028068AE708252C4604237EE7A900D8F8F3
:105A7000340601F0F5F9C8F83406AEE7082207212C
:105A80000620052704250C2636E438460BAA0721F4
:105A90009847FFF78AB9A100D8F81C0601F0E0F991
:105AA000C8F81C0635E785F8273385F8283385F8CC
:105AB000293385F82A3385F82B3385F82C3385F87C
:105AC0002D3385F82E3385F8233385F82633194690
:105AD000FE230A2485F8202385F821330822F723A2
