:1000000000800010817B0000B17B0000B37B00000A
:10001000B57B0000B77B0000B97B0000000000004A
:10002000000000000000000000000000BB7B00009A
:10003000BD7B000000000000BF7B0000C17B000012
:10004000C37B0000C37B0000C37B0000C37B0000B8
:10005000C37B0000C37B0000C37B0000C37B0000A8
:10006000C37B0000C37B0000C37B0000C37B000098
:10007000C37B0000C37B0000C37B0000C37B000088
:10008000C37B0000C37B0000C37B0000C37B000078
:10009000C37B0000C37B0000C37B0000C37B000068
:1000A000C37B0000C37B0000C37B0000C37B000058
:1000B000C37B0000C37B0000C37B0000C37B000048
:1000C000C37B0000C37B0000C37B0000044B0548DA
:1000D0001B1A062B02D9044B03B11847704700BF07
:1000E000AF010010AC0100100000000005490648F7
:1000F000091A891001EBD171491002D0034B03B1E9
:1001000018477047AC010010AC010010000000005F
:1001100010B5064C237843B9FFF7D8FF044B13B151
:100120000448AFF300800123237010BDAC01001020
:1001300000000000D4B6000008B5084B1BB1084908
:100140000848AFF300800848036813B9BDE80840C9
:10015000CCE7064B002BF9D09847F7E700000000EA
:10016000B0010010D4B60000AC0100100000000087
:10017000704700BF0346426808200A705A68C240B0
:100180004A70DA888A70DA79CA709A680A719A684D
:10019000C2404A715A898A71DB7ACB71704700BFBD
:1001A000024610B40B78082053604C7843EA0423CD
:1001B00053608C7843EA04435360CC7843EA046389
:1001C00053600B7993604C7943EA042393608C79F4
:1001D00043EA04439360C97910BC43EA0163936026
:1001E000704700BF0048704738AE000000487047B5
:1001F00048AE0000004870476CAE000000487047F1
:1002000088AE000000487047ACAE00000048704760
:10021000C0AE0000004870477CB000000048704746
:10022000E4AE00000048704708AF00000048704787
:1002300028AF0000004870474CAF000000487047EE
:1002400068AF0000004870478CAF0000004870475E
:10025000A8AF000000487047CCAF000000487047CE
:10026000E8AF000010B4846A094AA31E04F1080034
:1002700033F9021F834242F8041BF9D1B4F90A0092
:10028000B4F90C200349044B08601A6010BC704795
:1002900088080010540900104C020010C06B704711
:1002A000004870478CAF000000487047A8AF0000BE
:1002B00090F8FC05704700BF70B5054682B00C464B
:1002C000406809F054FF2346064602AA42F8040D8E
:1002D0001068324643F8040B6968184608F0C0FFFE
:1002E000AB68A1190B71AB6806F10C001B0A4B71CE
:1002F0006B898B71EB7ACB71EB680B72EB681B0A25
:100300004B72EB898B72EB7BCB7202B070BD00BF7E
:100310002DE9F043037900240B704C708C70CC7085
:10032000037983B0002B68D00B460425C268661C95
:1003300052F82420F4B24FEA122E170C160E1A713E
:1003400083F805E09F71DE7102790435A24203F162
:100350000403EBD82B462A1D154603F1010C03F1CB
:10036000020EDF1C067C0024CE5401F80C4001F87C
:100370000E40CC55037CABB14B198269661C52F818
:100380002420F4B24FEA122E170C160E4A5583F8A9
:1003900001E09F70DE70027C0435A24203F1040389
:1003A000EBD82A46067F4B1900248E545C709C7053
:1003B000DC70037F2E1DE3B1884607467B6A06F199
:1003C000040953F8240009F0D2FE05460190019873
:1003D0002A4648F806007B6A08EB090053F8241007
:1003E00008F03EFF01343B7FE4B2A34205EB09066F
:1003F000E4D8304603B0BDE8F0830822154607274D
:100400004FF0060E4FF0050C0423ABE770B50379EF
:1004100082B00B70064680680D4609F0A8FE0446BF
:1004200002AB43F8040D18682246C5F80100B16814
:10043000681D08F015FF601D02B070BD83882DE9AE
:10044000F0410B70838884B01B0A4B7006468068AD
:100450000D4609F08CFE044604AB43F80C0D1868F9
:100460002246C5F80200B168A81D08F0F9FEF06840
:1004700009F07DFE804604AB43F8080D1868A31D03
:10048000E8500A34F1684246281908F0E9FE30695C
:1004900009F06DFE074604AB43F8040D18684444A8
:1004A00028510434316928193A4608F0D9FE736995
:1004B00038192A182B541E0A1C0C190E04305670B9
:1004C0009470D17004B0BDE8F08100BF0B46F0B469
:1004D00013F8012B06460271186882B00190019D45
:1004E0000F1D681D052808D93B462C1D0C4413F828
:1004F000012FA34203F8012CF9D10D4400232B71E5
:10050000B76002B0F0BC7047F0B40546086882B02E
:1005100001900198CF1C061D042E08D93B46C41C2F
:100520000C4413F8012FA34203F8012CF9D10A1847
:100530000023D3706F608B5D0C30AB60517943EA60
:100540000123AB60917943EA0143AB60D17943EA7F
:100550000163AB60137AEB60517A43EA0123EB60ED
:10056000917A43EA0143EB60D27A43EA0263EB609B
:1005700002B0F0BC704700BFF0B40B780546838032
:100580004A7884B043EA02238380D1F802004F1DE9
:100590000190019A961D062E08D93B46541D0C4425
:1005A00013F8010F9C4203F8010CF9D18B180020BD
:1005B0005871AF60885904360290029B33449E42C2
:1005C00009D2304609320A4412F8014F01309842EC
:1005D00002F8014CF8D3013E0E44CA18002002F87C
:1005E000010CEE6010681E1D039003983044864293
:1005F00009D2324603330B4413F8014F01328242D1
:1006000003F8014CF8D3013E0C180E44002304F803
:10061000013C2E61A37866780A5C1B04E17843EA0A
:100620000623134343EA016304306B6104B0F0BC5A
:10063000704700BF2DE9F04103790C7882B0A342E6
:1006400005460E46C0F082802C71002C00F0878099
:10065000334605F10807002004249A7993F805E051
:100660001979120442EA0E2293F807E00A4342EA9B
:100670000E62AA60D7F800E0EA68411C42F820E068
:100680002A79C8B2824204F1040403F10403E4D8D5
:10069000234616F803802B7C271D43453C4666D332
:1006A00085F81080B8F1000F1FD005F11407331939
:1006B00000209A7893F801E01978120442EA0E2299
:1006C00093F803E00A4342EA0E626A61D7F800E059
:1006D000AA69411C42F820E02A7CC8B2824204F197
:1006E000040403F10403E4D82746F75D2B7FBB42E3
:1006F00044D3231D2F772FB30027BC4605F1200ECE
:10070000F0581C1D019001982044844209D22246D1
:100710000333334413F8011F0132824203F8011CF2
:10072000F8D3013C3318344403F801CC2C626A6AD4
:10073000DEF800107B1C42F827102A7FDFB2BA4295
:100740000346DDD8184602B0BDE8F081A100C068BC
:1007500005F034FC2C71E860002C7FF479AF0423A1
:1007600016F803802B7C082743453C4698D24FEA75
:100770008801A86905F022FCA86191E7B900686AC0
:1007800005F01CFC6862B4E710B5044607F01FFAD8
:10079000204610BD10B50446006808B107F017FAEE
:1007A000204610BD10B50446064B403003F1180139
:1007B00003F14C0223602164626407F011F82046C3
:1007C00010BD00BF10B40000A0F14000EAE700BF78
:1007D000A0F14400E6E700BF2DE9F04F03790026C1
:1007E0000B704E708E70CE70037983B0834689464D
:1007F000002B59D0DFF8C0A04FF004082AE0606851
:1008000009F0B5FC074602AB43F8040D18683A46F8
:1008100049F808006168281D08F022FDA368E9195D
:100820000B71A36807F10C001B0A4B7163898B7174
:10083000E37ACB71E3680B72E3681B0A4B72E389BE
:100840008B72E37BCB7201369BF80430F6B2B34275
:1008500080440DD9DBF818403301E2581C4413687A
:1008600009EB08055345CAD0294620469847EAE7D0
:1008700008F1010408F1020108F1030208F1040083
:10088000DBF81C3009F80830DBF81C301B0A09F8CB
:100890000430BBF81E3009F801309BF81F3009F80E
:1008A000023003B0BDE8F08F08200722062105249E
:1008B0004FF00408E4E700BFB90200002DE9F0475B
:1008C00003790D7882B0AB4204460E4678D3257189
:1008D000002D7DD00025AC4604F108074FF0040E32
:1008E00006EB0E08D8F8000008F1030A0190019801
:1008F00000F10409B9F1040F08D95346C11C414461
:1009000013F8012F994203F8012CF9D108EB0002EA
:1009100082F803C0C4F80CA018F80930D4F8188085
:10092000236192F80590290143EA0923236192F893
:1009300006900C3043EA0943236192F807908644FD
:1009400043EA09632361137A08EB0100636192F8BB
:100950000990013543EA0923636192F80A90EDB2E8
:1009600043EA09436361D27A43EA02636361FB6845
:10097000D7F800A0D7F80490BA6848F801A0C0F8EA
:1009800004908260C3602379AB42A9D80EF10105BF
:100990000EF102010EF103020EF1040016F80E3002
:1009A000E361755D43EA0523E361715C43EA01435A
:1009B000E361B25C43EA0263E36102B0BDE8F08741
:1009C0002901806905F0FAFA2571A061002D81D115
:1009D00008200722062105254FF0040EDEE700BFA0
:1009E0002DE9F04F037A00260B704E708E70CE709A
:1009F000037A83B080460F46002B7BD0DFF810A12E
:100A00004FF0040B2BE0606809F0B1FB814602ABAC
:100A100043F8040D18684A4647F80B006168281D22
:100A200008F01EFCA36805EB09010B71A36809F12E
:100A30000C001B0A4B7163898B71E37ACB71E368FD
:100A40000B72E3681B0A4B72E3898B72E37BCB72F8
:100A5000013698F80830F6B2B34283440DD9D8F87D
:100A60001C403301E2581C44136807EB0B05534547
:100A7000C9D0294620469847EAE70BF10401081D32
:100A80000BF105060BF106050BF107040BF101094B
:100A90000BF1020C0BF1030ED8F82020002307F80D
:100AA0000B20D8F82020120A07F80920B8F82220D5
:100AB00007F80C2098F8232007F80E2098F8242037
:100AC0007A54BB557B553B5598F824207AB1D8F819
:100AD0002820391832F813200133140A3A544C7084
:100AE00098F82420DBB29A4200F10200EFD803B05C
:100AF000BDE8F08F08214FF0070E4FF0060C4FF0C5
:100B000005094FF0040B0B240C200A250926C3E726
:100B1000B90200002DE9F04F037A00260B704E70E9
:100B20008E70CE70037A83B080468946002B00F029
:100B30008680DFF824A14FF0040B2AE0606809F0FA
:100B400016FB074602AB43F8040D18683A4649F80D
:100B50000B006168281D08F083FBA368E9190B717D
:100B6000A36807F10C001B0A4B7163898B71E37A50
:100B7000CB71E3680B72E3681B0A4B72E3898B72DB
:100B8000E37BCB72013698F80830F6B2B342834467
:100B90000DD9D8F81C403301E2581C44136809EB06
:100BA0000B055345CAD0294620469847EAE70BF182
:100BB0000402101D0BF105060BF106050BF10704ED
:100BC0000BF1010C0BF1020E0BF10307D8F82030EA
:100BD000002109F80B30D8F820301B0A09F80C3036
:100BE000B8F8223009F80E3098F8233009F80730A9
:100BF00098F8243009F8023009F8061009F80510B1
:100C000009F8041098F82430B3B109EB0003D8F8C0
:100C10002C204C1C52F82120E1B2160A150C140E9F
:100C200009F800205E709D70DC7098F82420043074
:100C30008A4203F10403EAD803B0BDE8F08F08222A
:100C400007274FF0060E4FF0050C4FF0040B0B2456
:100C50000C200A250926B9E7B90200002DE9F04F5A
:100C6000037D0D7883B0AB420446884600F10C0941
:100C7000C0F09B802575002D00F0A0800025AA46BD
:100C800004F118074FF0040E08EB0E06306806F169
:100C9000030B0190019800F1040CBCF1040F08D97A
:100CA0005B46C11C314413F8012F8B4203F8012C21
:100CB000F9D1321882F803A0C4F81CB016F80C3031
:100CC000A66A236292F805C0290143EA0C23236235
:100CD00092F806C00C3043EA0C43236292F807C036
:100CE000864443EA0C632362137A7018636292F8B5
:100CF00009C0013543EA0C23636292F80AC0EDB2E1
:100D000043EA0C436362D27A43EA02636362FB689C
:100D1000D7F800B0D7F804C0BA6846F801B0C0F8F8
:100D200004C08260C360237DAB42ADD80EF10402E3
:100D3000151D0EF101060EF102000EF1030118F867
:100D40000E3094F83070E36218F8066043EA062328
:100D5000E36218F8000043EA0043E36218F8011068
:100D600043EA0163E36218F80260B7422ED384F8C5
:100D70003060A6B1A844002304F1320598F80110B0
:100D800018F8022B606B42EA012262862A88591CFD
:100D900020F8132094F83020CBB29A42EED848467F
:100DA000A36B03B0BDE8F04F18472901806A05F036
:100DB00005F92575A062002D7FF460AF0822072198
:100DC000062005264FF0040E0C25B8E77100606B75
:100DD00005F0F4F86063CAE72DE9F047037A0D786F
:100DE00082B0AB4204460E46C0F09A802572002DB8
:100DF00000F09F800025AC4604F10C074FF0040E74
:100E000006EB0E08D8F8000008F1030A01900198DB
:100E100000F10409B9F1040F08D95346C11C41443B
:100E200013F8012F8B4203F8012CF9D108EB0002D3
:100E300082F803C0C4F810A018F80930D4F81C8058
:100E4000636192F80590290143EA0923636192F8EE
:100E500006900C3043EA0943636192F80790864498
:100E600043EA09636361137A08EB0100A36192F816
:100E70000990013543EA0923A36192F80A90EDB283
:100E800043EA0943A361D27A43EA0263A361FB68A0
:100E9000D7F800A0D7F80490BA6848F801A0C0F8C5
:100EA00004908260C360237AAB42A9D80EF1040299
:100EB000151D0EF101070EF102000EF1030116F8E7
:100EC0000E3094F824E02362F75D43EA072323629F
:100ED000305C43EA00432362715C43EA01632362AE
:100EE000B75CBE452DD384F82470AFB12E4404F115
:100EF00026070023717816F8022BA06A42EA012225
:100F0000E2843A88591C20F8132094F82420CBB2AC
:100F10009A4205F10205EDD8284602B0BDE8F087F7
:100F20002901C06905F04AF82572E061002D7FF4BF
:100F300061AF08220721062005274FF0040E0C257B
:100F4000BDE77900A06A05F039F8A062CBE700BFE1
:100F50002DE9F047037A0E7882B0B34204460D467D
:100F6000C0F0A1802672002E00F0A6800026B446B4
:100F700004F10C074FF0040E05EB0E08D8F8000042
:100F800008F1030A0190019800F10409B9F1040F76
:100F900008D95346C11C414413F8012F994203F864
:100FA000012CF9D108EB000282F803C0C4F810A0AC
:100FB00018F80930D4F81C80636192F8059031016B
:100FC00043EA0923636192F806900C3043EA09432F
:100FD000636192F80790864443EA09636361137A78
:100FE00008EB0100A36192F80990013643EA092356
:100FF000A36192F80A90F6B243EA0943A361D27A58
:1010000043EA0263A361FB68D7F800A0D7F8049015
:10101000BA6848F801A0C0F804908260C360237ADF
:10102000B342A9D80EF10402161D0EF101070EF10C
:1010300002000EF1030115F80E3094F824E023624B
:10104000EF5D43EA07232362285C43EA00432362FF
:10105000695C43EA01632362AF5CBE4534D384F824
:101060002470E7B1354404F128000021AB786F7893
:101070002A781B0443EA0723EF78134343EA076304
:10108000A3620768E36A4A1C43F8217094F824308D
:10109000D1B28B4206F1040605F10405E6D83046CC
:1010A00002B0BDE8F0873101C06904F087FF267205
:1010B000E061002E7FF45AAF0822072106200527A1
:1010C0004FF0040E0C26B6E7B900E06A04F076FF94
:1010D000E062C4E72DE9F041632984B003DD90F8B4
:1010E000FC55002D4AD006461368884610461B68FA
:1010F00006F227319847C4B2C0F307216218D243E1
:1011000080B286F82243FF2406F2253700F2263506
:1011100086F8242386F82043FE225FFA88F448F3F9
:10112000072886F821233B4686F82313354486F8A2
:10113000254386F82683002201E013F8014FAB42D5
:101140002244FAD1D243C31D00F108059BB2ADB2CF
:101150003344B5F5007F83F8202313D806F548778C
:1011600065B16B1E1F4406F1440806F21F3414F8E3
:10117000011F404606F046FBA742F8D1284604B0BE
:10118000BDE8F0813049314C03223368019103946A
:101190008DF808201B682E498B424DD104AB3821B5
:1011A00043F8101D186886F82723C6F8280304F1B1
:1011B000300C06F54B75A646BEE80F00E6452860E4
:1011C0006960AA60EB6004F1100405F11005F2D12A
:1011D00003CC4FF0000E286069604FF0070CC2216D
:1011E000FF25FE243D2086F824137346624686F8C8
:1011F00023E386F826E386F825C386F8205386F88D
:10120000214386F8220306F2633101E017F8012F2B
:101210008F421344FAD1DB4306F1440786F8643366
:1012200006F21F3506F5597415F8011F384606F009
:10123000E9FAAC42F8D103E0304601AA0721984709
:101240004FF0FF359AE700BF84AD00000CB00000FE
:10125000D51000002DE9F04FDFF8E482B44E87B0DE
:1012600000243368D8F82C50185903681B6A984733
:1012700028510434142CF4D1AE4BAF49D3F80C9060
:101280009B681A460193D9F800301B688B4252D1F3
:10129000632A03DD99F8FC35002B50D098F808201C
:1012A000002689F8272389F8286389F8296389F8B3
:1012B0002A6309F2273B002A00F0CF804FF0040A8E
:1012C0002AE0606808F053FF074606AB43F80C0DB0
:1012D00018683A464BF80A006168281D07F0C0FFFD
:1012E000A268EB191A71A26807F10C00120A5A7170
:1012F00062899A71E27ADA71E2681A72E268120A15
:101300005A72E2899A72E27BDA72013698F80830F2
:10131000F6B2B342824415D9D8F81C403301E258E2
:101320001C441368854A0BEB0A059342C9D0294631
:1013300020469847E9E701994846814A984707B00F
:10134000BDE8F08F0AF10404221D0AF105060AF136
:1013500006050AF107030AF1010C0AF1020E0AF16F
:101360000307D8F8200000210BF80A00D8F8200065
:10137000000A0BF80C00B8F822000BF80E0098F8E1
:1013800023000BF8070098F824000BF804000BF872
:1013900006100BF805100BF8031098F82400B0B1F4
:1013A0000BEB0200D8F82C304C1C53F82130E1B282
:1013B0001E0A1D0C1C0E0BF8023046708570C4709E
:1013C00098F8243004328B4200F10400EAD8D4B2F9
:1013D000C2F307202118C94389F82413FF2189F893
:1013E0002013019992B209F2253589F8224389F830
:1013F000230302F22634C8B2FE2641F3072189F8FE
:1014000026132B464C4489F8216389F825030021D3
:1014100001E013F8010FA3420144FAD1C943D01DE2
:10142000083280B293B24844B3F5007F80F82013AD
:1014300020D809F54874002B81D0013B09F14405FF
:101440001C4409F21F3919F8011F284606F0DAF981
:101450004C45F8D107B0BDE8F08F082407274FF0BE
:10146000060E4FF0050C4FF0040A0B230C220A2540
:10147000092676E7334B344C0322039305948DF809
:101480001020D9F800302C491B688B424BD106AB99
:10149000382143F8101D186889F82723C9F8280354
:1014A00004F1300E09F54B7627460FCF77453060B3
:1014B0007160B260F36004F1100406F11006F3D11C
:1014C00003CC0027306071604FF0070EC221FF2669
:1014D000FE243D2089F824133B46724689F8237385
:1014E00089F8267389F825E389F8206389F8214370
:1014F00089F8220309F2633101E015F8012F8D42CA
:101500001344FAD1DB4309F1440589F8643309F245
:101510001F3409F5597914F8011F284606F072F9AD
:101520004C45F8D10BE7484603AA0721984706E740
:10153000F801001088090010D5100000B902000061
:101540001C02001084AD00000CB000002DE9F04139
:10155000FFF780FE0C4EDFF838800C4F0024D8F8DF
:101560002C303A681B591559184646F8043B07F0C9
:101570005FFA2B68014604345B68284600229847CE
:10158000142CECD1BDE8F08108010010F801001026
:101590001C0200102DE9F041DFF848800E4F0F4E7D
:1015A0000F4D00242B6858F8041B18590368DB689A
:1015B00098472B6857F8041B185903681B6998470C
:1015C0002B6856F8041B1859043403689B68984725
:1015D000142CE7D1BDE8F081F4000010E000001009
:1015E000F8010010CC000010F0B52B4A85B003685C
:1015F00001921C68294A00239442054602930393F2
:1016000046D10A201A46FF27FE26082485F82733EC
:1016100085F8283385F8293385F82A3385F82B3364
:1016200085F82C3385F82D3385F82E3385F8233350
:1016300085F82633F723014685F8250385F82433FA
:1016400085F8207385F8216385F8224305F2253358
:1016500005F22E3001E013F8011F98420A44FAD136
:10166000D24305F1440785F82F2305F21F3405F214
:101670002F3614F8011F384606F0C4F8B442F8D1EA
:1016800005F5827006F0F8F8C5F8140105B0F0BD54
:1016900001AA0A21A047F3E754AD0000D5100000CD
:1016A000594B2DE9F04F1868DFF888A10368DFF87F
:1016B00088918FB0DAF810105B6800229847FFF726
:1016C000C9FDD9F82C20DAF80430DAF80C4050685B
:1016D0001C4407F0ADF94D4B211A1868002203682D
:1016E0005B689847D9F82C3049491C68204607F0B8
:1016F00095F930B12046474907F072F9002840F0CB
:101700003887454B00221868DC210368434C5B682E
:101710009847434B00221868DC21036801945B68FA
:1017200098472368002B40F079823E4CA34613E093
:1017300094F8FC3543B140F6C412D4F80036C3EB3C
:101740000803934200F224820A2005F01FF9019B4E
:101750001B68002B40F06282FFF77CFDD9F82C203B
:10176000DAF80430DAF80C5050681D4407F060F9DC
:10177000264B291A1B681A68184653680022984796
:10178000D9F82C302849586807F02AF9054600286E
:1017900040F05282254806F06FF842F6F822D4F85D
:1017A00004368046C31A9342D4F8E83588BF8BF8D4
:1017B000FC5533B1D4F80836984202D90023C4F856
:1017C000E8351B4804F090FD06460028B0D1012101
:1017D000174804F007FC0028AADBD4F8F835D4F841
:1017E000E8550344072DC4F8F83500F018812DBBE7
:1017F000FF2840F02881012208F11403C4F8E825ED
:10180000C4F80836DDE700BF9C080010500900103E
:10181000000088C2000088429C0900104C020010A1
:101820000402001050020010000061435403001035
:10183000540200101C0100101C020010012D00F0C9
:101840000D81022D00F05681032D00F05D81042DE5
:1018500000F06481052D00F07081062D00F0758187
:10186000082DAED1C34A00211A408A42C4F8E815B7
:10187000C0F2D981FF2AA4D1D4F8F035002B00F0B2
:101880000D870A2B00F0CA86062B00F0FD860B2B75
:1018900000F0CE8104EB8303D3F8F453002D90D0F5
:1018A0002B68B54A1B68934241F0F68094F820619A
:1018B0002B7D05F10C02B342059204D23101A86AD6
:1018C00004F07CFBA8622E75002E01F04281AB4B28
:1018D00000260493042302930BAB05F1180E039327
:1018E000CDF81880049B029A9F183868039B07F173
:1018F000030C18600B9800F10408B8F1040F08D924
:101900006346C11C394413F8012F8B4203F8012CA4
:10191000F9D14FF000033A18D370C5F81CC017F87E
:10192000083000F10C0C2B625779029843EA072328
:101930002B629779604443EA07432B62D779029080
:1019400043EA07632B62137AD5F828806B62577AD3
:10195000310143EA07206862977A08EB010340EA05
:1019600007406862D27A013640EA02606862DEF8B7
:1019700000C0DEF80470DEF80800DEF80C2048F83D
:1019800001C05F609860DA602B7DF6B2B342A9D8DF
:10199000029BDDF818801A1D161D5F1C981CD91CAF
:1019A000234493F820312744EB6297F820712044B8
:1019B00043EA0723EB6290F82001214443EA004305
:1019C000EB6291F82011224443EA0163EB6292F842
:1019D000207195F83030BB4204D27900686B04F076
:1019E000EDFA686385F83070AFB1A019002105F1F8
:1019F000320690F8212190F82031023043EA022388
:101A00006B8637886B6B4A1C23F8117095F8303061
:101A1000D1B28B42EDD8AB6B05989847D1E6D4F89C
:101A2000F425D4F8EC35511C013B2244C4F8F415DC
:101A300082F82001C4F8EC35002B7FF4C2AE0823F5
:101A4000C4F8E835BDE64E4805F016FFC8EB0000C7
:101A500005287FF6B6AE8BF8FC5575E6FE2868D0F3
:101A600094F8FC05C4F8E86500287FF4AAAE0A25BE
:101A7000FF26444B2946FE2784F8255384F820632B
:101A8000F7250826024684F8270384F8280384F8FB
:101A9000290384F82A0384F82B0384F82C0384F8A0
:101AA0002D0384F82E0384F8230384F8260384F896
:101AB000217303F1090084F8226384F8245301E0C0
:101AC00013F8011F98420A44FAD1D2432E4D84F8EC
:101AD0002F2305F10F06FF2101E015F8011F2B4808
:101AE00005F090FEB542F8D1254805F0C5FECBF8CB
:101AF000140166E60323C4F8EC05C4F8F465C4F8E1
:101B0000F805C4F8E8355CE6D4F8EC35042203EBBC
:101B10000020C4F8EC05C4F8E82552E6154A1A403E
:101B2000002A21DBFF2A7FF449AE0523C4F8E835FB
:101B300047E60223C4F8E83543E60623C4F8F00577
:101B4000C4F8F805C4F8E8353BE6D4F8F035D4F825
:101B5000EC2503EB00230721C4F8F035C4F8E815A1
:101B6000002A3FF46CAF2CE6013A62F0FF0201322A
:101B7000D8E700BFFF0000805D0C0000700300107C
:101B80005403001075050010700500109402001039
:101B90000A25FF26684B00202946FE2784F8255396
:101BA00084F82063F7250826024684F8270384F882
:101BB000280384F8290384F82A0384F82B0384F883
:101BC0002C0384F82D0384F82E0384F8230384F86F
:101BD000260384F8217303F1090084F8226384F852
:101BE000245301E013F8011F83420A44FAD1D2437F
:101BF000524D84F82F2305F10F06FF2101E015F85F
:101C0000011F4F4805F0FEFDB542F8D14D4805F0E3
:101C100033FECBF80086CBF8140195E5FFF796FC70
:101C20000FB0BDE8F08F013A62F0FF02013221E609
:101C3000002384F8FC35C4E5434C20680022036887
:101C4000DAF800105B689847019B1B68002BE5D110
:101C50003E4CA34612E094F8FC3543B140F6C41262
:101C6000D4F80036C3EB0803934200F21D820A2029
:101C700004F08CFE019B1B68002BCFD1FFF7EAFA22
:101C8000D9F82C20DAF80430DAF80C5050681D44EA
:101C900006F0CEFE2E4B291A1B682E4D1A681846E8
:101CA000536800229847D9F82C302B491E683046DB
:101CB00006F0B4FE30B13046284906F091FE002807
:101CC00040F03D821F4805F0D7FD42F6F822D4F8D7
:101CD00004368046C31A934284BF00238BF8FC3538
:101CE000D4F8E83533B1D4F80836984202D9002345
:101CF000C4F8E8351A4804F0F7FA06460028AAD1D5
:101D00000121174804F06EF90028A4DBD4F8F83557
:101D1000D4F8E8550344072DC4F8F83500F00B81DA
:101D200005BBFF2840F01B81012208F11403C4F811
:101D3000E825C4F80836DDE77505001070050010C9
:101D400094020010540300104C09001050020010BF
:101D5000500900101C010010000088C200008842D9
:101D600054020010012D00F00581022D00F04E817B
:101D7000032D00F05581042D00F05C81052D00F04D
:101D80006881062D00F06D81082DB3D1BF4A002176
:101D90001A408A42C4F8E815C0F2CC81FF2AA9D1C2
:101DA000D4F8F035002B00F0DC860A2B00F000841C
:101DB000062B00F0F3830B2B00F0EB8304EB830383
:101DC000D3F8F453002D95D02B68B14A1B68934289
:101DD00040F0678694F820612B7D05F10C02B34238
:101DE0000592C0F063862E75002E01F08A80A94B03
:101DF00000260393042302930BAB05F1180E049302
:101E0000CDF81880039B029A9F183868049B07F14D
:101E1000030C18600B9800F10408B8F1040F08D9FE
:101E20006346C11C394413F8012F8B4203F8012C7F
:101E3000F9D14FF000033A18D370C5F81CC017F859
:101E4000083000F10C0C2B625779029843EA072303
:101E50002B629779604443EA07432B62D77902905B
:101E600043EA07632B62137AD5F828806B62577AAE
:101E7000310143EA07206862977A08EB010340EAE0
:101E800007406862D27A013640EA02606862DEF892
:101E900000C0DEF80470DEF80800DEF80C2048F818
:101EA00001C05F609860DA602B7DF6B2B342A9D8BA
:101EB000029BDDF818801A1D161D5F1C981CD91C8A
:101EC000234493F820312744EB6297F82071204493
:101ED00043EA0723EB6290F82001214443EA0043E0
:101EE000EB6291F82011224443EA0163EB6292F81D
:101EF000207195F83030BB42C0F01F8685F83070F5
:101F0000AFB1A019002105F1320690F8212190F817
:101F10002031023043EA02236B8637886B6B4A1C00
:101F200023F8117095F83030D1B28B42EDD8AB6BFD
:101F300005989847DEE6D4F8F425D4F8EC35511C22
:101F4000013B2244C4F8F41582F82001C4F8EC35B2
:101F5000002B7FF4CFAE0823C4F8E835CAE64E481C
:101F600005F08AFCC8EB000005287FF6C3AE8BF8AD
:101F7000FC557CE6FE2868D094F8FC05C4F8E865BA
:101F800000287FF4B7AE0A25FF26444B2946FE27DA
:101F900084F8255384F82063F7250826024684F840
:101FA000270384F8280384F8290384F82A0384F893
:101FB0002B0384F82C0384F82D0384F82E0384F873
:101FC000230384F8260384F8217303F1090084F8BD
:101FD000226384F8245301E013F8011F83420A446A
:101FE000FAD1D2432E4D84F82F2305F10F06FF219D
:101FF00001E015F8011F2B4805F004FCB542F8D1AB
:10200000254805F039FCCBF8140173E60323C4F826
:10201000EC05C4F8F465C4F8F805C4F8E83569E6D9
:10202000D4F8EC35042203EB0020C4F8EC05C4F826
:10203000E8255FE6154A1A40002A21DBFF2A7FF4D3
:1020400056AE0523C4F8E83554E60223C4F8E83553
:1020500050E60623C4F8F005C4F8F805C4F8E835DE
:1020600048E6D4F8F035D4F8EC2503EB002307213B
:10207000C4F8F035C4F8E815002A3FF46CAF39E62F
:10208000013A62F0FF020132D8E700BFFF00008092
:102090005D0C000070030010540300107505001063
:1020A00070050010940200100A25FF26B44B002092
:1020B0002946FE2784F8255384F82063F72508264F
:1020C000024684F8270384F8280384F8290384F857
:1020D0002A0384F82B0384F82C0384F82D0384F856
:1020E0002E0384F8230384F8260384F8217303F174
:1020F000090084F8226384F8245301E013F8011FD7
:1021000098420A44FAD1D2439E4D84F82F2305F118
:102110000F06FF2101E015F8011F9B4805F072FB37
:10212000B542F8D1994805F0A7FBCBF80086CBF86B
:1021300014019CE5013A62F0FF0201322EE6944E52
:10214000944C30680022036869685B68984720688F
:1021500000220368A9685B6898473068002203681A
:1021600069685B6898472068A968036800225B6813
:102170009847DFF83082DFF83CB20024DBF800300B
:102180001859043403689B69984780B9142CF5D119
:10219000814C824D04F1140654F8040B06F02EFA1B
:1021A000B44245F8040BF7D10FB0BDE8F08F019BA6
:1021B0001C68002C7FF432ADFFF74CF8D9F82C20C6
:1021C000DAF80430DAF80C5050681D4406F030FCA0
:1021D000734B291A1B68734D1A68184656682246B5
:1021E000B04705F5827005F047FB42F6F822D8F8B3
:1021F00004360746C31A9342D8F8E83588BF85F8F5
:10220000FC4533B1D8F80836984202D90023C8F803
:10221000E835644C201D04F067F8054670B198F865
:10222000FC353BB140F6C412D8F80036FB1A934295
:1022300000F251810A2004F0A9FB9EE70121201D34
:1022400003F0D0FE0028EADBD8F8F835D8F8E865C6
:102250000344072EC8F8F83573D056B9FF2840F06C
:102260008480012207F11403C8F8E825C8F808366D
:10227000CFE7012E00F0A080022E00F0ED80032EAB
:1022800000F0F480042E00F0FB80052E00F00781A2
:10229000062E00F00C81082EBBD1434A00211A40C3
:1022A0008A42C8F8E815C0F25F81FF2AB1D1D8F898
:1022B000F035002B00F050860A2B00F00884062B26
:1022C00000F0FB830B2B00F0608108EB8303D3F855
:1022D000F443002C9DD02368344A1B68934240F09D
:1022E0003384334904F11000FEF7E8FA08EB0003E9
:1022F00093F8203194F8302006469A4204F10C05F8
:10230000C0F0078684F83030BBB108EB060000212E
:1023100004F1320690F8252190F82431023043EA86
:1023200002236386B6F800E0636B4A1C23F811E0D1
:1023300094F83030D1B28B42ECD8A36B2846984742
:1023400067E7D8F8F425D8F8EC35511C013B424436
:10235000C8F8F41582F82001C8F8EC35002B7FF49A
:1023600058AF0823C8F8E83553E704F5827005F044
:1023700083FAC01B05287FF64CAF84F8FC6559E74B
:102380007505001070050010940200105403001031
:102390009C090010040200101C010010080100102C
:1023A0005009001050020010FF0000805D0C00007A
:1023B00070030010F8010010FE286CD098F8FC356E
:1023C000C8F8E855002B7FF424AF0A201A4688F895
:1023D000273388F8283388F8293388F82A3388F88F
:1023E0002B3388F82C3388F82D3388F82E3388F86F
:1023F000233388F82633FE230146FF2588F825037A
:1024000088F821330820F72388F8243388F82053EC
:1024100004F2253388F8220304F22E3401E013F885
:10242000011F9C420A44FAD1D243B74C88F82F23AB
:1024300004F10F06FF2101E014F8011FB34D05F16F
:10244000440005F0DFF9B442F6D105F5827005F0DD
:1024500013FAC5F81401DCE60323C8F8EC05C8F844
:10246000F455C8F8F805C8F8E835D2E6D8F8EC35E0
:10247000042203EB0023C8F8EC35C8F8E825C8E6C9
:10248000A34A1A40002A21DBFF2A7FF4BFAE0523AE
:10249000C8F8E835BDE60223C8F8E835B9E60623F2
:1024A000C8F8F005C8F8F805C8F8E835B1E6D8F876
:1024B000F035D8F8EC2503EB00230721C8F8F035F8
:1024C000C8F8E815002A3FF44CAFA2E6013A62F0E2
:1024D000FF020132D8E70A24FF258E4B0020214657
:1024E000FE2688F8254388F82053F724082502465D
:1024F00088F8270388F8280388F8290388F82A032E
:1025000088F82B0388F82C0388F82D0388F82E030D
:1025100088F8230388F8260388F8216303F109006B
:1025200088F8225388F8244301E013F8011F8342FE
:102530000A44FAD1D243744C88F82F2304F10F05D2
:10254000FF2101E014F8011F704E06F1440005F070
:1025500059F9AC42F6D106F5827005F08DF9C6F84E
:102560000076C6F8140165E6013A62F0FF02013216
:102570009BE6694C00222068DAF8001003685B686B
:102580009847664B0193FFF758BB002388F8FC354A
:102590003FE6002384F8FC35FFF7ACBB604901F54A
:1025A0009E60FEF747F8012384F80C36FFF7A2BBC4
:1025B0005C4805F061F9D4F81451D4F82021D4F81E
:1025C0002431594F451B5748561E1F4405F054F9F6
:1025D000564B5649A3FB0532A1FB001E4FF47A73FC
:1025E000920903FB12514FEA9E1E03FB1E03504843
:1025F000324400FB017100FB13134E49CEEB020283
:10260000081FC4F81C31C4F8182103F0F5FE454832
:1026100005F032F9C4F80406FFF76CBB414805F039
:102620002BF9D4F81451D4F82021D4F824313E4F9A
:10263000451B3C48561E1F4405F01EF93B4B3B49C9
:10264000A3FB0532A1FB001E4FF47A73920903FB32
:1026500012514FEA9E1E03FB1E033548324400FB15
:10266000017100FB13133349CEEB0202081FC4F8BB
:102670001C31C4F8182103F0BFFE2A4805F0FCF80D
:10268000C4F80406FFF79DB8254901F59E60FDF7E3
:10269000D1FF012384F80C36FFF793B8264D8BF851
:1026A0002023FE220A2608278BF82123F722194629
:1026B0008BF827338BF828338BF829338BF82A33A0
:1026C0008BF82B338BF82C338BF82D338BF82E3380
:1026D0008BF823338BF8263330468BF82563A5F12E
:1026E00009038BF822738BF8242301E013F8010F00
:1026F0009D420144FAD1C943034D84F82F1305F1DB
:102700000F06FF211CE000BF7005001050020010F2
:10271000FF000080750500104C0900104C020010ED
:10272000700300105403001000CA9A3BD34D62108E
:1027300040420F006C0300107E05001015F8011FC9
:10274000C64805F05FF8B542F8D1C54805F094F8E1
:10275000C44BCBF81401039364330293CDF8188073
:10276000039A52F8043F0392002B00F0A1805868AE
:102770009E6802681D6892689047039B07461B6825
:1027800058680368DB689847039B04901B681B69C3
:10279000632B059304DD94F8FC35002B00F0888052
:1027A000C6F3072384F82833284684F8276307F004
:1027B000DEFC06460EAB43F8140D1868AA4B3246F1
:1027C00029461860181D06F04BFD384607F0CFFC6F
:1027D00003460EAA42F8100DA44D1068B21D0A3629
:1027E0003946A8501A46A819079306F039FD0498EF
:1027F00007F0BDFC8046079B0B900EAF334457F8A3
:102800000C0D1E1DE8504246A819049906F028FD3B
:1028100008EB06010A1D5FFA82FEC2F307280EEBE1
:10282000080C6FEA0C0C0020214481F8270381F882
:10283000290381F82A0303460598022681F82863B4
:1028400084F824C384F822E340F3072C5FFA80FE67
:102850006FF0010092B202F22631FF26023D84F8A9
:102860002383214484F8206384F8210384F825E33A
:1028700084F826C301E015F801EF8D427344FAD1C4
:10288000DB43D11D083289B292B22144B2F5007FF8
:1028900081F8203300F2538352B102F21F32744D9B
:1028A000A61815F8011F6D4804F0ACFFB542F8D129
:1028B000039B029A93427FF453AFDDF81880CDF862
:1028C0001480029B53F8040F0293002800F0A780A5
:1028D00090E8280081689A68049166498A4240F02D
:1028E000D580DFF8A481DA6863498A4240F0A88085
:1028F000624A5B680392624A934240F0AB80C76BC6
:10290000632F04DD94F8FC35002B00F08880C5F3BC
:10291000072384F82833049884F8275307F027FC0A
:1029200006460EAB43F8140D18684F4B324618603C
:102930000499181D06F094FC404607F018FC034665
:102940000EAA42F8100D494D1068B21D0A364146D4
:10295000A8501A46A819049306F082FC039807F0C1
:1029600006FC0EAB1A468046049B0B9052F80C0DE9
:1029700033441E1DE8500492A8194246039906F0FC
:102980006FFC08EB06010A1D5FFA82FEC2F3072CFA
:102990000EEB0C086FEA080800202144022692B2D0
:1029A00081F8286381F8270381F8290381F82A0335
:1029B000034602F22631FF26FE2084F822E35FFA66
:1029C00087FE47F30727023D84F8248384F823C356
:1029D000214484F8206384F8210384F825E384F8F3
:1029E000267301E015F801EF8D427344FAD1DB4301
:1029F000D11D083289B292B22144B2F5007F81F82C
:102A0000203300F28F8252B102F21F32184DA61805
:102A100015F8011F114804F0F5FEB542F8D1029BEC
:102A20001A46184B9A427FF44CAFDDF8148001230C
:102A3000C4F80086C4F8048684F8FC35FEF784BE2A
:102A40009047029B039018680D4A03685B689342A5
:102A50003FF455AF9847074652E700BF9402001075
:102A6000540300106C070010790500107705001062
:102A70006F050010A1020000A9020000A8AF00002D
:102A80009D020000340800108CAF00009047029BAC
:102A900080461868036826E728469B499847FEF752
:102AA00090BE284698499847FFF724B93101A86A93
:102AB00003F084FAA862FFF796B9934901F59E6086
:102AC000FDF7B8FD012388F80C36FFF7A2BB8F484D
:102AD00004F0D2FED8F81441D8F82021D8F82431D7
:102AE0008B4E041B8948551E1E4404F0C5FE894BBD
:102AF0008849A3FB0432A1FB001E4FF47A739209AC
:102B000003FB12414FEA9E1E03FB1E0382482A4428
:102B100000FB016100FB13138049CEEB0202081F8A
:102B2000C8F81C31C8F8182103F066FC774804F097
:102B3000A3FEC8F80406FFF76CBB7900686B03F0CE
:102B40003DFA6863FFF7DAB920466F499847FFF707
:102B500060BB082207210620052704230C26FEF768
:102B60001FBF6F4D8BF82023FE220A2608278BF803
:102B70002123F72219468BF827338BF828338BF85B
:102B800029338BF82A338BF82B338BF82C338BF8C3
:102B90002D338BF82E338BF823338BF826333046C6
:102BA0008BF82563A5F109038BF822738BF8242396
:102BB00001E013F8010FAB420144FAD1C943594D6A
:102BC00084F82F1305F10F06FF2101E015F8011F0E
:102BD000554804F017FEB542F8D14C4804F04CFEBD
:102BE000524BCBF81401039364330293CDF8188051
:102BF000039A52F8043F0392002B00F0BA80586801
:102C00009E6802681D6892689047039B07461B6890
:102C100058680368DB689847039B04901B681B692E
:102C2000632B059304DD94F8FC35002B00F0A180A4
:102C3000C6F3072384F82833284684F8276307F06F
:102C400096FA06460EAB43F8140D1868384B324618
:102C500029461860181D06F003FB384607F087FA6E
:102C600003460EAA42F8100D324D1068B21D0A3606
:102C70003946A8501A46A819079306F0F1FA0498A5
:102C800007F075FA8046079B0B900EAF334457F858
:102C90000C0D1E1DE8504246A819049906F0E0FAF2
:102CA00008EB06010A1D5FFA82FEC2F307280EEB4D
:102CB000080C6FEA0C0C0020214481F8270381F8EE
:102CC000290381F82A0303460598022681F8286320
:102CD00084F824C384F822E340F3072C5FFA80FED3
:102CE0006FF0010092B202F22631FF26023D84F815
:102CF0002383214484F8206384F8210384F825E3A6
:102D000084F826C31AE000BF7003001054030010BB
:102D100000CA9A3BD34D621040420F006C03001072
:102D20007E05001070050010940200106C07001062
:102D3000790500107705001015F801EF8D427344F6
:102D4000FAD1DB43D11D083289B292B22144B2F5E7
:102D5000007F81F8203300F2CE8252B102F21F329E
:102D6000C54EA51816F8011FC44804F04BFDAE422D
:102D7000F8D1039B029A93427FF43AAFDDF81880B2
:102D8000CDF81480029B53F8040F0293002800F042
:102D9000A78090E8280081689A680491B8498A421F
:102DA00040F08982DFF80483DA68B6498A4240F04D
:102DB0007C82B54A03925B68B44A934240F07282C7
:102DC000C76B632F04DD94F8FC35002B00F088807E
:102DD000C5F3072384F82833049884F8275307F0B1
:102DE000C6F906460EAB43F8140D1868A84B3246D8
:102DF00018600499181D06F033FA404607F0B7F939
:102E000003460EAA42F8100DA24D1068B21D0A36F4
:102E10004146A8501A46A819049306F021FA0398CF
:102E200007F0A5F90EAB1A468046049B0B9052F8AA
:102E30000C0D33441E1DE8500492A8194246039914
:102E400006F00EFA08EB06010A1D5FFA82FEC2F3D5
:102E5000072C0EEB0C086FEA08080020214402261C
:102E600092B281F8286381F8270381F8290381F859
:102E70002A03034602F22631FF26FE2084F822E3CD
:102E80005FFA87FE47F30727023D84F8248384F81E
:102E900023C3214484F8206384F8210384F825E3C4
:102EA00084F8267301E015F801EFA9427344FAD1C2
:102EB000DB43D11D083289B292B22144B2F5007FC2
:102EC00081F8203300F2FD8152B102F21F326A4EC6
:102ED000A51816F8011F694804F094FCAE42F8D119
:102EE000029B1A466C4B9A427FF44CAFDDF814807B
:102EF0000123C4F80086C4F8048684F8FC35FEF784
:102F0000B6BE082207210620052704230C26FEF75B
:102F1000D7BF5900606B029303F050F8029B6063C7
:102F2000FFF7F0B95D495E4803230B910D90049AB9
:102F300007215C488DF83030FEF7CCF86FE5574933
:102F4000574803230B910D903A46072155488DF8B9
:102F50003030FEF7BFF8ABE45248FEF745FB524B6A
:102F60000697039364330293039A52F8043F17467B
:102F70000392002B00F0BA8058689D6802681C68B4
:102F8000926890473B68064658680368DB68984734
:102F90003B6804901B69632B059304DD98F8FC35AE
:102FA000002B00F0A380C5F3072388F828332046C0
:102FB00088F8275307F0DBF805460EAB43F8140DED
:102FC0001868334B2A4621461860181D06F048F948
:102FD000304607F0CCF803460EAA42F8100D2D4CEF
:102FE0001068AA1D0A353146A0501A466019079389
:102FF00006F036F9049807F0BAF80746079B0B90DD
:103000000EAE2B4456F80C0D1D1DE0503A466019CB
:10301000049906F025F979190A1D5FFA82FEC2F3B8
:10302000072C0EEB0C07FF430020414481F82703D7
:1030300081F8290381F82A0303460598022581F8BF
:10304000285388F8247388F822E3C7B240F3072E88
:103050006FF0010092B202F22631FF25023C88F89F
:1030600023C3414488F8205388F8210388F8257346
:1030700088F826E31EE000BF6F05001094020010E0
:10308000A1020000A9020000A8AF00009D020000FC
:1030900079050010770500103408001084AD000099
:1030A0000CB00000500200106C0700108CAF000044
:1030B00014F8017FA1423B44FAD1DB43D11D083211
:1030C00089B292B24144B2F5007F81F8203300F218
:1030D00005815AB102F21F328D4D08EB020415F83A
:1030E000011F8C4804F08EFBAC42F8D1039B029A7E
:1030F00093427FF439AF069F0597029B53F8040F64
:103100000293002800F0A38090E8180081689A6874
:10311000049181498A4240F0B280804FDA68804948
:103120008A4240F0A6807F4A03925B687E4A9342BF
:1031300040F09C80C66B632E04DD98F8FC35002BB4
:1031400000F08580C4F3072388F82833049888F8B2
:10315000274307F00CF805460EAB43F8140D18682A
:10316000724B2A4618600499181D06F079F8384603
:1031700006F0FDFF03460EAA42F8100D6C4C1068D5
:10318000AA1D0A353946A0501A466019049306F064
:1031900067F8039806F0EBFF0EAB1A460746049B50
:1031A0000B9052F80C0D2B441D1DE0500492601939
:1031B0003A46039906F054F879190A1D5FFA82FE1F
:1031C000C2F3072C0EEB0C07FF43002041440225FD
:1031D00092B281F8285381F8270381F8290381F8F6
:1031E0002A03034602F22631FF2588F82473FE20C5
:1031F000F7B246F30726023C88F822E388F823C397
:10320000414488F8205388F8210388F8257388F80A
:10321000266301E014F8017F8C423B44FAD1DB4382
:10322000D11D083289B292B24144B2F5007F81F8D3
:1032300020332AD85AB102F21F32354D08EB02046E
:1032400015F8011F334804F0DDFAA542F8D1394BD7
:10325000029A93427FF451AF059F0123C8F800768C
:10326000C8F8047688F8FC35FEF7E4BF98470646B0
:1032700061E79047029B03901868036855E7904701
:10328000029B07461868036848E72B492B4803232D
:103290000B910D90049A072129488DF83030FDF7E5
:1032A00019FFD4E7984707468BE59047029B0390A8
:1032B000186803687FE59047029B8046186803689A
:1032C00072E51D491D4803230B910D90049A0721B7
:1032D0001B488DF83030FDF7FDFE01E61649174812
:1032E00003230B910D903246072115488DF830309D
:1032F000FDF7F0FEFAE61049104803230B910D90FC
:103300003A4607210E488DF83030FDF7E3FE30E5F0
:103310006F05001094020010A10200008CAF0000A5
:10332000A9020000A8AF00009D020000790500106E
:10333000770500103408001084AD00000CB00000C8
:10334000500200102DE9F04F0746C14BC14991B022
:10335000002200F5B06800F21C5B0A910C930D93FB
:103360000E93ADF82C200F92CDF804805BF8043F4B
:10337000002B00F0BD8058681C6801689A680C94A6
:103380008B68ADF82C209847DBF800300D9058681A
:103390000368DB6898473B68DBF800104FF4007265
:1033A0000E901B680E690F92AB4A8146934240F023
:1033B0008B81632E04DD97F8FC35002B00F098809C
:1033C000BDF82C300C9D1A0A87F8273387F828237C
:1033D000284606F0CCFE044610AB43F82C0D1868C6
:1033E00029462246C7F8290307F22D3005F038FF99
:1033F0000D9D10AB2846009306F0B9FE07F2273E5C
:10340000034629467546009A069052F8280D029305
:103410000092A21D0A344EF802001A46281905F03F
:103420001FFF484606F0A3FE8246029B07900DF15F
:103430004008234458F8240D1C1DE85049465246C4
:10344000281905F00DFF0AEB0400011D5FFA81FA4F
:10345000C1F307290AEB090E6FEA0E0E00242C5463
:1034600005EB000C89B202208CF802408CF8034076
:103470008CF8010007F22533224601F22630FF24A2
:1034800087F824E3FE255FFA86FE46F307260293BB
:1034900087F822A387F82393384487F8204387F8D6
:1034A000215387F825E387F8266301E013F801EF3D
:1034B00098427244FAD1D243C81D01F1080380B288
:1034C0009BB23918B3F5007F81F8202300F21D81EB
:1034D00007F5487563B1013B1D4407F1440607F247
:1034E0001F3414F8011F304604F08CF9A542F8D1BE
:1034F000019B9B457FF43AAF984607F2E453019352
:1035000058F8040F002800F0D580826803684168ED
:103510000C929A68ADF82C1050498A4240F0EF8026
:103520004F4A0D92DA684F498A4240F0E2804E4A93
:1035300039680E924FF400725B680C680F924B4A28
:10354000934240F0D380C66BDFF80CA1544540F0A5
:10355000C480632E04DD97F8FC35002B00F0AA80B0
:10356000BDF82C300C9D1A0A87F8273387F82823DA
:10357000284606F0FCFD044610AB43F82C0D1868F5
:1035800029462246C7F8290307F22D3005F068FEC8
:103590000D9D10AB2846009306F0E9FD07F2273E8B
:1035A000034629467546009A069052F8280D039363
:1035B0000092A21D0A344EF802001A46281905F09E
:1035C0004FFE0E990DF140090846029106F0CFFD1D
:1035D0008346039B0790234459F8240D1C1DE85093
:1035E0005A462819029905F03BFE0BEB0400021D18
:1035F0005FFA82FBC2F3072C0BEB0C04E4430F9938
:1036000005EB000E2954080A8EF8010092B2080C4E
:10361000090E8EF802008EF8031007F22533FE2102
:1036200002F22630FF2587F82443F4B246F307263A
:1036300087F82113029387F822B387F823C338440D
:1036400087F8205387F8254387F82663002111E087
:1036500044B000006CAD0000D5100000A1020000D5
:103660008CAF0000A9020000A8AF00009D0200007E
:1036700013F8014F98422144FAD1C943D01D02F1F9
:10368000080380B29BB23A18B3F5007F82F820138A
:1036900000F2998007F5487563B1013B1D4407F1BD
:1036A000440607F21F3414F8011F304604F0AAF84C
:1036B000A542F8D1019B43457FF422AF012387F84F
:1036C000FC3511B0BDE8F08F31460AAA384698475C
:1036D000019B9B457FF44AAE0EE731460AAA384665
:1036E000A047019B43457FF40BAFE7E798470646A9
:1036F0002AE790470246D8F80000036818E7904789
:103700000246D8F8000003680BE7614903220791DD
:1037100060493B6809918DF820201B685E498B4207
:1037200040F0AC8038230693009B5A4C186887F809
:103730002723C7F8280304F1300E07F54B752646FA
:103740000FCE764528606960AA60EB6004F1100432
:1037500005F11005F3D103CC029B28606960FF20BE
:10376000FE2100264FF0070E87F8200387F821136B
:103770003D20C22187F824133246744687F823631C
:1037800087F8266387F825E387F8220307F2633179
:1037900001E013F8014F99422244FAD1D24307F1D4
:1037A000440687F8642307F21F3407F5597514F8A7
:1037B000011F304604F026F8AC42F8D1019B9B452E
:1037C0007FF4D4AD98E63249324C03223B6807912E
:1037D00009948DF820201B68534554D13823069353
:1037E000009B87F82723186804F1300EC7F82803D8
:1037F00007F54B7526460FCE764528606960AA60AE
:10380000EB6004F1100405F11005F3D103CC029B29
:1038100028606960FF20FE2100264FF0070E87F820
:10382000200387F821133D20C22187F82413324654
:10383000744687F8236387F8266387F825E387F8BB
:10384000220307F2633101E013F8014F8B42224457
:10385000FAD1D24307F1440687F8642307F21F34F4
:1038600007F5597514F8011F304603F0CBFFA54248
:10387000F8D1019B43457FF443AE1FE74246072141
:103880003846984734E64A4607213846984711E7B4
:1038900084AD00000CB00000D51000002DE9F04F01
:1038A000044600F5827A8BB0504603F0E5FF42F6FD
:1038B000F822D4F804368046C31A934284BF00230A
:1038C00084F8FC35D4F8E83533B1D4F808368342AF
:1038D0003CBF0023C4F8E83504F1040B584602F05D
:1038E00003FD054678B194F8FC0548B140F6C412D2
:1038F000D4F80036C3EB0803934200F2CF810020D6
:103900000BB0BDE8F08F0121584602F06BFB002898
:10391000E9DBD4F8F835D4F8E8650344072EC4F899
:10392000F83500F0FE8056B9FF2840F00E810122E4
:1039300008F11403C4F8E825C4F80836CEE7012ED0
:1039400000F01281022E00F06781032E00F06E81DC
:10395000042E00F07581052E00F08181062E00F006
:103960008681082EBAD1C94A00211A408A42C4F879
:10397000E815C0F2F681FF2AB0D1D4F8F035002B5B
:1039800000F0F9820A2B00F0A582062B00F0F781E7
:103990000B2B00F0F08104EB8303D3F8F453002DDC
:1039A0009CD02B6804F5907201921B68B84A934230
:1039B00040F0D48294F820612B7D05F10C02B342D3
:1039C0000292C0F0C5822E75002E00F0CB82042337
:1039D00007AACDF810809C4690460594019C0027CC
:1039E00005F11806CDF80CA004EB0C0EDEF8000073
:1039F0000EF10309C8F80000079800F1040ABAF1B3
:103A0000040F08D94B46C11C714413F8012F994289
:103A100003F8012CF9D14FF000030EEB0002D37034
:103A2000C5F81C901EF80A300C302B6292F80590F5
:103A3000844443EA09232B6292F80690D5F828E0E3
:103A400043EA09432B6292F80790390143EA09637C
:103A50002B62137A01376B6292F80990FFB243EA46
:103A60000920686292F80A900EEB010340EA0940CF
:103A70006862D27A40EA02606862D6F800A0D6F89E
:103A80000490B068F2684EF801A0C3F80490986002
:103A9000DA602B7DBB42A7D86346DDF80CA01A1D67
:103AA000DDF81080059C0CF1010E161D981C0CF120
:103AB000030C019995F83070CB5CEB6211F80EE0C5
:103AC00043EA0E23EB62085C43EA00430846EB62DC
:103AD00011F80C1043EA0163EB6210F802904F45B5
:103AE000C0F02F8285F83090B9F1000F15D0019BFE
:103AF00005F1320733441E460020727816F8023B67
:103B0000696B43EA02236B863B88421C21F8103024
:103B100095F83030D0B28342EFD8AB6B029898471B
:103B2000DCE6D4F8F4355A1C2344C4F8F42583F8B1
:103B30002001D4F8EC35013BC4F8EC35002B7FF4C0
:103B4000CDAE0823C4F8E835C8E6504603F094FE2D
:103B5000C8EB000005287FF6C1AE6FF0010084F8C5
:103B6000FC650BB0BDE8F08FFE2874D094F8FC35EE
:103B7000C4F8E855002B7FF4B1AE4649226807919E
:103B80001568454A08939542099340F0E0800A2061
:103B90001A460146FF2684F8273384F8283384F830
:103BA000293384F82A3384F82B3384F82C3384F8AF
:103BB0002D3384F82E3384F8233384F82633FE25FE
:103BC000F72384F82503082084F8220384F824339B
:103BD00084F8206384F8215304F2253304F22E3054
:103BE00001E013F8011F98420A44FAD1D24304F1CC
:103BF000440784F82F2304F21F3504F22F3615F8FA
:103C0000011F384603F0FEFDAE42F8D1504603F0E6
:103C100033FEC4F8140161E60323C4F8EC05C4F8CC
:103C2000F455C4F8F805C4F8E83557E6D4F8EC358F
:103C3000042203EB0020C4F8EC05C4F8E8254DE6A7
:103C4000124A1A40002A7DDBFF2A0CBF05230023FD
:103C5000C4F8E83542E60223C4F8E8353EE6062318
:103C6000C4F8F005C4F8F805C4F8E83536E6D4F829
:103C7000F035D4F8EC2503EB00230721C4F8F03528
:103C8000C4F8E815002A3FF45CAF27E6FF00008087
:103C90005D0C000054AD0000D5100000C44A23683C
:103CA00007921D68C34A00239542089309935DD18A
:103CB0000A201A460146FF2684F8273384F8283361
:103CC00084F8293384F82A3384F82B3384F82C338E
:103CD00084F82D3384F82E3384F8233384F8263384
:103CE000FE25F72384F82503082084F8220384F8AE
:103CF000243384F8206384F8215304F2253304F23A
:103D00002E3001E013F8011F98420A44FAD1D24341
:103D100004F1440784F82F2304F21F3504F22F36F0
:103D200015F8011F384603F06DFDB542F8D1504635
:103D300003F0A2FDC4F814010020C4F800860BB003
:103D4000BDE8F08F013A62F0FF0201327CE707AA7A
:103D50000A212046A847504603F08EFDC4F81401FE
:103D6000BCE5013A62F0FF02013204E607AA0A212B
:103D70002046A847DBE7002384F8FC35AEE594F83D
:103D8000206194F8143604F59075B34206D2B10060
:103D9000D4F81C0602F012F9C4F81C0684F8146664
:103DA000002E00F00181284604F5C3670426002197
:103DB000837990F805E002791B0443EA0E2390F81A
:103DC00007E0134343EA0E63C4F818363A68D4F8A0
:103DD0001C36043643F8212094F814360131C9B258
:103DE0008B4200F10400E3D8371D33463E4615F8F8
:103DF000039094F820364B4507D24FEA8901D4F856
:103E0000280602F0DBF8C4F8280684F82096B9F1F9
:103E1000000F20D004F22467A8190023827890F8BC
:103E200001E00178120442EA0E2290F803E00A430E
:103E300042EA0E62C4F824263968D4F828260436EB
:103E400042F8231094F820260133DBB29A4200F1A5
:103E50000400E3D83746EF5D94F82C36BB4206D217
:103E6000B900D4F8340602F0A9F8C4F83406331DBA
:103E700084F82C7657B3002607AAB646944604F574
:103E8000C667E858191DCCF80000079A0A448A4210
:103E900009D9084603332B4413F8019F01308242AD
:103EA00003F8019CF8D84B1E2B44A91801F801EC2B
:103EB000C4F830363868D4F83416134641F8260072
:103EC00094F82C260136F6B2B242DAD8012384F8EF
:103ED0000C3603E5504603F0CFFCD4F81451D4F867
:103EE0002431DFF8DC90451B50469944D4F820611A
:103EF00003F0C2FC304B304AA3FB0537A2FB001293
:103F00004FF47A73BF0903FB175591092B4A03FB42
:103F1000110302FB05922948013E00FB13233E4496
:103F2000721AC4F81C31C4F8182104F58E7104F516
:103F30008C7002F061FA504603F09EFCC4F804064F
:103F4000CCE44FEA4901686B02F038F86863C9E5D0
:103F50003101A86A02F032F8A86234E501992846D6
:103F60009847BBE408224FF0070C06204FF0050EDF
:103F700004230C269DE50E492268079108930A2127
:103F800009932046136807AA9847504603F074FC2B
:103F9000C4F814012046FFF7D5F9C4F80086C4F828
:103FA00004864FF0FF30ABE408273E4604231EE7AB
:103FB00054AD0000D5100000D34D621040420F00F8
:103FC00000CA9A3B2DE9F041064611C8251AAD10EA
:103FD000884605D06B009D4226D96FF0030500E0AE
:103FE0000425284603F0F5FD074696E81100241A3B
:103FF000E742D8F8003003D03B5196E81100241A6C
:10400000A3080AD104343C4408B103F0E0FD3D4468
:10401000B56037607460BDE8F081014622463846DD
:1040200005F029F93068EDE7B3F1804FD5D213B927
:104030001D461F46DBE7ED00D3E700BF38B54368F8
:104040008468A34207D0024609680BB1196043682F
:104050000433536038BDFFF7B5FF38BD2DE9F04F8D
:104060008FB00EAB1A469F4B9F481B6842F80C3D21
:10407000144611460192FFF7E1FF9C4B21461B6855
:1040800099480B93FFF7DAFF994B21461B68964836
:104090000B93FFF7D3FF974B21461B6892480B9376
:1040A000FFF7CCFF944B21461B688F480B93FFF71B
:1040B000C5FF924B181DD3F8001103F029FB002215
:1040C00013468F49A1F5B0608A66C0F8EC25C0F8A8
:1040D000F425C0F8F02551F8042F1AB10133192B3B
:1040E000F9D107E08549874A01EB83016433C1F8C0
:1040F00084255360844D2023802085F8243001F0EE
:1041000057FF0446814AE862002352F8041F19B1A0
:104110000133192BF9D108E07D4A784803F5A471E1
:104120007D33D06040F821209360784A002352F814
:10413000041F19B10133192BF9D108E0754A6F48F2
:1041400003F5A4717D33D06040F821209360DFF83F
:10415000ECA1052314208AF8243001F029FF6B4AD2
:10416000CAF82C00002352F8041F29B10133192B7F
:10417000F9D1694B06930AE0674A604D10460692F2
:1041800003F5A4727D33C56045F822008360231FC8
:1041900000227C3443F8042FA342FBD1FDF7FAF947
:1041A000FDF77EFA5D4A5E4B02925E4A07930392E8
:1041B000A3F5487B5C4B1B68002B40F034815B4BC4
:1041C0001C68002C40F08F83029B186803F06CFE83
:1041D000039D064628680F4603F078FE02460B460C
:1041E0003046394603F014FD04F0FEF84B4B06460A
:1041F0001A4602932B4618604A4B914603931D467C
:104200002CE059F8040F03F04FFE064668680F468D
:1042100003F05CFE02460B463046394603F0F8FCDC
:1042200004F0E2F80646424B6E6053F8080004F0D2
:10423000E5F907460146304604F0F0FB08B13E467A
:104240006F603C4B53F8080004F0D8F9314607463C
:1042500004F0E4FB08B13E466F600435224B304663
:104260001B684FEA840853F8246004F0E1FB3368CC
:1042700001465B683046002298471B4BDAF82C60F9
:104280001B6808F1040853F8240003681B6A984768
:1042900046F824000134052CB3D1069A26499368C8
:1042A000D76804931A463B681B688B4240F08280B3
:1042B000632A03DD97F8FC35002B7FD09AF808308D
:1042C000002687F8273387F8286387F8296387F85B
:1042D0002A6307F22738002B00F05B834FF00409B4
:1042E000059758E04C090010F80100109C090010D7
:1042F00004020010500900109C0800105002001029
:10430000D0070010F8080010C80100106C0700105A
:1043100008020010380900108809001088080010F1
:104320007005001008010010540900104C02001024
:10433000F4000010CC000010D51000001C0200108A
:10434000606805F014FF0746019B0B9018683A4619
:1043500048F809006168281D04F082FFA2683D4406
:104360002A71A26807F10C00120A6A716289AA71A7
:10437000E27AEA71E2682A72E268120A6A72E289F3
:10438000AA72E27BEA7201369AF80820F6B2B242CB
:10439000814440F21E82DAF81C403201A158BD4B24
:1043A00014440A6808EB09059A42C9D029462046F8
:1043B0009047E8E704993846B74A9847B74803F06A
:1043C0005BFA42F6F822B64B8146D3F80436C31A9C
:1043D000934284BF00238BF8FC35B14BD3F8E8350A
:1043E00033B1DBF80836984284BF0023CBF8E835B8
:1043F000AB4C201D01F078FF0546B8B1A84B93F8EF
:10440000FC3543B140F6C412DBF80036C3EB0903B8
:10441000934200F270821E2002F0B8FAA14B1B6892
:10442000002B3FF4CCAEFDF73BF9C3E60121201D84
:1044300001F0D8FD0028E1DBDBF8F835DBF8E865B2
:104440000344072ECBF8F83500F0038156B9FF2856
:1044500040F01481012209F11403CBF8E825CBF8D0
:104460000836C5E7012E00F02581022E00F072818A
:10447000032E00F07981042E00F08081052E00F0DB
:104480008E81062E00F09381082EB1D1864A00213C
:104490001A40834B8A42C3F8E815C0F27582FF2A9E
:1044A000A6D17F4B7E4DD3F8F035002B00F0E08392
:1044B0000A2B00F09C83062B00F0E2820B2B00F00D
:1044C00076820BEB8303D3F8F443002C90D023685F
:1044D000764A1B68934240F0C5839BF82051237DA8
:1044E00004F10C02AB42049204D22901A06A01F04B
:1044F00065FDA0622575002D00F04286CDF8149070
:10450000DDF80490002704F118060425684B03EB3E
:10451000050EDEF800000EF10308C9F800000B9844
:1045200000F1040CBCF1040F08D94346C11C7144CE
:1045300013F8012F994203F8012CF9D14FF0000331
:104540000EEB0002D370C4F81C801EF80C300C3047
:10455000236292F805C0054443EA0C23236292F8D3
:1045600006C0D4F828E043EA0C43236292F807C05F
:10457000390143EA0C632362137A0137636292F8CC
:1045800009C0FFB243EA0C20606292F80AC00EEB49
:10459000010340EA0C406062D27A40EA0260606245
:1045A000D6F80080D6F804C0B068F2684EF80180F2
:1045B000C3F804C09860DA60237DBB42A6D82A1DE8
:1045C000DDF81490161D6F1CA81CE91C344B1D440B
:1045D00095F82031324DE3622F4497F82051304F47
:1045E00043EA0523E362384490F82001394443EA62
:1045F0000043E36291F820113A4443EA0163E36225
:1046000092F8205194F83030AB4204D26900606BCC
:1046100001F0D4FC606384F83050B5B1204B04F154
:1046200032059819002190F8212190F820310230AC
:1046300043EA022363862E88636B4A1C23F81160C9
:1046400094F83030D1B28B42EDD8A36B04989847E0
:10465000CEE6DBF8F425DBF8EC35511C013B5A447F
:10466000CBF8F41582F82001CBF8EC35002B7FF461
:10467000BFAE0B4A0823C2F8E835B9E604F58270EC
:1046800003F0FAF8C9EB000005287FF6B1AE84F814
:10469000FC65C0E6B90200001C02001054030010C3
:1046A0005002001054090010FF0000805D0C000053
:1046B00070030010FE286ED09BF8FC35CBF8E8554F
:1046C000002B7FF495AE0A201A468BF827338BF81F
:1046D00028338BF829338BF82A338BF82B338BF85C
:1046E0002C338BF82D338BF82E338BF823338BF848
:1046F0002633FE230146FF258BF825038BF8213353
:104700000820F7238BF824338BF8205304F2253349
:104710008BF8220304F22E3401E013F8011F9C42AF
:104720000A44FAD1D24307990C46CA7301F10F0625
:10473000FF2101E014F8011FCB4D05F1440003F007
:1047400061F8B442F6D105F5827003F095F8C5F82A
:1047500014014DE60323CBF8EC05CBF8F455CBF868
:10476000F805CBF8E83543E6DBF8EC35042203EB3B
:104770000020CBF8EC05CBF8E82539E6BB4A1A4017
:10478000002AC0F2B380FF2AB74A0CBF05230023DA
:10479000C2F8E8352CE60223CBF8E83528E60623F4
:1047A000CBF8F005CBF8F805CBF8E83520E6AE4BB2
:1047B000AD4AD3F8F035D2F8EC2503EB0023AA4834
:1047C0000721C0F8F035C0F8E815002A3FF451AFD2
:1047D0000EE64946081DCA1D059F031D4E1D8D1D71
:1047E000059209F1010901F1020C01F1030E9AF899
:1047F0002040002208F80140DAF82010090A08F8E1
:104800000910BAF8221008F80C109AF8231008F8CA
:104810000E109AF8241008F80010059908F80620E0
:1048200008F8052008F801209AF82410B1B108EB27
:104830000300DAF82C10541C51F82210E2B208F8E8
:1048400003100D0A0C0C090E45708470C1709AF8A3
:1048500024100433914200F10400EAD8DDB2C3F31E
:1048600007216818C043049E9BB287F82403FF20E9
:1048700007F2253487F8225387F8231303F22635ED
:10488000FE2187F82003F0B246F3072687F82113AC
:1048900022463D4487F8250387F82663002101E07E
:1048A00012F8010FAA420144FAD1C943DA1D0833B4
:1048B00092B29BB23A44B3F5007F82F820137AD8C3
:1048C00007F54874002B3FF479AD013B07F144052F
:1048D0001C4407F21F3717F8011F284602F092FF09
:1048E000A742F8D16AE5FCF731FE63E4013A62F0D1
:1048F000FF02013247E70A24FF255D4B00202146D5
:10490000FE268BF825438BF82053F7240825024612
:104910008BF827038BF828038BF829038BF82A03DD
:104920008BF82B038BF82C038BF82D038BF82E03BD
:104930008BF823038BF826038BF8216303F109001E
:104940008BF822538BF8244301E013F8011F98429F
:104950000A44FAD1D24307990C46CA7301F10F05F4
:10496000FF2101E014F8011F3F4E06F1440002F060
:1049700049FFA542F6D106F5827002F07DFFC6F828
:104980000096C6F8140146E5013A62F0FF020132D2
:1049900085E50B23059308204FF0070E4FF0060C1A
:1049A0004FF0050904210C230A2509261FE70023DF
:1049B0008BF8FC351CE52F4B03220B932E4B8DF807
:1049C00030200D933B682D491B688B4240F0E083FB
:1049D00038230A930A98284D87F82723C7F8280315
:1049E00005F1300C07F54B76AE46BEE80F00E64504
:1049F00030607160B260F36005F1100506F11006D9
:104A0000F2D103CD30607160FF20FE214FF0000E27
:104A1000072587F8200387F821133D20C22187F856
:104A2000241373462A4687F823E387F826E387F89A
:104A3000255387F8220307F2633101E014F8012FB0
:104A4000A1421344FAD1DB4307F1440587F86433EC
:104A500007F21F3407F5597714F8011F284602F0B2
:104A6000D1FEBC42F8D1A9E450020010FF00008042
:104A70007505001084AD00000CB00000D5100000DA
:104A80009BF820419BF81436A34206D2A100DBF824
:104A90001C0601F093FACBF81C06914B83F81446E0
:104AA000002C00F069831D460426002495F8263169
:104AB00095F8251195F824211B0443EA012395F864
:104AC00027111343864A43EA0163C2F81836D2F825
:104AD0001806D2F81C36043643F8240092F814362F
:104AE0000134E4B2A34205F10405DFD8351D2C469C
:104AF0007B4B1E4496F8206193F82036B34206D2D1
:104B0000B100DBF8280601F059FACBF82806744BFF
:104B100083F820661EB30BEB0406002596F82231BD
:104B200096F8211196F820211B0443EA012396F8F8
:104B3000231113436A4A43EA0163C2F82436D2F8C8
:104B40002406D2F82836043443F8250092F820369B
:104B50000135EDB2AB4206F10406DFD82546604BC5
:104B60001D4495F8205193F82C36AB4206D2A9008B
:104B7000DBF8340601F022FACBF83406584B043443
:104B800083F82C5675B30027BE46DDF804C0554B9C
:104B9000261D1859CCF800000B9D3544AE4209D2B1
:104BA000324604F223135B4459780132AA4203F8D7
:104BB000011BF9D34B4A731E1344A2F590722A4489
:104BC00082F81FE1464A2C46C2F83036D2F8300649
:104BD000D2F8343643F8270092F82C360137FFB26A
:104BE000BB42D4D83E4A012382F80C3600E405F5D6
:104BF000827002F041FEDBF81441DBF82021DBF883
:104C00002431394F041B05F58270561E1F4402F0F3
:104C100033FE364B3549A3FB0432A1FB001E4FF493
:104C20007A73920903FB12444FEA9E1E03FB1E0394
:104C30002F48324400FB047100FB1313CEEB020239
:104C400005F58E7105F58C70CBF81C31CBF8182169
:104C500001F0D2FB05F5827002F00EFECBF80406DF
:104C6000FFF7C6BB05F5907120469847FFF7C0BB1C
:104C700085F8273385F8283385F8293385F82A33D2
:104C800085F82B3385F82C3385F82D3385F82E33B2
:104C900085F8233385F826331946FE230A2485F840
:104CA000202385F821330822F72385F8243385F85B
:104CB000254385F8222305F22E33204605F22535BB
:104CC00001E015F8010F9D420144FAD1C943094D95
:104CD000A5F10F03D97307931E46FF210EE000BF15
:104CE000500200107003001000CA9A3BD34D6210AE
:104CF00040420F007F05001016F8011FCC4C04F154
:104D0000440002F07FFDAE42F6D104F5827002F05D
:104D1000B3FD04F55973C4F8140104F21C5604934E
:104D200056F8043F002B00F0AF8058689A6801687D
:104D300005928968D3F80080884733680746586829
:104D40000368DB689847336804461D69059A632D3C
:104D500005DDB74B93F8FC35002B00F09580B44986
:104D6000C2F3072381F8272381F82833404605F052
:104D7000FEF9034609900998AE4A414610601A466A
:104D8000AD48059304F06CFA384605F0F0F9059B40
:104D90000A90804639460A98A84F9A1DB85038465E
:104DA0000A3342461844059304F05AFA204605F0A7
:104DB000DEF90746019A0B90059B10689F4A434411
:104DC00003F10408D0509D4B21463A4603EB0800FE
:104DD00004F046FA964907EB08031C1D00200B441B
:104DE000C4F307275FFA84F84FF0020C83F828C356
:104DF00083F8270383F8290383F82A0308EB070EB7
:104E00000B466FEA0E0E83F82373A4B203F2253328
:104E10006FF44977DF1981F824E302464FF0FF0C65
:104E200004F226304FF0FE0E81F82283E9B245F3FA
:104E30000725384487F820C387F821E387F825132E
:104E400087F8265301E013F8011F83420A44FAD180
:104E5000D243E11D04F10803754889B29BB20144B5
:104E6000B3F5007F81F8202300F2FA8063B103F2EA
:104E70001F3300F21F340BEB030514F8011F7048B9
:104E800002F0C0FCA542F8D16E4B9E427FF448AFC1
:104E90001E4656F8040F002800F0AE8090E8080186
:104EA00069499A6887688A4240F0BC80674DDA6831
:104EB00067498A4240F0B180664C5B68664A93421B
:104EC00040F0A880C36B632B05DD594A92F8FC259E
:104ED000002A00F091800493554BC8F3072283F811
:104EE000278383F82823384605F041F98046099046
:104EF000504B0998394618604246181D04F0B0F925
:104F0000284605F034F907460A904C4B0A9808F1F8
:104F1000060208F10A08985029463A4603EB0800B1
:104F200004F09EF9204605F022F90546019B0B90FE
:104F30001868B844414B08F10407214643F80800BB
:104F40002A46D81904F08CF9E9190C1D5FFA84FC83
:104F5000C4F307250CEB0507FF43354B002019442C
:104F60004FF0020E81F828E381F8270381F8290326
:104F700081F82A0383F8247383F822C3049BA4B224
:104F8000D9B243F3072C2A4B024683F8235303F28A
:104F900025336FF449755D1904F226304FF0FF0E8A
:104FA000FE27284485F820E385F8217385F825132A
:104FB00085F826C301E013F8011F83420A44FAD1A1
:104FC000D243E11D04F10803194889B29BB20144A0
:104FD000B3F5007F81F8202300F2888063B103F2EB
:104FE0001F3300F21F340BEB030514F8011F1448A4
:104FF00002F008FCAC42F8D1184B9E427FF449AF56
:105000000B4A0123C2F80096C2F8049682F8FC35D8
:10501000FFF701BA9847034655E7904704463068C2
:1050200003684AE790470546306803683FE700BFDA
:1050300050020010790500107D0500107705001062
:1050400094020010D0070010A10200008CAF0000F5
:10505000A9020000A8AF00009D0200003408001063
:105060004E4D4F4C0FCD0FC40FCD0FC40FCD0FC4FD
:1050700095E8030003238BF827333823CBF8283334
:10508000FF2384E803008BF82033FE238BF82133C1
:105090003D238BF822334FF0000E4FF0070CC22354
:1050A00004EB0C027746E046373C8BF823E38BF8A1
:1050B00026E38BF825C38BF8243301E014F8018F25
:1050C00094424744FAD1FF43364CFF2184F84470A0
:1050D00001E014F8011F344802F094FB049B9C4249
:1050E000F7D1324B9E427FF41BAED1E62B4D2C4CB8
:1050F0000FCD0FC40FCD0FC40FCD0FC495E8030023
:1051000003238BF827333823CBF82833FF2384E895
:1051100003008BF82033FE238BF821333D238BF8DB
:1051200022334FF0000E4FF0070CC22304EB0C02A9
:105130007746E046373C8BF823E38BF826E38BF881
:1051400025C38BF8243301E014F8018FA2424744B1
:10515000FAD1FF43134CFF2184F8447001E014F8A6
:10516000011F114802F04EFB114B9C42F7D1114B2D
:105170009E427FF48EAE43E708252C460426B7E412
:10518000082207210620052704250C26FFF71EBA52
:105190003846019A07219847FFF710B90CB0000074
:1051A0007C0500107005001094020010D00700105C
:1051B000B40500103408001010B50446074B403009
:1051C00003F1180103F14C0223602164626402F0D0
:1051D00007FB204602F0FBFC204610BD10B4000087
:1051E000A0F14000E8E700BFA0F14400E4E700BF01
:1051F000F8B5764B00251846754A76491D605D6006
:105200009D6002F0DFFC642002F0E3FC0446724A79
:105210007249012300F020FC714B64201C6002F0F5
:10522000D8FC04466C4A6D49022300F015FC6D4B16
:1052300064201C6002F0CDFC0446674A67490323E2
:1052400000F00AFC684B64201C6002F0C2FC0446BB
:10525000614A6249042300F0FFFB644B64201C6038
:1052600002F0B7FC074605235B4A5C49604E614C7F
:1052700000F06EFE2B46604A60496148376002F0DC
:10528000F7F9534A5F495E4802F09CFC20465E4AAB
:105290005A492B4640F8042B574A00F0FBFF04F50F
:1052A000827002F0CDFA4FF46143C4F8003104F586
:1052B000827002F0D5FA2946544B84F8FC55C4F8A4
:1052C000103684F81456C4F81C5684F82056C4F8D6
:1052D000285684F82C56C4F8345604F21C5204F5AF
:1052E000B06342F8041F9342FBD14949002243F8BE
:1052F000042F9942FBD1474A002102F5007302F8BE
:10530000011F9342FBD14449002203F8012F8B4235
:105310004FF00004F9D12E4A4049364802F052FCC1
:105320003F4E404B4049414A414F9E630126414D0B
:1053300041481960DA604149414ADE639F60414E4D
:10534000414FDFF81CE15560147216607A60C7F8AF
:1053500000E0D060116154619461D461146282F8FC
:105360002440D4623C61394A394FDFF8F8E01C75BB
:105370001C625C629C62DC6283F830405C631D618D
:105380009861D961334B166055601472D060116119
:105390007A6054619461D461146282F82440D462CA
:1053A0003C612D4AC7F800E02C4F1C7283F8244062
:1053B0001E605D60D86019615C619C61DC611C628B
:1053C000DC62536014611760F8BD00BFF801001083
:1053D000C80000109507000010C009200FC0092068
:1053E0004C0900109C090010040200105009001024
:1053F0009C0800105002001003C0092002C00920C0
:10540000A0080010A507000014AE00009CAD00002D
:10541000340800106F0300106F070010695400007B
:1054200065020000F808001028AE0000E4AD00009E
:1054300048B00000CCAD0000B4AD000044B00000A6
:10544000C8010010FCAD000008020010580900104F
:10545000380900101C020010880900106CB0000010
:1054600054B0000060B0000010B50446034B40F893
:10547000043B00F0B1FE204610BD00BF14AE00009A
:1054800038B504460D4672B6806D01F021FE2946FE
:10549000204602F0E7F804F1400002F0BFF90021D5
:1054A0000546A06D01F030FB62B6284638BD00BF4E
:1054B000A0F14000FFF7E4BF02F0CEB8A0F1400039
:1054C000FFF7FABF10B50446064B403003F1180150
:1054D00003F14C0223602164626402F081F92046EA
:1054E00010BD00BF10B40000A0F14000EAE700BF0B
:1054F000A0F14400E6E700BF10B50446074B40307A
:1055000003F1180103F14C0223602164626402F08C
:1055100067F9204602F05BFB204610BD10B4000086
:10552000A0F14000E8E700BFA0F14400E4E700BFBD
:1055300038B504460D4602F09BF80B4BA56503F108
:10554000200203F108015433226463642160284679
:1055500001F09CFAA06D022101F0F2FAA06D002189
:1055600001F0D2FA204638BD98B0000000000000DB
:1055700070B521F0004384B0044618460E4602F090
:10558000A5FC11A3D3E9002302F0F4FC02F004FF10
:1055900000210546304603F023FA08B145F4806542
:1055A00003A80026236861688DE841002A128DF85F
:1055B0000C508DF80D201D6C204602232022A84798
:1055C00004B070BDAFF300800000000000F88F4011
:1055D00070B50E4BC1EB013183FB013284B0CB17A8
:1055E0000026114403ADC3EB2123026841688DE816
:1055F000600043F307248DF80C308DF80D40022332
:10560000146C0622A04704B070BD00BFB7600BB693
:1056100070B50E4BC1EB013183FB013284B0CB1767
:105620000026114403ADC3EB2123026841688DE8D5
:10563000600043F307248DF80C308DF80D400223F1
:10564000146C0822A04704B070BD00BFB7600BB651
:1056500010B584B004AB03F8042D04680022009355
:105660000192246C01230322A04704B010BD00BFA7
:1056700010B584B0036803AA41680092DC6B2E2247
:105680000123A0479DF80C0004B010BD10B584B0F4
:10569000036803AA41680092DC6B24220223A0471E
:1056A0009DF80D009DF80C304FF4B47203EB00230D
:1056B0001BB202FB03F3054AD81782FB0312134403
:1056C000C0EBE32002F09AFF04B010BD8100088017
:1056D00010B584B0036803AA41680092DC6B2B22EA
:1056E0000123A0479DF80C0002F084FF04B010BD18
:1056F00010B584B0036803AA41680092DC6B2A22CB
:105700000123A0479DF80C0002F0CEFB0022034BC2
:1057100002F05AFD02F068FE04B010BD0000244003
:1057200010B584B0036803AA41680092DC6B442280
:105730000223A0479DF80C309DF80D0003EB0020DC
:10574000A0F6FF0002F0B0FB05A3D3E9002302F0AE
:1057500011FC02F049FE04B010BD00BFAFF30080A1
:105760003BDF4F8D976E723F10B584B004AB03F8EA
:10577000041D04680022416800930192246C0123F7
:105780001822A04704B010BD0B4670B50D4984B077
:105790000446184602F086FF03F04AF9002603ADDE
:1057A000616823688DE8600080B240F307228DF8BD
:1057B0000C008DF80D20204622221C6C0223A047ED
:1057C00004B070BD00C07F4410B584B004AB02EBE0
:1057D000410203F8042D0024026841688DE8180096
:1057E0000123146C0A22A04704B010BDF0B5FF23BA
:1057F00085B002250424FE27FB228DF803508DF886
:105800000440194600F148068DF800308DF801304B
:105810008DF802708DF805206C460DF1050501E04C
:1058200014F8011F304601F0EDFFAC42F8D105B08D
:10583000F0BD00BF2DE9F041DCB2D2B21F46A31D7E
:10584000CDB213442B448046DB4388B0FF208DF853
:1058500002504FF0FE0E04258DF8052002228DF82F
:1058600006408DF8035001468DF8073008F14806D0
:105870008DF800008DF801008DF814E08DF80420FB
:105880006C460DF1070501E014F8011F304601F0E8
:10589000B9FFAC42F8D1154801F06CF8D8F8040013
:1058A000FE281ED005371FD40DF10F050024304609
:1058B00001F0B4FF0134BC4205F8010FF7DD9DF89B
:1058C00014009DF81340022C0BDD08AB0E9A1C440B
:1058D0000E3C05AB013A13F8011F9C4202F8011F70
:1058E000F9D108B0BDE8F081FE20EAE7ACC5A737E2
:1058F0002DE9F041DE1C86B0C9B2F6B20D9F8C19BD
:10590000012FE4B28DF80A100CBF211DE11CD2B2A8
:10591000C9B24FF0FF0E054611440CBF042003200E
:10592000002B8DF80B608DF808E08DF809E00C9ED7
:105930008DF80C00C9B28DF80D200DDD0020024657
:10594000B45C0132D2B206AF38442144934200F82D
:105950000A4CC9B21046F3DCC9439E1D06AB334462
:10596000002E03F8101C0CDB05F148080DF10707A9
:105970000024013417F8011F404601F043FFA642FE
:10598000F7DA0C4800F0F6FF6B680020FE2B8DF86C
:1059900004000CD06C4648350DF10606284601F08F
:1059A0003DFF04F8010BA642F8D19DF8040006B0B3
:1059B000BDE8F081ACC5A737F0B5A2F10207B7FA90
:1059C00087F7174BC1EB0131154683FB013285B0D8
:1059D000CB1703AE11447F09C3EB21230268416852
:1059E0008DE8C00043F307268DF80C308DF80D606C
:1059F0000223166C1E220446B047012D064602D033
:105A0000304605B0F0BD236820469B6998470028C2
:105A1000F6D0236820469B6998470028F3D1EFE72A
:105A2000B7600BB60368012910B54FF000010446BA
:105A3000DB680DD0984723684FF4B4711B6920468A
:105A40009847236820469B6800219847002010BD96
:105A5000984723680021F1E770B5044605461E46C5
:105A60000648002344F8080B2046FFF761FD204656
:105A7000034901F04DFE6E60284670BDFCB0000089
:105A800040420F000000000070B521F0004384B0D8
:105A9000044618460E4602F019FA11A3D3E9002372
:105AA00002F068FA02F078FC00210546304602F068
:105AB00097FF08B145F4806503A800262368616854
:105AC0008DE841002A128DF80C508DF80D201D6CC8
:105AD000204602232022A84704B070BDAFF3008007
