:1000000000800010595A0000895A00008B5A0000E5
:100010008D5A00008F5A0000915A00000000000025
:10002000000000000000000000000000935A0000E3
:10003000955A000000000000975A0000995A0000ED
:100040009B5A00009B5A00009B5A00009B5A0000DC
:100050009B5A00009B5A00009B5A00009B5A0000CC
:100060009B5A00009B5A00009B5A00009B5A0000BC
:100070009B5A00009B5A00009B5A00009B5A0000AC
:100080009B5A00009B5A00009B5A00009B5A00009C
:100090009B5A00009B5A00009B5A00009B5A00008C
:1000A0009B5A00009B5A00009B5A00009B5A00007C
:1000B0009B5A00009B5A00009B5A00009B5A00006C
:1000C0009B5A00009B5A00009B5A000010B5054C3B
:1000D000237833B9044B13B10448AFF300800123F4
:1000E000237010BDAC0100100000000094950000CA
:1000F000084B10B51BB108480849AFF30080084809
:10010000036803B910BD074B002BFBD0BDE81040BE
:10011000184700BF0000000094950000B0010010D7
:10012000AC010010000000000346426808200A707D
:100130005A68C2404A70DA888A70DA79CA709A6856
:100140000A719A68C2404A715A898A71DB7ACB7106
:10015000704700BF024610B40B78082053604C78FB
:1001600043EA042353608C7843EA04435360CC7819
:1001700043EA046353600B7993604C7943EA0423A8
:1001800093608C7943EA04439360C9795DF8044B2A
:1001900043EA01639360704700487047E08C0000B9
:1001A00000487047F08C000000487047148D000034
:1001B00000487047308D000000487047548D0000A3
:1001C00000487047688D000000487047208F00008D
:1001D000004870478C8D000000487047B08D0000CB
:1001E00000487047D08D000000487047F48D000033
:1001F00000487047108E000000487047348E0000A1
:1002000000487047508E000000487047748E000010
:1002100000487047908E0000806A054A831E0830AF
:1002200033F9021F834242F8041BF9D1704700BF23
:1002300058080010C06B704700487047348E0000AB
:1002400000487047508E000090F8FC05704700BFD2
:1002500010B50446006808B105F025FC204610BD25
:1002600070B5054682B00C46406807F0D4FE2346C0
:10027000064602AA42F8040D1068324643F8040B01
:100280006968184606F058FFAB68A1190B71AB6896
:1002900006F10C001B0A4B716B898B71EB7ACB71E9
:1002A000EB680B72EB681B0A4B72EB898B72EB7B72
:1002B000CB7202B070BD00BF2DE9F043037900247A
:1002C0000B704C708C70CC70037983B0002B6FD0A6
:1002D0000B460425C268661C52F82420F4B24FEA8B
:1002E000122E170C160E1A7183F805E09F71DE713D
:1002F00002790435A24203F10403EBD82A1D164605
:1003000005F1010C05F1020EEF1C037C00244B5596
:1003100001F80C4001F80E40CC55037CEBB101EB29
:10032000060843468269E5B252F82520651C170E7F
:100330004FEA122C4FEA124E08F8242083F801C02D
:1003400083F802E0DF70077CEAB2974206F1040608
:1003500003F104032C46E5D83246057F8B190024AF
:100360008D545C709C70DC70037F0436E3B188466A
:1003700007467B6A06F1040953F8240007F04BFE98
:100380000546019001982A4648F806007B6A08EB6A
:10039000090053F8241006F0CFFE01343B7FE4B28D
:1003A000A34209EB0506E4D8304603B0BDE8F0836C
:1003B0000822164607274FF0060E4FF0050C0425BD
:1003C000A3E700BF70B5037982B00B700646806862
:1003D0000D4607F020FE044602AB43F8040D1868F2
:1003E0002246C5F80100B168681D06F0A5FE601D33
:1003F00002B070BD83882DE9F0410B70838884B012
:100400001B0A4B70064680680C4607F004FE074640
:1004100004AB43F80C0D18683A46C4F80200B16802
:10042000A01D06F089FEF06807F0F5FD054604AB57
:1004300043F8080D1868BB1DE05007F10A08F16881
:100440002A4604EB080006F077FE306907F0E3FD6A
:10045000074604AB43F8040D186845446051043561
:1004600031693A46601906F067FE7369E819221887
:1004700023541F0A1E0C190E043057709670D17049
:1004800004B0BDE8F08100BF0B46F0B413F8012BB7
:1004900006460271186882B00190019D0F1D681D0B
:1004A000052808D93B462C1D0C4413F8012FA34204
:1004B00003F8012CF9D10D4400232B71B76002B071
:1004C000F0BC7047F0B40546086882B0019001980E
:1004D000CF1C061D042E08D93B46C41C0C4413F83F
:1004E000012FA34203F8012CF9D10A180023D3707D
:1004F0006F608B5D0C30AB60517943EA0123AB60D8
:10050000917943EA0143AB60D17943EA0163AB607F
:10051000137AEB60517A43EA0123EB60917A43EA64
:100520000143EB60D27A43EA0263EB6002B0F0BCB5
:10053000704700BFF0B40B78054683804A7884B0DA
:1005400043EA02238380D1F802004F1D0190019AF3
:10055000961D062E08D93B46541D0C4413F8010F76
:10056000A34203F8010CF9D18B1800205871AF6039
:10057000885904360290029B33449E4209D2304689
:1005800009320A4412F8014F0130984202F8014C36
:10059000F8D3013E0E44CA18002002F8010CEE60A8
:1005A00010681E1D039003983044864209D23246DB
:1005B00003330B4413F8014F0132824203F8014C1C
:1005C000F8D3013E0C180E44002304F8013C2E61C0
:1005D000A37866780A5C1B04E17843EA0623134398
:1005E00043EA016304306B6104B0F0BC704700BFA4
:1005F0002DE9F04103790C7882B0A34205460E46FE
:10060000C0F082802C71002C00F08780334605F109
:100610000807002004249A7993F805E01979120458
:1006200042EA0E2293F807E00A4342EA0E62AA6009
:10063000D7F800E0EA68411C42F820E02A79C8B205
:10064000824204F1040403F10403E4D8234616F8BB
:1006500003802B7C271D43453C4666D385F81080DC
:10066000B8F1000F1FD0331905F1140E0020C6F1A8
:1006700004079A785C781978120442EA0422DC783C
:100680000A4342EA04626A61DEF80040AA69411C3A
:1006900042F820402A7CC8B2824207EB030403F1EF
:1006A0000403E6D82746F75D2B7FBB4244D3231DC6
:1006B0002F772FB30027BC4605F1200EF0581C1DE4
:1006C000019001982044844209D2224603333344E6
:1006D00013F8011F0132824203F8011CF8D3013CD8
:1006E0003318344403F801CC2C626A6ADEF8001037
:1006F0007B1C42F827102A7FDFB2BA420346DDD8BE
:10070000184602B0BDE8F081C068A10003F084FB88
:100710002C71E860002C7FF479AF042316F8038075
:100720002B7C082743453C4698D2A8694FEA8801AC
:1007300003F072FBA86191E7686AB90003F06CFBF3
:100740006862B4E72DE9F04F037900260B704E7014
:100750008E70CE70037983B083468946002B59D0C2
:10076000DFF8C0A04FF004082AE0606807F053FCEF
:10077000074602AB43F8040D18683A4649F80800EA
:100780006168281D06F0D8FCA368E9190B71A368FD
:1007900007F10C001B0A4B7163898B71E37ACB71F3
:1007A000E3680B72E3681B0A4B72E3898B72E37B8D
:1007B000CB7201369BF80430F6B2B34280440DD9B7
:1007C000DBF818403301E2581C44136809EB0805B4
:1007D0005345CAD0204629469847EAE708F1010464
:1007E00008F1020108F1030208F10400DBF81C30F3
:1007F00009F80830DBF81C301B0A09F80430BBF894
:100800001E3009F801309BF81F3009F8023003B0A0
:10081000BDE8F08F08200722062105244FF00408C8
:10082000E4E700BF610200002DE9F04703790D788D
:1008300082B0AB4204460F4678D32571002D7DD09F
:100840000025AC4604F108064FF0040E07EB0E0835
:10085000D8F8000008F1030A0190019800F104099A
:10086000B9F1040F08D95346C11C414413F8012FB4
:100870008B4203F8012CF9D108EB000282F803C087
:10088000C4F80CA018F80930D4F81880236192F845
:100890000590290143EA0923236192F806900C3060
:1008A00043EA0943236192F80790864443EA0963C7
:1008B0002361137A08EB0100636192F80990013516
:1008C00043EA0923636192F80A90EDB243EA0943CF
:1008D0006361D27A43EA02636361F368D6F800A0E9
:1008E000D6F80490B26848F801A0C0F8049082607D
:1008F000C3602379AB42A9D80EF101050EF10201C4
:100900000EF103020EF1040017F80E30E3617D5D75
:1009100043EA0523E361795C43EA0143E361BA5C9E
:1009200043EA0263E36102B0BDE8F0878069290110
:1009300003F072FA2571A061002D81D108200722F1
:10094000062105254FF0040EDEE700BF2DE9F04F2C
:10095000037A00260B704E708E70CE70037A83B0CF
:1009600080468946002B00F08480DFF820A14FF0FC
:10097000040B2AE0606807F04EFB074602AB43F821
:10098000040D18683A4649F80B006168281D06F006
:10099000D3FBA368E9190B71A36807F10C001B0ACC
:1009A0004B7163898B71E37ACB71E3680B72E368F7
:1009B0001B0A4B72E3898B72E37BCB72013698F88A
:1009C0000830F6B2B34283440DD9D8F81C40330145
:1009D000E2581C44136809EB0B055345CAD0204666
:1009E00029469847EAE70BF10401081D0BF10506BB
:1009F0000BF106050BF107040BF1010C0BF1020ED4
:100A00000BF10307D8F82020002309F80B20D8F8B1
:100A10002020120A09F80C20B8F8222009F80E202C
:100A200098F8232009F8072098F8242009F80120D5
:100A300009F8063009F8053009F8043098F8242040
:100A4000A2B109EB0005D8F82820D9B232F811205C
:100A500009EB0001140A05F813204C70013398F8D3
:100A60002410DAB2914200F10200ECD803B0BDE8E4
:100A7000F08F082107274FF0060E4FF0050C4FF0BE
:100A8000040B0B240C200A250926BBE76102000099
:100A90002DE9F04F037A00260B704E708E70CE70E9
:100AA000037A83B080468946002B00F08980DFF806
:100AB0002CA14FF0040B2AE0606807F0ACFA07465F
:100AC00002AB43F8040D18683A4649F80B00616818
:100AD000281D06F031FBA368E9190B71A36807F123
:100AE0000C001B0A4B7163898B71E37ACB71E3684D
:100AF0000B72E3681B0A4B72E3898B72E37BCB7248
:100B0000013698F80830F6B2B34283440DD9D8F8CC
:100B10001C403301E2581C44136809EB0B05534594
:100B2000CAD0204629469847EAE70BF10402101D77
:100B30000BF105060BF106050BF107040BF1010C97
:100B40000BF1020E0BF10307D8F82030002109F851
:100B50000B30D8F820301B0A09F80C30B8F82230D6
:100B600009F80E3098F8233009F8073098F8243047
:100B700009F8023009F8061009F8051009F8041000
:100B800098F82430CBB181444B46D8F82C20CCB215
:100B900052F824204C1C150E170A160C09F82120B7
:100BA0005F709E70DD7098F82450E2B2954200F1BB
:100BB000040003F104032146E7D803B0BDE8F08F39
:100BC000082207274FF0060E4FF0050C4FF0040BDC
:100BD0000B240C200A250926B6E700BF610200009D
:100BE0002DE9F047037A0D7882B0AB4204460F46F8
:100BF000C0F09D802572002D00F0A2800025AC463B
:100C000004F10C064FF0040E07EB0E08D8F80000B4
:100C100008F1030A0190019800F10409B9F1040FE9
:100C200008D95346C11C414413F8012F8B4203F8E5
:100C3000012CF9D108EB000282F803C0C4F810A01F
:100C400018F80930D4F81C80636192F805902901E6
:100C500043EA0923636192F806900C3043EA0943A2
:100C6000636192F80790864443EA09636361137AEB
:100C700008EB0100A36192F80990013543EA0923CA
:100C8000A36192F80A90EDB243EA0943A361D27AD4
:100C900043EA0263A361F368D6F800A0D6F8049093
:100CA000B26848F801A0C0F804908260C360237A5B
:100CB000AB42A9D80EF10402151D0EF101060EF18A
:100CC00002000EF1030117F80E3094F824E02362BD
:100CD000BE5D43EA06232362385C43EA0043236295
:100CE000795C43EA01632362BE5CB64530D384F885
:100CF0002460C6B17B1904F12606C7F10207002261
:100D000058781978A56A41EA0021E1843188501C9D
:100D100025F8121094F82410C2B2914207EB030593
:100D200003F10203ECD8284602B0BDE8F087C069A1
:100D3000290103F071F82572E061002D7FF45EAFA8
:100D400008220721062005264FF0040E0C25BAE7DD
:100D5000A06A710003F060F8A062C8E72DE9F04FC7
:100D6000037D0D7883B0AB420446884600F10C0940
:100D7000C0F09B802575002D00F0A0800025AA46BC
:100D800004F118074FF0040E08EB0E06306806F168
:100D9000030B0190019800F1040CBCF1040F08D979
:100DA0005B46C11C314413F8012F8B4203F8012C20
:100DB000F9D1321882F803A0C4F81CB016F80C3030
:100DC000A66A236292F805C0290143EA0C23236234
:100DD00092F806C00C3043EA0C43236292F807C035
:100DE000864443EA0C632362137A7018636292F8B4
:100DF00009C0013543EA0C23636292F80AC0EDB2E0
:100E000043EA0C436362D27A43EA02636362FB689B
:100E1000D7F800B0D7F804C0BA6846F801B0C0F8F7
:100E200004C08260C360237DAB42ADD80EF10402E2
:100E3000151D0EF101060EF102000EF1030118F866
:100E40000E3094F83070E36218F8066043EA062327
:100E5000E36218F8000043EA0043E36218F8011067
:100E600043EA0163E36218F80260B7422ED384F8C4
:100E70003060A6B1A844002304F1320598F80110AF
:100E800018F8022B606B42EA012262862A88591CFC
:100E900020F8132094F83020CBB29A42EED848467E
:100EA000A36B03B0BDE8F04F1847806A290102F038
:100EB000B3FF2575A062002D7FF460AF08220721E3
:100EC000062005264FF0040E0C25B8E7606B710074
:100ED00002F0A2FF6063CAE72DE9F047037A0D78BC
:100EE00082B0AB4204460F46C0F0A3802572002DAD
:100EF00000F0A8800025AC4604F10C064FF0040E6B
:100F000007EB0E08D8F8000008F1030A01900198D9
:100F100000F10409B9F1040F08D95346C11C41443A
:100F200013F8012F8B4203F8012CF9D108EB0002D2
:100F300082F803C0C4F810A018F80930D4F81C8057
:100F4000636192F80590290143EA0923636192F8ED
:100F500006900C3043EA0943636192F80790864497
:100F600043EA09636361137A08EB0100A36192F815
:100F70000990013543EA0923A36192F80A90EDB282
:100F800043EA0943A361D27A43EA0263A361F368A7
:100F9000D6F800A0D6F80490B26848F801A0C0F8CE
:100FA00004908260C360237AAB42A9D80EF1040298
:100FB000161D0EF101050EF102000EF1030117F8E6
:100FC0000E3094F824E023627D5D43EA052323621A
:100FD000385C43EA00432362795C43EA016323629D
:100FE000BD5CAE4536D384F82450F5B1BB1904F18D
:100FF0002805C7F1040700209A785E781978120452
:1010000042EA0622DE780A4342EA0662A2622E68BB
:10101000E26A411C42F8206094F82420C8B282425F
:1010200007EB030603F10403E6D8304602B0BDE83F
:10103000F087C069290102F0EFFE2572E061002D02
:101040007FF458AF08220721062005254FF0040E33
:101050000C26B4E7E06AA90002F0DEFEE062C2E717
:101060002DE9F047632984B00F46044603DD90F86C
:10107000FC55002D4AD0136810461B6804F2273136
:10108000984785B2C2B24FEA152C0CEB020E6FEAFC
:101090000E0EF9B204F2253605F226304FF0FF09A4
:1010A0004FF0FE0847F3072784F82223334684F8DD
:1010B00024E384F823C3204484F8209384F8218314
:1010C00084F8251384F82673002201E013F8011F29
:1010D00083420A44FAD1D243EB1D08359BB2ADB22C
:1010E0002344B5F5007F83F8202313D804F5487610
:1010F00065B16B1E04F144071E4404F21F3414F85A
:10110000011F384604F0EAFAB442F8D1284604B088
:10111000BDE8F0873149324D0322236801910395E0
:101120008DF808201B682F498B4250D104AB382121
:1011300043F8101D186884F82723C4F8280305F124
:10114000300C04F54B77AE46BEE80F00E64538603C
:101150007960BA60FB6005F1100507F11007F2D164
:1011600003CD4FF0000E4FF0070C4FF0FF0A4FF089
:10117000FE094FF03D08C22579603860734662462B
:1011800004F2633184F823E384F826E384F825C36A
:1011900084F820A384F8219384F8228384F82453CC
:1011A00001E016F8012F8E421344FAD1DB4304F11B
:1011B000440684F8643304F21F3504F5597415F8B5
:1011C000011F304604F08AFAA542F8D103E0204618
:1011D000072101AA98474FF0FF3597E7288C0000B8
:1011E000B48E00006110000038B5074D00242B6854
:1011F0001859043403689B69984710B9142CF6D128
:1012000038BD012038BD00BFBC080010164B10B51A
:101210001868164C036821685B6800229847144BD5
:1012200061681868002203685B689847114BA168E1
:101230001868002203685B6898470F4BE1681868DC
:10124000002203685B6898470C4B216918680022EC
:1012500003685B68984702E00A2003F0B7FAFFF7DB
:10126000C3FF0028F8D110BD6C0800101C0100104D
:10127000B0080010DC080010B8080010B408001016
:101280002DE9F041DFF848800E4F0F4E0F4D00243E
:101290002B6858F8041B18590368DB6898472B68BB
:1012A00057F8041B185903681B6998472B6856F8B0
:1012B000041B1859043403689B689847142CE7D121
:1012C000BDE8F081F400001008010010BC08001017
:1012D000CC0000102DE9F04F8046C54BC54991B0B8
:1012E000002200F5B06700F21C5B0A910C930D938D
:1012F0000E93ADF82C200F9201975BF8043F002B62
:1013000000F0BF8058681C6801689A680C948B686C
:10131000ADF82C209847DBF800300D905868036832
:10132000DB689847D8F80030DBF800104FF4007203
:101330000E901B680D690F92AF4A8246934240F0AF
:101340009481632D04DD98F8FC35002B00F0998022
:10135000BDF82C300C9C1A0A88F8273388F828230B
:10136000204606F058FE064610AB43F82C0D1868D0
:1013700021463246C8F8290308F22D3005F0DCFE7C
:1013800010AB0D9F1C46384606F045FE23468146AD
:10139000069053F8280D08F227340393B31D0A363C
:1013A000E05039464A46A01905F0C6FE504606F000
:1013B00032FE0346079010AFB14457F8240D09F1EF
:1013C000040644F8090051461A46A019029305F094
:1013D000B3FE029B4FF0000EF018061DB1B24FEAAB
:1013E000112AF6B20AEB060C6FEA0C0C04F800E0C6
:1013F00004EB0009022089F802E089F803E089F88B
:10140000010008F22533724601F22630FF2488F8E5
:1014100024C34FF0FE0E5FFA85FC45F307250293C7
:1014200088F823A388F82263404488F8204388F88A
:1014300021E388F825C388F8265301E013F801CF8B
:1014400083426244FAD1D243C81D01F1080380B23D
:101450009BB208EB0001B3F5007F81F8202300F276
:10146000238108F5487563B1013B1D4408F144062A
:1014700008F21F3414F8011F304604F02FF9AC4273
:10148000F8D1019B9B457FF438AF1F4608F2E45327
:10149000029357F8040F002800F0DD80826803688B
:1014A00041680C929A68ADF82C1054498A4240F079
:1014B000F680534A0D92DA6852498A4240F0EA8037
:1014C000514A0E925B68514AD8F800404FF40071BF
:1014D000934224680F9140F0DA80C56BDFF81891D1
:1014E0004C4540F0CB80632D04DD98F8FC35002B93
:1014F00000F0B180BDF82C300C9E1A0A88F8273312
:1015000088F82823304606F086FD044610AB43F8E1
:101510002C0D186831462246C8F8290308F22D30F0
:1015200005F00AFE0D9E10AB3046019306F073FDE8
:101530008346019B069053F8280D04F10A0A019393
:10154000A31D08F22734E0505A46314604EB0A0046
:1015500005F0F2FD0E9910AE0846039106F05BFD12
:1015600003460790D34456F8240D0BF1040A44F8BF
:101570000B0003991A4604EB0A00039305F0DCFD07
:10158000039B0F980AEB030101F1040E1FFA8EF280
:101590004FEA122B5FFA8EFE0BEB0E0C6FEA0C0C6F
:1015A000605404EB010A010A8AF80110010C000ED4
:1015B0008AF802108AF8030008F22533FE2002F2AE
:1015C0002631FF2488F824C35FFA85FC45F30725FC
:1015D00088F82103039388F823B388F822E3414471
:1015E00088F8204388F825C388F82653002011E0A6
:1015F000EC8E0000108C0000611000003902000029
:10160000348E000041020000508E000035020000C0
:1016100013F801CF8B426044FAD1C043D11D02F1CF
:10162000080389B29BB208EB0102B3F5007F82F890
:10163000200300F2978008F5487563B1013B1D4413
:1016400008F1440608F21F3414F8011F304604F074
:1016500045F8AC42F8D1029B9F427FF41AAF0123B8
:1016600088F8FC3511B0BDE8F08F294640460AAA3B
:101670009847019B9B457FF440AE06E729464046CC
:101680000AAAA047029B9F427FF403AFE7E798476F
:10169000054623E7904702463868036811E79047FC
:1016A00002463868036805E7624963480322D8F8B0
:1016B0000030079109908DF820201B685F498B420C
:1016C00040F0AD8038230693039B5B4C186888F884
:1016D0002723C8F8280308F54B7526460FCEEB6084
:1016E000574B28609E426960AA6004F1100405F11E
:1016F0001005F2D103CC00260727029B4FF0FF0E06
:10170000286069603D20C221FE2588F824133246F6
:101710003C4688F8236388F8266388F8257388F8A0
:1017200020E388F8215388F8220308F2633101E0AE
:1017300013F8014F8B422244FAD1D24308F14406F8
:1017400088F8642308F21F3408F5597514F8011F4E
:10175000304603F0C3FFAC42F8D1019B9B457FF4B8
:10176000CCAD92E6334934480322D8F800300990D2
:1017700007918DF820201B684B4555D138230693DF
:10178000019B2D4C186888F82723C8F8280308F512
:101790004B7526460FCEEB60294B28609E42696050
:1017A000AA6004F1100405F11005F2D103CC002663
:1017B0004FF0070E039B4FF0FF0C286069603D203F
:1017C000C221FE2588F824133246744688F8236324
:1017D00088F8266388F825E388F820C388F8215321
:1017E00088F8220308F2633101E013F8014F8B42BD
:1017F0002244FAD1D24308F1440688F8642308F25F
:101800001F3408F5597514F8011F304603F066FFC0
:10181000AC42F8D1029B9F427FF43BAE1FE73A46B1
:101820004046072198472CE6324640460721984714
:1018300011E700BF288C0000B48E0000611000008A
:10184000E48E00002DE9F04F044600F5827A8BB05B
:10185000504603F07DFF42F6F822D4F80436804665
:10186000C31A934284BF002384F8FC35D4F8E835CA
:1018700033B1D4F8083683423CBF0023C4F8E835BE
:1018800004F1040B584602F069FC064678B194F85E
:10189000FC0548B140F6C412D4F80036C3EB080387
:1018A000934200F2CF8100200BB0BDE8F08F584684
:1018B000012102F0DBFA0028E9DBD4F8F835D4F88E
:1018C000E8550344072DC4F8F83500F0FE8055B9FB
:1018D000FF2840F00E81012208F11403C4F8E82526
:1018E000C4F80836CEE7012D00F01281022D00F079
:1018F0006781032D00F06E81042D00F07581052DA8
:1019000000F08181062D00F08681082DBAD1C94AE8
:1019100000211A408A42C4F8E815C0F2F781FF2A74
:10192000B0D1D4F8F035002B00F013830A2B00F06F
:10193000A782062B00F0F8810B2B00F0F18104EB5D
:101940008303D3F8F453002D9CD02B6804F59072D8
:1019500001921B68B84A934240F0EE8294F82061ED
:101960002B7D05F10C02B3420292C0F0DF822E758E
:10197000002E00F0E582042307AACDF810809C46D3
:1019800090460594019C002705F11806CDF80CA09F
:1019900004EB0C0EDEF800000EF10309C8F800009D
:1019A000079800F1040ABAF1040F08D94B46C11C8C
:1019B000714413F8012F8B4203F8012CF9D14FF039
:1019C00000030EEB0002D370C5F81C901EF80A301D
:1019D0000C302B6292F80590844443EA09232B6271
:1019E00092F80690D5F828E043EA09432B6292F872
:1019F0000790390143EA09632B62137A01376B625E
:101A000092F80990FFB243EA0920686292F80A90BE
:101A10000EEB010340EA09406862D27A40EA0260B4
:101A20006862D6F800A0D6F80490B068F2684EF864
:101A300001A0C3F804909860DA602B7DBB42A7D860
:101A40006346DDF80CA01A1DDDF81080059C0CF132
:101A5000010E161D981C0CF1030C019995F83070BD
:101A6000CB5CEB6211F80EE043EA0E23EB62085CFC
:101A700043EA00430846EB6211F80C1043EA0163A5
:101A8000EB6210F802904F45C0F0498285F8309023
:101A9000B9F1000F15D0019B05F1320733441E4602
:101AA0000020727816F8023B696B43EA02236B86CA
:101AB0003B88421C21F8103095F83030D0B2834278
:101AC000EFD8AB6B02989847DCE6D4F8F425D4F84D
:101AD000EC35511C013B2244C4F8F41582F8200176
:101AE000C4F8EC35002B7FF4CDAE0823C4F8E835FC
:101AF000C8E6504603F02CFEC8EB000005287FF630
:101B0000C1AE6FF0010084F8FC550BB0BDE8F08F5A
:101B1000FE2874D094F8FC35C4F8E865002B7FF4F7
:101B2000B1AE4649226807911568454A0893954227
:101B3000099340F0E1800A201A46FF27FE26082577
:101B400084F8273384F8283384F8293384F82A3337
:101B500084F82B3384F82C3384F82D3384F82E3317
:101B600084F8233384F82633F723014684F82503C9
:101B700084F8243384F8207384F8216384F8225392
:101B800004F2253304F22E3001E013F8011F8342E2
:101B90000A44FAD1D24304F1440784F82F2304F213
:101BA0001F3504F22F3615F8011F384603F096FD55
:101BB000B542F8D1504603F0CBFDC4F8140161E6FC
:101BC0000323C4F8EC05C4F8F465C4F8F805C4F8B8
:101BD000E83557E6D4F8EC35042203EB0020C4F8CE
:101BE000EC05C4F8E8254DE6124A1A40002A7EDBCF
:101BF000FF2A0CBF05230023C4F8E83542E6022380
:101C0000C4F8E8353EE60623C4F8F005C4F8F80544
:101C1000C4F8E83536E6D4F8F035D4F8EC2503EB13
:101C200000230721C4F8F035C4F8E815002A3FF472
:101C30005CAF27E6FF0000805D0D0000F88B000020
:101C400061100000D14A236807921D68D04A002322
:101C50009542089309935ED10A204FF0FF0EFE27AC
:101C60000826F7251A46014684F8273384F82833D6
:101C700084F8293384F82A3384F82B3384F82C33FE
:101C800084F82D3384F82E3384F8233384F82633F4
:101C900084F8250384F820E384F8217384F8226310
:101CA00084F8245304F2253304F22E3001E013F8B3
:101CB000011F83420A44FAD1D24304F1440784F855
:101CC0002F2304F21F3504F22F3615F8011F384672
:101CD00003F004FDB542F8D1504603F039FDC4F8D5
:101CE00014010020C4F800860BB0BDE8F08F013A63
:101CF00062F0FF0201327BE70A2107AA2046A847CB
:101D0000504603F025FDC4F81401BBE5013A62F02A
:101D1000FF02013203E620460A2107AAA847DBE7B3
:101D2000002384F8FC35ADE594F8205194F814367E
:101D300004F59076AB4206D2D4F81C06A90002F056
:101D40006BF8C4F81C0684F81456002D00F01A81B4
:101D5000304604F5C36700210425837990F805E037
:101D600002791B0443EA0E2390F807E0134343EA89
:101D70000E63C4F818363A68D4F81C36043543F8B4
:101D8000212094F814360131C9B28B4200F10400CD
:101D9000E3D82F1DB946755D94F82036AB4206D2C4
:101DA000D4F82806A90002F037F8C4F8280684F809
:101DB00020562DB306EB090104F224670020C6F17A
:101DC00004058B7891F801E00A781B0443EA0E239E
:101DD00091F803E0134343EA0E63C4F82436D7F8BE
:101DE00000E0D4F82836421C43F820E094F820366E
:101DF000D0B2834205EB010901F10401E1D84F465D
:101E0000F55D94F82C36AB4206D2D4F83406A9001E
:101E100002F002F8C4F8340609F1040384F82C56E1
:101E200055B3002507AAAE46944604F5C667F05898
:101E3000191DCCF80000079A0A448A4209D90846BD
:101E40000333334413F8019F0130824203F8019CAD
:101E5000F8D84B1E3344B11801F801ECC4F8303601
:101E60003868D4F83416134641F8250094F82C2627
:101E70000135EDB2AA42DAD8012384F80C3601E527
:101E8000504603F065FC94F8226194F8263194F8EA
:101E9000217194F825E1360494F8201146EA0727C9
:101EA0001A0494F8236194F82431D4F8145142EAC6
:101EB0000E22394394F827711A43451B41EA066301
:101EC000504642EA07675E1E03F042FC314B31493F
:101ED000A3FB0523DFF8C4904FF47A72B9449B0941
:101EE000A1FB001702FB13552B49BF0901FB05910C
:101EF00002FB17022848334400FB1212DB1BC4F814
:101F00001C21C4F8183104F58C7004F58E7101F0B1
:101F100097FF504603F01CFCC4F80406B2E4686B5B
:101F20004FEA490101F078FF6863AFE5A86A310123
:101F300001F072FFA8621AE5284601999847A1E4CA
:101F400008224FF0070C06204FF0050E04230C2644
:101F500083E50E492268079108930A2109932046D8
:101F6000136807AA9847504603F0F2FBC4F814011F
:101F70002046FFF7AFF9C4F80086C4F804864FF096
:101F8000FF3091E40827B946042504E7F88B0000E8
:101F900061100000D34D621040420F0000CA9A3B0E
:101FA0002DE9F041054611C8241AA610884620D014
:101FB0007700BE422DD96FF00306304603F075FD61
:101FC000074695E81100241AE742D8F8003003D0FC
:101FD0003B5195E81100241AA30813D104343C4462
:101FE00008B103F060FD3E44AE602F606C60BDE858
:101FF000F0810426304603F058FD074695E81100AD
:10200000241AE1E701462246384605F0A0F8286880
:10201000E4E7B7F1804FCED2F600002FD4D0E9E745
:1020200038B5436884680246A34206D009680BB1FC
:10203000196043680433536038BDFFF7B1FF38BD02
:102040002DE9F04F8FB00EAB1A46A34BA3481B6887
:10205000DFF8D0A242F80C3D144611460492FFF777
:10206000DFFF9F4B21461B689C480B93FFF7D8FF6F
:102070009C4B21461B6899480B93FFF7D1FF9A4B65
:1020800021461B6895480B93FFF7CAFF974B2146E3
:102090001B6892480B93FFF7C3FFFFF7F1F8FFF7B8
:1020A000B5F80AF10400DAF8001103F099FA0022F9
:1020B0001346CAF8E825CAF8EC25CAF8F425CAF888
:1020C000F0250AF5B06252F8041F19B10133192B3B
:1020D000F9D106E0864A0AEB83016433C1F884250E
:1020E0005360844D2023802085F8243001F08EFE3B
:1020F0000446814AE862002352F8041F19B10133F3
:10210000192BF9D108E07D4A03F5A4717D33C2F89B
:102110000CA04AF821209360774A002352F8041F4C
:1021200019B10133192BF9D108E0754A03F5A471EF
:102130007D33C2F80CA04AF821209360714A052330
:10214000142082F8243001F061FE6E4B6A4AD86296
:10215000002352F8041F29B10133192BF9D16A4B1E
:1021600002930AE0684A1046029203F5A4727D3396
:10217000C0F80CA04AF822008360231F00227C34A0
:1021800043F8042FA342FBD1604BDFF850B1039317
:102190005F4B00935F4B0193009E306803F002FE9B
:1021A000019B044618680D4603F0EAFD0B46024603
:1021B0002946204603F098FC04F082F8554B8046EF
:1021C0001F46019333461860514B00241E4600936E
:1021D000DBF80030404653F8245004F095FB2B68A0
:1021E00001465B68284600229847DBF80030454AE4
:1021F00053F82400D2F82C800368A5001B6A984786
:1022000048F824000134052C05F104052DD0706830
:1022100003F0C8FD804657F8040F894603F0B0FD6F
:1022200002460B464046494603F05EFC04F048F87F
:102230008046394BC6F80480585904F04BF9814662
:102240004046494604F056FB10B1C846C6F8049013
:10225000324B585904F03EF94146054604F04AFB1A
:1022600008B1A84675600436B2E7029AD468966849
:1022700023682B4A1B68934240F0BA82632E03DD29
:1022800094F8FC35002B71D01E4B04F227311B68EB
:102290001C481B68984787B2C1B2380A4218D2431B
:1022A00084F82423FF2204F2253584F8221384F8CD
:1022B000230307F22631FE2084F82023F2B246F3EE
:1022C000072684F821032B46214484F8252384F82B
:1022D000266300202AE000BF6C080010BC08001034
:1022E000B0080010DC080010B8080010B408001096
:1022F00070080010E0080010E4060010C808001084
:10230000440800101408001000080010E804001031
:10231000E000001058080010F4000010CC0000107D
:1023200061100000C801001013F8012F8B42104407
:10233000FAD1C043FA1D07F1080392B29BB22244BE
:10234000B3F5007F82F8200300F2608204F548753F
:1023500063B1013B04F144061D4404F21F3414F838
:10236000011F304603F0BAF9AC42F8D1D04C04F565
:10237000827003F0EDF942F6F822DAF8043681466D
:10238000C31A934284BF002384F8FC35DAF8E83599
:10239000C74A33B1D2F80836984284BF0023C2F846
:1023A000E835C34C04F22E38C14D281D01F0D6FE8D
:1023B000064680B19AF8FC35BD4843B140F6C412D8
:1023C000D0F80036C3EB0903934200F2C6811E2009
:1023D00002F0FCF9E0E6281D012101F047FD00288C
:1023E000E8DBD4F8F835D4F8E8750344072FC4F8CF
:1023F000F83500F0FD8057B9FF2840F00D8101222B
:1024000009F11403C4F8E825C4F80836CCE7012F15
:1024100000F00E81022F00F06181032F00F068812F
:10242000042F00F06F81052F00F07B81062F00F054
:102430008081082FB8D19F4A00211A408A42CAF8E9
:10244000E815C0F2DA81FF2AAED1DAF8F035984EFD
:10245000002B00F054830A2B00F0FC82062B00F0C6
:102460002E820B2B00F0CE8104EB8303D3F8F453C0
:10247000002D99D02B68904A1B68934240F00E853E
:1024800094F820612B7D05F10C02B342069204D230
:10249000A86A310101F0C0FCA8622E75002E00F080
:1024A000948504239C46002605F1180ECDF81C9057
:1024B000CDF814A0059B0CF590771F443868049B59
:1024C00007F1030A18600B9800F10409B9F1040F31
:1024D00008D95346C11C394413F8012F8B4203F825
:1024E000012CF9D14FF000033A18D370C5F81CA0A5
:1024F00017F809300C302B625779844443EA0723DC
:102500002B629779D5F828A043EA07432B62D77945
:10251000310143EA07632B62137A01366B62577A03
:10252000F6B243EA07206862977A0AEB010340EAB1
:1025300007406862D27A40EA02606862DEF8009082
:10254000DEF80470DEF80800DEF80C204AF801908E
:102550005F609860DA602B7DB342ABD86346DDF8EC
:102560001C901A1DDDF814A0161D5F1C981CD91CA8
:10257000534493F820315744EB6297F8207150444C
:1025800043EA0723EB6290F82001514443EA0043F9
:10259000EB6291F82011524443EA0163EB6292F836
:1025A000207195F83030BB4204D2686B790001F09D
:1025B00033FC686385F83070B7B10AEB0600002180
:1025C00005F1320690F8212190F82031023043EADB
:1025D00002236B8637886B6B4A1C23F8117095F8C1
:1025E0003030D1B28B42EDD8AB6B06989847DBE622
:1025F000D4F8F425D4F8EC35511C013B2244C4F83E
:10260000F41582F82001C4F8EC35002B7FF4CCAE31
:102610000823CAF8E835C7E605F5827003F098F894
:10262000C9EB000005287FF6BFAE85F8FC75CEE645
:10263000FE2872D094F8FC15C4F8E86500297FF4F0
:10264000B3AE0A200B4684F8271384F8281384F8C5
:10265000291384F82A1384F82B1384F82C1384F894
:102660002D1384F82E1384F8231384F82613FE21E7
:102670000246FF2684F8250384F821130820F72159
:1026800005F2253584F8206384F8220384F82413A6
:1026900001E015F8012F45451344FAD1DB43039AB5
:1026A0008AF82F33154602F10F07FF2108E000BF1B
:1026B000C8010010FF0000805D0D000015F8011F2B
:1026C000DA4E06F1440003F009F8BD42F6D106F5F2
:1026D000827003F03DF8C6F8140165E60323C4F8E0
:1026E000EC05C4F8F465C4F8F805C4F8E8355BE611
:1026F000D4F8EC35042203EB0020C4F8EC05C4F850
:10270000E82551E6CA4A1A40002A21DBFF2A0CBFFD
:1027100005230023CAF8E83546E60223C4F8E83565
:1027200042E60623C4F8F005C4F8F805C4F8E83515
:102730003AE6DAF8F035DAF8EC2503EB0023072166
:10274000CAF8F035CAF8E815002A3FF461AF2BE665
:10275000013A62F0FF020132D8E700230A2480F830
:10276000273380F8283380F8293380F82A3380F81B
:102770002B3380F82C3380F82D3380F82E3380F8FB
:10278000233380F826331A46FE2380F8254380F849
:1027900021332146F723FF25082480F8243380F8CD
:1027A000205380F8224300F2253300F22E3001E05E
:1027B00013F8011F83420A44FAD1D243039B8AF8DB
:1027C0002F231D4603F10F04FF2101E015F8011F1F
:1027D000964E06F1440002F081FFA542F6D106F5BF
:1027E000827002F0B5FFC6F80096C6F81401EEE557
:1027F000204631468F4A9847B8E5013A62F0FF0219
:10280000013220E6002384F8FC35CDE58A4B032213
:102810000B938A4B8DF830200D93236888491B68F1
:102820008B4240F0DA8338230A930A98834F84F866
:102830002723C4F8280304F54B76BE46BEE80F00F4
:10284000F360804B30609E457160B26007F1100705
:1028500006F11006F1D103CF30607160FF20FE2138
:102860004FF0000E072784F8200384F821133D2041
:10287000C2212B4684F8241372463D4684F823E394
:1028800084F826E384F8257384F8220304F2633184
:1028900001E013F8015F8B422A44FAD1D24304F1DC
:1028A000440684F8642304F21F3504F5597415F8BE
:1028B000011F304602F012FFA542F8D156E594F808
:1028C000205194F81436AB4206D2D4F81C06A90065
:1028D00001F0A2FAC4F81C068AF81456002D00F084
:1028E000E382DFF848A100275546042695F82631F3
:1028F00095F8251195F824211B0443EA012395F846
:102900002711134343EA0163CAF818364E4B2A1BBA
:102910001868DAF81C36013798509AF81436FFB266
:10292000BB4206F1040605F10405DFD8371D3D461C
:10293000564496F820619AF82036B34206D2D4F86D
:102940002806B10001F068FAC4F828068AF8206663
:102950001EB361190F46002691F8223191F821012A
:1029600091F820211B0443EA002391F8230113432B
:1029700043EA0063CAF82436344BCA1B1868DAF8F5
:102980002836013698509AF82036F6B2B34205F14F
:10299000040501F10401DFD82F46574497F8206160
:1029A0009AF82C36B34206D2D4F83406B10001F0BE
:1029B00033FAC4F8340604358AF82C668EB300273F
:1029C000BE46DDF810C005F590735AF803002E1DC1
:1029D000CCF800000B993144B1420CD9334605F5CF
:1029E000917222440AEB030090F8200101339942CE
:1029F00002F8010FF6D806F21F135344CAF8303616
:102A0000134B0AEB01021868DAF8343682F81FE13A
:102A100043F827009AF82C360137FFB2BB420D4627
:102A2000D1D801238AF80C36BEE400BFC8010010DB
:102A3000FF00008014080010288C0000B48E0000F5
:102A400061100000E48E0000E0070010EC070010A9
:102A5000F807001006F5827002F07AFE94F8222141
:102A600094F8211194F8263194F825E1120442EAF1
:102A700001221B0494F8241194F827C194F82071C2
:102A800043EA0E230B43D4F81451874994F823E109
:102A9000174343EA0C621144451B06F5827047EA6E
:102AA0000E670591069102F053FE804B7F49A3FB10
:102AB0000523A1FB001E4FF47A729B0902FB1355FC
:102AC0004FEA9E1E02FB1E000599794A013F02FB58
:102AD000051102FB10123B44CEEB030306F58C708C
:102AE00006F58E71C4F81C21C4F8183101F0A8F95C
:102AF00006F5827002F02CFEC4F8040654E486F851
:102B0000273386F8283386F8293386F82A3386F85F
:102B10002B3386F82C3386F82D3386F82E3386F83F
:102B2000233386F826331946FE230A2486F8202309
:102B300086F821330822F72386F8243386F82543C4
:102B400086F8222306F22E33204606F2253601E0CF
:102B500016F8010F9E420144FAD1C943554C8AF838
:102B60002F13A4F10F0303931D46FF2101E015F875
:102B7000011F514E06F1440002F0B0FDA542F6D10E
:102B800006F5827002F0E4FD06F21C53CDF81490B5
:102B900037469946C6F8140159F8043F002B00F057
:102BA000B38058689A680168069289681E688847E9
:102BB000D9F80030054658680368DB689847D9F8AB
:102BC00000300446D3F81080069AB8F1630F04DD94
:102BD0009AF8FC35002B00F09780C2F307233046AB
:102BE0008AF827238AF8283305F015FA0346099056
:102BF0000998324A314610601A463148069304F06B
:102C00009BFA284605F007FA069B0A9006462946D5
:102C10000A982C4D9A1DA85028460A33324618446B
:102C2000069304F089FA204605F0F5F90546049A62
:102C30000B90069B1068234A33441E1DD050214B35
:102C400021462A46981904F077FA71190B1D9CB297
:102C50004FEA142EDBB20EEB030C6FEA0C0C0020D3
:102C60005144022581F8285381F8270381F829036C
:102C700081F82A0302465FFA88F104F22630FF2623
:102C8000FE2548F307288AF822338AF824C38AF8F5
:102C900023E30D4B50448AF820638AF821538AF8C5
:102CA00025138AF8268313E000CA9A3BD34D62109D
:102CB00040420F00F7040010C8010010F10400109A
:102CC000F5040010EF040010ED04001013F8011FCC
:102CD00083420A44FAD1D243E11D04F1080389B2C8
:102CE0009BB25144B3F5007F81F8202300F2E080CD
:102CF00053B103F21F33BC4CFD1814F8011FBB483D
:102D000002F0ECFCAC42F8D1B94B99457FF444AFEA
:102D10006433A3F2E458643B994659F8040F002841
:102D200000F09E8090E88800B2499A6886688A42DE
:102D300040F0AE80B04DDA68B0498A4240F0A280DF
:102D4000AF4C5B68AF4A934240F09980C36B632BF2
:102D500004DD9AF8FC25002A00F08280C7F30722E0
:102D600030468AF827738AF82823069305F053F92A
:102D700007460990A44B0998314618603A46181D39
:102D800004F0DAF9284605F046F906460A909F4B0A
:102D90000A98BA1D0A37985029463246D81904F0C5
:102DA000CBF9204605F037F90546049B0B901868CF
:102DB0003744964B3E1DD85121462A46981904F0B7
:102DC000BBF9711901F1040E1FFA8EF4270A5FFA9C
:102DD0008EFE07EB0E0C6FEA0C0C069B0020514494
:102DE000022581F8285381F8270381F8290381F807
:102DF0002A030246D9B204F22630FF26FE258AF8BD
:102E0000237343F307278AF824C38AF822E3804B0D
:102E100050448AF820638AF821538AF825138AF8E7
:102E2000267301E013F8011F83420A44FAD1D2430A
:102E3000E11D04F1080389B29BB25144B3F5007F50
:102E400081F820237BD85BB103F21F33664C08EB7B
:102E5000030514F8011F654802F040FCAC42F8D1AC
:102E60006C4B99457FF459AFDDF814900123CAF8F3
:102E70000096CAF804968AF8FC35FFF7A8BA984776
:102E8000034664E790470446D9F80000036858E712
:102E900090470546D9F8000003684CE7284606F538
:102EA00090719847FFF780BA08273D4604263FE512
:102EB000594D5A4C0FCD0FC40FCD0FC40FCD0FC4B9
:102EC00095E80300032387F827333823C7F828330E
:102ED000FF2384E8030087F82033FE2387F821339B
:102EE0003D234FF0000E4FF0070C87F82233C2232A
:102EF00087F823E304EB0C027646E046373C87F87C
:102F000026E387F825C387F8243301E014F8018FFE
:102F100094424644FAD1F643414D8AF86463A5F1E0
:102F20004404FF2101E014F8011F304802F0D6FBF1
:102F3000AC42F8D12E4B99457FF42EAEE8E6364DE3
:102F4000364C0FCD0FC40FCD0FC40FCD0FC495E875
:102F50000300032388F827333823C8F82833FF23D6
:102F600084E8030088F82033FE2388F821333D23CA
:102F700000274FF0070E88F82233C22388F8237306
:102F800004EB0E023E46F446373C88F8267388F878
:102F900025E388F8243301E014F801CF9442664415
:102FA000FAD1F6431E4D8AF86463A5F14404FF216B
:102FB00001E014F8011F0D4802F090FBAC42F8D17B
:102FC000144B99457FF4A9AE4EE70822072106204D
:102FD000052704230C26FFF7CBBA20460721049AC5
:102FE0009847FFF7C3B900BFE70400100C020010B8
:102FF0004807001039020000348E00004102000032
:10300000508E000035020000F1040010EF040010A3
:10301000ED040010AC070010B48E0000F4040010A2
:103020002C0500102DE9F84F7C4B002518467C49F3
:103030007C4A1D605D609D6002F030FD642002F0FE
:1030400034FD04467849794A012300F033FC784B7B
:1030500064201C6002F029FD04467349734A022370
:1030600000F028FC734B64201C6002F01EFD044637
:103070006D496E4A032300F01DFC6F4B64201C60F9
:1030800002F013FD06466849684A042300F012FC6A
:103090006A4B64201E6002F008FD694C6249634A75
:1030A0000523074600F082FE2046664B664E6749C0
:1030B000674A40F8043B2B46376001F025F804F5D9
:1030C000827002F029FB4FF46143C4F8003104F52B
:1030D000827002F031FB29465E4B84F8FC55C4F83F
:1030E000103684F81456C4F81C5684F82056C4F8D8
:1030F000285684F82C56C4F8345604F21C5304F5B0
:10310000B06243F8041F9342FBD1534B002103F1FB
:10311000640243F8041F9342FBD1504B002103F596
:10312000007203F8011F9342FBD14D4B002103F5C0
:10313000007203F8011F93424FF00004F9D149498E
:10314000384A3F4802F0AAFC474B484A484F494E8C
:10315000494D9A63DFF83481DFF834A1DFF834E1B8
:10316000012246484649DFF830C1DFF83091DA6382
:10317000DFF82CB1434AC3F80080C3F80CA0DFF895
:103180002481C3F808E01C75DFF81CE11C625C6256
:103190009C62DC6283F830405C631F619E61DD618C
:1031A000DFF808A1384B47600472C66005614461CE
:1031B0008461C461046280F82440C462C0F800C025
:1031C000C9F80400C9F81040C9F800B0C1F800C03F
:1031D0004F600C72CE600D6181F82440147282F849
:1031E00024404C618C61CC610C62CC62C8F8041044
:1031F000C8F81040C8F800A0C2F800C05760D660F8
:10320000156154619461D4611462D462CEF80420D3
:10321000CEF81040CEF80030BDE8F88FBC080010A2
:1032200051020000C80000100FC0092010C0092082
:103230006C080010B0080010DC080010B80800107E
:10324000C8010010B88C0000B408001002C00920AA
:1032500003C00920408C000048070010E70200105E
:10326000E7040010B13200007008001019020000DD
:10327000708C0000588C0000EC8E0000E0080010FC
:103280001009001014080010148F0000D08C0000EA
:10329000888C0000F08E0000A08C0000C808001090
:1032A000FC8E00004408001000080010088F000089
:1032B00010B50446034B40F8043B00F0C7FE20461F
:1032C00010BD00BFB88C0000704700BF38B5044681
:1032D0000D4672B6806D01F025FE2946204602F0AB
:1032E000F1F804F1400002F005FA00210546A06D56
:1032F00001F02AFB62B6284638BD00BFA0F14000AD
:10330000FFF7E4BF02F0D8B8A0F14000FFF7FABF22
:1033100010B5044602F0C7FB204610BD10B50446A8
:10332000064B403003F1180103F14C022360216485
:10333000626402F0C1F9204610BD00BFC8920000CF
:10334000A0F14000FFF7EABFA0F14400FFF7E6BF9D
:1033500010B50446074B403003F1180103F14C024D
:1033600023602164626402F0A7F9204602F09BFB0F
:10337000204610BDC8920000A0F14000E8E700BF61
:10338000A0F14400E4E700BF38B504460D4602F062
:10339000D7F80B4BA56503F1200203F10801543364
:1033A000226463642160284601F090FAA06D022136
:1033B00001F0E6FAA06D002101F0C6FA204638BD02
:1033C000408F00000000000070B521F0004384B081
:1033D000044618460E4602F0E5FC11A3D3E900238B
:1033E00002F034FD02F044FF00210546304603F0B0
:1033F00063FA08B145F48065236803AE0020616874
:103400002A12019000968DF80C508DF80D201D6C3D
:10341000204620220223A84704B070BDAFF30080ED
:103420000000000000F88F400E4B70B5C1EB013179
:1034300083FB013284B0CB171144C3EB2123026814
:1034400003AE0025416843F30724009601958DF8EB
:103450000C308DF80D400223146C0622A04704B0F6
:1034600070BD00BFB7600BB60E4B70B5C1EB01313C
:1034700083FB013284B0CB171144C3EB21230268D4
:1034800003AE0025416843F30724009601958DF8AB
:103490000C308DF80D400223146C0822A04704B0B4
:1034A00070BD00BFB7600BB610B584B004AB03F8B5
:1034B000042D0468002200930192246C032201234E
:1034C000A04704B010BD00BF10B584B0026803ACC3
:1034D00041680094D46B01232E22A0479DF80C0074
:1034E00004B010BD10B584B0026803AC416800940C
:1034F000D46B02232422A0479DF80C209DF80D30A8
:103500004FF4967002EB03231BB200FB03F000287C
:10351000B8BF00F2FF30801202F0DCFF04B010BD33
:1035200010B584B0026803AC41680094D46B0123E9
:103530002B22A0479DF80C0002F0C8FF04B010BD7C
:1035400010B584B0026803AC41680094D46B0123C9
:103550002A22A0479DF80C0002F012FC0022034B27
:1035600002F09EFD02F0ACFE04B010BD000024404D
:1035700010B584B0026803AC41680094D46B022398
:103580004422A0479DF80C309DF80D0003EB00206D
:10359000A0F6FF0002F0F4FB05A3D3E9002302F03C
:1035A00055FC02F08DFE04B010BD00BFAFF30080EB
:1035B0003BDF4F8D976E723F10B584B004AB03F8BC
:1035C000041D04680022416800930192246C1822B3
:1035D0000123A04704B010BD70B5044684B008466E
:1035E0000C4902F0CBFF03F08FF903AE236880B2E1
:1035F0000025616840F30722009601958DF80C00C4
:103600008DF80D201D6C204622220223A84704B00D
:1036100070BD00BF00C07F4410B584B004AB02EBA6
:10362000410203F8042D0024026841688DE8180067
:103630000123146C0A22A04704B010BDF0B5FF238B
:1036400085B002250424FE27FB228DF803508DF857
:103650000440194600F148068DF800308DF801301D
:103660008DF802708DF805206C460DF1050501E01E
:1036700014F8011F304602F031F8AC42F8D105B021
:10368000F0BD00BF2DE9F043DCB2D2B21F46A31D4E
:10369000CDB213442B448046DB4389B0FF204FF06A
:1036A000FE094FF0040C4FF0020E8DF802508DF819
:1036B000064001468DF805208DF8073008F14806D0
:1036C0008DF800008DF801008DF814908DF803C07E
:1036D0008DF804E06C460DF1070501E014F8011FB8
:1036E000304601F0FBFFAC42F8D1154801F062F81A
:1036F000D8F80400FE281ED005371FD40DF10F05A1
:103700000024304601F0F6FF0134BC4205F8010FF9
:10371000F7DD9DF814009DF81340022C0BDD08AB7B
:10372000109A1C440E3C05AB013A13F8011FA3424A
:1037300002F8011FF9D109B0BDE8F083FE20EAE7E5
:10374000ACC5A7372DE9F041DE1C86B0C9B2F6B290
:103750000D9F7418012FE4B28DF80A100CBF211DC3
:10376000E11CD2B2C9B24FF0FF0E054611440CBFA6
:1037700004200320002B8DF80B608DF808E08DF8F5
:1037800009E00C9E8DF80C00C9B28DF80D200DDDFE
:1037900000200246B45C0132D2B206AF3844214464
:1037A000934200F80A4CC9B21046F3DCC9439E1D8F
:1037B00006AB3344002E03F8101C0CDB05F148085F
:1037C0000DF1070700240134404617F8011F01F0EE
:1037D00085FFA642F7DA0C4800F0ECFF6B6800208A
:1037E000FE2B8DF804000CD06C4648350DF1060612
:1037F000284601F07FFF04F8010BB442F8D19DF890
:10380000040006B0BDE8F081ACC5A7370368012904
:1038100010B54FF000010446DB680DD098472046F4
:1038200023684FF4B4711B699847236820469B684E
:1038300000219847002010BD9847236820461B6947
:103840000021F1E7F0B5A2F10207B7FA87F7184BAC
:10385000C1EB0131154683FB013285B0CB17114412
:10386000C3EB212302680DF10C0E7F09416843F37D
:1038700007260197CDF800E08DF80C308DF80D602B
:103880000223166C1E220446B047012D064602D0C4
:10389000304605B0F0BD236820469B699847002854
:1038A000F6D0236820469B6998470028F3D1EFE7BC
:1038B000B7600BB670B5044605461E4606480023A1
:1038C00044F8080B2046FFF75FFD2046034901F04E
:1038D00087FE6E60284670BDA88F000040420F0032
:1038E00070B521F0004384B0044618460E4602F03D
:1038F00059FA11A3D3E9002302F0A8FA02F0B8FCA8
:1039000000210546304602F0D7FF08B145F4806536
:10391000236803AE002061682A12019000968DF89A
:103920000C508DF80D201D6C204620220223A84744
:1039300004B070BDAFF300800000000000F88F40BD
:103940000E4B70B5C1EB013183FB013284B0CB1754
:103950001144C3EB2123026803AE0025416843F301
:103960000724009601958DF80C308DF80D40022348
:10397000146C0622A04704B070BD00BFB7600BB640
:103980000E4B70B5C1EB013183FB013284B0CB1714
:103990001144C3EB2123026803AE0025416843F3C1
:1039A0000724009601958DF80C308DF80D40022308
:1039B000146C0822A04704B070BD00BFB7600BB6FE
:1039C00010B584B004AB03F8042D04680022009302
:1039D0000192246C03220123A04704B010BD00BF54
:1039E00010B584B0026803AC41680094D46B012325
:1039F0002E22A0479DF80C0004B010BD10B584B075
:103A0000026803AC41680094D46B02232422A047CF
:103A10009DF80C209DF80D304FF4967002EB0323B7
:103A20001BB200FB03F00028B8BF00F2FF30801289
:103A300002F050FD04B010BD10B584B0026803ACB4
:103A400041680094D46B01232B22A0479DF80C0001
:103A500002F03CFD04B010BD10B584B0026803ACA8
:103A600041680094D46B01232A22A0479DF80C00E2
:103A700002F086F90022034B02F012FB02F020FC58
:103A800004B010BD0000244010B584B0026803AC3F
:103A900041680094D46B02234422A0479DF80C3067
:103AA0009DF80D0003EB0020A0F6FF0002F068F97E
:103AB00005A3D3E9002302F0C9F902F001FC04B028
:103AC00010BD00BFAFF300803BDF4F8D976E723F9C
:103AD00010B584B004AB03F8041D046800224168EB
:103AE00000930192246C18220123A04704B010BD5A
:103AF00070B5044684B008460C4902F03FFD02F060
:103B000003FF03AE236880B20025616840F30722FB
:103B1000009601958DF80C008DF80D201D6C204647
:103B200022220223A84704B070BD00BF00C07F441A
:103B300000207047F0B5FF2385B002250424FE273E
:103B4000FB228DF803508DF80440194600F1480619
:103B50008DF800308DF801308DF802708DF8052059
:103B60006C460DF1050501E014F8011F304601F027
:103B7000B5FDAC42F8D105B0F0BD00BF2DE9F04372
:103B8000DCB2D2B21F46A31DCDB213442B448046F3
:103B9000DB4389B0FF204FF0FE094FF0040C4FF0DB
:103BA000020E8DF802508DF8064001468DF8052072
:103BB0008DF8073008F148068DF800008DF80100F7
:103BC0008DF814908DF803C08DF804E06C460DF16B
:103BD000070501E014F8011F304601F07FFDAC42FB
:103BE000F8D1154800F0E6FDD8F80400FE281ED0F4
:103BF00005371FD40DF10F050024304601F07AFD82
:103C00000134BC4205F8010FF7DD9DF814009DF862
:103C10001340022C0BDD08AB109A1C440E3C05AB84
:103C2000013A13F8011FA34202F8011FF9D109B0AC
:103C3000BDE8F083FE20EAE7ACC5A7372DE9F041E7
:103C4000DE1C86B0C9B2F6B20D9F7418012FE4B223
:103C50008DF80A100CBF211DE11CD2B2C9B24FF081
:103C6000FF0E054611440CBF04200320002B8DF8E5
:103C70000B608DF808E08DF809E00C9E8DF80C00C3
:103C8000C9B28DF80D200DDD00200246B45C013272
:103C9000D2B206AF38442144934200F80A4CC9B26C
:103CA0001046F3DCC9439E1D06AB3344002E03F8D7
:103CB000101C0CDB05F148080DF107070024013446
:103CC000404617F8011F01F009FDA642F7DA0C483B
:103CD00000F070FD6B680020FE2B8DF804000CD006
:103CE0006C4648350DF10606284601F003FD04F840
:103CF000010BB442F8D19DF8040006B0BDE8F08194
:103D0000ACC5A7370368012910B54FF00001044680
:103D1000DB680DD09847204623684FF4B4711B69C7
:103D20009847236820469B6800219847002010BDD3
:103D30009847236820461B690021F1E7F0B5A2F1FE
:103D40000207B7FA87F7184BC1EB0131154683FB21
:103D5000013285B0CB171144C3EB212302680DF16A
:103D60000C0E7F09416843F307260197CDF800E068
:103D70008DF80C308DF80D600223166C1E2204465F
:103D8000B047012D064602D0304605B0F0BD23688D
:103D900020469B6998470028F6D0236820469B69F7
:103DA00098470028F3D1EFE7B7600BB670B504462B
:103DB00005461E460648002344F8080B2046FFF738
:103DC000E3FA2046034901F00BFC6E60284670BD03
:103DD000F88F000040420F00074A084808B500214C
:103DE000121A03F0CFF9AFF3008003F015F901F0D8
:103DF000F7FD02F0C3FD00BF500B0010AC01001036
:103E0000022801DC0120704701F0B2BDEFF3058309
:103E100003B100BE03F072B9EFF3058303B100BE36
:103E200003F0C4BEEFF3058303B100BE03F06EB927
:103E300008B5012002F0A2FD08B5FFF7F9FF00BFA9
:103E400010B40C68074A630AA2FB0323064ADB0985
:103E500002FB13420468234403605DF8044B0A60CC
:103E6000704700BF834B040000CA9A3BC36F70B514
:103E7000002B2DD0426E002A2AD000292FD0D0F856
:103E80008430002BFBD0436F0446D55C436FEDB20A
:103E900001334367426FC36F9A42A4BF0023436755
:103EA000D0F88420C36F9A4209D0C36D5E685A6807
:103EB00022F001025A6000F019F8E36D5E6072B6FC
:103EC000D4F88430013BC4F8843062B6284670BD13
:103ED000C26D137DDB07FCD51078C0B270BDD0F881
:103EE0008430002BCFD14FF0FF3070BDC36D70B563
:103EF000002B52D0C26F002A4FD0426E002A4CD005
:103F0000044600F15805002608E02846984794F832
:103F1000942094F861309A4239D0E36D1A7DD2072B
:103F200062D51B78DBB284F86130D4F88420E36F6B
:103F30009A424DD0626E8AB1E16E94F86130DBB284
:103F40005354D4F884300133C4F88430E36E013321
:103F5000E366E26EE36F9A42A8BFE666D4F8983053
:103F6000002BD2D1D4F89C30002BD0D0D4F8A02094
:103F7000D4F8A4002AB3C10725D403EB6000294676
:103F8000904794F8942094F861309A42C5D1D4F8BF
:103F9000E83053B328469847BFE7D0F8983000F18F
:103FA0005801002B31D0BDE8704008461847D4F8BE
:103FB000BC30002BABD0D4F8C020D4F8C400002A09
:103FC000D9D1C107A3D54010195818448A58D6E74B
:103FD00094F86130D4F8B820DBB2C4F88C30002AF1
:103FE000E5D02846904792E770BDD4F8EC00002851
:103FF00093D0D4F8F020D4F8F430AAB1D90716D46D
:1040000000EB63002946904787E7D0F89C309BB1CE
:10401000D0F8A020D0F8A400A2B1C4070DD403EBBF
:104020006000BDE870401047D9077FF576AF5B10A0
:10403000C15818448A58E5E770BD40101C58184410
:10404000A258EEE7C507F8D470BD00BFF8B5044626
:1040500090F8F820144D53B2406E5B0902F01F0235
:104060000121124E05F1180E05F14C07203301FA1B
:1040700002F22560C4F840E0676446F8232008B1E6
:10408000FFF7D0FEA06E08B1FFF7CCFE084B04F19D
:10409000400003F1180103F14C02236021646264C3
:1040A00001F00AFB2046F8BD4890000000E100E066
:1040B000C8920000A0F14400FFF7C8BFA0F1400083
:1040C000FFF7C4BF10B50446FFF7C0FF204601F05C
:1040D000EAFC204610BD00BFA0F14400FFF7F2BF8C
:1040E000A0F14000FFF7EEBF012200F05DB800BF75
:1040F000A0F14000F8E700BF0121FFF7B7BE00BF05
:10410000A0F14000F8E700BF38B50446154601F0BD
:1041100017FA114B002103F118000A46A16503F1BB
:104120004C0123606164206404F1A80304F58471E8
:1041300043F8102C43F80C2C43F8082C43F8042CBB
:1041400010338B42F4D14FF4807120462B460A463F
:1041500000F0A2F8204638BD48900000D0F8840056
:10416000B0FA80F040097047036810B41BB10846EC
:104170005DF8044B1847436893B18268C06832B158
:10418000C40706D403EB60005DF8044B1047C40776
:1041900006D540101C581844A2585DF8044B10472F
:1041A0005DF8044B704700BF836E70B504460D4642
:1041B00013B1D0F880303BB9E26D137D9806FCD581
:1041C000EDB21570002070BDC36D197D890605D54F
:1041D000D0F8880010B9EDB21D7070BDC2B15E6834
:1041E0005A6822F002025A60D4F88820D4F880304D
:1041F0009A4209D12046002100F0D2F8D4F8882054
:10420000D4F880309A42F5D0E36D5E60E36D05E04E
:10421000D4F88810D4F88020914220D05A68EDB2AA
:1042200022F002025A60236FA26ED55472B6D4F8FF
:1042300088300133C4F8883062B6236F0020013320
:104240002367226FD4F880309A42A8BF0023E26D22
:10425000A8BF2367536843F00203536070BD04F1A5
:10426000C800C4F8905004F15801FFF77DFF4FF0EB
:10427000FF3070BD4B68DA0705D55B100A68C1587E
:1042800018448A5810470A6800EB6300104700BFC3
:10429000012100F085B800BFF8B5044690F8F85049
:1042A00001266BB25B0905F01F05384F203306FA73
:1042B00005F547F8235016460D4600F00BF9E36D5F
:1042C000A465002B5ED0002EE66747DDE06FFFF7A8
:1042D0009DFD0021E16660666167C4F88410C4F842
:1042E0008C10002C42D02A4A2A4B261D2261E46001
:1042F000616123623046012200F09CFD002DC4F86C
:1043000080503DDDD4F88000FFF780FD224A002375
:104310002367A066A367C4F88830C4F89030FAB168
:10432000F4B11C4D0121A2626462E3623046A563D0
:104330000A4600F07FFD204600F0F8F894F8F830C7
:1043400001215AB203F01F0301FA03F30F480021C1
:10435000520984F8941040F82230F8BD0020B8E7E4
:1043600030460121002200F065FDE4E704263046D6
:104370002146224600F05EFD002DC4F88050C1DCCD
:104380000020C3E7054800F00FF9D4E700E100E0A2
:10439000ED3E000075420000914200009C9000003C
:1043A000C36D2DE9F041002B37D0D0F88030002BC1
:1043B00033D0836E002B30D00D460446002700F129
:1043C0005806D4F888301BB3E36D1A7D92061FD5CA
:1043D000A26FA16E8A5CD2B284F860201A70D4F801
:1043E0008830013BC4F88830A36F0133A367A26F04
:1043F000D4F880309A4200DBA767002DE1D0D4F8D2
:10440000A8307BB330469847D4F88830002BDBD1F6
:10441000D4F8883053B1BDE8F081D0F8A83000F16D
:1044200058017BB3BDE8F04108461847E26D04F13E
:104430005801536823F002035360D4F8D830002B9E
:10444000F0D1D4F8DC000028E5D0D4F8E020D4F88E
:10445000E430002A35D0DC0729D400EB6300BDE846
:10446000F0411047D4F8AC000028AAD0D4F8B0200E
:10447000D4F8B430A2B1D90714D400EB63003146AC
:1044800090479EE7D0F8AC30002BC4D0D0F8B020D5
:10449000D0F8B400CAB1C4070ED403EB6000DEE765
:1044A000D9078ED55B10C15818448A58E7E75B10CE
:1044B000C4581844A258D2E740101C581844A258B7
:1044C000CDE7DD07F3D4BDE8F081C507F4D4BDE83E
:1044D000F08100BF8368032B1BD8DFE803F0140EC4
:1044E00008020E4A0823C26580F8F83070470C4A6B
:1044F0000723C26580F8F83070470A4A0623C26570
:1045000080F8F8307047084A0523C26580F8F83013
:1045100070470023C36580F8F830704700C0094039
:10452000008009400000014000C00040C36D072228
:104530001A72704700B599B072B61749684600F014
:1045400057F806A8154900F053F80CA8144900F0D4
:104550004FF812A8134900F04BF8039A01990A9BEF
:1045600011600799109A19600D99159B1160139AA3
:1045700096201A6000F02AF9049A0199099B1160AB
:1045800007990F9A19600D99169B1160139A96203E
:104590001A6000F01BF9E0E732C0092034C009209E
:1045A00035C0092037C009200FB400B5064A83B0D2
:1045B00004AB53F8041B10681A46C068019302F05C
:1045C000B3FF012002F0DAF99801001038B50D466A
:1045D000044600F085F9013509D02046002100F09D
:1045E000A1F92046BDE83840032100F097B938BD55
:1045F00038B50D46044600F073F901350CD0236937
:10460000626820461A60012100F08CF92046BDE85E
:104610003840022100F082B938BD00BF70B50D46A8
:104620001646044600F05CF9013511D066B92369DD
:1046300062681A602046012100F074F92046BDE846
:104640007040022100F06AB9E36862681A60F1E71D
:1046500070BD00BF00F066B8431C10B5044618D00A
:104660000B68581C04D10FE051F80C3F5A1C0BD0BA
:104670009C42F9D12046896800F066F92046BDE8E1
:104680001040022100F07CB90248BDE81040FFF75D
:104690008BBF10BDCC90000088420AD0421C09D0CC
:1046A000013106D008B50448FFF77EFF4FF0FF3018
:1046B00008BD704708467047E09000000B685A1C20
:1046C00004D107E051F80C3F5A1C03D08342F9D1C2
:1046D0004868704718467047421C0ED008B50B68F2
:1046E0005A1C04D10AE051F80C3F5A1C06D09842DB
:1046F000F9D14868411C01D008BD70470248FFF756
:1047000053FF4FF0FF30F7E7F490000030B585B06D
:1047100018246D4620462946ABBE0446204605B007
:1047200030BD00BF024B186800F00100704700BFA9
:10473000F0ED00E0036870B5DB68054698476B68EC
:104740005B6883B12A681C6853689847201A002860
:104750006A680DDC50681168836853600029F0D0E6
:1047600040688847EBE72B68BDE870409B681847B6
:104770002B6852681B691068BDE87040184700BF7D
:1047800003685B68184700BF004870474891000005
:104790000148FFF7CFBF00BF4891000038B505467C
:1047A00000F062FD044600F05FFD001BA842FAD352
:1047B00038BD00BF08B5044901F0E0FE02F0A4F8DE
:1047C000BDE80840FFF7EABF002474494FF47A734C
:1047D00003FB00F0FFF7E2BF0C4B30B49D689A6812
:1047E0002B46B2F1805F0CD2094AC43553F8044B12
:1047F000AB4242F8044FF9D14FF080521346034CBC
:10480000A260103043F8201030BC704700ED00E08B
:10481000FCFFFF0F2B4A2023F0B4C2F8A031D2F8DE
:10482000A031980645D4274B002519460124AA201B
:10483000552202270B26C3F80471C3F8A851C3F808
:10484000AC51C3F80C41C3F88460C3F88C00C3F8C2
:104850008C20C3F88040C3F88C00C3F88C20D1F8BA
:104860008830184A5B01FAD511460324AA20552343
:10487000C2F88040C2F88C00C2F88C30D1F8883081
:10488000104A13F0407FF9D00F4900230520C2F8E9
:104890000801C2F8C410C2F8C8311368F0BC23F490
:1048A000704323F03A0343F4405343F03A03136058
:1048B0007047D2F8A0315906B5D4D2F8A0315906C4
:1048C000F7D5B0E700C00F40DE87280410B50446D6
:1048D000002100F039F804F01F040120A04010BDB1
:1048E0004A1C016018D038B50C4605460846002120
:1048F00000F02AF824F01F0104F01F020123934066
:1049000001F1180401F11C0001F11402A9606B60AF
:10491000EC6028616A6138BD704700BF006800F034
:104920002FB800BF41B1012905D1826843681168E1
:104930000B4313607047704782684168136823EA2D
:1049400001031360704700BF00F16040A0F51C2018
:1049500003099B0003F1804303F5303300F00F009F
:1049600010B440001C680322824024EA02021A604C
:104970001A6881400A431A605DF8044B704700BF13
:1049800000F16040A0F51C2043099B0003F1804327
:1049900003F5303330B400F01F029C6EC1F3800584
:1049A00005FA02F224EA02049C669C6E22439A668F
:1049B00095B903099B0003F1804303F5303300F000
:1049C0000F001C6C40000322824024EA02021A6499
:1049D0001A6C81401143196430BC7047174B9968B9
:1049E000C1F34201012918D0022914D1144A516F90
:1049F000013106D0D2F88010906F086092F8A610AE
:104A000091B1106F0E4BB8B193F8A63023B10D4B96
:104A100000211B68184770477047094B186F002822
:104A2000FAD0084B1B681847596821F001015960FA
:104A3000106F034B0028E7D1704700BF008009408A
:104A4000500900104C09001070B50368284CA342AF
:104A500047D03FDD274CA34229D004F58044A34230
:104A600042D1254C082632BB01290BD04268234C89
:104A7000C2EBC20204EBC20292F8364030325279E5
:104A8000D44213D1B1FA81F45D68012202FA01F136
:104A900025EA01015960036864095B6802FA04F1C0
:104AA000194203D1164BB240C3F8802070BD154C9B
:104AB0000726002AD8D05A68012505FA01F10A43D1
:104AC00076B25A6021463046FFF786FE0C4BB54061
:104AD0001D6070BDA4F58044A34205D10A4C052693
:104AE000C1E70A4C0626BEE700242646BBE700BF06
:104AF0000000014000800940114B000050090010E7
:104B000000E100E0DD490000854B0000ED4B0000B6
:104B1000194B9968C1F3420101291BD0022917D111
:104B2000164AD2F8AC10013107D0D2F8B810D2F83A
:104B3000B000086092F8DE10A1B1D2F8A8000F4BC7
:104B4000C8B193F8DE3023B10D4B00211B68184724
:104B500070477047094BD3F8A8000028F9D0084BDC
:104B60001B681847596821F001015960D2F8A80064
:104B7000024B0028E5D1704700C0094050090010E1
:104B80004C090010164B9968C1F34201012917D056
:104B9000022913D1134A5168013105D01169906877
:104BA000086092F8361091B110680E4BB8B193F8C6
:104BB000363023B10C4B00211B68184770477047F3
:104BC000084B18680028FAD0074B1B68184759682B
:104BD00021F0010159601068024B0028E7D17047AD
:104BE00000C00040500900104C090010164B996895
:104BF000C1F34201012917D0022913D1134AD16B05
:104C0000013105D0916C106C086092F86E1091B172
:104C1000906B0E4BB8B193F86E3023B10C4B002162
:104C20001B68184770477047084B986B0028FAD0EC
:104C3000074B1B681847596821F001015960906BB8
:104C4000024B0028E7D170470000014050090010D6
:104C50004C0900102DE9F04F02686A4B89B09A4266
:104C60000790069200F0BC8040F3A780664B069840
:104C7000984200F0898003F5804398420CD1634B41
:104C8000D3F8AC2122F44022C3F8AC21D3F8AC21F4
:104C900042F48022C3F8AC215D4A0B011268B2FBDA
:104CA000F3F003FB1023039280B2002B00F083800B
:104CB000039B4FF001085A009C009446A246C3464D
:104CC0008E46994600230492059400900291019328
:104CD00000242546029E5FFA88F7BCF1000FB5BF9D
:104CE000BCFBF6F0BAFBF6F0000940090130C0F356
:104CF0004F0008EB0402002854D1002C7ED0022083
:104D0000034603FB02F3DB00B9FBF3F30133C1EB12
:104D10005303002BB8BF5B42734505DA8B4246D084
:104D20009E46BB468DE821000134E5B2BD420E44EB
:104D3000D3D3039B08F101089944049BB8F1100FE9
:104D40009C44059B9A44029B0B440293C0D1019B57
:104D5000009843EA0B15EDB20699C0F307220B7BCE
:104D6000C0B243F080030B7307990B681A710B688C
:104D700018700B6883F828500A68137B03F07F03D0
:104D8000137309B0BDE8F08F204BD3F8AC2122F4A7
:104D90004032C3F8AC21D3F8AC2142F48032C3F8DE
:104DA000AC2179E7002CABD00128A9D8A7E745EAC8
:104DB0000715EDB2D0E71025CEE7A3F580439A4260
:104DC0007FF46AAF114BD3F8A82122F0C002C3F8D8
:104DD000A821D3F8A82142F04002C3F8A8215BE73C
:104DE0000A4BD3F8A82122F44072C3F8A821D3F8C3
:104DF000A82142F48072C3F8A8214DE701200346A0
:104E00007FE700BF000001400080094000C00F4064
:104E100030010010436810B40448054CC3EBC303D1
:104E200044F8332001605DF8044B70474C090010D2
:104E30005009001061B9436810B4064CC3EBC303BA
:104E400004EBC30383F836205DF8044BFFF7FCBD89
:104E5000FFF7FABD500900100268137DDB07FCD58F
:104E600043680949C3EBC30301EBC30359681078D6
:104E70000131C0B206D059699B680B60536843F09A
:104E800001035360704700BF500900104368174A80
:104E9000C3EBC303DB00D11810B4CC69013411D0CB
:104EA0000B460A6B1C335B6812681A4203D0002061
:104EB0005DF8044B704703685DF8044B187DC0F340
:104EC0008010704703681B7D9B0608D491F834005E
:104ED0005DF8044B0F288CBF002001207047002391
:104EE00081F8343001205DF8044B70475009001000
:104EF00038B504460D462046FFF7C8FF0028FAD013
:104F00002368EDB21D706368054AC3EBC30302EB6F
:104F1000C30393F83420013283F8342038BD00BF36
:104F2000500900100149FFF797BB00BFE091000056
:104F30002DE9F04F04464648256883B085420F4668
:104F40009146019343D0D4F804A000255346414E26
:104F50004FEACA08C3EBC303CAEB080E002006EBF6
:104F6000CE0E4FF0FF3B06EBC3030146024683F82B
:104F70003500CEF81CB02046CEF804B0FFF764FD33
:104F800017B903B0BDE8F08F33494846FFF796FBE9
:104F9000324983460198FFF791FBBB1E012B37D99D
:104FA000012FEED1B9F1FF3FEBD0294B2268072149
:104FB0009B45117213D195B148462B7C264943F08D
:104FC00040032B7403B0BDE8F04FFFF745BB2B7CCB
:104FD000D4F804A003F03F032B746368B7E7CAEB6F
:104FE000080806EBC8004946012504300022FFF7F7
:104FF00015FB20462A4663680021C3EBC30306EB7A
:10500000C30686F8355003B0BDE8F04FFFF71CBD6E
:10501000019B01330AD00E4B98420DD0CAEB080019
:1050200006EBC00001991C30FFF7D0FA032FA8D17E
:10503000B9F1FF3FB9D1A4E7002DEFD02B7C019847
:1050400043F080032B740549FFF706FBEEE700BF32
:105050000000014050090010509100004C920000E7
:105060002DE9F04105460F46084659491646FFF717
:1050700033FB584904463046FFF72EFB01462046D5
:10508000FFF70AFB544B0446984228607FD06FD943
:10509000524B98424BD003F58043984206D1504A78
:1050A000D2F8C43043F00073C2F8C4300123237235
:1050B0002B684FF00008C3F8048028464FF41651BF
:1050C000FFF7C8FD2B6803221A7338464049FFF7E3
:1050D000C3FA30463F49FFF7BFFA7A1C03D038467F
:1050E0004146FFF74DFC731C03D030460021FFF70B
:1050F00047FC394B9C4247D021D9384B9C4263D066
:1051000003F580439C424AD103236B60354CC3EBCB
:10511000C3034FF0FF3604EBC30428463246334640
:105120006660E6610021BDE8F041FFF701BF2C4A4F
:10513000D2F8C43043F08073C2F8C430B6E7A3F5A8
:1051400080439C422BD1274E4FF0FF3400216960F1
:105150002246234628467460F461FFF7E9FE224B9D
:1051600001221A6028686968204B03C3BDE8F081FA
:10517000A3F58043984299D1194AD2F8C43043F03C
:105180000803C2F8C43091E701236B60BEE7144AFC
:10519000D2F8C43043F01003C2F8C43086E76E681A
:1051A000104BC6EBC6064FF0FF3703EBC6063A4678
:1051B0003B46284600217760F761FFF7B9FE0C4BAC
:1051C0009C42CCD0BDE8F08102236B609EE700BF1B
:1051D000E09100007491000000000140008009404F
:1051E00000C00F405009001048090010440B001087
:1051F00000C0004038B51249124B01241C60D1F8A0
:10520000C430114A43F4000310480025C1F8C430EB
:105210001567036801F1437101F5F45103319B08EF
:10522000A1FB03139B0C013B022151600420D360BE
:1052300007495460FFF7D0FA064B10221A6038BDB8
:1052400000C00F40300A001000400940300100103B
:105250009147000000E100E0024B1B6803B170477A
:10526000FFF7C8BF300A001008B5044B1B680BB924
:10527000FFF7C0FF024B986808BD00BF300A00105E
:1052800000400940034B98615A6942F001025A619B
:10529000704700BF00400940024A536923F00103F0
:1052A0005361704700400940014B01221A6070476A
:1052B00000400940094A8368026053B1084B1A68EC
:1052C000824201D106E01A4653688342FBD143680B
:1052D0005360704742681A60704700BF78920000C0
:1052E000340A00100C4A836810B50446026053B1BA
:1052F0000A4B1A68904201D10AE01A4653689C4250
:10530000FBD163685360204600F0CDFB204610BD02
:1053100042681A60F7E700BF78920000340A001074
:1053200010B4074C0023027381600460436019B11C
:10533000044B1A68186042605DF8044B704700BF68
:1053400078920000340A0010F8B50B4B07461C6831
:105350000E467CB1A56855B128463946324602F062
:1053600062FE20B9284602F056FEB04202D06468C0
:10537000002CEFD12046F8BD340A0010007B7047A6
:10538000036870B51B690021012204469847431C3D
:1053900006460ED0236820461B690021022298474A
:1053A0000546236831461B69204600229847284657
:1053B00070BD70BD10B50446064B002240F8043B9A
:1053C000FFF7AEFF044B204603F10802343384E8B4
:1053D0000C0010BDA09300008092000010B50446A0
:1053E000064B03F108023433226040F8043FFFF714
:1053F00061FF204600F0CAF9204610BD80920000EF
:1054000038B50023036043600A7804462F2A01D090
:10541000204638BD4A78002AFAD0481C20604D78D2
:105420002F2D13D085B1034600E06AB15D1A013318
:1054300023601A782F2AF8D1294601332360FFF719
:1054400083FF6060204638BD2946F8E719460346C9
:10545000F3E700BF00687047436843B110B50446E6
:105460001846FFF78BFF012803D1606810BD0020AC
:105470007047002010BD00BF406830B108B5FFF78D
:105480007DFFB0FA80F0400908BD704743684BB11A
:1054900010B504461846FFF771FF28B9606818B1C7
:1054A000043810BD00207047002010BD4068003057
:1054B00018BF0120704700BF00F09AB8A0F140006B
:1054C000FFF7FABF00F098B8A0F14000FFF7FABF6D
:1054D00010B50446064B403003F1080103F12002E9
:1054E000543321602264636400F0E6F8204610BD66
:1054F000C0920000A0F14000FFF7EABFA0F1440015
:10550000FFF7E6BF10B50446084B403003F1080131
:1055100003F12002543321602264636400F0CCF86C
:10552000204600F0C0FA204610BD00BFC092000027
:10553000A0F14000E6E700BFA0F14400E2E700BFB1
:1055400038B504461D4600F02DF8294604F1400008
:1055500000F090F8054B204603F1080103F120020A
:10556000543321602264636438BD00BFC0920000E0
:105570004A1C02EB420200EBC202936853B101EBFA
:105580004101C9004218D2681AB1014410311046D5
:105590001847704701EB410300EBC301CB68002BB8
:1055A000F7D0184770B504460B4E0023251D4FF465
:1055B0001650E06363602846A360E3602362636281
:1055C000A3632660FFF74CFD284622460349FFF7F8
:1055D00021FC204670BD00BF2893000071550000DB
:1055E00038B504460D460430FFF734FBE56338BD9B
:1055F0000430FFF731BC00BF10B50C460430FFF794
:1056000077FC204610BD00BF00207047F8B58E180B
:10561000B1420F460ED005460C4601E0A64207D027
:105620002B6828465B6A14F8011B98470130F5D1B6
:10563000E01BF8BD0C46FBE7F8B58E18B1420F46EB
:105640000ED005460C4603E004F8010BA64205D037
:105650002B6828469B6A9847431CF5D1E01BF8BD90
:105660000C46FBE700207047002070470020704781
:105670000020704710B5044684B0FFF79BFE0B4B2B
:10568000002203F108013C3384E80A00626101A8AA
:105690002246074902F022FC064901A801F0BCFBA2
:1056A000606100F0D3F9204604B010BD30930000D3
:1056B000749300007893000010B50446064B4069CF
:1056C00003F108023C3384E80C0001F0BDF92046E8
:1056D000FFF784FE204610BD3093000038B50D461C
:1056E0000446406901F066FA28466169BDE8384021
:1056F00001F0C0BB10B50446406901F05BFA606977
:10570000BDE8104000F0A6B910B50446C068FFF728
:1057100037F86368C01A10BD38B5002505604560CC
:1057200085600446FFF730F8E060FFF729F8A560D0
:105730006060204638BD00BF036803B1704710B5F4
:105740000446C068FFF71CF801236060236010BDA9
:10575000036810B5846813B1FFF7D6FF0346044809
:10576000234480FB0320DB17C3EBA01010BD00BF58
:10577000D34D621002480349034AFFF771BC00BFD2
:10578000440B001002C0092003C00920084A094B3D
:1057900010B4026003F58071002453F8042F824294
:1057A00008BF1C608B42F8D15DF8044B704700BF06
:1057B000A0930000340A0010F0B50E4685B03749BA
:1057C000054602F01EFC28B9354B1B68002B42D061
:1057D00005B0F0BD2846334902F013FC30B9304B18
:1057E0001B68002B42D0012005B0F0BD28462E4991
:1057F00002F007FC002834D02C4B002402E00134D6
:10580000402C3CD053F8042F002AF8D12B783A2BA7
:105810003CD0294602A8FFF7F3FD02A8FFF746FE99
:1058200068B302A8FFF728FE20BB02A8FFF714FE0A
:10583000054620B3036802A89F68FFF70BFE3246B7
:1058400001462846B8470346CBB1194AE01C42F846
:10585000243005B0F0BD0190FFF78CFF019805B032
:10586000F0BD0F4B1B686BB10220B1E7FFF782FF61
:105870000120ADE702A8FFF709FE0346E4E74FF079
:10588000FF30A5E7FFF776FF0220A1E72846094988
:1058900002AA02F047FB029BD6E700BF7C93000000
:1058A000480900108C93000084930000340A001013
:1058B000380A00107493000002280ADD074AC31E4C
:1058C00052F82300002142F8231020B103685B68DE
:1058D0001847002070474FF0FF307047380A00101B
:1058E000022812DC0E4B70B51B680C4616460BB92D
:1058F000FFF740FFA51936B114F8011B0948FFF75F
:10590000F7FAAC42F8D1304670BD074B033853F874
:10591000200010B103681B6818474FF0FF30704734
:1059200048090010440B0010380A001002280DDC52
:105930000C4B10B51B680C460BB9FFF71BFF0A4850
:10594000FFF78AFA01232070184610BD074B033871
:1059500053F8200010B103689B6818474FF0FF33DD
:105960001846704748090010440B0010380A001010
:10597000022807DD064B033853F8200020B10368E6
:10598000DB681847012070474FF0FF30704700BFB9
:10599000380A0010022807DD064B033853F82000B0
:1059A00020B103681B691847002070474FF0FF3093
:1059B000704700BF380A0010022808B504D84FF419
:1059C00000534B60002008BD00F0D2FF09230360A4
:1059D0004FF0FF3008BD00BF704700BF704700BFE9
:1059E00008B5FFF7FBFFFFF7F7FFBDE80840FCF73E
:1059F00027BB00BF074A13681918EFF308808142DC
:105A000002D2184611607047034B0C221A604FF007
:105A1000FF307047340100104C0B00100A4C08B5E1
:105A200023680546986801F0C5F82368D86801F036
:105A3000C1F8FEF70FFE20B905B9FEE7FEF77AFDC3
:105A4000FBE7FEF763FEF7E798010010002102F084
:105A5000B4B900BF01F0ECB80649074A074B9A42B7
:105A6000BEBF51F8040B42F8040BF8E70448804726
:105A700004480047C0950000C8000010AC010010A9
:105A800015480000D93D0000FEE7FEE7FEE7FEE70F
:105A9000FEE7FEE7FEE7FEE7FEE7FEE70346084611
:105AA000194600F057BFFEF7BDB910B5002814BF66
:105AB000044601242046FEF7A9F930B900F006F8A3
:105AC00008B9FEF7B5F98047F4E710BD024B186836
:105AD000BFF35F8F704700BF380B001081F00041AB
