:1000000000800010797B0000A97B0000AB7B000022
:10001000AD7B0000AF7B0000B17B00000000000062
:10002000000000000000000000000000B37B0000A2
:10003000B57B000000000000B77B0000B97B00002A
:10004000BB7B0000BB7B0000BB7B0000BB7B0000D8
:10005000BB7B0000BB7B0000BB7B0000BB7B0000C8
:10006000BB7B0000BB7B0000BB7B0000BB7B0000B8
:10007000BB7B0000BB7B0000BB7B0000BB7B0000A8
:10008000BB7B0000BB7B0000BB7B0000BB7B000098
:10009000BB7B0000BB7B0000BB7B0000BB7B000088
:1000A000BB7B0000BB7B0000BB7B0000BB7B000078
:1000B000BB7B0000BB7B0000BB7B0000BB7B000068
:1000C000BB7B0000BB7B0000BB7B0000044B0548F2
:1000D0001B1A062B02D9044B03B11847704700BF07
:1000E000AF010010AC0100100000000005490648F7
:1000F000091A891001EBD171491002D0034B03B1E9
:1001000018477047AC010010AC010010000000005F
:1001100010B5064C237843B9FFF7D8FF044B13B151
:100120000448AFF300800123237010BDAC01001020
:1001300000000000C8B6000008B5084B1BB1084914
:100140000848AFF300800848036813B9BDE80840C9
:10015000CCE7064B002BF9D09847F7E700000000EA
:10016000B0010010C8B60000AC0100100000000093
:10017000704700BF0346426808200A705A68C240B0
:100180004A70DA888A70DA79CA709A680A719A684D
:10019000C2404A715A898A71DB7ACB71704700BFBD
:1001A000024610B40B78082053604C7843EA0423CD
:1001B00053608C7843EA04435360CC7843EA046389
:1001C00053600B7993604C7943EA042393608C79F4
:1001D00043EA04439360C97910BC43EA0163936026
:1001E000704700BF0048704730AE000000487047BD
:1001F00040AE00000048704764AE00000048704701
:1002000080AE000000487047A4AE00000048704770
:10021000B8AE00000048704770B00000004870475A
:10022000DCAE00000048704700AF00000048704797
:1002300020AF00000048704744AF000000487047FE
:1002400060AF00000048704784AF0000004870476E
:10025000A0AF000000487047C4AF000000487047DE
:10026000E0AF000010B4846A074AA31E04F108003E
:1002700033F9021F834242F8041BF9D1B4F90A2072
:10028000024B10BC1A607047880800104C02001026
:10029000C06B70470048704784AF0000004870474B
:1002A000A0AF000090F8FC05704700BF70B5054690
:1002B00082B00C46406809F056FF2346064602AA63
:1002C00042F8040D1068324643F8040B696818467A
:1002D00008F0C2FFAB68A1190B71AB6806F10C0006
:1002E0001B0A4B716B898B71EB7ACB71EB680B72CC
:1002F000EB681B0A4B72EB898B72EB7BCB7202B003
:1003000070BD00BF2DE9F043037900240B704C70E1
:100310008C70CC70037983B0002B68D00B46042519
:10032000C268661C52F82420F4B24FEA122E170C51
:10033000160E1A7183F805E09F71DE71027904359B
:10034000A24203F10403EBD82B462A1D154603F104
:10035000010C03F1020EDF1C067C0024CE5401F8D0
:100360000C4001F80E40CC55037CABB14B198269AF
:10037000661C52F82420F4B24FEA122E170C160E07
:100380004A5583F801E09F70DE70027C0435A2427A
:1003900003F10403EBD82A46067F4B1900248E5440
:1003A0005C709C70DC70037F2E1DE3B188460746AD
:1003B0007B6A06F1040953F8240009F0D4FE0546CF
:1003C000019001982A4648F806007B6A08EB09006C
:1003D00053F8241008F040FF01343B7FE4B2A342FD
:1003E00005EB0906E4D8304603B0BDE8F0830822E7
:1003F000154607274FF0060E4FF0050C0423ABE718
:1004000070B5037982B00B70064680680D4609F01E
:10041000AAFE044602AB43F8040D18682246C5F84C
:100420000100B168681D08F017FF601D02B070BDC3
:1004300083882DE9F0410B70838884B01B0A4B70D0
:10044000064680680D4609F08EFE044604AB43F86C
:100450000C0D18682246C5F80200B168A81D08F006
:10046000FBFEF06809F07FFE804604AB43F8080D00
:100470001868A31DE8500A34F1684246281908F0AC
:10048000EBFE306909F06FFE074604AB43F8040D3C
:100490001868444428510434316928193A4608F050
:1004A000DBFE736938192A182B541E0A1C0C190E0E
:1004B000043056709470D17004B0BDE8F08100BF74
:1004C0000B46F0B413F8012B06460271186882B08F
:1004D0000190019D0F1D681D052808D93B462C1D64
:1004E0000C4413F8012FA34203F8012CF9D10D4459
:1004F00000232B71B76002B0F0BC7047F0B4054622
:10050000086882B001900198CF1C061D042E08D9FE
:100510003B46C41C0C4413F8012FA34203F8012CE2
:10052000F9D10A180023D3706F608B5D0C30AB607B
:10053000517943EA0123AB60917943EA0143AB600F
:10054000D17943EA0163AB60137AEB60517A43EAF5
:100550000123EB60917A43EA0143EB60D27A43EAEC
:100560000263EB6002B0F0BC704700BFF0B40B78E0
:10057000054683804A7884B043EA02238380D1F819
:1005800002004F1D0190019A961D062E08D93B4688
:10059000541D0C4413F8010F9C4203F8010CF9D1CF
:1005A0008B1800205871AF60885904360290029B66
:1005B00033449E4209D2304609320A4412F8014FB0
:1005C0000130984202F8014CF8D3013E0E44CA189B
:1005D000002002F8010CEE6010681E1D03900398C5
:1005E0003044864209D2324603330B4413F8014F9C
:1005F0000132824203F8014CF8D3013E0C180E443C
:10060000002304F8013C2E61A37866780A5C1B0481
:10061000E17843EA0623134343EA016304306B6144
:1006200004B0F0BC704700BF2DE9F04103790C78AD
:1006300082B0A34205460E46C0F082802C71002C89
:1006400000F08780334605F10807002004249A79DA
:1006500093F805E01979120442EA0E2293F807E0B4
:100660000A4342EA0E62AA60D7F800E0EA68411C39
:1006700042F820E02A79C8B2824204F1040403F16E
:100680000403E4D8234616F803802B7C271D43453A
:100690003C4666D385F81080B8F1000F1FD005F1F5
:1006A0001407331900209A7893F801E0197812049E
:1006B00042EA0E2293F803E00A4342EA0E626A61BC
:1006C000D7F800E0AA69411C42F820E02A7CC8B2B1
:1006D000824204F1040403F10403E4D82746F75DE1
:1006E0002B7FBB4244D3231D2F772FB30027BC465B
:1006F00005F1200EF0581C1D019001982044844201
:1007000009D222460333334413F8011F01328242D7
:1007100003F8011CF8D3013C3318344403F801CC2E
:100720002C626A6ADEF800107B1C42F827102A7FD0
:10073000DFB2BA420346DDD8184602B0BDE8F08108
:10074000A100C06805F036FC2C71E860002C7FF435
:1007500079AF042316F803802B7C082743453C46D9
:1007600098D24FEA8801A86905F024FCA86191E7B6
:10077000B900686A05F01EFC6862B4E710B504466B
:1007800007F021FA204610BD10B50446006808B1F4
:1007900007F019FA204610BD10B50446064B40304C
:1007A00003F1180103F14C0223602164626407F035
:1007B00013F8204610BD00BF04B40000A0F14000B3
:1007C000EAE700BFA0F14400E6E700BF2DE9F04FE3
:1007D000037900260B704E708E70CE70037983B053
:1007E00083468946002B59D0DFF8C0A04FF004089B
:1007F0002AE0606809F0B7FC074602AB43F8040D35
:1008000018683A4649F808006168281D08F024FD78
:10081000A368E9190B71A36807F10C001B0A4B715F
:1008200063898B71E37ACB71E3680B72E3681B0A0F
:100830004B72E3898B72E37BCB7201369BF80430F9
:10084000F6B2B34280440DD9DBF818403301E258C8
:100850001C44136809EB08055345CAD029462046B5
:100860009847EAE708F1010408F1020108F10302E0
:1008700008F10400DBF81C3009F80830DBF81C3004
:100880001B0A09F80430BBF81E3009F801309BF848
:100890001F3009F8023003B0BDE8F08F08200722AE
:1008A000062105244FF00408E4E700BFAD02000074
:1008B0002DE9F04703790D7882B0AB4204460E462D
:1008C00078D32571002D7DD00025AC4604F10807B2
:1008D0004FF0040E06EB0E08D8F8000008F1030AEA
:1008E0000190019800F10409B9F1040F08D95346A9
:1008F000C11C414413F8012F994203F8012CF9D18E
:1009000008EB000282F803C0C4F80CA018F8093004
:10091000D4F81880236192F80590290143EA09234D
:10092000236192F806900C3043EA0943236192F860
:100930000790864443EA09632361137A08EB0100B8
:10094000636192F80990013543EA0923636192F8E3
:100950000A90EDB243EA09436361D27A43EA026343
:100960006361FB68D7F800A0D7F80490BA6848F82C
:1009700001A0C0F804908260C3602379AB42A9D87B
:100980000EF101050EF102010EF103020EF1040059
:1009900016F80E30E361755D43EA0523E361715C8F
:1009A00043EA0143E361B25C43EA0263E36102B0FC
:1009B000BDE8F0872901806905F0FCFA2571A06186
:1009C000002D81D108200722062105254FF0040EB5
:1009D000DEE700BF2DE9F04F037A00260B704E7062
:1009E0008E70CE70037A83B080460F46002B7BD08A
:1009F000DFF810A14FF0040B2BE0606809F0B3FBA7
:100A0000814602AB43F8040D18684A4647F80B00CC
:100A10006168281D08F020FCA36805EB09010B7133
:100A2000A36809F10C001B0A4B7163898B71E37A8F
:100A3000CB71E3680B72E3681B0A4B72E3898B721C
:100A4000E37BCB72013698F80830F6B2B3428344A8
:100A50000DD9D8F81C403301E2581C44136807EB49
:100A60000B055345C9D0294620469847EAE70BF1C4
:100A70000401081D0BF105060BF106050BF1070437
:100A80000BF101090BF1020C0BF1030ED8F8202039
:100A9000002307F80B20D8F82020120A07F80920B5
:100AA000B8F8222007F80C2098F8232007F80E2029
:100AB00098F824207A54BB557B553B5598F8242050
:100AC0007AB1D8F82820391832F813200133140AE3
:100AD0003A544C7098F82420DBB29A4200F102009C
:100AE000EFD803B0BDE8F08F08214FF0070E4FF0AC
:100AF000060C4FF005094FF0040B0B240C200A25BF
:100B00000926C3E7AD0200002DE9F04F037A002665
:100B10000B704E708E70CE70037A83B0804689461B
:100B2000002B00F08680DFF824A14FF0040B2AE0B0
:100B3000606809F018FB074602AB43F8040D18681B
:100B40003A4649F80B006168281D08F085FBA36848
:100B5000E9190B71A36807F10C001B0A4B7163893B
:100B60008B71E37ACB71E3680B72E3681B0A4B72FB
:100B7000E3898B72E37BCB72013698F80830F6B2CA
:100B8000B34283440DD9D8F81C403301E2581C44C9
:100B9000136809EB0B055345CAD0294620469847F0
:100BA000EAE70BF10402101D0BF105060BF1060537
:100BB0000BF107040BF1010C0BF1020E0BF1030713
:100BC000D8F82030002109F80B30D8F820301B0A63
:100BD00009F80C30B8F8223009F80E3098F82330B4
:100BE00009F8073098F8243009F8023009F806109F
:100BF00009F8051009F8041098F82430B3B109EB8E
:100C00000003D8F82C204C1C52F82120E1B2160A1F
:100C1000150C140E09F800205E709D70DC7098F8B9
:100C2000242004308A4203F10403EAD803B0BDE86B
:100C3000F08F082207274FF0060E4FF0050C4FF0FB
:100C4000040B0B240C200A250926B9E7AD0200008D
:100C50002DE9F04F037D0D7883B0AB420446884602
:100C600000F10C09C0F09B802575002D00F0A080DC
:100C70000025AA4604F118074FF0040E08EB0E06F3
:100C8000306806F1030B0190019800F1040CBCF1EF
:100C9000040F08D95B46C11C314413F8012F8B4265
:100CA00003F8012CF9D1321882F803A0C4F81CB063
:100CB00016F80C30A66A236292F805C0290143EAAF
:100CC0000C23236292F806C00C3043EA0C432362E3
:100CD00092F807C0864443EA0C632362137A7018C3
:100CE000636292F809C0013543EA0C23636292F80B
:100CF0000AC0EDB243EA0C436362D27A43EA02636C
:100D00006362FB68D7F800B0D7F804C0BA6846F849
:100D100001B0C0F804C08260C360237DAB42ADD88F
:100D20000EF10402151D0EF101060EF102000EF186
:100D3000030118F80E3094F83070E36218F806607A
:100D400043EA0623E36218F8000043EA0043E36243
:100D500018F8011043EA0163E36218F80260B74231
:100D60002ED384F83060A6B1A844002304F13205E4
:100D700098F8011018F8022B606B42EA0122628693
:100D80002A88591C20F8132094F83020CBB29A42BC
:100D9000EED84846A36B03B0BDE8F04F18472901D1
:100DA000806A05F007F92575A062002D7FF460AF19
:100DB00008220721062005264FF0040E0C25B8E76F
:100DC0007100606B05F0F6F86063CAE72DE9F04743
:100DD000037A0D7882B0AB4204460E46C0F09A808A
:100DE0002572002D00F09F800025AC4604F10C0711
:100DF0004FF0040E06EB0E08D8F8000008F1030AC5
:100E00000190019800F10409B9F1040F08D9534683
:100E1000C11C414413F8012F8B4203F8012CF9D176
:100E200008EB000282F803C0C4F810A018F80930DB
:100E3000D4F81C80636192F80590290143EA0923E4
:100E4000636192F806900C3043EA0943636192F8BB
:100E50000790864443EA09636361137A08EB010053
:100E6000A36192F80990013543EA0923A36192F83E
:100E70000A90EDB243EA0943A361D27A43EA0263DE
:100E8000A361FB68D7F800A0D7F80490BA6848F8C7
:100E900001A0C0F804908260C360237AAB42A9D855
:100EA0000EF10402151D0EF101070EF102000EF104
:100EB000030116F80E3094F824E02362F75D43EA4C
:100EC00007232362305C43EA00432362715C43EAF8
:100ED00001632362B75CBE452DD384F82470AFB1A3
:100EE0002E4404F126070023717816F8022BA06A1D
:100EF00042EA0122E2843A88591C20F8132094F82F
:100F00002420CBB29A4205F10205EDD8284602B062
:100F1000BDE8F0872901C06905F04CF82572E06151
:100F2000002D7FF461AF08220721062005274FF02E
:100F3000040E0C25BDE77900A06A05F03BF8A0621D
:100F4000CBE700BF2DE9F047037A0E7882B0B342B9
:100F500004460D46C0F0A1802672002E00F0A68047
:100F60000026B44604F10C074FF0040E05EB0E0802
:100F7000D8F8000008F1030A0190019800F1040973
:100F8000B9F1040F08D95346C11C414413F8012F8D
:100F9000994203F8012CF9D108EB000282F803C052
:100FA000C4F810A018F80930D4F81C80636192F8D6
:100FB0000590310143EA0923636192F806900C30F1
:100FC00043EA0943636192F80790864443EA096360
:100FD0006361137A08EB0100A36192F8099001366E
:100FE00043EA0923A36192F80A90F6B243EA09435F
:100FF000A361D27A43EA0263A361FB68D7F800A039
:10100000D7F80490BA6848F801A0C0F8049082604C
:10101000C360237AB342A9D80EF10402161D0EF163
:1010200001070EF102000EF1030115F80E3094F8DD
:1010300024E02362EF5D43EA07232362285C43EA4E
:1010400000432362695C43EA01632362AF5CBE45EF
:1010500034D384F82470E7B1354404F1280000212A
:10106000AB786F782A781B0443EA0723EF781343A1
:1010700043EA0763A3620768E36A4A1C43F82170E6
:1010800094F82430D1B28B4206F1040605F1040530
:10109000E6D8304602B0BDE8F0873101C06904F0FF
:1010A00089FF2672E061002E7FF45AAF08220721E3
:1010B000062005274FF0040E0C26B6E7B900E06ABB
:1010C00004F078FFE062C4E72DE9F041632984B0C1
:1010D00003DD90F8FC55002D4AD00646136888467B
:1010E00010461B6806F227319847C4B2C0F30721A7
:1010F0006218D24380B286F82243FF2406F22537D5
:1011000000F2263586F8242386F82043FE225FFA73
:1011100088F448F3072886F821233B4686F82313F2
:10112000354486F8254386F82683002201E013F82B
:10113000014FAB422244FAD1D243C31D00F108054E
:101140009BB2ADB23344B5F5007F83F8202313D8AA
:1011500006F5487765B16B1E1F4406F1440806F298
:101160001F3414F8011F404606F048FBA742F8D18F
:10117000284604B0BDE8F0813049314C0322336881
:10118000019103948DF808201B682E498B424DD1A4
:1011900004AB382143F8101D186886F82723C6F8D9
:1011A000280304F1300C06F54B75A646BEE80F0087
:1011B000E64528606960AA60EB6004F1100405F15F
:1011C0001005F2D103CC4FF0000E286069604FF09B
:1011D000070CC221FF25FE243D2086F82413734608
:1011E000624686F823E386F826E386F825C386F868
:1011F000205386F8214386F8220306F2633101E08A
:1012000017F8012F8F421344FAD1DB4306F144074C
:1012100086F8643306F21F3506F5597415F8011F78
:10122000384606F0EBFAAC42F8D103E0304601AAAA
:10123000072198474FF0FF359AE700BF7CAD0000CB
:1012400004B00000C91000002DE9F04FDFF8E4827F
:10125000B44E87B000243368D8F82C50185903686E
:101260001B6A984728510434142CF4D1AE4BAF4973
:10127000D3F80C909B681A460193D9F800301B688C
:101280008B4252D1632A03DD99F8FC35002B50D0F4
:1012900098F80820002689F8272389F8286389F818
:1012A000296389F82A6309F2273B002A00F0CF80DE
:1012B0004FF0040A2AE0606808F055FF074606ABC5
:1012C00043F80C0D18683A464BF80A006168281D6F
:1012D00007F0C2FFA268EB191A71A26807F10C00AF
:1012E000120A5A7162899A71E27ADA71E2681A72A4
:1012F000E268120A5A72E2899A72E27BDA72013665
:1013000098F80830F6B2B342824415D9D8F81C4098
:101310003301E2581C441368854A0BEB0A059342DB
:10132000C9D0294620469847E9E701994846814AAD
:10133000984707B0BDE8F08F0AF10404221D0AF1B6
:1013400005060AF106050AF107030AF1010C0AF184
:10135000020E0AF10307D8F8200000210BF80A005A
:10136000D8F82000000A0BF80C00B8F822000BF89F
:101370000E0098F823000BF8070098F824000BF8EB
:1013800004000BF806100BF805100BF8031098F882
:101390002400B0B10BEB0200D8F82C304C1C53F8F1
:1013A0002130E1B21E0A1D0C1C0E0BF802304670F3
:1013B0008570C47098F8243004328B4200F1040028
:1013C000EAD8D4B2C2F307202118C94389F82413FC
:1013D000FF2189F82013019992B209F2253589F885
:1013E000224389F8230302F22634C8B2FE2641F3D1
:1013F000072189F826132B464C4489F8216389F884
:101400002503002101E013F8010FA3420144FAD1A2
:10141000C943D01D083280B293B24844B3F5007F6F
:1014200080F8201320D809F54874002B81D0013BA7
:1014300009F144051C4409F21F3919F8011F284617
:1014400006F0DCF94C45F8D107B0BDE8F08F082470
:1014500007274FF0060E4FF0050C4FF0040A0B2340
:101460000C220A25092676E7334B344C03220393DA
:1014700005948DF81020D9F800302C491B688B4258
:101480004BD106AB382143F8101D186889F8272383
:10149000C9F8280304F1300E09F54B7627460FCF23
:1014A000774530607160B260F36004F1100406F1BA
:1014B0001006F3D103CC0027306071604FF0070EA7
:1014C000C221FF26FE243D2089F824133B467246A4
:1014D00089F8237389F8267389F825E389F820634E
:1014E00089F8214389F8220309F2633101E015F8F4
:1014F000012F8D421344FAD1DB4309F1440589F8E9
:10150000643309F21F3409F5597914F8011F28468C
:1015100006F074F94C45F8D10BE7484603AA0721B9
:10152000984706E7F801001084090010C910000070
:10153000AD0200001C0200107CAD000004B00000F1
:101540002DE9F041DFF848800E4F0F4E0F4D00247B
:101550002B6858F8041B18590368DB6898472B68F8
:1015600057F8041B185903681B6998472B6856F8ED
:10157000041B1859043403689B689847142CE7D15E
:10158000BDE8F081F400001008010010F80100101F
:10159000CC000010F0B52B4A85B0036801921C689E
:1015A000294A0023944205460293039346D10A2018
:1015B0001A46FF27FE26082485F8273385F82833A6
:1015C00085F8293385F82A3385F82B3385F82C33B1
:1015D00085F82D3385F82E3385F8233385F82633A7
:1015E000F723014685F8250385F8243385F8207311
:1015F00085F8216385F8224305F2253305F22E3064
:1016000001E013F8011F98420A44FAD1D24305F1D0
:10161000440785F82F2305F21F3405F22F3614F8FE
:10162000011F384606F0EAF8B442F8D105F5827099
:1016300006F01EF9C5F8140105B0F0BD01AA0A2193
:10164000A047F3E74CAD0000C91000002DE9F04FB2
:101650000746C14BC14991B0002200F5B06800F2C5
:101660001C5B0A910C930D930E93ADF82C200F92F6
:10167000CDF804805BF8043F002B00F0BD80586873
:101680001C6801689A680C948B68ADF82C20984708
:10169000DBF800300D9058680368DB6898473B68BA
:1016A000DBF800104FF400720E901B680E690F9269
:1016B000AB4A8146934240F08B81632E04DD97F85C
:1016C000FC35002B00F09880BDF82C300C9D1A0AD8
:1016D00087F8273387F82823284608F044FD044676
:1016E00010AB43F82C0D186829462246C7F8290389
:1016F00007F22D3007F0B0FD0D9D10AB284600938A
:1017000008F031FD07F2273E034629467546009A48
:10171000069052F8280D02930092A21D0A344EF84A
:1017200002001A46281907F097FD484608F01BFDED
:101730008246029B07900DF14008234458F8240D7F
:101740001C1DE85049465246281907F085FD0AEB52
:101750000400011D5FFA81FAC1F307290AEB090EA3
:101760006FEA0E0E00242C5405EB000C89B2022007
:101770008CF802408CF803408CF8010007F2253306
:10178000224601F22630FF2487F824E3FE255FFA83
:1017900086FE46F30726029387F822A387F8239351
:1017A000384487F8204387F8215387F825E387F8E2
:1017B000266301E013F801EF98427244FAD1D24354
:1017C000C81D01F1080380B29BB23918B3F5007F40
:1017D00081F8202300F21D8107F5487563B1013BB4
:1017E0001D4407F1440607F21F3414F8011F304668
:1017F00006F004F8A542F8D1019B9B457FF43AAF6F
:10180000984607F2E453019358F8040F002800F0BB
:10181000D5808268036841680C929A68ADF82C10F4
:1018200050498A4240F0EF804F4A0D92DA684F49A2
:101830008A4240F0E2804E4A39680E924FF40072BC
:101840005B680C680F924B4A934240F0D380C66BA2
:10185000DFF80CA1544540F0C480632E04DD97F8F6
:10186000FC35002B00F0AA80BDF82C300C9D1A0A24
:1018700087F8273387F82823284608F074FC0446A5
:1018800010AB43F82C0D186829462246C7F82903E7
:1018900007F22D3007F0E0FC0D9D10AB28460093B9
:1018A00008F061FC07F2273E034629467546009A78
:1018B000069052F8280D03930092A21D0A344EF8A8
:1018C00002001A46281907F0C7FC0E990DF14009CD
:1018D0000846029108F047FC8346039B0790234487
:1018E00059F8240D1C1DE8505A462819029907F092
:1018F000B3FC0BEB0400021D5FFA82FBC2F3072C62
:101900000BEB0C04E4430F9905EB000E2954080A75
:101910008EF8010092B2080C090E8EF802008EF8C3
:10192000031007F22533FE2102F22630FF2587F847
:101930002443F4B246F3072687F82113029387F86D
:1019400022B387F823C3384487F8205387F8254308
:1019500087F82663002111E03CB0000064AD000070
:10196000C91000009502000084AF00009D02000035
:10197000A0AF00009102000013F8014F98422144EB
:10198000FAD1C943D01D02F1080380B29BB23A18C4
:10199000B3F5007F82F8201300F2998007F54875AF
:1019A00063B1013B1D4407F1440607F21F3414F8EC
:1019B000011F304605F022FFA542F8D1019B4345A7
:1019C0007FF422AF012387F8FC3511B0BDE8F08F1A
:1019D00031460AAA38469847019B9B457FF44AAE98
:1019E0000EE731460AAA3846A047019B43457FF4DB
:1019F0000BAFE7E7984706462AE790470246D8F834
:101A00000000036818E790470246D8F80000036812
:101A10000BE761490322079160493B6809918DF802
:101A200020201B685E498B4240F0AC80382306932F
:101A3000009B5A4C186887F82723C7F8280304F13D
:101A4000300E07F54B7526460FCE76452860696047
:101A5000AA60EB6004F1100405F11005F3D103CC8A
:101A6000029B28606960FF20FE2100264FF0070ED0
:101A700087F8200387F821133D20C22187F824131B
:101A80003246744687F8236387F8266387F825E390
:101A900087F8220307F2633101E013F8014F9942FE
:101AA0002244FAD1D24307F1440687F8642307F2AF
:101AB0001F3407F5597514F8011F304605F09EFED6
:101AC000AC42F8D1019B9B457FF4D4AD98E63249F6
:101AD000324C03223B68079109948DF820201B6843
:101AE000534554D138230693009B87F82723186861
:101AF00004F1300EC7F8280307F54B7526460FCEC4
:101B0000764528606960AA60EB6004F1100405F175
:101B10001005F3D103CC029B28606960FF20FE21F1
:101B200000264FF0070E87F8200387F821133D2089
:101B3000C22187F824133246744687F8236387F856
:101B4000266387F825E387F8220307F2633101E073
:101B500013F8014F8B422244FAD1D24307F14406D5
:101B600087F8642307F21F3407F5597514F8011F2D
:101B7000304605F043FEA542F8D1019B43457FF472
:101B800043AE1FE7424607213846984734E64A46A7
:101B900007213846984711E77CAD000004B00000EB
:101BA000C91000002DE9F04F044600F5827A8BB091
:101BB000504605F05DFE42F6F822D4F80436804621
:101BC000C31A934284BF002384F8FC35D4F8E83567
:101BD00033B1D4F8083683423CBF0023C4F8E8355B
:101BE00004F1040B584604F07BFB054678B194F8E9
:101BF000FC0548B140F6C412D4F80036C3EB080324
:101C0000934200F2CF8100200BB0BDE8F08F01219C
:101C1000584604F0E3F90028E9DBD4F8F835D4F8A5
:101C2000E8650344072EC4F8F83500F0FE8056B985
:101C3000FF2840F00E81012208F11403C4F8E825C2
:101C4000C4F80836CEE7012E00F01281022E00F013
:101C50006781032E00F06E81042E00F07581052E41
:101C600000F08181062E00F08681082EBAD1C94A83
:101C700000211A408A42C4F8E815C0F2F681FF2A12
:101C8000B0D1D4F8F035002B00F0F9820A2B00F027
:101C9000A582062B00F0F7810B2B00F0F08104EBFE
:101CA0008303D3F8F453002D9CD02B6804F5907275
:101CB00001921B68B84A934240F0D48294F82061A4
:101CC0002B7D05F10C02B3420292C0F0C5822E7545
:101CD000002E00F0CB82042307AACDF810809C468A
:101CE00090460594019C002705F11806CDF80CA03C
:101CF00004EB0C0EDEF800000EF10309C8F800003A
:101D0000079800F1040ABAF1040F08D94B46C11C28
:101D1000714413F8012F994203F8012CF9D14FF0C7
:101D200000030EEB0002D370C5F81C901EF80A30B9
:101D30000C302B6292F80590844443EA09232B620D
:101D400092F80690D5F828E043EA09432B6292F80E
:101D50000790390143EA09632B62137A01376B62FA
:101D600092F80990FFB243EA0920686292F80A905B
:101D70000EEB010340EA09406862D27A40EA026051
:101D80006862D6F800A0D6F80490B068F2684EF801
:101D900001A0C3F804909860DA602B7DBB42A7D8FD
:101DA0006346DDF80CA01A1DDDF81080059C0CF1CF
:101DB000010E161D981C0CF1030C019995F830705A
:101DC000CB5CEB6211F80EE043EA0E23EB62085C99
:101DD00043EA00430846EB6211F80C1043EA016342
:101DE000EB6210F802904F45C0F02F8285F83090DA
:101DF000B9F1000F15D0019B05F1320733441E469F
:101E00000020727816F8023B696B43EA02236B8666
:101E10003B88421C21F8103095F83030D0B2834214
:101E2000EFD8AB6B02989847DCE6D4F8F4355A1C2F
:101E30002344C4F8F42583F82001D4F8EC35013BA1
:101E4000C4F8EC35002B7FF4CDAE0823C4F8E83598
:101E5000C8E6504605F00CFDC8EB000005287FF6EB
:101E6000C1AE6FF0010084F8FC650BB0BDE8F08FE7
:101E7000FE2874D094F8FC35C4F8E855002B7FF4A4
:101E8000B1AE4649226807911568454A08939542C4
:101E9000099340F0E0800A201A460146FF2684F8A4
:101EA000273384F8283384F8293384F82A3384F8D4
:101EB0002B3384F82C3384F82D3384F82E3384F8B4
:101EC000233384F82633FE25F72384F825030820DE
:101ED00084F8220384F8243384F8206384F821539F
:101EE00004F2253304F22E3001E013F8011F98426A
:101EF0000A44FAD1D24304F1440784F82F2304F2B0
:101F00001F3504F22F3615F8011F384605F076FC10
:101F1000AE42F8D1504605F0ABFCC4F8140161E6BE
:101F20000323C4F8EC05C4F8F455C4F8F805C4F864
:101F3000E83557E6D4F8EC35042203EB0020C4F86A
:101F4000EC05C4F8E8254DE6124A1A40002A7DDB6C
:101F5000FF2A0CBF05230023C4F8E83542E602231C
:101F6000C4F8E8353EE60623C4F8F005C4F8F805E1
:101F7000C4F8E83536E6D4F8F035D4F8EC2503EBB0
:101F800000230721C4F8F035C4F8E815002A3FF40F
:101F90005CAF27E6FF000080510C00004CAD000054
:101FA000C9100000C44A236807921D68C34A002371
:101FB0009542089309935DD10A201A460146FF26EF
:101FC00084F8273384F8283384F8293384F82A33B3
:101FD00084F82B3384F82C3384F82D3384F82E3393
:101FE00084F8233384F82633FE25F72384F8250369
:101FF000082084F8220384F8243384F8206384F8CA
:10200000215304F2253304F22E3001E013F8011FAE
:1020100098420A44FAD1D24304F1440784F82F23AA
:1020200004F21F3504F22F3615F8011F384605F06B
:10203000E5FBB542F8D1504605F01AFCC4F814018E
:102040000020C4F800860BB0BDE8F08F013A62F0C2
:10205000FF0201327CE707AA0A212046A847504622
:1020600005F006FCC4F81401BCE5013A62F0FF0279
:10207000013204E607AA0A212046A847DBE700232D
:1020800084F8FC35AEE594F8206194F8143604F534
:102090009075B34206D2B100D4F81C0603F08AFF53
:1020A000C4F81C0684F81466002E00F0018128464E
:1020B00004F5C36704260021837990F805E00279CE
:1020C0001B0443EA0E2390F807E0134343EA0E6330
:1020D000C4F818363A68D4F81C36043643F8212080
:1020E00094F814360131C9B28B4200F10400E3D8F0
:1020F000371D33463E4615F8039094F820364B457D
:1021000007D24FEA8901D4F8280603F053FFC4F838
:10211000280684F82096B9F1000F20D004F2246735
:10212000A8190023827890F801E00178120442EAAD
:102130000E2290F803E00A4342EA0E62C4F8242615
:102140003968D4F82826043642F8231094F820265B
:102150000133DBB29A4200F10400E3D83746EF5D69
:1021600094F82C36BB4206D2B900D4F8340603F0FA
:1021700021FFC4F83406331D84F82C7657B30026AB
:1021800007AAB646944604F5C667E858191DCCF868
:102190000000079A0A448A4209D9084603332B44AF
:1021A00013F8019F0130824203F8019CF8D84B1EBE
:1021B0002B44A91801F801ECC4F830363868D4F87B
:1021C0003416134641F8260094F82C260136F6B250
:1021D000B242DAD8012384F80C3603E5504605F004
:1021E00047FBD4F81451D4F82431DFF8DC90451BB8
:1021F00050469944D4F8206105F03AFB304B304A00
:10220000A3FB0537A2FB00124FF47A73BF0903FB4F
:10221000175591092B4A03FB110302FB059229482C
:10222000013E00FB13233E44721AC4F81C31C4F86B
:10223000182104F58E7104F58C7004F0D9F850461D
:1022400005F016FBC4F80406CCE44FEA4901686BBC
:1022500003F0B0FE6863C9E53101A86A03F0AAFE85
:10226000A86234E5019928469847BBE408224FF05C
:10227000070C06204FF0050E04230C269DE50E49A1
:102280002268079108930A2109932046136807AA38
:102290009847504605F0ECFAC4F814012046FFF7C1
:1022A000D5F9C4F80086C4F804864FF0FF30ABE4DB
:1022B00008273E4604231EE74CAD0000C91000006D
:1022C000D34D621040420F0000CA9A3BC04B2DE92B
:1022D000F04F1868DFF83C930368DFF83CB38FB029
:1022E000D9F810105B6800229847FEF7ADFFDBF8C5
:1022F0002C20D9F80430D9F80C4050681C4406F062
:1023000093FBB44B211A1868002203685B68984756
:10231000DBF82C30B0491C68204606F07BFB30B15E
:10232000AE49204606F058FB002840F06687AC49CD
:10233000204606F06FFB30B12046AA4906F04CFB60
:10234000002840F0FF81A84AA84B14461868039360
:10235000036804925B680022DC2198472068002211
:102360000368DC215B68DFF890A298470EE09AF8DA
:10237000FC3543B140F6C412DAF80036C3EB08036B
:10238000934200F298810A2004F0FCFAFEF75CFF09
:10239000DBF82C20D9F80430D9F80C4050681C44E4
:1023A00006F042FB8B4B211A1B681A6818465368CB
:1023B00000229847DBF82C308D49586806F00CFB5A
:1023C0000446002840F0F2818A4805F051FA42F6AE
:1023D000F822DAF804368046C31A934284BF864B4B
:1023E00083F8FC45DAF8E83533B1DAF80836984274
:1023F00002D90023CAF8E835804803F071FF05468A
:102400000028B4D101217D4803F0E8FD0028AEDBAF
:10241000DAF8F835DAF8E8450344072CCAF8F83555
:1024200076D054B9FF2840F08780012208F11403C8
:10243000CAF8E825CAF80836DEE7012C00F08880E3
:10244000022C00F0F980032C00F00081042C00F035
:102450000781052C00F01381062C00F01881082C50
:10246000CAD1674A00211A408A42CAF8E815C0F268
:10247000B986FF2AC0D1DAF8F035002B01F0BE8111
:102480000A2B01F06381062B00F056870B2B00F01E
:10249000AF860AEB8303D3F8F443002CACD0236857
:1024A000584A1B68934240F04287574904F1100094
:1024B000FEF7FEF90AEB000393F8206194F8303040
:1024C0000746B34204F10C0504D27100606B03F0BF
:1024D00071FD606384F83060B6B10AEB070304F164
:1024E0003206002093F8251193F82421023342EAA2
:1024F000012262863788626B411C22F8107094F8C2
:102500003020C8B28242EDD8A36B2846984773E7C3
:10251000DAF8F425DAF8EC35511C013B5244CAF8DC
:10252000F41582F82001CAF8EC35002B7FF464AF73
:102530000823CAF8E8355FE72E4805F099F9C8EB9B
:10254000000005287FF658AF2B4B83F8FC451AE7AF
:10255000FE2800F090809AF8FC05CAF8E85500289B
:102560007FF44AAF0A24FF25284B2146FE268AF82D
:1025700025438AF82053F724082502468AF82703C2
:102580008AF828038AF829038AF82A038AF82B0391
:102590008AF82C038AF82D038AF82E038AF823037D
:1025A0008AF826038AF8216303F109008AF8225386
:1025B0008AF8244301E013F8011F83420A44FAD148
:1025C000D243134C8AF82F2304F10F05FF2127E093
:1025D0009C08001050090010000088C200008842CA
:1025E00000002BC300002B430402001098090010C8
:1025F0000000614354030010500200105402001008
:10260000FF000080510C00007003001075050010E1
:1026100070050010E00000101C02001014F8011FEB
:102620009E4805F0EBF8AC42F8D19D4805F020F942
:102630009C4BC3F81401DFE60323CAF8EC05CAF883
:10264000F455CAF8F805CAF8E835D5E6DAF8EC35F5
:10265000042203EB0023CAF8EC35CAF8E825CBE6E0
:10266000914A1A40002A21DBFF2A7FF4C2AE0523DB
:10267000CAF8E835C0E60223CAF8E835BCE6062306
:10268000CAF8F005CAF8F805CAF8E835B4E6DAF889
:10269000F035DAF8EC2503EB00230721CAF8F03512
:1026A000CAF8E815002A3FF443AFA5E6013A62F004
:1026B000FF020132D8E70A24FF257C4B0020214687
:1026C000FE268AF825438AF82053F7240825024677
:1026D0008AF827038AF828038AF829038AF82A0344
:1026E0008AF82B038AF82C038AF82D038AF82E0324
:1026F0008AF823038AF826038AF8216303F1090084
:102700008AF822538AF8244301E013F8011F834218
:102710000A44FAD1D243664C8AF82F2304F10F05FC
:10272000FF2101E014F8011F5C4805F067F8AC4296
:10273000F8D15B4805F09CF85A4BC3F80086C3F803
:10274000140120E65B4A5C4B144618680393036847
:1027500004925B680022F0219847206800220368F9
:10276000F0215B68984705E04E48FFF71BFA0A2006
:1027700004F008F9FEF768FDDBF82C20D9F80430E6
:10278000D9F80C4050681C4406F04EF94B4B211A06
:102790001B681A681846536800229847DBF82C30EB
:1027A0004749586806F018F90028DDD0454C2068E4
:1027B000DFF8F080036800225B68D9F800109847C2
:1027C000C2460DE098F8FC353BB140F6C412D8F88B
:1027D0000036FB1A934200F21F820A2004F0D2F85E
:1027E000FEF732FDDBF82C20D9F80430D9F80C4084
:1027F00050681C4406F018F9304B211A1B68324D02
:102800001A681846536800229847DBF82C302F4985
:102810001C68204606F0FEF830B120462C4906F030
:10282000DBF8002840F043821D4805F021F842F60D
:10283000F822D8F804360746C31A934284BF00230F
:102840008AF8FC35D8F8E83533B1D8F8083698421C
:1028500002D90023C8F8E8351E4803F041FD0546BB
:102860000028AFD101211B4803F0B8FB0028A9DBE9
:10287000D8F8F835D8F8E8450344072CC8F8F835F7
:1028800000F0128144BBFF2840F02281012207F1B1
:102890001403C8F8E825C8F80836DDE794020010EC
:1028A0005403001050020010FF0000807505001056
:1028B0007005001004020010980900105009001063
:1028C000000075434C090010E0000010000088C2B1
:1028D0000000884254020010012C00F00381022CF9
:1028E00000F04C81032C00F05381042C00F05A813D
:1028F000052C00F06681062C00F06B81082CABD112
:10290000BE4A00211A408A42C8F8E815C0F2CA81BE
:10291000FF2AA1D1D8F8F035002B00F017850A2B3B
:1029200000F09384062B00F086840B2B00F07A8451
:1029300008EB8303D3F8F443002C8DD02368B04A0E
:102940001B68934240F0FD8698F82051237D04F1E6
:102950000C02AB420592C0F05E842575002D00F09C
:102960003D87A84B00250293042300930BAB04F191
:10297000180E01930697029B009A9E183068019BDF
:1029800006F1030C18600B98071D042F08D9634645
:10299000C11C314413F8012F8B4203F8012CF9D1EB
:1029A0004FF000033218D370C4F81CC0F35D009FD1
:1029B000236256790C3043EA062323629679074452
:1029C00043EA06432362D679D4F828C043EA066373
:1029D0002362137A29016362567A009743EA06203C
:1029E0006062967A0CEB010340EA06406062D27A9C
:1029F000013540EA02606062DEF80070DEF80460D3
:102A0000DEF80800DEF80C204CF801705E6098607B
:102A1000DA60237DEDB2AB42ADD8009B069F1A1D54
:102A2000151D5E1C981CD91C434493F82031464464
:102A3000E36296F82061404443EA0623E36290F89B
:102A40002001414443EA0043E36291F820114244EB
:102A500043EA0163E36292F8206194F83030B342B4
:102A600004D27100606B03F0A5FA606384F83060F3
:102A7000B6B108EB0500002104F1320590F82121E0
:102A800090F82031023043EA022363862E88636B7C
:102A90004A1C23F8116094F83030D1B28B42EDD843
:102AA000A36B05989847D7E6D8F8F425D8F8EC3505
:102AB000511C013B4244C8F8F41582F82001C8F8C3
:102AC000EC35002B7FF4C8AE0823C8F8E835C3E620
:102AD0004D4804F0CDFEC01B05287FF6BDAE8AF838
:102AE000FC457AE6FE2868D098F8FC05C8F8E85559
:102AF00000287FF4B1AE0A24FF25444B2146FE2670
:102B000088F8254388F82053F7240825024688F8DA
:102B1000270388F8280388F8290388F82A0388F807
:102B20002B0388F82C0388F82D0388F82E0388F8E7
:102B3000230388F8260388F8216303F1090088F845
:102B4000225388F8244301E013F8011F83420A440A
:102B5000FAD1D2432E4C88F82F2304F10F05FF2120
:102B600001E014F8011F2B4804F048FEAC42F8D1F4
:102B7000254804F07DFECAF814016DE60323C8F869
:102B8000EC05C8F8F455C8F8F805C8F8E83563E668
:102B9000D8F8EC35042203EB0020C8F8EC05C8F89F
:102BA000E82559E6154A1A40002A21DBFF2A7FF45E
:102BB00050AE0523C8F8E8354EE60223C8F8E835DC
:102BC0004AE60623C8F8F005C8F8F805C8F8E8355D
:102BD00042E6D8F8F035D8F8EC2503EB00230721BE
:102BE000C8F8F035C8F8E815002A3FF46DAF33E6B1
:102BF000013A62F0FF020132D8E700BFFF00008017
:102C0000510C0000700300105403001075050010F3
:102C100070050010940200100A24FF256F4B00205D
:102C20002146FE2688F8254388F82053F7240825F6
:102C3000024688F8270388F8280388F8290388F8CB
:102C40002A0388F82B0388F82C0388F82D0388F8CA
:102C50002E0388F8230388F8260388F8216303F1FC
:102C6000090088F8225388F8244301E013F8011F73
:102C700083420A44FAD1D243594C88F82F2304F1F5
:102C80000F05FF2101E014F8011F564804F0B6FDBE
:102C9000AC42F8D1544804F0EBFDCAF80076CAF80B
:102CA00014019AE5013A62F0FF02013230E6039C1A
:102CB0000022206869680368DFF840A15B689847D4
:102CC000049E00223068A96803685B689847206802
:102CD0000022036869685B6898473068A9680368E0
:102CE00000225B689847414C0025DAF800305859BB
:102CF000043503689B69984780B9142DF5D13C4C85
:102D00003C4D04F1140654F8040B05F073FCA64284
:102D100045F8040BF7D10FB0BDE8F08FFEF794FA39
:102D2000DBF82C20D9F80430D9F80C6050681E4428
:102D300005F07AFE304B2D4D1B68311A1A68184683
:102D400056680022B04705F5827004F091FD42F606
:102D5000F822D4F804368046C31A934202D90023DD
:102D600085F8FC35D4F8E83533B1D4F80836984501
:102D700002D90023C4F8E8351C4D281D03F0B0FA31
:102D8000074678B194F8FC3543B140F6C412D4F844
:102D90000036C3EB0803934200F2D6810A2003F009
:102DA000F1FDA1E70121281D03F018F90028E9DB56
:102DB000D4F8F835D4F8E8650344072EC4F8F8359C
:102DC00000F00881E6B9FF2840F01881012208F1DF
:102DD0001403C4F8E825C4F80836CDE775050010DB
:102DE00070050010940200105403001050020010EF
:102DF000E00000101C01001050090010F801001044
:102E0000012E00F00781022E00F05481032E00F005
:102E10005B81042E00F06281052E00F06E81062E8B
:102E200000F07381082EA7D1C24A00211A408A42BD
:102E3000C4F8E815C0F2D181FF2A9DD1D4F8F0354D
:102E4000BD4E002B00F07C860A2B00F03482062B4E
:102E500000F06C840B2B00F0EA8104EB8303D3F8C1
:102E6000F453002D88D02B68B44A1B68934240F07D
:102E7000AF8494F820612B7D05F10C02B3420392DC
:102E8000C0F09F842E75002E00F0B084AC4B00265D
:102E90000193042300930BAB05F1180E0293CDF8B8
:102EA00010809DE80C009F183868029B07F1030C06
:102EB00018600B9800F10408B8F1040F08D96346B4
:102EC000C11C394413F8012F994203F8012CF9D1A0
:102ED0004FF000033A18D370C5F81CC017F808303B
:102EE00000F10C0C2B625779009843EA07232B6200
:102EF0009779604443EA07432B62D779009043EA0D
:102F000007632B62137AD5F828806B62577A3101F8
:102F100043EA07206862977A08EB010340EA07401A
:102F20006862D27A013640EA02606862DEF800C068
:102F3000DEF80470DEF80800DEF80C2048F801C066
:102F40005F609860DA602B7DF6B2B342A9D8009B2F
:102F5000DDF810801A1D161D5F1C981CD91C234417
:102F600093F820312744EB6297F82071204443EA1C
:102F70000723EB6290F82001214443EA0043EB620F
:102F800091F82011224443EA0163EB6292F8207128
:102F900095F83030BB42C0F00D8485F83070AFB189
:102FA000A019002105F1320690F8212190F8203176
:102FB000023043EA02236B8637886B6B4A1C23F886
:102FC000117095F83030D1B28B42EDD8AB6B0398CD
:102FD0009847D1E6D4F8F425D4F8EC35511C013BE0
:102FE0002244C4F8F41582F82001C4F8EC35002B13
:102FF0007FF4C2AE0823C4F8E835BDE605F582705B
:1030000004F036FCC8EB000005287FF6B5AE85F865
:10301000FC65C3E6FE286CD094F8FC35C4F8E8756E
:10302000002B7FF4A9AE0A201A4684F8273384F8CF
:10303000283384F8293384F82A3384F82B3384F82E
:103040002C3384F82D3384F82E3384F8233384F81A
:103050002633FE230146FF2684F8250384F8213316
:103060000820F72384F8243384F8206305F22533FD
:1030700084F8220305F22E3501E013F8011FAB425C
:103080000A44FAD1D2432F4D84F82F2305F10F07BC
:10309000FF2101E015F8011F274E06F1440004F05E
:1030A000ADFBBD42F6D106F5827004F0E1FBC6F837
:1030B000140161E60323C4F8EC05C4F8F475C4F800
:1030C000F805C4F8E83557E6D4F8EC35042203EBEC
:1030D0000020C4F8EC05C4F8E8254DE6154A1A406E
:1030E000002A21DBFF2A7FF444AE0523C4F8E8352B
:1030F00042E60223C4F8E8353EE60623C4F8F005AC
:10310000C4F8F805C4F8E83536E6D4F8F035D4F854
:10311000EC2503EB00230721C4F8F035C4F8E815CB
:10312000002A3FF467AF27E6013A62F0FF0201325E
:10313000D8E700BFFF00008050020010510C0000D3
:1031400070030010700500100A25FF269A4B00201E
:103150002946FE2784F8255384F82063F72508269E
:10316000024684F8270384F8280384F8290384F8A6
:103170002A0384F82B0384F82C0384F82D0384F8A5
:103180002E0384F8230384F8260384F8217303F1C3
:10319000090084F8226384F8245301E013F8011F26
:1031A00083420A44FAD1D243844D84F82F2305F197
:1031B0000F07FF2101E015F8011F814E06F14400C1
:1031C00004F01CFBAF42F6D106F5827004F050FB10
:1031D000C6F80086C6F81401E0E5013A62F0FF0285
:1031E000013229E6013A62F0FF020132FFF741B9EC
:1031F00000238AF8FC35FFF7FFB8724C00222068E4
:10320000D9F8001003685B6898476F4B03936F4BC6
:103210000493FFF7CCBA2901A06A02F0CBFEA062AA
:10322000FFF79BBB002388F8FC35FFF715BB002395
:1032300084F8FC35A0E5664901F59E60FDF7F4F9D8
:10324000012388F80C36FFF707BB624804F010FB37
:10325000D8F81441D8F82021D8F824315E4E041B48
:103260005C48551E1E4404F003FB5C4B5B49A3FB0A
:103270000432A1FB001E4FF47A73920903FB124142
:103280004FEA9E1E03FB1E0355482A4400FB0161C2
:1032900000FB13135349CEEB0202081FC8F81C3180
:1032A000C8F8182103F0A4F84A4804F0E1FAC8F875
:1032B0000406FFF7D1BA06F5827004F0D9FAD4F803
:1032C0002421D4F814514449D4F820311144451B29
:1032D00006F582705F1E009104F0CAFA3F4B3F4929
:1032E000A3FB0523A1FB001E4FF47A729B0902FB8E
:1032F00013554FEA9E1E02FB1E02009938483B44BC
:1033000000FB051100FB1212CEEB030306F58E71D4
:1033100006F58C70C4F81C21C4F8183103F068F865
:1033200006F5827004F0A4FAC4F8040624E52046E9
:1033300027499847FFF760B8254901F59E60FDF7DA
:1033400073F901238AF80C36FFF756B8264C8AF831
:103350002023FE220A2508268AF82123F72219466F
:103360008AF827338AF828338AF829338AF82A33E7
:103370008AF82B338AF82C338AF82D338AF82E33C7
:103380008AF823338AF8263328468AF82553A4F18D
:1033900009038AF822638AF8242301E013F8010F55
:1033A000A3420144FAD1C943044C88F82F1304F115
:1033B0000F05FF211CE000BF75050010700500100F
:1033C000500200104C09001098090010040200106F
:1033D000700300105403001000CA9A3BD34D6210D2
:1033E00040420F006C0300107E05001014F8011F0E
:1033F000C24804F003FAAC42F8D1C14804F038FAEC
:10340000C04BCAF814010193643300930697019AE4
:1034100052F8043F17460192002B00F09D80586837
:103420009D6802681C68926890473B680646586829
:103430000368DB6898473B6802901B69632B059320
:1034400004DD98F8FC35002B00F08680C5F30723D7
:1034500088F82833204688F8275306F084FE05466E
:103460000EAB43F8140D1868A74B2A462146186086
:10347000181D05F0F1FE304606F075FE03460EAA53
:1034800042F8100DA14C1068AA1D0A353146A05013
:103490001A466019079305F0DFFE029806F063FEF6
:1034A0000746079B0B900EAE2B4456F80C0D1D1DC6
:1034B000E0503A466019029905F0CEFE79190A1DCE
:1034C0005FFA82FEC2F3072C0EEB0C07FF430020CD
:1034D000414481F8270381F8290381F82A03034630
:1034E0000598022581F8285388F8247388F822E388
:1034F000C7B240F3072E6FF0010092B202F22631FC
:10350000FF25023C88F823C3414488F8205388F8FB
:10351000210388F8257388F826E301E014F8017F79
:103520008C423B44FAD1DB43D11D083289B292B2BE
:103530004144B2F5007F81F8203300F2F4825AB1A1
:1035400002F21F32724C08EB020514F8011F6B489F
:1035500004F054F9AC42F8D19DE80C0093427FF49A
:1035600056AF069F0597009B53F8040F0093002861
:1035700000F0A48090E8180081689A68029165497B
:103580008A4240F0B480644FDA6864498A4240F06D
:10359000A880634A01925B68624A934240F09E8031
:1035A000C66B632E04DD98F8FC35002B00F0868096
:1035B000C4F3072388F82833029888F8274306F0D5
:1035C000D2FD05460EAB43F8140D18684E4B2A4643
:1035D00018600299181D05F03FFE384606F0C3FD3D
:1035E00003460EAA42F8100D484C1068AA1D0A3571
:1035F0003946A0501A466019029305F02DFE019835
:1036000006F0B1FD0EAB1A460746029B0B9052F82E
:103610000C0D2B441D1DE050029260193A46019991
:1036200005F01AFE79190A1D5FFA82FEC2F3072C13
:103630000EEB0C07FF4300204144022592B281F8B3
:10364000285381F8270381F8290381F82A030346C8
:1036500002F22631FF2588F82473FE20F7B246F3E4
:103660000726023C88F822E388F823C3414488F8FF
:10367000205388F8210388F8257388F8266301E031
:1036800014F8017F8C423B44FAD1DB43D11D083250
:1036900089B292B24144B2F5007F81F8203300F242
:1036A00029845AB102F21F32194C08EB020514F8B2
:1036B000011F124804F0A2F8AC42F8D1009B1A4650
:1036C000194B9A427FF44FAF059F0123C8F800764B
:1036D000C8F8047688F8FC35FFF77FB898470646A7
:1036E0005FE79047009B01901868036853E7904795
:1036F000009B07461868036846E700BF9402001065
:10370000540300106C0700107905001077050010B5
:103710006F0500109502000084AF00009D020000BC
:10372000A0AF0000910200003408001006F590716F
:1037300006F5C260FCF778FF012384F80C36FFF72A
:103740001BBB2046CF499847FFF786B8CE4804F008
:103750008FF8DAF81441DAF82021DAF82431CB4E68
:10376000041BC948551E1E4404F082F8C84BC849C2
:10377000A3FB0432A1FB00174FF47A73920903FBF9
:103780001244BF0903FB1703C2482A4400FB04612B
:1037900000FB1313C049D21B081FCAF81C31CAF81A
:1037A000182102F025FEB84804F062F8CAF80406B1
:1037B000FEF722BE7900686B02F0FCFB6863FFF73E
:1037C000ECBB3101A86A02F0F5FBA862FFF75ABB17
:1037D00006F5907128469847FFF7CEBA08220721D0
:1037E0000620052604230C25FFF71EB90822072111
:1037F0000620052704230C26FFF7B1BBA74FA848D6
:10380000FDF7C8FE07F164030093CDF8148057F864
:10381000043F002B00F0A08058689D6802681C6877
:10382000926890473B68064658680368DB6898478B
:103830003B6801901B69632B029304DD9AF8FC3509
:10384000002B00F08980C5F307238AF8283320462F
:103850008AF8275306F087FC05460EAB43F8140D93
:103860001868904B2A4621461860181D05F0F4FC94
:10387000304606F078FC03460EAA42F8100D8A4C3A
:103880001068AA1D0A353146A0501A4660190693E1
:1038900005F0E2FC019806F066FC8046069B0B9062
:1038A0000EAE2B4456F80C0D1D1DE050424660191B
:1038B000019905F0D1FC08EB05010A1D5FFA82FEB3
:1038C000C2F307280EEB080C6FEA0C0C00205144E1
:1038D00081F8270381F8290381F82A030346029817
:1038E000022581F828538AF824C38AF822E340F39A
:1038F000072C5FFA80FE6FF0010092B202F22631CF
:10390000FF25023C8AF8238351448AF820538AF821
:1039100021038AF825E38AF826C301E014F801EFB1
:103920008C427344FAD1DB43D11D083289B292B282
:103930005144B2F5007F81F8203300F2CE825AB1B3
:1039400002F21F32594D0AEB020415F8011F5848C4
:1039500003F054FFA542F8D1009B9F427FF457AF7C
:10396000DDF81480CDF80880009B53F8040F009315
:10397000002800F0C78090E8180081689A680191DB
:103980004C498A4240F0CD82DFF83881DA684A49F2
:103990008A4240F0C082494F5B68494A934240F0F6
:1039A000B782C66B632E04DD9AF8FC35002B00F05D
:1039B000A980C4F307238AF8283301988AF827439B
:1039C00006F0D1FB05460EAB43F8140D1868354BD5
:1039D0002A4618600199181D05F03EFC404606F085
:1039E000C2FB03460EAA42F8100D2F4C1068AA1D08
:1039F0000A354146A0501A466019019305F02CFC87
:103A0000384606F0B0FB024639461746019B0B903C
:103A10000DF138082B4458F80C0D1D1DE0506019AD
:103A200005F01AFC79190A1D5FFA82FEC2F3072716
:103A30000EEB070C6FEA0C0C00205144022592B2E9
:103A400081F8285381F8270381F8290381F82A0394
:103A5000034602F22631FF20FE258AF822E35FFAB0
:103A600086FE46F30726023C8AF824C38AF82373AD
:103A700051448AF820038AF821538AF825E38AF80A
:103A8000266323E0700300105403001000CA9A3B21
:103A9000D34D621040420F006C0300106C07001001
:103AA0005002001079050010770500106F05001016
:103AB00094020010950200009D020000A0AF0000DB
:103AC0009102000084AF000014F801EF8C427344AF
:103AD000FAD1DB43D11D083289B292B25144B2F51A
:103AE000007F81F8203300F222825AB102F21F32A5
:103AF0007F4D0AEB020415F8011F7E4803F07EFE9D
:103B0000A542F8D1009B1A467B4B9A427FF42CAF1A
:103B1000DDF808800123CAF80086CAF804868AF80E
:103B2000FC35FEF730BC7549754803230B910D90A9
:103B30003246072173488DF83030FDF7C5FA0BE5A2
:103B400086F8273386F8283386F8293386F82A330F
:103B500086F82B3386F82C3386F82D3386F82E33EF
:103B600086F8233386F826331946FE230A2586F87D
:103B7000202386F821330822F72386F8243386F899
:103B8000255386F8222306F22E33284606F22536E0
:103B900001E016F8010FB3420144FAD1C9435A4E6D
:103BA00084F82F1306F10F07FF2101E016F8011F1B
:103BB000544D05F1440003F021FEBE42F6D105F557
:103BC000827003F055FE05F21C53019305F5B063B6
:103BD000C5F814010093CDF81080019A52F8043F03
:103BE0000192002B00F0B38058689E6802681D683F
:103BF00092689047019B07461B6858680368DB681A
:103C00009847019B02901B681B69632B039304DD9B
:103C100094F8FC35002B00F09A80C6F3072384F853
:103C20002833284684F8276306F09DFA06460EAB33
:103C300043F8140D1868354B324629461860181D94
:103C400005F00AFB384606F08EFA03460EAA42F843
:103C5000100D2F4D1068B21D0A363946A8501A466D
:103C6000A819059305F0F8FA029806F07CFA804648
:103C7000059B0B900EAF334457F80C0D1E1DE850FA
:103C80004246A819029905F0E7FA08EB06010A1D59
:103C90005FFA82FEC2F307280EEB080C6FEA0C0CE9
:103CA0000020214481F8270381F8290381F82A03A1
:103CB00003460398022681F8286384F824C384F815
:103CC00022E340F3072C5FFA80FE6FF0010092B20E
:103CD00002F22631FF26023D84F82383214484F832
:103CE000206384F8210384F825E384F826C313E0D5
:103CF0006F05001094020010340800107CAD000025
:103D000004B000005002001070050010790500108A
:103D10007705001015F801EF8D427344FAD1DB43AB
:103D2000D11D083289B292B22144B2F5007F81F8E8
:103D3000203300F2098152B102F21F32994EA518C8
:103D400016F8011F984803F059FDB542F8D19DE8D7
:103D50000C0093427FF441AFDDF81080CDF80C8069
:103D6000009B53F8040F0093002800F0A68090E811
:103D7000280081689A6802918C498A4240F0F48058
:103D8000DA688B49DFF84C828A4240F0F780894A32
:103D900001925B68884A934240F0E380C76B632FCF
:103DA00004DD94F8FC35002B00F08780C5F3072371
:103DB00084F82833029884F8275306F0D4F906468D
:103DC0000EAB43F8140D18687C4B3246186002990C
:103DD000181D05F041FA404606F0C5F903460EAA43
:103DE00042F8100D764D1068B21D0A364146A850B3
:103DF0001A46A819029305F02FFA019806F0B3F9B4
:103E00000EAB1A468046029B0B9052F80C0D3344C1
:103E10001E1DE8500292A8194246019905F01CFAAD
:103E200008EB06010A1D5FFA82FEC2F3072C0EEBB7
:103E30000C086FEA080800202144022692B281F89B
:103E4000286381F8270381F8290381F82A030346B0
:103E500002F22631FF26FE2084F822E35FFA87FE75
:103E600047F30727023D84F8248384F823C32144C1
:103E700084F8206384F8210384F825E384F826730A
:103E800001E015F801EFA9427344FAD1DB43D11DDB
:103E9000083289B292B22144B2F5007F81F8203312
:103EA00072D852B102F21F323E4EA51816F8011F09
:103EB0003D4803F0A3FCB542F8D1424B009A93422F
:103EC0007FF44EAFDDF80C800123C4F80086C4F8FF
:103ED000048684F8FC35FEF761BF3B493B48032369
:103EE0000B910D903246072139488DF83030FDF79F
:103EF000EBF831E53449354803230B910D90029AD4
:103F0000072133488DF83030FDF7DEF8FFF7D6BBD8
:103F10009847064646E59047009B074618680368A1
:103F20003AE59047009B8046186803682EE52649CD
:103F3000264803230B910D904246072124488DF813
:103F40003030FDF7C1F8DDE51F49204803230B9110
:103F50000D903A4607211E488DF83030FDF7B4F831
:103F6000F5E6984707461AE79047009B8046186891
:103F70000F490368DA688A423FF409AF9047009B13
:103F800001901868036804E70F49104803230B9158
:103F90000D90029A07210E488DF83030FDF794F805
:103FA0008BE700BF6F05001094020010950200001F
:103FB0009D020000A0AF00009102000079050010F2
:103FC00077050010340800107CAD000004B000003C
:103FD0005002001084AF00002DE9F041064611C8E0
:103FE000251AAD10884605D06B009D4226D96FF08A
:103FF000030500E00425284603F0E7FD074696E8A0
:104000001100241AE742D8F8003003D03B5196E85B
:104010001100241AA3080AD104343C4408B103F067
:10402000D2FD3D44B56037607460BDE8F081014663
:104030002246384605F01BF93068EDE7B3F1804FB2
:10404000D5D213B91D461F46DBE7ED00D3E700BF0D
:1040500038B543688468A34207D0024609680BB1AB
:10406000196043680433536038BDFFF7B5FF38BDAE
:104070002DE9F04F8FB00EAB1A469C4B9C481B6845
:1040800042F80C3D144611460192FFF7E1FF994BAF
:1040900021461B6896480B93FFF7DAFF964B2146A3
:1040A0001B6893480B93FFF7D3FF944B21461B6883
:1040B0008F480B93FFF7CCFF914B21461B688C4830
:1040C0000B93FFF7C5FF8F4B181DD3F8001103F0BA
:1040D0001BFB002213468C49A1F5B0608A66C0F82C
:1040E000EC25C0F8F425C0F8F02551F8042F1AB1DA
:1040F0000133192BF9D107E08249844A01EB83018E
:104100006433C1F884255360814D2023802085F8D5
:10411000243001F049FF04467E4AE862002352F849
:10412000041F19B10133192BF9D108E07A4A7548F7
:1041300003F5A4717D33D06040F821209360754A67
:10414000002352F8041F19B10133192BF9D108E0EB
:10415000724A6C4803F5A4717D33D06040F8212089
:104160009360DFF8DCA1052314208AF8243001F0E5
:104170001BFF684ACAF82C00002352F8041F29B11B
:104180000133192BF9D1664B06930AE0644A5D4D61
:104190001046069203F5A4727D33C56045F82200EF
:1041A0008360231F00227C3443F8042FA342FBD1F9
:1041B000FDF7C6F9FEF78AF85A4A5B4B03925B4A51
:1041C00007930292A3F5487B594B1C68002C40F0E2
:1041D0002C81039B186803F063FE029D0646286845
:1041E0000F4603F06FFE02460B463046394603F099
:1041F0000BFD04F0F5F84B4B06461A4603932B468D
:1042000018604A4B914602931D462CE059F8040F62
:1042100003F046FE064668680F4603F053FE02466A
:104220000B463046394603F0EFFC04F0D9F8064659
:10423000404B6E6053F8080004F0DCF90746014675
:10424000304604F0E7FB08B13E466F603A4B53F846
:10425000080004F0CFF93146074604F0DBFB08B153
:104260003E466F600435224B30461B684FEA840897
:1042700053F8246004F0D8FB336801465B6830468D
:10428000002298471A4BDAF82C601B6808F10408E2
:1042900053F8240003681B6A984746F82400013449
:1042A000052CB3D1069A25499368D76804931A461A
:1042B0003B681B688B427FD1632A03DD97F8FC358E
:1042C000002B7DD09AF80830002687F8273387F82E
:1042D000286387F8296387F82A6307F22738002BB9
:1042E00000F057834FF00409059756E04C09001081
:1042F000F801001098090010040200105009001085
:104300009C08001050020010D0070010F8080010A0
:10431000C80100106C0700100802001038090010D6
:104320008409001088080010700500101C0100109E
:104330004C020010F4000010CC000010C910000066
:104340001C020010606805F00EFF0746019B0B90F1
:1043500018683A4648F809006168281D04F07CFF97
:10436000A2683D442A71A26807F10C00120A6A7122
:104370006289AA71E27AEA71E2682A72E268120A34
:104380006A72E289AA72E27BEA7201369AF8082020
:10439000F6B2B242814440F21E82DAF81C40320189
:1043A000A158BD4B14440A6808EB09059A42C9D0CC
:1043B000294620469047E8E704993846B74A984787
:1043C000B74803F055FA42F6F822B64B8146D3F8C7
:1043D0000436C31A934284BF00238BF8FC35B14BDB
:1043E000D3F8E83533B1DBF80836984284BF0023B0
:1043F000CBF8E835AB4C201D01F072FF0546B8B193
:10440000A84B93F8FC3543B140F6C412DBF80036F4
:10441000C3EB0903934200F26E821E2002F0B2FA4F
:10442000A14B1C68002C3FF4D4AEFDF74FFFCBE648
:104430000121201D01F0D2FD0028E1DBDBF8F83579
:10444000DBF8E8650344072ECBF8F83500F003816C
:1044500056B9FF2840F01481012209F11403CBF86A
:10446000E825CBF80836C5E7012E00F02581022E9D
:1044700000F07281032E00F07981042E00F080811B
:10448000052E00F08E81062E00F09381082EB1D10A
:10449000864A00211A40834B8A42C3F8E815C0F2CD
:1044A0007382FF2AA6D17F4B7E4DD3F8F035002BC7
:1044B00000F0D9830A2B00F07E82062B00F01B83CC
:1044C0000B2B00F074820BEB8303D3F8F443002C26
:1044D00090D02368764A1B68934240F0B7859BF8DA
:1044E0002051237D04F10C02AB42049204D2290135
:1044F000A06A01F05FFDA0622575002D00F03B86EB
:10450000CDF81490DDF80490002704F11806042576
:10451000684B03EB050EDEF800000EF10308C9F846
:1045200000000B9800F1040CBCF1040F08D94346BD
:10453000C11C714413F8012F994203F8012CF9D1E1
:104540004FF000030EEB0002D370C4F81C801EF87D
:104550000C300C30236292F805C0054443EA0C236A
:10456000236292F806C0D4F828E043EA0C432362A1
:1045700092F807C0390143EA0C632362137A0137CA
:10458000636292F809C0FFB243EA0C20606292F8BD
:104590000AC00EEB010340EA0C406062D27A40EAA6
:1045A00002606062D6F80080D6F804C0B068F26895
:1045B0004EF80180C3F804C09860DA60237DBB42E6
:1045C000A6D82A1DDDF81490161D6F1CA81CE91C26
:1045D000344B1D4495F82031324DE3622F4497F857
:1045E0002051304F43EA0523E362384490F820011C
:1045F000394443EA0043E36291F820113A4443EA24
:104600000163E36292F8205194F83030AB4204D257
:104610006900606B01F0CEFC606384F83050B5B186
:10462000204B04F132059819002190F8212190F8CF
:104630002031023043EA022363862E88636B4A1CD2
:1046400023F8116094F83030D1B28B42EDD8A36BCF
:1046500004989847CEE6DBF8F425DBF8EC35511CDE
:10466000013B5A44CBF8F41582F82001CBF8EC3525
:10467000002B7FF4BFAE0B4A0823C2F8E835B9E639
:1046800004F5827003F0F4F8C9EB000005287FF60A
:10469000B1AE84F8FC65C0E6AD0200001C0200105B
:1046A00054030010500200104C020010FF00008064
:1046B000510C000070030010FE286ED09BF8FC35F2
:1046C000CBF8E855002B7FF495AE0A201A468BF8FC
:1046D00027338BF828338BF829338BF82A338BF860
:1046E0002B338BF82C338BF82D338BF82E338BF840
:1046F00023338BF82633FE230146FF258BF8250351
:104700008BF821330820F7238BF824338BF82053C0
:1047100004F225338BF8220304F22E3401E013F85F
:10472000011F9C420A44FAD1D24307990C46CA732E
:1047300001F10F06FF2101E014F8011FBB4D05F147
:10474000440003F05BF8B442F6D105F5827003F043
:104750008FF8C5F814014DE60323CBF8EC05CBF830
:10476000F455CBF8F805CBF8E83543E6DBF8EC3543
:10477000042203EB0020CBF8EC05CBF8E82539E662
:10478000AB4A1A40002AC0F2B180FF2AA74A0CBFE8
:1047900005230023C2F8E8352CE60223CBF8E835E0
:1047A00028E60623CBF8F005CBF8F805CBF8E8357A
:1047B00020E69E4B9D4AD3F8F035D2F8EC2503EB6A
:1047C00000239A480721C0F8F035C0F8E815002A00
:1047D0003FF451AF0EE64946081DCA1D059F031D53
:1047E0004E1D8D1D059209F1010901F1020C01F127
:1047F000030E9AF82040002208F80140DAF8201051
:10480000090A08F80910BAF8221008F80C109AF8EA
:10481000231008F80E109AF8241008F800100599D3
:1048200008F8062008F8052008F801209AF8241056
:10483000B1B108EB0300DAF82C10541C51F8221027
:10484000E2B208F803100D0A0C0C090E45708470D2
:10485000C1709AF824100433914200F10400EAD8A0
:10486000DDB2C3F307202918C943049E9BB287F821
:104870002413FF2107F2253487F8225387F82303F6
:1048800003F22635FE2087F82013F1B246F30726FF
:1048900087F8210322463D4487F8251387F82663CD
:1048A000002001E012F8011FAA420844FAD1C043D7
:1048B000DA1D083392B29BB23A44B3F5007F82F816
:1048C000200300F2BF8007F54874002B3FF478AD59
:1048D000013B07F144051C4407F21F3717F8011F7D
:1048E000284602F08BFFA742F8D169E5013A62F051
:1048F000FF02013249E70024FF2522464D4B8BF889
:1049000027438BF828438BF829438BF82A438BF8ED
:104910002B438BF82C438BF82D438BF82E438BF8CD
:1049200023438BF82643FE240A208BF820538BF870
:1049300021430825F72401468BF825038BF82253E1
:1049400003F109008BF8244301E013F8011F98429A
:104950000A44FAD1D24307990D46CA7301F10F04F4
:10496000FF2101E015F8011F304E06F1440002F06E
:1049700045FFAC42F6D106F5827002F079FFC6F829
:104980000096C6F8140148E5013A62F0FF020132D0
:1049900087E50B23059308204FF0070E4FF0060C18
:1049A0004FF0050904210C230A25092621E70023DD
:1049B0008BF8FC351EE505F5827002F059FFDBF837
:1049C0001441DBF82021DBF824311B4F041B05F5D3
:1049D0008270561E1F4402F04BFF184B1749A3FB71
:1049E0000432A1FB001E4FF47A73920903FB1244B8
:1049F0004FEA9E1E03FB1E031148324400FB047164
:104A000000FB1313CEEB020205F58E7105F58C70D9
:104A1000CBF81C31CBF8182101F0EAFC05F58270C7
:104A200002F026FFCBF80406E4E400BF50020010B9
:104A3000FF0000807505001000CA9A3BD34D62103C
:104A400040420F00A34B03220B93A34B8DF8302061
:104A50000D933B68A1491B688B4240F09483382337
:104A60000A930A989C4D87F82723C7F8280305F175
:104A7000300C07F54B76AE46BEE80F00E6453060D9
:104A80007160B260F36005F1100506F11006F2D115
:104A900003CD30607160FF20FE214FF0000E07252E
:104AA00087F8200387F821133D20C22187F82413BB
:104AB00073462A4687F823E387F826E387F82553C9
:104AC00087F8220307F2633101E014F8012FA142B5
:104AD0001344FAD1DB4307F1440487F8643307F247
:104AE0001F3507F5597715F8011F204602F086FE9D
:104AF000BD42F8D164E49BF820419BF81436A342F0
:104B000006D2A100DBF81C0601F054FACBF81C0613
:104B1000734B83F81446002C00F09E821D46042639
:104B2000002495F8263195F8251195F824211B04C9
:104B300043EA012395F827111343694A43EA0163C5
:104B4000C2F81836D2F81806D2F81C36043643F8E4
:104B5000240092F814360134E4B2A34205F10405AE
:104B6000DFD8351D2C465E4B1E4496F8206193F825
:104B70002036B34206D2B100DBF8280601F01AFA5B
:104B8000CBF82806564B83F820661EB30BEB0406C1
:104B9000002596F8223196F8211196F820211B0461
:104BA00043EA012396F8231113434D4A43EA016374
:104BB000C2F82436D2F82406D2F82836043443F852
:104BC000250092F820360135EDB2AB4206F104061D
:104BD000DFD82546424B1D4495F8205193F82C36DA
:104BE000AB4206D2A900DBF8340601F0E3F9CBF8BA
:104BF00034063B4B043483F82C5675B30027BE466D
:104C0000DDF804C0374B261D1859CCF800000B9D69
:104C10003544AE4209D2324604F223135B4459783C
:104C20000132AA4203F8011BF9D32E4A731E134422
:104C3000A2F590722A4482F81FE1294A2C46C2F854
:104C40003036D2F83006D2F8343643F8270092F8DE
:104C50002C360137FFB2BB42D4D8214A012382F857
:104C60000C36FFF7C7BB85F8273385F8283385F85E
:104C7000293385F82A3385F82B3385F82C3385F8CA
:104C80002D3385F82E3385F8233385F826331946DE
:104C9000FE230A2485F8202385F821330822F723F0
:104CA00085F8243385F8254385F8222305F22E3331
:104CB000204605F2253501E015F8010F9D4201441B
:104CC000FAD1C943084EA6F10F03D97307931D46C5
:104CD000FF210DE07CAD000004B00000C910000011
:104CE00050020010700300107F05001015F8011F1E
:104CF000CA4C04F1440002F081FDB542F6D104F53E
:104D0000827002F0B5FD04F55973C4F8140104F281
:104D10001C58049358F8043F002B00F0AB805868EF
:104D20009A680168059289681F688847D8F800303A
:104D3000064658680368DB689847D8F80030044690
:104D40001D69059A632D05DDB44B93F8FC35002BE6
:104D500000F09080B149C2F3072381F8272381F83E
:104D60002833384605F0FFF9034609900998AC4A04
:104D7000394610601A46AB48059304F06DFA304688
:104D800005F0F1F9059B0A90074631460A98A64EB0
:104D90009A1DB05030460A333A461844059304F041
:104DA0005BFA204605F0DFF90646019A0B90059B59
:104DB00010689D4A3B441F1DD0509B4B21463246F4
:104DC000D81904F049FAF3191C1DE1B2C4F30726FF
:104DD0008F196FEA070C914F00203B444FF0020EF1
:104DE00083F828E383F8270383F8290383F82A0349
:104DF0003B4687F824C383F8221383F82363A4B2C5
:104E000003F225336FF4497C03EB0C06E9B202464A
:104E10004FF0FF0E04F22630FE2745F307253044FD
:104E200086F820E386F8217386F8251386F8265342
:104E300001E013F8011F83420A44FAD1D243E11D75
:104E400004F10803754889B29BB20144B3F5007FB1
:104E500081F8202300F2048163B103F21F3300F2D2
:104E60001F340BEB030514F8011F704802F0C6FC59
:104E7000A542F8D16E4B98457FF44CAF1C4654F8D0
:104E8000040F002800F0AE8090E8080169499A6894
:104E900087688A4240F0BC80674EDA6867498A4278
:104EA00040F0B180664D5B68664A934240F0A8804E
:104EB000C36B632B05DD594A92F8FC25002A00F0EC
:104EC00091800493554BC8F3072283F8278383F816
:104ED0002823384605F047F980460990504B099839
:104EE000394618604246181D04F0B6F9304605F000
:104EF0003AF907460A904C4B0A9808F1060208F165
:104F00000A08985031463A4603EB080004F0A4F929
:104F1000284605F028F90646019B0B901868B8440E
:104F2000414B08F10407294643F808003246D819D6
:104F300004F092F9F1190D1D5FFA85FCC5F30726FF
:104F40000CEB0607FF43354B002019444FF0020ECF
:104F500081F828E381F8270381F8290381F82A03DF
:104F600083F8247383F822C3049BADB2D9B243F310
:104F7000072C2A4B024683F8236303F225336FF490
:104F800049769E1905F226304FF0FF0EFE27304479
:104F900086F820E386F8217386F8251386F826C361
:104FA00001E013F8011F83420A44FAD1D243E91DFC
:104FB00005F10803194889B29BB20144B3F5007F9B
:104FC00081F8202300F2918063B103F21F3300F2D5
:104FD0001F350BEB030615F8011F144802F00EFCF9
:104FE000B542F8D1184B9C427FF449AF0B4A0123DC
:104FF000C2F80096C2F8049682F8FC35FFF70DBAA5
:105000009847034655E790470546206803684AE7F6
:1050100090470646206803683FE700BF5002001033
:10502000790500107D05001077050010940200102E
:10503000D00700109502000084AF00009D02000020
:10504000A0AF0000910200003408001005F5907137
:1050500020469847FFF7CEB908252C46042682E55E
:105060004C4D4D4C0FCD0FC40FCD0FC40FCD0FC401
:1050700095E8030003238BF827333823CBF8283334
:10508000FF2384E803008BF82033FE238BF82133C1
:105090003D238BF8223300274FF0070EC22304EB89
:1050A0000E023E46F446373C8BF823738BF826738A
:1050B0008BF825E38BF8243301E014F801CF9442F8
:1050C0006644FAD1F643354CFF2184F8446001E090
:1050D00014F8011F324802F091FB049B9C42F7D167
:1050E000304B98457FF416AEC8E62A4E2A4D0FCEB7
:1050F0000FC50FCE0FC50FCE0FC596E803000323D3
:105100008BF827333823CBF82833FF2385E80300B7
:105110008BF82033FE238BF821333D238BF8223389
:105120004FF0000E4FF0070CC22305EB0C02774640
:10513000E046373D8BF823E38BF826E38BF825C355
:105140008BF8243301E015F8018FAA424744FAD1C5
:10515000FF43124DFF2185F8447001E015F8011F4F
:105160000F4802F04BFB104B9D42F7D10F4B9C4276
:105170007FF485AE3AE7082207210620052704259B
:105180000C26FFF725BA3846019A07219847FFF702
:1051900017B900BF04B000007C05001070050010B6
:1051A00094020010D0070010B4050010340800105D
:1051B00010B50446074B403003F1180103F14C02CF
:1051C00023602164626402F007FB204602F0FBFCCE
:1051D000204610BD04B40000A0F14000E8E700BF85
:1051E000A0F14400E4E700BFF8B5764B002518466F
:1051F000754A76491D605D609D6002F0DFFC6420A9
:1052000002F0E3FC0446724A7249012300F020FCDC
:10521000714B64201C6002F0D8FC04466C4A6D4956
:10522000022300F015FC6D4B64201C6002F0CDFCE5
:105230000446674A6749032300F00AFC684B642070
:105240001C6002F0C2FC0446614A6249042300F07B
:10525000FFFB644B64201C6002F0B7FC074605238B
:105260005B4A5C49604E614C00F06EFE2B46604A22
:1052700060496148376002F0F7F9534A5F495E4878
:1052800002F09CFC20465E4A5A492B4640F8042B0B
:10529000574A00F0FBFF04F5827002F0CDFA4FF49C
:1052A0006143C4F8003104F5827002F0D5FA294652
:1052B000544B84F8FC55C4F8103684F81456C4F8DE
:1052C0001C5684F82056C4F8285684F82C56C4F886
:1052D000345604F21C5204F5B06342F8041F9342A2
:1052E000FBD14949002243F8042F9942FBD1474A98
:1052F000002102F5007302F8011F9342FBD14449DB
:10530000002203F8012F8B424FF00004F9D12E4AFE
:105310004049364802F052FC3F4E404B4049414A1A
:10532000414F9E630126414D41481960DA60414971
:10533000414ADE639F60414E414FDFF81CE15560FA
:10534000147216607A60C7F800E0D0601161546191
:105350009461D461146282F82440D4623C61394A79
:10536000394FDFF8F8E01C751C625C629C62DC62FD
:1053700083F830405C631D619861D961334B1660DE
:1053800055601472D06011617A6054619461D46187
:10539000146282F82440D4623C612D4AC7F800E0D0
:1053A0002C4F1C7283F824401E605D60D860196128
:1053B0005C619C61DC611C62DC625360146117609B
:1053C000F8BD00BFF8010010C800001089070000F8
:1053D00010C009200FC009204C09001098090010C6
:1053E00004020010500900109C0800105002001028
:1053F00003C0092002C00920A0080010990700007E
:105400000CAE000094AD0000340800106F030010D3
:105410006F0700106154000065020000F8080010DA
:1054200020AE0000DCAD000040B00000C4AD0000C4
:10543000ACAD00003CB00000C8010010F4AD0000AD
:105440000802001054090010380900101C02001056
:105450008409001064B000004CB0000058B0000097
:1054600010B50446034B40F8043B00F0B1FE204663
:1054700010BD00BF0CAE000038B504460D4672B634
:10548000806D01F021FE2946204602F0E7F804F184
:10549000400002F0BFF900210546A06D01F030FB8D
:1054A00062B6284638BD00BFA0F14000FFF7E4BF58
:1054B00002F0CEB8A0F14000FFF7FABF10B50446E5
:1054C000064B403003F1180103F14C0223602164C4
:1054D000626402F081F9204610BD00BF04B40000F0
:1054E000A0F14000EAE700BFA0F14400E6E700BFFA
:1054F00010B50446074B403003F1180103F14C028C
:1055000023602164626402F067F9204602F05BFBCD
:10551000204610BD04B40000A0F14000E8E700BF41
:10552000A0F14400E4E700BF38B504460D4602F0A0
:105530009BF80B4BA56503F1200203F108015433DE
:10554000226463642160284601F09CFAA06D022168
:1055500001F0F2FAA06D002101F0D2FA204638BD28
:105560008CB000000000000070B521F0004384B052
:10557000044618460E4602F0A5FC11A3D3E9002309
:1055800002F0F4FC02F004FF00210546304603F06F
:1055900023FA08B145F4806503A8002623686168F2
:1055A0008DE841002A128DF80C508DF80D201D6CED
:1055B000204602232022A84704B070BDAFF300802C
:1055C0000000000000F88F4070B50E4BC1EB0131B8
:1055D00083FB013284B0CB170026114403ADC3EB2B
:1055E0002123026841688DE8600043F307248DF8A9
:1055F0000C308DF80D400223146C0622A04704B035
:1056000070BD00BFB7600BB670B50E4BC1EB01317A
:1056100083FB013284B0CB170026114403ADC3EBEA
:105620002123026841688DE8600043F307248DF868
:105630000C308DF80D400223146C0822A04704B0F2
:1056400070BD00BFB7600BB610B584B004AB03F8F3
:10565000042D0468002200930192246C012303228C
:10566000A04704B010BD00BF10B584B0036803AA02
:1056700041680092DC6B2E220123A0479DF80C00AC
:1056800004B010BD10B584B0036803AA416800924D
:10569000DC6B24220223A0479DF80D009DF80C30FE
:1056A0004FF4B47203EB00231BB202FB03F3054A71
:1056B000D81782FB03121344C0EBE32002F09AFFD9
:1056C00004B010BD8100088010B584B0036803AA3F
:1056D00041680092DC6B2B220123A0479DF80C004F
:1056E00002F084FF04B010BD10B584B0036803AAB3
:1056F00041680092DC6B2A220123A0479DF80C0030
:1057000002F0CEFB0022034B02F05AFD02F068FECD
:1057100004B010BD0000244010B584B0036803AA93
:1057200041680092DC6B44220223A0479DF80C30B4
:105730009DF80D0003EB0020A0F6FF0002F0B0FB87
:1057400005A3D3E9002302F011FC02F049FE04B0E6
:1057500010BD00BFAFF300803BDF4F8D976E723FEF
:1057600010B584B004AB03F8041D0468002241683E
:1057700000930192246C01231822A04704B010BDAD
:105780000B4670B50D4984B00446184602F086FFFA
:1057900003F04AF9002603AD616823688DE86000D4
:1057A00080B240F307228DF80C008DF80D202046C2
:1057B00022221C6C0223A04704B070BD00C07F44AD
:1057C00010B584B004AB02EB410203F8042D0024B1
:1057D000026841688DE818000123146C0A22A04772
:1057E00004B010BDF0B5FF2385B002250424FE27C8
:1057F000FB228DF803508DF80440194600F148064D
:105800008DF800308DF801308DF802708DF805208C
:105810006C460DF1050501E014F8011F304601F05A
:10582000EDFFAC42F8D105B0F0BD00BF2DE9F0416D
:10583000DCB2D2B21F46A31DCDB213442B44804626
:10584000DB4388B0FF208DF802504FF0FE0E042598
:105850008DF8052002228DF806408DF80350014690
:105860008DF8073008F148068DF800008DF801002A
:105870008DF814E08DF804206C460DF1070501E069
:1058800014F8011F304601F0B9FFAC42F8D11548B9
:1058900001F06CF8D8F80400FE281ED005371FD49C
:1058A0000DF10F050024304601F0B4FF0134BC4275
:1058B00005F8010FF7DD9DF814009DF81340022C48
:1058C0000BDD08AB0E9A1C440E3C05AB013A13F8F5
:1058D000011F9C4202F8011FF9D108B0BDE8F08118
:1058E000FE20EAE7ACC5A7372DE9F041DE1C86B003
:1058F000C9B2F6B20D9F8C19012FE4B28DF80A10CF
:105900000CBF211DE11CD2B2C9B24FF0FF0E0546FB
:1059100011440CBF04200320002B8DF80B608DF880
:1059200008E08DF809E00C9E8DF80C00C9B28DF8E6
:105930000D200DDD00200246B45C0132D2B206AF6C
:1059400038442144934200F80A4CC9B21046F3DCB3
:10595000C9439E1D06AB3344002E03F8101C0CDB1C
:1059600005F148080DF107070024013417F8011F5D
:10597000404601F043FFA642F7DA0C4800F0F6FF7C
:105980006B680020FE2B8DF804000CD06C46483567
:105990000DF10606284601F03DFF04F8010BA64272
:1059A000F8D19DF8040006B0BDE8F081ACC5A7377A
:1059B000F0B5A2F10207B7FA87F7174BC1EB013137
:1059C000154683FB013285B0CB1703AE11447F0926
:1059D000C3EB2123026841688DE8C00043F307262A
:1059E0008DF80C308DF80D600223166C1E220446D3
:1059F000B047012D064602D0304605B0F0BD236801
:105A000020469B6998470028F6D0236820469B696A
:105A100098470028F3D1EFE7B7600BB60368012978
:105A200010B54FF000010446DB680DD0984723689D
:105A30004FF4B4711B6920469847236820469B6841
:105A400000219847002010BD984723680021F1E706
:105A500070B5044605461E460648002344F8080B68
:105A60002046FFF761FD2046034901F04DFE6E60C0
:105A7000284670BDF0B0000040420F00000000005A
:105A800070B521F0004384B0044618460E4602F07B
:105A900019FA11A3D3E9002302F068FA02F078FCA6
:105AA00000210546304602F097FF08B145F48065B5
:105AB00003A80026236861688DE841002A128DF84A
:105AC0000C508DF80D201D6C204602232022A84783
:105AD00004B070BDAFF300800000000000F88F40FC
